:020000040000fa
:080000000002040000000000f2
:020000040000fa
:04000800de03000013
:020000040000fa
:04000c00de0300000f
:020000040000fa
:04001000de0300000b
:020000040000fa
:04001400de03000007
:020000040000fa
:04001800de03000003
:020000040000fa
:04001c00de030000ff
:020000040000fa
:04002000de030000fb
:020000040000fa
:04002400de030000f7
:020000040000fa
:04002800de030000f3
:020000040000fa
:04002c00de030000ef
:020000040000fa
:04003000de030000eb
:020000040000fa
:0400340002030000c3
:020000040000fa
:04003800de030000e3
:020000040000fa
:04003c00de030000df
:020000040000fa
:04004000de030000db
:020000040000fa
:04004400de030000d7
:020000040000fa
:04004800fa020000b8
:020000040000fa
:04004c00de030000cf
:020000040000fa
:04005000de030000cb
:020000040000fa
:040054009a0300000b
:020000040000fa
:040058007003000031
:020000040000fa
:04005c004c03000051
:020000040000fa
:04006000de030000bb
:020000040000fa
:04006400de030000b7
:020000040000fa
:04006800de030000b3
:020000040000fa
:04006c00de030000af
:020000040000fa
:04007000de030000ab
:020000040000fa
:04007400de030000a7
:020000040000fa
:04007800de030000a3
:020000040000fa
:04007c00de0300009f
:020000040000fa
:04008000de0300009b
:020000040000fa
:04008400de03000097
:020000040000fa
:04008800de03000093
:020000040000fa
:04008c00de0300008f
:020000040000fa
:04009000de0300008b
:020000040000fa
:040094002203000043
:020000040000fa
:04009800de03000083
:020000040000fa
:04009c00de0300007f
:020000040000fa
:0400a000de0300007b
:020000040000fa
:0400a400de03000077
:020000040000fa
:0400a800de03000073
:020000040000fa
:0400ac00de0300006f
:020000040000fa
:0400b000de0300006b
:020000040000fa
:0400b400de03000067
:020000040000fa
:0400b800de03000063
:020000040000fa
:0400bc00de0300005f
:020000040000fa
:0400c000de0300005b
:020000040000fa
:0400c400de03000057
:020000040000fa
:0400c800de03000053
:020000040000fa
:0400cc00de0300004f
:020000040000fa
:0400d000de0300004b
:020000040000fa
:0400d400de03000047
:020000040000fa
:0400d800de03000043
:020000040000fa
:0400dc00de0300003f
:020000040000fa
:0400e000de0300003b
:020000040000fa
:0400e400de03000037
:020000040000fa
:0400e800de03000033
:020000040000fa
:0400ec00de0300002f
:020000040000fa
:0400f000de0300002b
:020000040000fa
:0400f400de03000027
:020000040000fa
:0400f800de03000023
:020000040000fa
:0400fc00de0300001f
:020000040000fa
:04010000de0300001a
:020000040000fa
:04010400de03000016
:020000040000fa
:04010800de03000012
:020000040000fa
:04010c00de0300000e
:020000040000fa
:04011000de0300000a
:020000040000fa
:04011400de03000006
:020000040000fa
:04011800de03000002
:020000040000fa
:04011c00de030000fe
:020000040000fa
:04012000de030000fa
:020000040000fa
:04012400de030000f6
:020000040000fa
:04012800de030000f2
:020000040000fa
:04012c00de030000ee
:020000040000fa
:04013000de030000ea
:020000040000fa
:04013400de030000e6
:020000040000fa
:04013800de030000e2
:020000040000fa
:04013c00de030000de
:020000040000fa
:04014000de030000da
:020000040000fa
:04014400de030000d6
:020000040000fa
:04014800de030000d2
:020000040000fa
:04014c00de030000ce
:020000040000fa
:04015000de030000ca
:020000040000fa
:04015400de030000c6
:020000040000fa
:04015800de030000c2
:020000040000fa
:04015c00de030000be
:020000040000fa
:04016000de030000ba
:020000040000fa
:04016400de030000b6
:020000040000fa
:04016800de030000b2
:020000040000fa
:04016c00de030000ae
:020000040000fa
:04017000de030000aa
:020000040000fa
:04017400de030000a6
:020000040000fa
:04017800de030000a2
:020000040000fa
:04017c00de0300009e
:020000040000fa
:04018000de0300009a
:020000040000fa
:04018400de03000096
:020000040000fa
:04018800de03000092
:020000040000fa
:04018c00de0300008e
:020000040000fa
:04019000de0300008a
:020000040000fa
:04019400de03000086
:020000040000fa
:04019800de03000082
:020000040000fa
:04019c00de0300007e
:020000040000fa
:0401a000de0300007a
:020000040000fa
:0401a400de03000076
:020000040000fa
:0401a800de03000072
:020000040000fa
:0401ac00de0300006e
:020000040000fa
:0401b000de0300006a
:020000040000fa
:0401b400de03000066
:020000040000fa
:0401b800de03000062
:020000040000fa
:0401bc00de0300005e
:020000040000fa
:0401c000de0300005a
:020000040000fa
:0401c400de03000056
:020000040000fa
:0401c800de03000052
:020000040000fa
:0401cc00de0300004e
:020000040000fa
:0401d000de0300004a
:020000040000fa
:0401d400de03000046
:020000040000fa
:0401d800de03000042
:020000040000fa
:0401dc00de0300003e
:020000040000fa
:0401e000de0300003a
:020000040000fa
:0401e400de03000036
:020000040000fa
:0401e800de03000032
:020000040000fa
:0401ec00de0300002e
:020000040000fa
:0401f000de0300002a
:020000040000fa
:0401f400de03000026
:020000040000fa
:0401f800de03000022
:020000040000fa
:0401fc00de0300001e
:020000040000fa
:04020000de03000019
:020000040000fa
:04020400de03000015
:020000040000fa
:04020800de03000011
:020000040000fa
:04020c00de0300000d
:020000040000fa
:04021000de03000009
:020000040000fa
:04021400de03000005
:020000040000fa
:04021800de03000001
:020000040000fa
:04021c00de030000fd
:020000040000fa
:04022000de030000f9
:020000040000fa
:04022400de030000f5
:020000040000fa
:04022800de030000f1
:020000040000fa
:04022c00de030000ed
:020000040000fa
:04023000de030000e9
:020000040000fa
:04023400de030000e5
:020000040000fa
:04023800de030000e1
:020000040000fa
:04023c00de030000dd
:020000040000fa
:04024000de030000d9
:020000040000fa
:04024400de030000d5
:020000040000fa
:04024800de030000d1
:020000040000fa
:04024c00de030000cd
:020000040000fa
:04025000de030000c9
:020000040000fa
:04025400de030000c5
:020000040000fa
:04025800de030000c1
:020000040000fa
:04025c00de030000bd
:020000040000fa
:04026000de030000b9
:020000040000fa
:04026400de030000b5
:020000040000fa
:04026800de030000b1
:020000040000fa
:04026c00de030000ad
:020000040000fa
:04027000de030000a9
:020000040000fa
:04027400de030000a5
:020000040000fa
:04027800de030000a1
:020000040000fa
:04027c00de0300009d
:020000040000fa
:04028000de03000099
:020000040000fa
:10040000af1d21000eff27000e0188000000000034
:10041000000020000000e000020032000001200087
:100420002002880014000700e60007000000e0003a
:1004300003003a00e06021000100200002003700c4
:100440000000200001002000810f70000100320038
:100450000f000700000020000000e0000200320052
:10046000000002000000000052070200000000002f
:100470000040da000000fe00800020000000e000e4
:1004800002003200002020009001880000000600d9
:10049000a1028800800478000000eb001f003700f4
:1004a000e284440054a0b4009905ba00e2844400f8
:1004b00054a0b4009906ba00e284440054a0b400e9
:1004c0000006eb00476fde00fd07b200ae018800ba
:1004d000636ce10003003a000ad801000000eb0061
:1004e0000e003700606ce10008003a00004deb00a0
:1004f0000a05e800020039003420ec000af0a000f0
:100500008b05e900f9ff3e00040037006168e10057
:10051000010032000086eb000b00070019c7ba008b
:100520000e04e0001905ba0003003a000a00e000da
:10053000dbff3a0000000600fe07b200ae028800b2
:100540008a047800f5ff37000cd0a300e20f4d00bd
:100550001c00390089027800354dba000a05e80010
:10056000020039003420ec000af0a0008b05e900fd
:100570000f003200254dba000a05e80002003900dc
:100580003420ec000af0a0008b05e90008003200de
:100590000c00e0000600320015cdba000a05e800a4
:1005a000020039003420ec000af0a0008b05e900bd
:1005b0008984e80054a0b4000b00e000e2ff3a0098
:1005c000000006009902ba00055d78008b05e9007d
:1005d000f7ff3200c82ade00055d78008b05e900d0
:1005e000f3ff32000c00e000f1ff320019ddba0029
:1005f000eeff37000000fa000108a9000080fa00b1
:10060000004006003600f800809fbe00829fbe00ba
:10061000849fbe00869fbe000000fa000068a9000b
:10062000f5080700980607000080fa004f03be0097
:100630004f02be004f01be004f00be003600f90061
:10064000004006003600f800809fbe00829fbe007a
:10065000849fbe00869fbe000000fa000368a900c8
:10066000d0808000e180800061004000e080480090
:10067000d0808800e1808800c10207000080fa0075
:100680004f03be004f02be004f01be004f00be0030
:100690003600f90000400600801f78000000fa00d4
:1006a00001a8a90000188000808e88001018800022
:1006b000908e880020188000a08e8800301880005e
:1006c000b08e880040188000c08e880010c0b30033
:1006d00027f0b7000080fa004f00780000400600c5
:1006e0003600f800809fbe00829fbe00849fbe003f
:1006f000869fbe000000fa000188a900618080008a
:1007000050808000808f5000020032005e08070099
:10071000010037000e70ef000080fa004f03be00aa
:100720004f02be004f01be004f00be003600f90070
:10073000004006003600f800809fbe00829fbe0089
:10074000849fbe00869fbe000000fa000168a900d9
:1007500010118000640060000000e0000100320021
:100760002242a90010118000620060000000e00039
:10077000060032002222a900050037003011800057
:1007800000407800ac0807000100370000000000be
:1007900010118000610060000000e000f7ff3a00e7
:1007a0000080fa004f03be004f02be004f01be00a2
:1007b0004f00be003600f900004006000040da009d
:1007c0000000fe000000050003f0a200889fbe00ac
:1007d0008a9fbe008c1f7800180107001f0133009c
:1007e0006450e1004f0032006420e100520032000a
:1007f00003826c0007003b000905d0000306d0000f
:10080000820f54000c065d00020039000200320025
:1008100089017800030678008582550004003d00b8
:100820000003fd008103fd008502ea008b85420084
:10083000840f720002003b0060001000e08018008e
:100840006011b8000005eb007a28e1000a003900c9
:1008500006007800c75ddd00f707b20087807500ed
:100860002d003700828171000a0178006105600067
:100870008180d1000080d3008502e900f9ff3b00b0
:10088000060440008784480002003b006004140016
:10089000e0841c000988a300070032008a817100ef
:1008a00082817100610164008904d1000884d30051
:1008b0008b05e800170037000978a30013003a0001
:1008c0000b00e000130034008b05e900080444002d
:1008d00089844c000a4474000978a3000d003a0092
:1008e0000b00e000070034008b05e9000804440019
:1008f00089844c0001003a000b0020000978a30015
:10090000f7ff32000001eb00020037008281710026
:100910000a0178008e0007000cf0a70001f0a0008b
:10092000d70037006420e10002003a00838f6c009a
:10093000d70033000801be000200be00d00037001f
:10094000889fbe008a9fbe008c1f7800bb000700f6
:10095000c200330003866c006450e1002e003200b8
:100960006420e100330032006150e1002f003200ca
:100970006120e1003100320085855500eb07b000b1
:100980000900200008042000050037000804440086
:1009900089844c000a0031000603430087834b0022
:1009a0000001530081815b00f8ff33000203be00a9
:1009b0000800a0000804440089844c00f6ff3900b8
:1009c000c639dd00830173000100320013002000ee
:1009d0008904d1000884d3000998a30005003200df
:1009e0000800a7000300a0008904d1000884d300f8
:1009f0008b05e8008904d1000884d3000001eb00d6
:100a00000281d2005200070001f0a1000cf0a70003
:100a100001f0a0009a0037006420e1009c00320041
:100a20000801be000200be00f7ff37006120e100b0
:100a3000970032006000b800f3ff3700000020008c
:100a400001f82700f0ff370014002000c70037002e
:100a5000f4ff2f00c50037000001be006200070050
:100a60000470a70003f0a1006509b1001600320070
:100a70000d0035006828e10006003500f0ff2f006a
:100a8000f1ff27000300e00013003b0001002800f5
:100a90000000050000004000818048008502e90058
:100aa000fcff3a0008003700f88f420002003c00cb
:100ab0008000eb00000005008100d1000080d30021
:100ac0008502e800fcff3a000300e00002003b0062
:100ad00060001000e0801800000006000001be0069
:100ae000410007000470a70003f0a10003f8a30071
:100af00013003a006509b10010003200090035000a
:100b00006928e1000200350001002800000005000e
:100b100000004000818048008502e900fcff3a00a7
:100b200000000600f88f4200050035008100d1006a
:100b30000080d3008502e800fcff3a0000000600b8
:100b40008000eb00000005006011b800a200370033
:100b500081002000618055000b003d000b0020004b
:100b600061fe2f000100e1001d0034008281710050
:100b7000610164008904d1000884d3000000e8000a
:100b8000faff3a0071002000610064000300700069
:100b9000020060000900320061044400e0844c005f
:100ba0000988a500050032008b05e8006808e1000f
:100bb00002003a008904d1000884d300f20f20001b
:100bc0000258e10005003d00c75ddd00f907b200f5
:100bd0008980750008007800000006000bf82700e7
:100be0008b00780000000500c70ade00f107b200a4
:100bf000f50fb20008003200e1cf420002003200df
:100c00000170a00024000500810f70000100320077
:100c10000408050044000500810f700002003a003e
:100c2000140005008502e9000000400081c0480072
:100c3000fcff3b000170a000240005000004be0082
:100c4000e9ff07000003be000405be000200be006d
:100c5000e5ff0700844f7500000006000200be009b
:100c60006450e100050036006420e1000200360017
:100c70000968a30001003a000800be000160a0005e
:100c80004f0678004f05be004f04be00000006006e
:100c9000f0ff2f00f1ff2700f9ff3700889fbe000b
:100ca0008a9fbe008c1f7800e4ff0700ebff330033
:100cb00003866c006450e100240032006420e100ef
:100cc000270032006150e100220032006120e10083
:100cd000210032008b854200eb07b1000134b800df
:100ce000003ab8000804420089844a00013ab8007a
:100cf0000030b8008880400009014a000400330039
:100d00000000400081804800020149008b05e90095
:100d1000c909dd00830170000100320013002000ca
:100d2000c814de004814dd004709de001200b200de
:100d3000c808de000884700085ff070001f0a100ec
:100d40000cf0a70001f0a000cdff37006120e1000a
:100d5000cfff32000801be000200be00f7ff3700df
:100d60006150e100fcff3a00c9ff3700889fbe00d8
:100d70008a9fbe00841f7800b0ff07004f007800f4
:100d800011003300f0ff2f00838f6c0006003b0042
:100d9000040565000a00a7000800370009f0a60056
:100da0001000200008003700820f5400838f5c0081
:100db000030039001000200001003e000000200068
:100dc00009f0a7000000ea004f05be004f04be0076
:100dd0000000e00000000600889fbe008a9fbe0061
:100de000008270000402710004827100260032004b
:100df0000004be000200be006011b8006b092000b4
:100e0000950220000182cf000a0039000541b1009f
:100e10000082cf00070039000541b1000982cf00f0
:100e2000040039000541b1000882cf0001003900fb
:100e30000541b10005425200120032000a003b0099
:100e400082817100610164008100d1000080d300c3
:100e50008984d3000884d3008b05e8000442e800ad
:100e6000f7ff3a00070037000804440089844c006b
:100e700000004800818048008b05e9000442e90039
:100e8000f9ff3a0032ff07004f05be004f04be00d5
:040e90000000060058
:020000040000fa
:100e9400426f00006e6a00006f750000720000006f
:020000040000fa
:100ea4000a00fa00889fbe008a070700b4070700fb
:100eb40058040700950607007c0207006202070039
:100ec400f502070020070700d2060700e14f500093
:100ed40083003a00d3060700ca060700000f780013
:100ee4001e007800100078008000eb0015ff07005a
:100ef400323323003305240067ff0700020020007b
:100f0400035824008dfe0700d2cc2c00c304240017
:100f140061ff070010079800210798001e01900048
:100f2400ae019000000020008120240083fe070011
:100f340002002000030a240022fe0700008e88001d
:100f4400118e88001e80e800100078008000eb00fd
:100f5400fcfe070032332300330524004eff070054
:100f6400020020000358240074fe0700d2cc2c0099
:100f7400c304240048ff07001007980021079800c5
:100f84001e019000ae01900000002000812024008a
:100f94006afe070002002000030a240009fe07007d
:100fa400e08d8800f18d88009e0078006480400008
:100fb400100078008000eb00e2fe070032332300cb
:100fc4003305240034ff07000200200003582400e6
:100fd4005afe0700d2cc2c00c30424002eff0700c5
:100fe40010079800210798001e019000ae019000a0
:100ff400000020008120240050fe07000200200091
:10100400030a2400effd0700208e8800318e88003b
:101014009e00780068804000100078008000eb009b
:10102400c8fe070032332300330524001aff0700eb
:10103400020020000358240040fe0700d2cc2c00fc
:10104400c304240014ff0700100798002107980028
:101054001e019000ae0190000000200081202400b9
:1010640036fe070002002000030a2400d5fd070015
:10107400408e8800518e88009e0078006680400073
:10108400100078008000eb00aefe0700323323002e
:101094003305240000ff0700020020000358240049
:1010a40026fe0700d2cc2c00c3042400fafe07005d
:1010b40010079800210798001e019000ae019000cf
:1010c40000002000812024001cfe070002002000f4
:1010d400030a2400bbfd0700608e8800718e88001f
:1010e400408e8000518e80007bfe07008044780093
:1010f400208e8000318e800077fe07000044780047
:10110400e08d8000f18d800073fe070000407800c0
:101114006947980078479800004f98006600470098
:101124000001780031002000000320003e05070084
:101134000430ef00080037005206070006f0b7003d
:10114400110020006000210090050700208080002d
:101154000000e80020808800750607008000780001
:1011640020808000808f5000f3ff3e0000a0250007
:10117400212620001e07070053ff37000000fa0055
:1011840000808000e10f500005003a00f0002000cc
:10119400b080880064cea90064eea9000f00370077
:1011a40000808000e20f500005003a00400120005a
:1011b400b080880064cea80064eea9000700370060
:1011c40000808000e30f500004003a00e00120009a
:1011d400b080880064cea90064eea80007d0bf00e8
:1011e4000080fb00cf80de003201200003002000dd
:1011f400820f5000838f58009f003e0000060100bc
:10120400130037001c003700250037003400370076
:101214004f0037005800370059003700620037008c
:10122400310037003b0037003c00370046003700f0
:101234005f003700690037006a0037007400370028
:10124400750037007e0037007f00370088003700c4
:101254001a30ef001c30ef000001eb006000b80012
:1012640029040700120020006000b80026040700cb
:1012740010c0b30007f0b700d2808000e380800084
:10128400803e200001002000800f5100818f590012
:101294007c00360020c0b30007f0b7007a003700a6
:1012a400108080000000e80010808800b08080007a
:1012b4008000eb0023fe07000001eb00120407008e
:1012c400b08080008000eb001efe070012002000aa
:1012d4000d04070030c0b30007f0b7006a00370000
:1012e4006b000700680037000001eb0000002000dd
:1012f400011724000404070012002000000020004d
:10130400011024000004070090c0b30007f0b700e8
:101314005d0037005e0007005b0037000001eb0052
:101324000000200001102400f70307001200200031
:101334000000200001172400f3030700b0c0b3002d
:1013440007f0b70050003700510007004e00370087
:101354000001eb000000200001172400ea0307004d
:10136400120020006000b800e703070050c0b3007b
:1013740007f0b7004400370045000700420037007b
:101384000001eb006000b800df030700120020003a
:101394000000200001172400db03070070c0b30025
:1013a40007f0b7003800370039000700360037006f
:1013b4000001eb000000200001122400d20307000a
:1013c400120020000000200001122c00ce030700b0
:1013d400d0c0b30007f0b7002b0037002c00070083
:1013e400290037000001eb000000200001122c004e
:1013f400c503070012002000000020000112240091
:10140400c1030700f0c0b30007f0b7001e003700a7
:101414001f0007001c0037000001eb000000200043
:1014240001102400b8030700120020006000b80077
:10143400b503070010c1b30007f0b700120037006e
:1014440013000700100037000001eb006000b80033
:10145400ad0307001200200000002000011024004a
:10146400a903070030c1b30007f0b7000600370036
:1014740007000700040037000770ef0000000000b9
:1014840001003700000000000080fa0000000600a0
:101494000200fa00881f78000040eb00004f78003b
:1014a400608e8000718e800018c0b300020020009e
:1014b400031a240063fd07000000e000010035006a
:1014c4000044eb000804e0002c003a00408e800049
:1014d400518e800018c0b30002002000031f2400b6
:1014e40058fd07000000e000010035000044eb0057
:1014f4000804e00021003a00208e8000318e800034
:1015040018c0b30002002000c32024004dfd0700d2
:101514000000e000010035000044eb000804e00096
:1015240016003a00e08d8000f18d800018c0b300f1
:1015340002002000031f240042fd07000000e00019
:10154400010035000044eb000804e0000b003a0001
:10155400008e8000118e800018c0b30002002000ad
:10156400031a240037fd07000000e00001003500e5
:101574000044eb000804e0000500320010002000e5
:1015840000808800c3010700004f78007300370013
:10159400608e8000718e800018c0b30002002000ad
:1015a4000322240027fd07000000e00001003500ad
:1015b4000044eb000804e0002c003a00408e800058
:1015c400518e800018c0b300020020008324240040
:1015d4001cfd07000000e000010035000044eb00a2
:1015e4000804e00021003a00208e8000318e800043
:1015f40018c0b300020020000327240011fd0700d7
:101604000000e000010035000044eb000804e000a5
:1016140016003a00e08d8000f18d800018c0b30000
:10162400020020008324240006fd07000000e000df
:10163400010035000044eb000804e0000b003a0010
:10164400008e8000118e800018c0b30002002000bc
:1016540003222400fbfc07000000e0000100350029
:101664000044eb000804e0000300320020002000e6
:101674000080880039003700608e8000718e800001
:1016840018c0b3000200200003222400effc07006e
:101694000000e00001003d000044eb000804e0000d
:1016a4002c003a00408e8000518e800018c0b30098
:1016b4000200200083242400e4fc07000000e00072
:1016c40001003d000044eb000804e00021003a0062
:1016d400208e8000318e800018c0b30002002000ec
:1016e40003272400d9fc07000000e00001003d00ae
:1016f4000044eb000804e00016003a00e08d80008e
:10170400f18d800018c0b30002002000832424005f
:10171400cefc07000000e00001003d000044eb00a7
:101724000804e0000b003a00008e8000118e800057
:1017340018c0b3000200200003222400c3fc0700e9
:101744000000e00001003d000044eb000804e0005c
:101754000200320030002000008088001e40780023
:101764000004e00003003a0020c0b30008f0b70012
:10177400300037001e407800e34f500003003a0069
:1017840080c0b30008f0b7002a0037001e4078007c
:10179400e14f500003003a00a0c0b30008f0b700c6
:1017a400240037001e407800e44f500003003a0044
:1017b40040c0b30008f0b7001e0037001e40780098
:1017c400e24f500003003a0060c0b30008f0b700d5
:1017d400180037001e407800e54f50000a003a0018
:1017e40010808000610060000000e00003003a0007
:1017f400c0c0b30008f0b7000e003700e0c0b3006b
:1018040008f0b7000b0037001e407800e64f500088
:1018140003003a0000c1b30008f0b7000500370028
:101824001e407800e74f500002003a0020c1b30088
:1018340008f0b70008d0bf0007f0b7004f047800e5
:101844000080fa00000006000000fa0013e1a9007d
:1018540011e1a9001061a8001021a90081088000ed
:10186400f0fc2f0000806000800888000a21ef004f
:101874000621ef00404c20007008880000402b0037
:10188400600888002142800080ff2f0000806000f3
:101894000000a000204288000108a9002108a80037
:1018a40011e1a8000080fa00000006000000fa0020
:1018b40005e1a9000421a90000002000a1372400ab
:1018c400050007000068a9002068a80005e1a80039
:1018d4000080fa00000006000400fa00881f780067
:1018e400008fbe001e0178009e0190000068290050
:1018f40081c1240011fc070018c0b30002f02f00be
:10190400f377240051fc07000000e00001003c00d4
:101914000044eb000804e000540032002108800079
:10192400f0fc2f00008060000040a0002008880028
:101934001e0178009e0190000068290081c12400e6
:10194400fefb07000200200003102400fbfb07003d
:1019540018c0b30002f02f00f37724003bfc07000b
:101964000000e00001003c000044eb000804e0003b
:101974003200320021088000f0fc2f00008060005b
:101984000050a000200888001e0178009e019000ed
:101994000068290081c12400e8fb07000200200040
:1019a40003282400e5fb070018c0b30002f02f0051
:1019b400f377240025fc07000000e00001003c0050
:1019c4000044eb000804e00010003200210880000d
:1019d4000003200001007000200888001e01780028
:1019e4009e0190000068290081c12400d3fb0700f8
:1019f4000200200003382400d0fb070015fc070078
:101a04000000780010088800200037001e017800cc
:101a14009e0190000068290081c12400c7fb0700d3
:101a24000200200003282400c4fb070009fc07006f
:101a34000000780010088800140037001e017800a8
:101a44009e0190000068290081c12400bbfb0700af
:101a54000200200003102400b8fb0700fdfb070070
:101a64000000780010088800080037001e01780084
:101a74009e0190000068290081c12400affb07008b
:101a8400f4fb070000007800100888004f04780079
:101a94000080fa00000006000000fa001fe1a9001f
:101aa40000002000a1472400060007001e21a90011
:101ab4000368a9002368a8001fe1a8000080fa00b9
:101ac400000006000400fa00881f7800008fbe00a2
:101ad400f1088000f0fc2f0000806000f00888000e
:101ae4001e0178009e0190000068290081c1240035
:101af40092fb070018c0b30002f02f00f377240014
:101b0400d2fb07000000e00001003c000044eb00b1
:101b14000804e00054003200f1088000f0fc2f00bb
:101b2400008060000040a000f00888001e017800da
:101b34009e0190000068290081c124007ffb0700fa
:101b440002002000031024007cfb070018c0b3002f
:101b540002f02f00f3772400bcfb07000000e00034
:101b640001003c000044eb000804e00032003200b5
:101b7400f1088000f0fc2f00008060000050a000fd
:101b8400f00888001e0178009e019000006829007a
:101b940081c1240069fb07000200200003282400ff
:101ba40066fb070018c0b30002f02f00f37724008f
:101bb400a6fb07000000e00001003c000044eb002d
:101bc4000804e00010003200f10880000003200047
:101bd40001007000f00888001e0178009e0190004a
:101be4000068290081c1240054fb07000200200082
:101bf4000338240051fb070096fb0700000078001f
:101c0400d0088800200037001e0178009e01900053
:101c14000068290081c1240048fb0700020020005d
:101c24000328240045fb07008afb07000000780016
:101c3400d0088800140037001e0178009e0190002f
:101c44000068290081c124003cfb07000200200039
:101c54000310240039fb07007efb07000000780016
:101c6400d0088800080037001e0178009e0190000b
:101c74000068290081c1240030fb070075fb0700c0
:101c840000007800d00888004f0478000080fa0033
:101c9400000006000000fa00881f7800408e8000d3
:101ca400518e800018c0b30002002000831c240061
:101cb40064fb07000000e000010035000044eb0075
:101cc4000804e0000e003200e08d8000f18d8000f9
:101cd40018c0b30002002000831c240059fb070035
:101ce4000000e000010035000044eb000804e000bf
:101cf400030032005000200040818800c1003700fa
:101d0400208e8000318e800018c0b30002002000b5
:101d1400c32024004bfb07000000e0000100350055
:101d24000044eb000804e0000300320050002000ef
:101d340040818800b3003700408e8000518e8000bf
:101d440018c0b30002002000c32024003dfb07009c
:101d54000000e000010035000044eb000804e0004e
:101d640019003200208e8000318e800018c0b3002c
:101d740002002000831c240034fb07000000e00064
:101d840001003c000044eb000804e0000e003200b7
:101d9400e08d8000f18d800018c0b30002002000a7
:101da400c320240029fb07000000e00001003c00e0
:101db4000044eb000804e00003003200200020008f
:101dc400408188008f003700408e8000518e800053
:101dd40018c0b30002002000c32024001bfb07002e
:101de4000000e00001003c000044eb000804e000b7
:101df40019003200208e8000318e800018c0b3009c
:101e040002002000831c240010fb07000000e000f7
:101e140001003c000044eb000804e0000e00320026
:101e2400e08d8000f18d800018c0b3000200200016
:101e3400c320240003fb07000000e000010035007c
:101e44000044eb000804e0000300320040002000de
:101e5400408188006b003700608e8000718e8000a6
:101e640018c0b3000200200003122400f5fa070092
:101e74000000e000010035000044eb000804e0002d
:101e840041003200008e8000118e800018c0b30023
:101e94000200200003122400eafa07000000e00018
:101ea400010035000044eb000804e0003600320075
:101eb400648e8000758e8000008e8000118e8000fc
:101ec40018c0b3000001be000400be00ddfa070024
:101ed4000000e000010035000044eb000804e000cd
:101ee4000b003a00408e8000518e800018c0b30071
:101ef40002002000030a2400d2fa07000000e000d8
:101f0400010035000044eb000804e0000300320047
:101f140060002000408188003a003700648e800011
:101f2400758e8000008e8000118e800018c0b30072
:101f34000001be000400be00c4fa07000000e00077
:101f440001003c000044eb000804e0000b003a00f0
:101f5400e08d8000f18d800018c0b30002002000e5
:101f6400030a2400b7fa07000000e000010035006e
:101f74000044eb000804e00021003200700020005f
:101f8400408188001f003700608e8000718e8000c1
:101f940018c0b3000200200003172400a9fa0700a8
:101fa4000000e000010035000044eb000804e000fc
:101fb4000300320010002000408188001100370027
:101fc400008e8000118e800018c0b3000200200033
:101fd400031724009bfa07000000e000010035000d
:101fe4000044eb000804e00003003200300020004d
:101ff40040818800030037002830ef0001003700db
:1020040000000000408180004f0478000080fa0046
:10201400000006000000fa001160800080ff2f001d
:10202400008060001060880000fa200020608800b2
:1020340023aca800238ca80011618000f03f2f007e
:102044000080600000a0a000106188003000200023
:1020540020618800c3aca800c38ca800116680006e
:10206400f03f2f000080600000a0a00010668800f0
:10207400300020002066880001eca8000080fa00ef
:10208400000006000000fa00889fbe00c48d800096
:10209400d58d8000a08d8000b18d800018c0b30064
:1020a4000001be000400be0066fa07000000e00064
:1020b400010035000044eb000804e0000d0032008c
:1020c400a88d8000b98d8000c48d8000d58d8000de
:1020d400f0808000018180000001be000400be0089
:1020e400b9f907000801be00c8000700c08d8800c8
:1020f400d18d8800c48d8000d58d8000a08d800096
:10210400b18d800018c0b3000001be000400be0001
:102114004efa07000000e00001003c000044eb0020
:102124000804e0000d003200a88d8000b98d800005
:10213400c48d8000d58d8000f080800001818000f6
:102144000001be000400be009ef907000801be00a5
:1021540096000700c08d8800d18d8800c08d800056
:10216400d18d800018c0b3006011b80037fa0700a1
:102174000000e00001003c000044eb000804e00023
:1021840004003200c3eca90024cea800c3cca800ec
:1021940003003700c3cca90024eea800c3eca800b8
:1021a400c08d8000d18d80006a00070002002000ed
:1021b40003222400b8fa070047fa07000000780059
:1021c40030668800848d8000958d8000608d80004d
:1021d400718d800018c0b3000001be000400be0071
:1021e40018fa07000000e000010035000044eb008d
:1021f4000804e0000d003200688d8000798d8000b5
:10220400848d8000958d8000f080800001818000a5
:102214000001be000400be006bf907000801be0007
:102224007a000700808d8800918d8800848d80005d
:10223400958d8000608d8000718d800018c0b30082
:102244000001be000400be0000fa07000000e00028
:1022540001003c000044eb000804e0000d003200e3
:10226400688d8000798d8000848d8000958d80003c
:10227400f0808000018180000001be000400be00e7
:1022840050f907000801be0048000700808d88004f
:10229400918d8800808d8000918d800018c0b300de
:1022a4006011b800e9f907000000e00001003c00fb
:1022b4000044eb000804e0000400320023cca90031
:1022c40015eea80023eca8000300370023eca900b6
:1022d40015cea80023cca800808d8000918d8000ad
:1022e4001c00070002002000032224006afa0700f1
:1022f400f9f9070000007800306188004f04be003f
:102304000080fa00000006000600fa00008fbe00fc
:10231400220798002e0090000000e00006003a001a
:102324001e0078009e00900001f0a200a08d88009d
:10233400b18d8800050037001e0078009e009000d3
:1023440001f0a200608d8800718d88000080fa0081
:10235400000006000400fa00881f7800008fbe0009
:1023640018c0b3006011b8001e0078009e009000f1
:10237400b6f907000000e00001003d000044eb0056
:102384000804e000030032001e0078009e00900064
:10239400030037001e0078009e00900001f0a200a8
:1023a4004f0478000080fa00000006000800fa00dc
:1023b400881f7800008fbe0022079800330798001a
:1023c40018c0b3002e019000be0190001e007800da
:1023d4009e0090009df907000000e00001003c0011
:1023e4000044eb000804e000030032001e00780003
:1023f4009e009000020037002e009000be00900066
:102404004f0478000080fa00000006000800fa007b
:10241400881f7800008fbe002207980033079800b9
:1024240018c0b3002e019000be0190001e00780079
:102434009e00900083f907000000e00001003500d1
:102444000044eb000804e000030032001e007800a2
:102454009e009000020037002e009000be00900005
:102464004f0478000080fa00000006000c00fa0017
:10247400881f7800008fbe00220798003307980059
:10248400440798005507980018c0b3004e01900007
:10249400de0190001e0078009e0090006bf907009a
:1024a4000000e00001003c000044eb000804e000f0
:1024b400040032004e019000de019000028fbe0045
:1024c4000e00370018c0b3002e019000be0190002a
:1024d4001e0078009e0090005af907000000e000fa
:1024e400010035000044eb000804e0000300320062
:1024f4002e019000be019000028fbe001e007800e5
:102504009e0090004f0478000080fa00000006004e
:102514000400fa00008fbe00b2fd200093042400e2
:102524001e0078009e00900004f9070002002000bd
:1025340043332400d8f907000080fa0000000600a5
:102544000400fa00008fbe00b2fd200093042400b2
:102554001e0078009e009000cff9070002002000c2
:1025640043332400f5f807000080fa000000060059
:102574000a00fa00200798003107980042079800e3
:10258400e0cfb300204798002e0090004880de0082
:10259400804078002e40900000c0680020479800da
:1025a4002e009000804078002e40900000c068000b
:1025b400204798003e0090004880de00804078006c
:1025c4002e40900000c06800204798003e00900014
:1025d400804078002e40900000c06800204798009a
:1025e4000000eb00000f7800080037001e007800a0
:1025f400ce0090000080400010407800ae40900073
:1026040000c06800204798001e0fe8003e009000bc
:102614009e007800808f5000f4ff35002e4090001b
:102624000080fa00000006000e00fa00889fbe0039
:102634004007980051079800620798000f0478003b
:102644000f007800800478000000eb00000f780091
:102654005e009000660040008000e90021079800b9
:102664000000e8000000e8000000d1008000400005
:102674000f007800818747000000e8000000d100c7
:1026840000004000300798003e0090001e0040000b
:10269400e1cfb300014878001e0fe8004e0090001f
:1026a4004880de00804078003e0090001e0040001c
:1026b400014878001e0fe8004e009000804078002a
:1026c4003e0090001e004000014878001e0fe80004
:1026d4005e0090004880de00804078003e0090005c
:1026e4001e004000014878001e0fe8005e009000c4
:1026f400804078003e0090001e00400001487800b1
:102704001e0fe8000000eb00100798000b003700d4
:102714001e009000ee009000008040009040780081
:102724003e0090001e004000014878001e0fe800a3
:102734001e0090000000e800100798009e00900022
:102744005e009000808f5000f1ff35006e01900014
:10275400de0090004e00900085ff0700be00900050
:102764009e804000804878001e0fe8003e009000e4
:102774009e00780005000700890778008807780024
:102784004f04be000080fa00000006000600fa00b4
:1027940010079800210798000040eb00004f7800d4
:1027a40054000700ae009000810f50001100340067
:1027b4000040eb00004f7800060037001e80fb004d
:1027c4009e00900000804000104078000b0007003d
:1027d4001e4fe8009e80fb002e009000808f50006a
:1027e400f6ff3500300007000004e00001003a0065
:1027f400240007000080fa00000006000200fa002e
:10280400004f780050808000a10221000080400029
:102814001e48780051808000e0072000808f50001f
:10282400020034000a30ef000300370050808000bb
:102834000000e800508088000080fa0000000600d4
:102844000200fa0060808000a102210000804000a4
:10285400104f780061808000e0072000808f5000d6
:10286400020034000c30ef00030037006080800069
:102874000000e800608088001e4078000080fa00b4
:10288400000006000200fa0010c0b3000ef0b7000a
:10289400ebff0700004f78001e80fb00201188002a
:1028a4000080fa00000006000000fa000ed0bf000d
:1028b4000080fa00000006000000fa005180800049
:1028c40060808000808f50000400350051808000bb
:1028d4006080800000805000040037005180800038
:1028e40060808000008050000008b0000080fa0082
:1028f400000006000000fa00efff070001082000b6
:10290400008050000080fa00000006000000fa0079
:1029140021e3a9002143a80001198000f0cf2f0072
:1029240000806000001988002043a900011980007c
:10293400000e2000010070000019880011198000a9
:10294400f0ff210000806000101988002343a800d4
:1029540011198000f0cf2f0000806000101988004a
:102964001119800030f82f00008060000040a000a2
:10297400101988002203a9002223a90025e3a90035
:10298400f0c0b30024e3b70021198000f00f2e003b
:102994008080600000f02000010070002019880091
:1029a4003303a9004feea8002e0ea8002f6ea80036
:1029b4006f2ea8001e2ea80031e3a80030c3a80083
:1029c4003163a8002e03a8003063a80041198000d9
:1029d40000fc2f00008060004019880028e3a90053
:1029e40001a8a90021a8a80021e3a8000080fa00fa
:1029f400000006000000fa002023a8000080fa006e
:102a0400000006000000fa00001d21000080fa000a
:102a1400000006000000fa0027d0bf000080fa0082
:102a2400000006000000fa002770ef000080fa00a2
:102a3400000006000200fa00004f78002c00070096
:102a44000000e0000d00340010818000a10a210084
:102a5400008040001e48780011818000e0072000bb
:102a6400808f5000020034002230ef000300370052
:102a7400108180000000e800108188000080fa00c6
:102a8400000006000200fa0020818000a10a210053
:102a940000804000104f780021818000e007200072
:102aa400808f5000020034002430ef000300370010
:102ab400208180000000e800208188001e4078000a
:102ac4000080fa00000006000000fa001181800076
:102ad40020818000808f50000200320010c0b300bb
:102ae400010037000040eb000080fa0000000600ff
:102af4000000fa001181800020818000808f500046
:102b04000500340021818000108180000080500085
:102b14000008b0000400370011818000208180008b
:102b2400008050000008b0000080fa000000060099
:102b34000000fa00eeff07000108200000805000aa
:102b44000080fa00000006000000fa002002a9003c
:102b54000111800090ff2f000080600000118800a8
:102b640020a2a9002062a80050052000401188007e
:102b740023a2a90023e2a9000188a9002188a800b2
:102b840011118000f0f32f00008060001011880004
:102b94000168a9002168a80021e2a8002342a80036
:102ba4000080fa00000006000600fa0010079800f2
:102bb400210798000040eb00004f78000040eb0034
:102bc400004f78000e003700000000001111800053
:102bd40000202000008060000000e000fbff3a00bd
:102be4001e009000104078000080fb002011880037
:102bf4001e0090000000e800100798001e4fe80037
:102c04009e80fb002e009000808f5000eeff350068
:082c14000080fa000000060038
:020000040000fa
:102c1c00001000000a0000008000000016100000e8
:102c2c0004000000820000000f004a008700000032
:102c3c001a1000000400000080000000aa1100001f
:102c4c0026000000800000001e10000004000000a0
:102c5c00820000000000700041000000d011000054
:102c6c000a00000080000000261000000200000096
:102c7c00800000002810000002000000800000000e
:102c8c002a10000080000000800000000a100000e4
:102c9c000600000080000000aa1000008000000068
:102cac0080000000221000000400000080000000e2
:102cbc002a110000800000008000000010100000ad
:0c2ccc0006000000800000000000000076
:020000040000fa
:102cd8000000fa00f0032000303a8800213a800012
:102ce800f0f32f0000806000203a8800213a80002d
:102cf80000fe2f00008060000000a000203a88003d
:102d08001200200080072000a10920003374200051
:102d1800804978008149780082497800103a80001b
:102d2800000178000200a000600420007105200066
:102d3800237420008049780081497800824978000e
:102d480000000000113a8000000027008080600029
:102d580000002100808f5000faff3a0000000000b8
:102d6800113a800000022000008060000000e000ae
:102d7800fbff32000080fa00000006000000fa00a5
:102d88000e2eef001e2eef002e2eef003e2eef002f
:102d98004e2eef005e2eef006e2eef00214ea900a2
:102da80060cea90060eea90011cea90011eea9001d
:102db80020cea90020eea900002ea8002136800010
:102dc80000f82f00008060008001b30020368800e2
:102dd8001134800000fc2f00008060000000a0007b
:0c2de800103488000080fa000000060093
:020000040000fa
:102df400f03fb1000180b10006003500ee03090088
:102e040000000000403fb1000180b100fbff3d0025
:102e14001000b000203fb00002003500008009001f
:082e24000000000000000600a0
:020000040000fa
:02000004000af0
:04afe000cfff00009f
:020000040000fa
:02000004000af0
:04afe400ffff00006b
:020000040000fa
:02000004000af0
:04afe8007fff0000e7
:020000040000fa
:02000004000af0
:04afec005fff000003
:020000040000fa
:02000004000af0
:04aff00038ff000026
:020000040000fa
:02000004000af0
:04aff400ffff00005b
:00000001FF
