:020000040000fa
:080000000002040000000000f2
:020000040000fa
:04000800640400008c
:020000040000fa
:04000c006404000088
:020000040000fa
:040010006404000084
:020000040000fa
:040014006404000080
:020000040000fa
:04001800640400007c
:020000040000fa
:04001c006404000078
:020000040000fa
:040020006404000074
:020000040000fa
:040024006404000070
:020000040000fa
:04002800640400006c
:020000040000fa
:04002c006404000068
:020000040000fa
:040030006404000064
:020000040000fa
:0400340002030000c3
:020000040000fa
:04003800640400005c
:020000040000fa
:04003c006404000058
:020000040000fa
:040040006404000054
:020000040000fa
:040044006404000050
:020000040000fa
:04004800fa020000b8
:020000040000fa
:04004c006404000048
:020000040000fa
:040050006404000044
:020000040000fa
:040054002004000084
:020000040000fa
:04005800f6030000ab
:020000040000fa
:04005c00d2030000cb
:020000040000fa
:040060006404000034
:020000040000fa
:040064006404000030
:020000040000fa
:04006800640400002c
:020000040000fa
:04006c006404000028
:020000040000fa
:040070006404000024
:020000040000fa
:040074006404000020
:020000040000fa
:04007800640400001c
:020000040000fa
:04007c006404000018
:020000040000fa
:040080006404000014
:020000040000fa
:040084006404000010
:020000040000fa
:04008800640400000c
:020000040000fa
:04008c006404000008
:020000040000fa
:040090006404000004
:020000040000fa
:04009400a8030000bd
:020000040000fa
:0400980064040000fc
:020000040000fa
:04009c0064040000f8
:020000040000fa
:0400a00064040000f4
:020000040000fa
:0400a40064040000f0
:020000040000fa
:0400a80064040000ec
:020000040000fa
:0400ac0064040000e8
:020000040000fa
:0400b00064040000e4
:020000040000fa
:0400b40064040000e0
:020000040000fa
:0400b80064040000dc
:020000040000fa
:0400bc0064040000d8
:020000040000fa
:0400c00064040000d4
:020000040000fa
:0400c40064040000d0
:020000040000fa
:0400c80064040000cc
:020000040000fa
:0400cc0064040000c8
:020000040000fa
:0400d00064040000c4
:020000040000fa
:0400d40064040000c0
:020000040000fa
:0400d80064040000bc
:020000040000fa
:0400dc0064040000b8
:020000040000fa
:0400e00064040000b4
:020000040000fa
:0400e40064040000b0
:020000040000fa
:0400e80064040000ac
:020000040000fa
:0400ec0064040000a8
:020000040000fa
:0400f00064040000a4
:020000040000fa
:0400f40064040000a0
:020000040000fa
:0400f800640400009c
:020000040000fa
:0400fc006404000098
:020000040000fa
:040100006404000093
:020000040000fa
:04010400640400008f
:020000040000fa
:04010800640400008b
:020000040000fa
:04010c006404000087
:020000040000fa
:040110006404000083
:020000040000fa
:04011400640400007f
:020000040000fa
:04011800640400007b
:020000040000fa
:04011c006404000077
:020000040000fa
:040120006404000073
:020000040000fa
:04012400640400006f
:020000040000fa
:04012800640400006b
:020000040000fa
:04012c006404000067
:020000040000fa
:040130006404000063
:020000040000fa
:04013400640400005f
:020000040000fa
:04013800640400005b
:020000040000fa
:04013c006404000057
:020000040000fa
:040140006404000053
:020000040000fa
:04014400640400004f
:020000040000fa
:04014800640400004b
:020000040000fa
:04014c006404000047
:020000040000fa
:040150006404000043
:020000040000fa
:04015400640400003f
:020000040000fa
:04015800640400003b
:020000040000fa
:04015c006404000037
:020000040000fa
:040160006404000033
:020000040000fa
:04016400640400002f
:020000040000fa
:04016800640400002b
:020000040000fa
:04016c006404000027
:020000040000fa
:040170006404000023
:020000040000fa
:04017400640400001f
:020000040000fa
:04017800640400001b
:020000040000fa
:04017c006404000017
:020000040000fa
:040180006404000013
:020000040000fa
:04018400640400000f
:020000040000fa
:04018800640400000b
:020000040000fa
:04018c006404000007
:020000040000fa
:040190006404000003
:020000040000fa
:0401940064040000ff
:020000040000fa
:0401980064040000fb
:020000040000fa
:04019c0064040000f7
:020000040000fa
:0401a00064040000f3
:020000040000fa
:0401a40064040000ef
:020000040000fa
:0401a80064040000eb
:020000040000fa
:0401ac0064040000e7
:020000040000fa
:0401b00064040000e3
:020000040000fa
:0401b40064040000df
:020000040000fa
:0401b80064040000db
:020000040000fa
:0401bc0064040000d7
:020000040000fa
:0401c00064040000d3
:020000040000fa
:0401c40064040000cf
:020000040000fa
:0401c80064040000cb
:020000040000fa
:0401cc0064040000c7
:020000040000fa
:0401d00064040000c3
:020000040000fa
:0401d40064040000bf
:020000040000fa
:0401d80064040000bb
:020000040000fa
:0401dc0064040000b7
:020000040000fa
:0401e00064040000b3
:020000040000fa
:0401e40064040000af
:020000040000fa
:0401e80064040000ab
:020000040000fa
:0401ec0064040000a7
:020000040000fa
:0401f00064040000a3
:020000040000fa
:0401f400640400009f
:020000040000fa
:0401f800640400009b
:020000040000fa
:0401fc006404000097
:020000040000fa
:040200006404000092
:020000040000fa
:04020400640400008e
:020000040000fa
:04020800640400008a
:020000040000fa
:04020c006404000086
:020000040000fa
:040210006404000082
:020000040000fa
:04021400640400007e
:020000040000fa
:04021800640400007a
:020000040000fa
:04021c006404000076
:020000040000fa
:040220006404000072
:020000040000fa
:04022400640400006e
:020000040000fa
:04022800640400006a
:020000040000fa
:04022c006404000066
:020000040000fa
:040230006404000062
:020000040000fa
:04023400640400005e
:020000040000fa
:04023800640400005a
:020000040000fa
:04023c006404000056
:020000040000fa
:040240006404000052
:020000040000fa
:04024400640400004e
:020000040000fa
:04024800640400004a
:020000040000fa
:04024c006404000046
:020000040000fa
:040250006404000042
:020000040000fa
:04025400640400003e
:020000040000fa
:04025800640400003a
:020000040000fa
:04025c006404000036
:020000040000fa
:040260006404000032
:020000040000fa
:04026400640400002e
:020000040000fa
:04026800640400002a
:020000040000fa
:04026c006404000026
:020000040000fa
:040270006404000022
:020000040000fa
:04027400640400001e
:020000040000fa
:04027800640400001a
:020000040000fa
:04027c006404000016
:020000040000fa
:040280006404000012
:020000040000fa
:10040000cf2221000eff2c000e018800000000000a
:10041000000020000000e000020032000001200087
:100420002002880014000700290107000000e000f6
:1004300003003a00a0d8210001002000020037008c
:100440000000200001002000810f70000100320038
:100450000f000700000020000000e0000200320052
:10046000000002000000000072090200000000000d
:100470000040da000000fe00200020000000e00044
:1004800002003200100020009001880000000600e9
:10049000a1028800800478000000eb001f003700f4
:1004a000e284440054a0b4009905ba00e2844400f8
:1004b00054a0b4009906ba00e284440054a0b400e9
:1004c0000006eb00476fde00fd07b200ae018800ba
:1004d000636ce10003003a000ad801000000eb0061
:1004e0000e003700606ce10008003a00004deb00a0
:1004f0000a05e800020039003420ec000af0a000f0
:100500008b05e900f9ff3e00040037006168e10057
:10051000010032000086eb000b00070019c7ba008b
:100520000e04e0001905ba0003003a000a00e000da
:10053000dbff3a0000000600fe07b200ae028800b2
:100540008a047800f5ff37000cd0a300e20f4d00bd
:100550001c00390089027800354dba000a05e80010
:10056000020039003420ec000af0a0008b05e900fd
:100570000f003200254dba000a05e80002003900dc
:100580003420ec000af0a0008b05e90008003200de
:100590000c00e0000600320015cdba000a05e800a4
:1005a000020039003420ec000af0a0008b05e900bd
:1005b0008984e80054a0b4000b00e000e2ff3a0098
:1005c000000006009902ba00055d78008b05e9007d
:1005d000f7ff3200c82ade00055d78008b05e900d0
:1005e000f3ff32000c00e000f1ff320019ddba0029
:1005f000eeff37000000fa000108a9000080fa00b1
:10060000004006003600f800809fbe00829fbe00ba
:10061000849fbe00869fbe000a00fa000068a90001
:10062000e70c0700110b070070818000400798005d
:10063000a10020004e009000810178001100090007
:100640000300d80001f0a7008100ea008100e90062
:10065000cf08de00814078004e0190000200e800e3
:10066000708188000104e0003200320031618000b6
:10067000d0cc2c000008b8004508de00004178000e
:1006800031668000d0cc2c000008b8004508de00a0
:1006900000407800024f78001047980020718000d9
:1006a0004a00de006140600011c0b300214798009d
:1006b00030479800207380004700de0061406000f2
:1006c00021c0b30041479800504798002073800034
:1006d0004600de006140600031c0b3006147980011
:1006e000704798000e0178002100200000042000cf
:1006f0001e0807000e80e80000017800210020009d
:10070000000220001908070064004700000178007b
:1007100021002000000220001408070066004700a6
:100720000001780021002000000220000f080700cf
:10073000a20607000080fa004f03be004f02be0071
:100740004f01be004f00be003600f9000040060019
:100750003600f800809fbe00829fbe00849fbe00ce
:10076000869fbe000000fa000368a9005081800047
:100770006181800061004000e08048005081880075
:1007800061818800a20307000080fa004f03be00c9
:100790004f02be004f01be004f00be003600f90000
:1007a00000400600801f78000000fa0001a8a900a0
:1007b0000018800010918800101880002091880097
:1007c0002018800030918800301880004091880007
:1007d000401880005091880010c0b3004ff0b7005f
:1007e0000080fa004f007800004006003600f80054
:1007f000809fbe00829fbe00849fbe00869fbe0079
:100800000000fa000188a900f1818000e0818000e9
:10081000808f5000020032000d0c070001003700ed
:100820004070ef000080fa004f03be004f02be0090
:100830004f01be004f00be003600f9000040060028
:100840003600f800809fbe00829fbe00849fbe00dd
:10085000869fbe000000fa000168a9001011800008
:10086000640060000000e000010032002242a900a4
:1008700010118000620060000000e00006003200fd
:100880002222a900050037003011800000407800c6
:100890005b0c070001003700000000001011800011
:1008a000610060000000e000f7ff3a000080fa00fd
:1008b0004f03be004f02be004f01be004f00be00fe
:1008c0003600f900004006000040da000000fe009b
:1008d0000000050003f0a200889fbe008a9fbe00b2
:1008e0008c1f78006e010700750133006450e10031
:1008f0004f0032006420e1005200320003826c009d
:1009000007003b000905d0000306d000820f540009
:100910000c065d00020039000200320089017800f7
:10092000030678008582550004003d000003fd00a9
:100930008103fd008502ea008b854200840f72006e
:1009400002003b0060001000e08018006011b80059
:100950000005eb007a28e1000a0039000600780063
:10096000c75ddd00f707b200878075002d003700f6
:10097000828171000a017800610560008180d100e8
:100980000080d3008502e900f9ff3b000604400027
:100990008784480002003b0060041400e0841c00cf
:1009a0000988a300070032008a81710082817100ea
:1009b000610164008904d1000884d3008b05e8003c
:1009c000170037000978a30013003a000b00e0007d
:1009d000130034008b05e9000804440089844c00ae
:1009e0000a4474000978a3000d003a000b00e000ef
:1009f000070034008b05e9000804440089844c009a
:100a000001003a000b0020000978a300f7ff320034
:100a10000001eb0002003700828171000a017800ba
:100a2000e40007000cf0a70001f0a0002d01370042
:100a30006420e10002003a00838f6c002d01330036
:100a40000801be000200be00260137000081eb0055
:100a50005f013700889fbe008a9fbe008c1f780010
:100a60000f0107001601330003866c006450e1009b
:100a70002e0032006420e100330032006150e100ba
:100a80002f0032006120e1003100320085855500e1
:100a9000eb07b00009002000080420000500370023
:100aa0000804440089844c000a0031000603430016
:100ab00087834b000001530081815b00f8ff330006
:100ac0000203be000800a0000804440089844c0012
:100ad000f6ff3900c639dd008301730001003200e2
:100ae000130020008904d1000884d3000998a300d2
:100af000050032000800a7000300a0008904d1000f
:100b00000884d3008b05e8008904d1000884d30051
:100b10000001eb000281d200a600070001f0a10055
:100b20000cf0a70001f0a000ee0037006420e10007
:100b3000f00032000801be000200be00f7ff3700df
:100b40006120e100eb0032006000b800f3ff3700e5
:100b50000000200001f82700f0ff370014002000fb
:100b600086013700f4ff2f00840137000001be002a
:100b7000b60007000470a70003f0a1006509b100ea
:100b8000160032000d0035006828e100060035002f
:100b9000f0ff2f00f1ff27000300e00013003b00ef
:100ba000010028000000050000004000818048008e
:100bb0008502e900fcff3a0008003700f88f420088
:100bc00002003c008000eb00000005008100d10025
:100bd0000080d3008502e800fcff3a000300e0003b
:100be00002003b0060001000e080180000000600da
:100bf0000001be00950007000470a70003f0a100eb
:100c000003f8a30013003a006509b1001000320098
:100c1000090035006928e1000200350001002800c4
:100c20000000050000004000818048008502e900c6
:100c3000fcff3a0000000600f88f42000500350076
:100c40008100d1000080d3008502e800fcff3a005b
:100c5000000006008000eb00000005004f89de0068
:100c600082017800600137006011b8006e01370022
:100c70000400200000003700889fbe008a9fbe004d
:100c80008c1f78004f26dd00850007008c003300a4
:100c90006120e100430032006250e10041003e006b
:100ca0003e0039006420e1003c003200058255001e
:100cb0000f003b000402e80038003a00800f5300a8
:100cc000818f5b00350034000800be0003f0a100f6
:100cd00001f0a60003f0a0000cf0a700fefe070044
:100ce000800037000603430087834b000c46460014
:100cf0000005530081855b00020033000a03be003b
:100d00000c00a0000402e900f6ff3b008505780016
:100d10000602430087824b0004003a006000b800de
:100d200009f0a70001f0a0006e0037000002520099
:100d300081825a000704e0000400330006034300e8
:100d400087834b008b05e900faff3700090578001f
:100d50000604be000203be006011b80015000700c3
:100d6000e00f5200e08f5a000700350002003c00ff
:100d70000c08a300040032000601be0003f0a0002e
:100d80000cf0a700d4fe07000a85680001f0a1005e
:100d90000af0a70001f0a000520037000800be00d2
:100da00050003700100220000cf0a600908288004e
:100db0005000370081002000618055000b003d008d
:100dc0000b00200061fe2f000100e1001d00340037
:100dd00082817100610164008904d1000884d3001c
:100de0000000e800faff3a00710020006100640092
:100df000030070000200600009003200610444003a
:100e0000e0844c000988a500050032008b05e8004d
:100e10006808e10002003a008904d1000884d30088
:100e2000f20f20000258e10005003d00c75ddd0023
:100e3000f907b200898075000800780000000600fc
:100e40000bf827008b00780000000500c70ade00c1
:100e5000f107b200f50fb20008003200e1cf420006
:100e6000020032000170a00024000500810f700014
:100e7000010032000408050044000500810f7000e5
:100e800002003a00140005008502e900000040005d
:100e900081c04800fcff3b000170a0002400050059
:100ea0000004be00e9ff07000003be000405be0009
:100eb0000200be00e5ff0700844f75000000060039
:100ec0000200be006450e100050036006420e1002d
:100ed000020036000968a30001003a000800be00c5
:100ee0000160a0004f0678004f05be004f04be0011
:100ef00000000600f0ff2f00f1ff2700f9ff370088
:100f0000889fbe008a9fbe008c1f7800e4ff070008
:100f1000ebff330003866c006450e10024003200d4
:100f20006420e100270032006150e100220032001d
:100f30006120e100210032008b854200eb07b10007
:100f40000134b800003ab8000804420089844a001d
:100f5000013ab8000030b8008880400009014a001a
:100f60000400330000004000818048000201490075
:100f70008b05e900c909dd00830170000100320022
:100f800013002000c814de004814dd004709de000d
:100f90001200b200c808de000884700085ff070058
:100fa00001f0a1000cf0a70001f0a000cdff370078
:100fb0006120e100cfff32000801be000200be0048
:100fc000f7ff37006150e100fcff3a00c9ff37002e
:100fd000889fbe008a9fbe008c9fbe00820578005d
:100fe0000004be0099ff07000800be006420e10075
:100ff0000700390002003a00f1ff2700f0ff2f0040
:101000000160a00012022000928288005500370083
:101010006120e10003003a000b00a70001f8230063
:101020005000370001f0a100020021009364240069
:10103000cafe07000800be0004003500b2fd200013
:10104000930c24000aff07000004be000005eb001b
:101050000b00a6004f0dde0001f0a1000004be0051
:1010600032982f0023ea2300a5ff07000001eb00c0
:1010700003f023000b00a70003f8230016fe07006f
:10108000bafe07000000a7000a00a200f3fe070056
:101090000b00e000030032000200200003f02300f8
:1010a0000cfe070001f0a2000006be0002002000b6
:1010b0009304240092ff07000801be0006fe07000b
:1010c000809fbe000c00be0022a22a00d3a72300ee
:1010d0008bff07004f01be00fffd07000004be00ac
:1010e00001f0a10002002000039823009bfe0700ee
:1010f0000800be00190035000001be0080ff070097
:101100000006be00b2c52900e36223007cff070091
:1011100022222b00f3942b00effd07000c01be00f0
:1011200077ff0700e273280083c02300eafd070071
:101130000c01be0072ff070042aa2a00a3e22b00a6
:10114000e5fd07000c01be006dff07000801be00b1
:101150006bff07000801be00dffd07000a00a700c3
:1011600001f0a2004f06be004f05be004f04be00b6
:10117000000006000001eb0095ff3700889fbe00cd
:101180008a9fbe00841f780045ff07004f0078004b
:1011900011003300f0ff2f00838f6c0006003b002e
:1011a000040565000a00a7000800370009f0a60042
:1011b0001000200008003700820f5400838f5c006d
:1011c000030039001000200001003e000000200054
:1011d00009f0a7000000ea004f05be004f04be0062
:1011e0000000e00000000600881f7800030478007b
:1011f0000300e00007003d0060001000e0801800e0
:1012000060011900e081190002003b0001f02d008f
:10121000030037000400070008f0a70001f0a00059
:101220004f04780000000600889fbe008a9fbe0021
:1012300000827000040271000482710026003200f6
:101240000004be000200be006011b8006b0920005f
:10125000950220000182cf000a0039000541b1004b
:101260000082cf00070039000541b1000982cf009c
:10127000040039000541b1000882cf0001003900a7
:101280000541b10005425200120032000a003b0045
:1012900082817100610164008100d1000080d3006f
:1012a0008984d3000884d3008b05e8000442e80059
:1012b000f7ff3a00070037000804440089844c0017
:1012c00000004800818048008b05e9000442e900e5
:1012d000f9ff3a00b7fe07004f05be004f04be00fd
:0412e0000000060004
:020000040000fa
:1012e4000a00fa00889fbe00a60a07003d0a07000c
:1012f400c107070077090700f3030700d9030700b4
:101304006c0407006b0a0700be020700c602070050
:10131400b2090700e14f500092003a00b3090700f8
:10132400aa090700000f78001e007800100078005a
:101334008000eb004bfe070032332300330524000a
:10134400eefe07000200200003582400c0fd070041
:10135400d2cc2c00c3042400e8fe07001007980038
:10136400210798001e019000ae01900000002000ab
:1013740081202400b6fd070002002000030a240097
:1013840053fd0700508f8800618f88001e80e8009d
:10139400100078008000eb0032fe07003233230097
:1013a40033052400d5fe0700020020000358240062
:1013b400a7fd0700d2cc2c00c3042400cffe0700f5
:1013c40010079800210798001e019000ae019000bc
:1013d40000002000812024009dfd07000200200061
:1013e400030a24003afd0700308f8800418f8800eb
:1013f4009e00780064804000100078008000eb00bc
:1014040018fe07003233230033052400bbfe070017
:1014140002002000035824008dfd0700d2cc2c00cc
:10142400c3042400b5fe07001007980021079800a4
:101434001e019000ae0190000000200081202400d5
:1014440083fd070002002000030a240020fd07009a
:10145400708f8800818f88009e007800688040002b
:10146400100078008000eb00fefd070032332300fb
:1014740033052400a1fe07000200200003582400c5
:1014840073fd0700d2cc2c00c30424009bfe07008c
:1014940010079800210798001e019000ae019000eb
:1014a400000020008120240069fd070002002000c4
:1014b400030a240006fd0700908f8800a18f88008e
:1014c4009e00780066804000100078008000eb00e9
:1014d400e4fd0700323323003305240087fe0700b0
:1014e400020020000358240059fd0700d2cc2c0030
:1014f400c304240081fe0700100798002107980008
:101504001e019000ae019000000020008120240004
:101514004ffd070002002000030a2400ecfc070032
:10152400b08f8800c18f8800308f8000418f800089
:10153400aefd070080447800708f8000818f8000aa
:10154400aafd070000447800908f8000a18f8000de
:10155400a6fd070000407800694798007847980086
:10156400004f98002430ef000700370037090700c8
:1015740026f0b70026d0bf00d404070020818000e5
:101584000000e800208188005b09070080007800e3
:1015940020818000808f5000f4ff3e002b02070062
:1015a4005bff37000200fa00004f78001e4178000c
:1015b40071022100824878000080fa0000000600d1
:1015c4000200fa00004f78001e4078000004e0009a
:1015d40006003a004470ef00c0c0b30027f0b70023
:1015e400f000200010828800060037001e407800ba
:1015f400e14f500003003a0010c0b30044f0b700bc
:101604002770ef000080fa00000006000000fa00d6
:1016140000818000e10f500006003a00f000200035
:101624001082880064cea90064eea900254ea800ab
:101634001100370000818000e20f500006003a00dc
:10164400400120001082880064cea80064eea90046
:10165400254ea9000800370000818000e30f5000e8
:1016640005003a00e00120001082880064cea90041
:1016740064eea800254ea90027d0bf000080fb001f
:10168400cf80de007201200003002000820f500092
:10169400838f5800ba003e0000060100170037008f
:1016a400200037003200370041003700690037005e
:1016b40072003700730037007c0037007d0037006c
:1016c4008700370088003700920037001f0037007a
:1016d400ae003700380037004200370043003700bf
:1016e4004d0037004e003700580037008b0037009c
:1016f40095003700960037009f0037002a30ef002e
:101704002c30ef000001eb006000b8007707070001
:10171400120020006000b8007407070010c0b30076
:1017240027f0b7005281800063818000803e200052
:1017340001002000800f5100818f59009500360070
:1017440020c0b30027f0b700930037000001eb007e
:101754006000b80065070700120020006000b800b0
:1017640062070700d0c0b30027f0b7008a00370033
:10177400108180000000e800108188001082800041
:101784008000eb0037fd07000001eb00570707005e
:10179400108280008000eb0032fd07001200200060
:1017a4005207070030c0b30027f0b7007a003700b3
:1017b4007b000700780037000001eb0000002000e8
:1017c40001172c0049070700120020000000200028
:1017d40001172c0045070700f0c0b30027f0b7003d
:1017e4006d0037006e0007006b0037000001eb004e
:1017f40000002000011724003c070700120020000d
:1018040000002000011024003807070010c1b300b5
:1018140027f0b70060003700610007005e00370062
:101824000001eb0000002000011024002f07070036
:101834001200200000002000011724002b070700dd
:1018440030c1b30027f0b70053003700540007003d
:10185400510037000001eb000000200001172400b4
:1018640022070700120020006000b8001f070700cd
:1018740050c0b30027f0b700470037004800070006
:10188400450037000001eb006000b80017070700af
:101894001200200000002000011724001307070095
:1018a40070c0b30027f0b7003b0037003c000700ce
:1018b400390037000001eb00000020000112240071
:1018c4000a070700120020000000200001122c006b
:1018d4000607070090c0b30027f0b7002e003700ba
:1018e4002f0007002c0037000001eb00000020004f
:1018f40001122c00fd060700120020000000200049
:1019040001122400f9060700b0c0b30027f0b700a5
:1019140021003700220007001f0037000001eb0000
:101924000000200001102400f0060700120020002f
:101934006000b800ed0607001201070050c1b300b3
:1019440027f0b70014003700150007001200370015
:101954000001eb006000b800e4060700120020005c
:101964000000200001102400e006070070c1b3004d
:1019740027f0b70008003700090007000600370009
:101984002770ef0000000000030037000000000093
:1019940001003700000000000080fa00000006008b
:1019a4000200fa00881f780044d0bf00e14f5000c5
:1019b400f1003a000040eb00004f7800b08f800047
:1019c400c18f800018c0b30002002000031a240055
:1019d40061fc07000000e000010035000044eb005a
:1019e4000804e0002c003a00908f8000a18f800052
:1019f40018c0b30002002000031f240056fc070097
:101a04000000e000010035000044eb000804e000a1
:101a140021003a00708f8000818f800018c0b300cd
:101a240002002000c32024004bfc07000000e0005b
:101a3400010035000044eb000804e00016003a0001
:101a4400308f8000418f800018c0b3000200200056
:101a5400031f240040fc07000000e00001003500e3
:101a64000044eb000804e0000b003a00508f8000b3
:101a7400618f800018c0b30002002000031a240004
:101a840035fc07000000e000010035000044eb00d5
:101a94000804e000050032001000200000818800e6
:101aa400f5040700004f780073003700b08f800002
:101ab400c18f800018c0b30002002000032224005c
:101ac40025fc07000000e000010035000044eb00a5
:101ad4000804e0002c003a00908f8000a18f800061
:101ae40018c0b30002002000832424001afc07005d
:101af4000000e000010035000044eb000804e000b1
:101b040021003a00708f8000818f800018c0b300dc
:101b140002002000032724000ffc07000000e0005f
:101b2400010035000044eb000804e00016003a0010
:101b3400308f8000418f800018c0b3000200200065
:101b44008324240004fc07000000e00001003500a9
:101b54000044eb000804e0000b003a00508f8000c2
:101b6400618f800018c0b30002002000032224000b
:101b7400f9fb07000000e000010035000044eb0021
:101b84000804e000030032002000200000818800e7
:101b940039003700b08f8000c18f800018c0b300b7
:101ba4000200200003222400edfb07000000e000f7
:101bb40001003d000044eb000804e0002c003a0062
:101bc400908f8000a18f800018c0b3000200200015
:101bd40083242400e2fb07000000e00001003d0034
:101be4000044eb000804e00021003a00708f8000fc
:101bf400818f800018c0b300020020000327240056
:101c0400d7fb07000000e00001003d000044eb00aa
:101c14000804e00016003a00308f8000418f8000f5
:101c240018c0b3000200200083242400ccfb07006a
:101c34000000e00001003d000044eb000804e00067
:101c44000b003a00508f8000618f800018c0b300f1
:101c54000200200003222400c1fb07000000e00072
:101c640001003d000044eb000804e00002003200e3
:101c740030002000008188001e4078000004e0004d
:101c840003003a0020c0b30028f0b700300037004a
:101c94001e407800e34f500003003a0000c1b30037
:101ca40028f0b7002a0037001e407800e14f5000aa
:101cb40003003a0020c1b30028f0b7002400370025
:101cc4001e407800e44f500003003a0040c0b300c7
:101cd40028f0b7001e0037001e407800e24f500085
:101ce40003003a0060c0b30028f0b70018003700c2
:101cf4001e407800e54f50000a003a001081800031
:101d0400610060000000e00003003a0080c0b300fe
:101d140028f0b7000e003700a0c0b30028f0b700c9
:101d24000b0037001e407800e64f500003003a00d5
:101d340040c1b30028f0b700050037001e4078000a
:101d4400e74f500002003a0060c1b30028f0b7002a
:101d540028d0bf008080fb0027d0bf000080fb009c
:101d64000000e900808f50000300320028d0bf003b
:101d740027f0b700030007004f0478000080fa0042
:101d8400000006000600fa00750221009542780062
:101d940050818000618180004808de0000427800a4
:101da40050818000618180004008de00804178001d
:101db40050818000618180004809dd004800de0018
:101dc40000007100c808de000041780050818000e6
:101dd4006181800000407800054f78001447980026
:101de4002347980032479800404798000e01780036
:101df40051002000000520005b0207000080fa006b
:101e0400000006000000fa00c301a8000080eb00f7
:101e1400e00e88000080eb00f00e8800c1e1a8000d
:101e24000080fa00000006000000fa00c305a800c4
:101e34000080eb00e02e88000080eb00f02e88008c
:101e4400c1e5a8000080fa00000006000800fa00be
:101e5400889fbe008a9fbe00408080005180800021
:101e6400008088001180880060808000718080007c
:101e74002080880031808800300e80008000eb00d4
:101e8400008fbe00500e80008000eb00c000dd001b
:101e9400000020001e0f40005e974800302e800096
:101ea4008000eb002007980031079800502e800036
:101eb4008000eb00c000dd00000020002e01900037
:101ec400be01900002004000838048002007980073
:101ed400310798001e0078009e0090005efb07000a
:101ee400d25d2b0043c82b0004fc0700408088000f
:101ef400518088002e009000be00900056fb070021
:101f0400d25d2b0043c82300fcfb070060808800df
:101f140071808800448080005580800000808000ab
:101f2400118080000001be000400be0068fa0700b2
:101f340080808800918088006480800075808000a3
:101f440020808000318080000001be000400be00bb
:101f54005ffa0700a0808800b18088008480800038
:101f640095808000a0808000b18080000001be00c8
:101f74000400be0056fa0700a2992900c3382400c1
:101f8400b3fa0700c0808800d18088008480800074
:101f940095808000a0808000b18080000001be0098
:101fa4000400be004bfa07000200200003002400d6
:101fb400a7fa0700e0808800f18088008080800014
:101fc4009180800002002000a3372400cbfb07008f
:101fd400d08f8800e18f8800a0808000b1808000cd
:101fe40002002000a3372400c4fb0700f08f880000
:101ff40001908800d48f8000e58f8000f08f8000ee
:10200400019080000001be000400be0031fa070008
:1020140002002000030024008dfa070010908800bd
:1020240021908800c0808000d180800002002000c0
:10203400a3372400b1fb070030908800419088004a
:10204400b0908000c190800050908800619088001a
:10205400d0908000e190800070908800819088008a
:10206400f09080000191800090908800a1908800f9
:10207400b8908000c990800010908000219080006a
:1020840002002000a337240071fa07000005be00f7
:1020940090908000a19080006bfa07000001be00c0
:1020a4000a00be0095fb07000001be000800be0048
:1020b40008fa0700b0908800c1908800d89080008a
:1020c400e9908000109080002190800002002000a0
:1020d400a33724005efa07000005be00909080003c
:1020e400a190800022fc07000001be000a00be008f
:1020f40082fb07000001be000800be00f5f90700de
:10210400d0908800e190880090908000a190800099
:10211400f090880001918800f09080000191800087
:1021240018c0b300b2fd2000930424008cfa070009
:102134000000e00001003c000044eb000804e00063
:1021440007003200f090800001918000b2fd200071
:10215400930c2400def90700f090880001918800b8
:10216400f09080000191800018c0b300b2fd2000ff
:1021740093042c0078fa07000000e0000100350009
:102184000044eb000804e00007003200f0908000f7
:1021940001918000b2fd2000930c2400cdf90700ca
:1021a400f0908800019188004f05be004f04be00e6
:1021b4000080fa00000006001800fa005081800038
:1021c400618180000001be008000eb000e007800f9
:1021d400f6020700b0908000c19080000001be00ac
:1021e400410020000e007800d7020700d090800044
:1021f400e19080000001be00810020000e00780004
:10220400d1020700f0908000019180000001be001f
:10221400c10020000e007800cb020700109080005f
:10222400219080000001be00010120000e00780012
:10223400c502070030908000419080000001be007c
:10224400410120000e007800bf0207000e01780053
:102254008101200010062000430107000080fa00dd
:10226400000006000000fa0013e1a90011e1a90032
:102274001061a8001021a90081088000f0fc2f0043
:1022840000806000800888000a21ef000621ef002a
:10229400404c20007008880000402b006008880033
:1022a4002142800080ff2f00008060000000a00019
:1022b400204288000108a9002108a80011e1a80013
:1022c4000080fa00000006000000fa0005e1a90001
:1022d4000421a90000002000a13724000500070004
:1022e4000068a9002068a80005e1a8000080fa00a1
:1022f400000006000400fa00881f7800008fbe006a
:102304001e0178009e0190000068290081c124000c
:10231400cff9070018c0b30002f02f00f3772400b0
:102324000ffa07000000e00001003c000044eb004d
:102334000804e0005400320021088000f0fc2f0063
:10234400008060000040a000200888001e01780082
:102354009e0190000068290081c12400bcf9070097
:102364000200200003102400b9f9070018c0b300cc
:1023740002f02f00f3772400f9f907000000e000d1
:1023840001003c000044eb000804e000320032008d
:1023940021088000f0fc2f00008060000050a000a5
:1023a400200888001e0178009e0190000068290022
:1023b40081c12400a6f9070002002000032824009c
:1023c400a3f9070018c0b30002f02f00f37724002c
:1023d400e3f907000000e00001003c000044eb00ca
:1023e4000804e000100032002108800000032000ef
:1023f40001007000200888001e0178009e019000f2
:102404000068290081c1240091f90700020020001e
:10241400033824008ef90700d3f907000000780080
:1024240010088800200037001e0178009e019000eb
:102434000068290081c1240085f9070002002000fa
:102444000328240082f90700c7f907000000780078
:1024540010088800140037001e0178009e019000c7
:102464000068290081c1240079f9070002002000d6
:102474000310240076f90700bbf907000000780078
:1024840010088800080037001e0178009e019000a3
:102494000068290081c124006df90700b2f9070022
:1024a40000007800100888004f0478000080fa00cb
:1024b400000006000000fa001fe1a900000020004f
:1024c400a1472400060007001e21a9000368a900f3
:1024d4002368a8001fe1a8000080fa00000006009d
:1024e4000400fa00881f7800008fbe00f108800005
:1024f400f0fc2f0000806000f00888001e017800c6
:102504009e0190000068290081c1240050f9070051
:1025140018c0b30002f02f00f377240090f90700ed
:102524000000e00001003c000044eb000804e0006f
:1025340054003200f1088000f0fc2f00008060009d
:102544000040a000f00888001e0178009e01900061
:102554000068290081c124003df907000200200021
:10256400031024003af9070018c0b30002f02f004a
:10257400f37724007af907000000e00001003c0032
:102584000044eb000804e00032003200f10880004f
:10259400f0fc2f00008060000050a000f0088800cc
:1025a4001e0178009e0190000068290081c124006a
:1025b40027f90700020020000328240024f907005b
:1025c40018c0b30002f02f00f377240064f9070069
:1025d4000000e00001003c000044eb000804e000bf
:1025e40010003200f1088000000320000100700098
:1025f400f00888001e0178009e0190000068290000
:1026040081c1240012f907000200200003382400cd
:102614000ff9070054f9070000007800d00888007b
:10262400200037001e0178009e01900000682900f8
:1026340081c1240006f907000200200003282400b9
:1026440003f9070048f9070000007800d008880063
:10265400140037001e0178009e01900000682900d4
:1026640081c12400faf807000200200003102400ae
:10267400f7f807003cf9070000007800d00888004c
:10268400080037001e0178009e01900000682900b0
:1026940081c12400eef8070033f907000000780038
:1026a400d00888004f0478000080fa00000006007b
:1026b4000a00fa00200798003107980042079800a2
:1026c400e0cfb300204798002e0090004880de0041
:1026d400804078002e40900000c068002047980099
:1026e4002e009000804078002e40900000c06800ca
:1026f400204798003e0090004880de00804078002b
:102704002e40900000c06800204798003e009000d2
:10271400804078002e40900000c068002047980058
:102724000000eb00000f7800080037001e0078005e
:10273400ce0090000080400010407800ae40900031
:1027440000c06800204798001e0fe8003e0090007b
:102754009e007800808f5000f4ff35002e409000da
:102764000080fa00000006000e00fa00889fbe00f8
:102774004007980051079800620798000f047800fa
:102784000f007800800478000000eb00000f780050
:102794005e009000660040008000e9002107980078
:1027a4000000e8000000e8000000d10080004000c4
:1027b4000f007800818747000000e8000000d10086
:1027c40000004000300798003e0090001e004000ca
:1027d400e1cfb300014878001e0fe8004e009000de
:1027e4004880de00804078003e0090001e004000db
:1027f400014878001e0fe8004e00900080407800e9
:102804003e0090001e004000014878001e0fe800c2
:102814005e0090004880de00804078003e0090001a
:102824001e004000014878001e0fe8005e00900082
:10283400804078003e0090001e004000014878006f
:102844001e0fe8000000eb00100798000b00370093
:102854001e009000ee009000008040009040780040
:102864003e0090001e004000014878001e0fe80062
:102874001e0090000000e800100798009e009000e1
:102884005e009000808f5000f1ff35006e019000d3
:10289400de0090004e00900085ff0700be0090000f
:1028a4009e804000804878001e0fe8003e009000a3
:1028b4009e007800a703070089077800880778003e
:1028c4004f04be000080fa00000006000400fa0075
:1028d40020479800d0818000e30f5000230032008d
:1028e400e30f500005003e00e10f500013003200da
:1028f400e10f500015003e0007003700e50f5000bf
:102904002d003200e50f50001c003900e60f500086
:1029140038003200490037002e409000e24f40005a
:1029240002003a0010002000d08188003430ef000b
:102934003830ef003630ef00440037003430ef0019
:1029440020002000d0818800400037002e409000f5
:102954008080fb00a081800000804000a08188006e
:1029640030002000d0818800380037003630ef0076
:1029740040002000d0818800340037002e409000b1
:102984008080fb00b081800000804000b08188001e
:10299400b08180000000e000040032003830ef0015
:1029a40050002000d08188002800370060002000fb
:1029b400d081880025003700c081800041152100a6
:1029c40000804000ae40900001487800c081800043
:1029d4000000e800c0818800c1818000b0818000cf
:1029e400808f50001800350060002000d0818800de
:1029f40016003700ae409000014f7800b18180008e
:102a0400a08180004215210029ff0700104798008b
:102a14001e4090009e4f500006003a00b081800096
:102a240080407800a0818000004078004215210099
:102a3400080007003a30ef00040037003a30ef0096
:102a44000000000001003700000000000080fa00d0
:102a5400000006000400fa00004f780011479800b7
:102a6400120798001e80fb0011052000810f500002
:102a74000400320021052000810f500008003200bc
:102a84000b0037001e00900010407800c5fa0700c4
:102a94001e019000110020003005200032ff0700c5
:102aa4001e00900010407800c5fa070000000000e6
:102ab4000080fa00000006000400fa00881f780075
:102ac400008fbe0018c0b3006011b8001e0078006b
:102ad4009e00900022f807000000e00001003d0085
:102ae4000044eb000804e000030032001e007800fc
:102af4009e009000030037001e0078009e009000a6
:102b040001f0a2004f0478000080fa0000000600e3
:102b14000800fa00881f7800008fbe002207980082
:102b24003307980018c0b3002e019000be01900036
:102b34001e0078009e00900009f807000000e000e5
:102b440001003c000044eb000804e00003003200f4
:102b54001e0078009e009000020037002e009000b6
:102b6400be0090004f0478000080fa0000000600c8
:102b74000800fa00881f7800008fbe002207980022
:102b84003307980018c0b3002e019000be019000d6
:102b94001e0078009e009000eff707000000e000a0
:102ba400010035000044eb000804e000030032009b
:102bb4001e0078009e009000020037002e00900056
:102bc400be0090004f0478000080fa000000060068
:102bd4000c00fa00881f7800008fbe0022079800be
:102be40033079800440798005507980018c0b300ad
:102bf4002e019000be0190001e0078009e009000ff
:102c0400d5f707000000e000010035000044eb00a8
:102c14000804e000030032002e009000be00900083
:102c24001000370018c0b3004e019000de01900080
:102c34001e0078009e009000c9f707000000e00025
:102c440001003c000044eb000804e00003003200f3
:102c54004e009000de009000020037001e00780055
:102c64009e0090004f0478000080fa0000000600e7
:102c74000800fa002007980031079800b2fd2000f0
:102c8400930424002e009000be00900010f707006b
:102c9400b2fd2000930c2400f4f70700b2fd2000dd
:102ca400930424000bf70700008fbe00b2fd200040
:102cb400930424001e0078009e00900005f707008e
:102cc400b2fd2000930c2400e8f70700b2fd2000b9
:102cd40093042400fef607000080fa0000000600ba
:102ce4000a00fa003007980041079800be009000df
:102cf4004e009000008f40001e0078001001780004
:102d04009001900012079800230798001e0090007d
:102d1400ae0090000080fa00000006000600fa00f1
:102d240010079800210798009e0090002e00900044
:102d3400008f40001e007800900090001000780082
:102d44000080fa00000006000c00fa00200798003a
:102d5400310798004207980053079800680047001d
:102d6400100798000000eb00000f78000a003700fd
:102d74003e0090001e004000ae0090000080400025
:102d84009e0078001e01900081004100914078006f
:102d9400014878001e0fe8001e007800e30f500081
:102da400f3ff34000080fa00000006000c00fa0073
:102db40020079800310798004207980053079800ad
:102dc40068004700100798000000eb00000f78002f
:102dd4000b0037003e0090001e004000ae00900043
:102de40000804000320020009e0051001e0190002f
:102df4008100410091407800014878001e0fe800ee
:102e04001e007800e30f5000f2ff34000080fa0047
:102e1400000006000c00fa00200798003107980013
:102e2400420798005307980068004700100798006d
:102e34000000eb00000f78000a0037003e0090000d
:102e44001e004000ae009000008040009e0078000c
:102e54001e019000810041009140780001487800f3
:102e64001e0fe8001e007800e70f5000f3ff340047
:102e74000080fa00000006000000fa00881f7800b5
:102e8400908f8000a18f800018c0b3000200200042
:102e9400831c240030f707000000e0000100350027
:102ea4000044eb000804e0000e003200308f800084
:102eb400418f800018c0b30002002000831c24004e
:102ec40025f707000000e000010035000044eb0096
:102ed4000804e000030032005000200080828800d3
:102ee400c1003700708f8000818f800018c0b3004c
:102ef40002002000c320240017f707000000e000b0
:102f0400010035000044eb000804e0000300320037
:102f14005000200080828800b3003700908f80002a
:102f2400a18f800018c0b30002002000c320240039
:102f340009f707000000e000010035000044eb0041
:102f44000804e00019003200708f8000818f800037
:102f540018c0b30002002000831c240000f70700ff
:102f64000000e00001003c000044eb000804e00025
:102f74000e003200308f8000418f800018c0b300f3
:102f840002002000c3202400f5f607000000e00042
:102f940001003c000044eb000804e00003003200a0
:102fa40020002000808288008f003700908f8000ee
:102fb400a18f800018c0b30002002000c3202400a9
:102fc400e7f607000000e00001003c000044eb00cd
:102fd4000804e00019003200708f8000818f8000a7
:102fe40018c0b30002002000831c2400dcf6070094
:102ff4000000e00001003c000044eb000804e00095
:103004000e003200308f8000418f800018c0b30062
:1030140002002000c3202400cff607000000e000d7
:10302400010035000044eb000804e0000300320016
:1030340040002000808288006b003700b08f800041
:10304400c18f800018c0b3000200200003122400c6
:10305400c1f607000000e000010035000044eb0069
:103064000804e00041003200508f8000618f80002e
:1030740018c0b3000200200003122400b6f60700b3
:103084000000e000010035000044eb000804e0000b
:1030940036003200b48f8000c58f8000508f8000ce
:1030a400618f800018c0b3000001be000400be00a0
:1030b400a9f607000000e000010035000044eb0021
:1030c4000804e0000b003a00908f8000a18f80007c
:1030d40018c0b30002002000030a24009ef6070073
:1030e4000000e000010035000044eb000804e000ab
:1030f4000300320060002000808288003a0037001c
:10310400b48f8000c58f8000508f8000618f800055
:1031140018c0b3000001be000400be0090f6070012
:103124000000e00001003c000044eb000804e00063
:103134000b003a00308f8000418f800018c0b3002c
:1031440002002000030a240083f607000000e000c8
:10315400010035000044eb000804e00021003200c7
:1031640070002000808288001f003700b08f80002c
:10317400c18f800018c0b300020020000317240090
:1031840075f607000000e000010035000044eb0084
:103194000804e00003003200100020008082880050
:1031a40011003700508f8000618f800018c0b30079
:1031b400020020000317240067f607000000e00067
:1031c400010035000044eb000804e0000300320075
:1031d4003000200080828800030037005030ef0068
:1031e4000100370000000000808280004f04780056
:1031f4000080fa00000006000000fa001160800060
:1032040080ff2f00008060001060880000fa20001a
:103214002060880023aca800238ca80011618000e2
:10322400f03f2f000080600000a0a0001061880023
:103234003000200020618800c3aca800c38ca80023
:1032440011668000f03f2f000080600000a0a00005
:1032540010668800300020002066880001eca80079
:103264000080fa00000006000000fa00889fbe00fb
:10327400148f8000258f8000f08e8000018f8000e5
:1032840018c0b3000001be000400be0032f60700ff
:103294000000e000010035000044eb000804e000f9
:1032a4000d003200f88e8000098f8000148f80009a
:1032b400258f800030828000418280000001be00a2
:1032c4000400be0083f507000801be00c800070023
:1032d400108f8800218f8800148f8000258f800034
:1032e400f08e8000018f800018c0b3000001be0082
:1032f4000400be001af607000000e00001003c00d4
:103304000044eb000804e0000d003200f88e800059
:10331400098f8000148f8000258f80003082800008
:10332400418280000001be000400be0068f5070071
:103334000801be0096000700108f8800218f8800c6
:10334400108f8000218f800018c0b3006011b80076
:1033540003f607000000e00001003c000044eb001d
:103364000804e00004003200c3eca90024cea80045
:10337400c3cca80003003700c3cca90024eea800e6
:10338400c3eca800108f8000218f80006a00070022
:103394000200200003222400d8f6070013f60700d9
:1033a4000000780030668800d48e8000e58e8000ae
:1033b400b08e8000c18e800018c0b3000001be0032
:1033c4000400be00e4f507000000e0000100350041
:1033d4000044eb000804e0000d003200b88e8000c9
:1033e400c98e8000d48e8000e58e800030828000fb
:1033f400418280000001be000400be0035f50700d4
:103404000801be007a000700d08e8800e18e880093
:10341400d48e8000e58e8000b08e8000c18e800046
:1034240018c0b3000001be000400be00ccf50700c4
:103434000000e00001003c000044eb000804e00050
:103444000d003200b88e8000c98e8000d48e8000ba
:10345400e58e800030828000418280000001be0041
:103464000400be001af507000801be00480007006a
:10347400d08e8800e18e8800d08e8000e18e80009e
:1034840018c0b3006011b800b5f507000000e000f3
:1034940001003c000044eb000804e000040032009a
:1034a40023cca90015eea80023eca80003003700e4
:1034b40023eca90015cea80023cca800d08e800050
:1034c400e18e80001c00070002002000032224007b
:1034d4008af60700c5f5070000007800306188000f
:1034e4004f04be000080fa00000006000600fa0047
:1034f400008fbe00220798002e0090000000e0001c
:1035040006003a001e0078009e00900001f0a20020
:10351400f08e8800018f8800050037001e007800b7
:103524009e00900001f0a200b08e8800c18e880039
:103534000080fa00000006000400fa00881f7800ea
:10354400008fbe0018c0b3006011b8001e007800e0
:103554009e00900082f507000000e00001003d009d
:103564000044eb000804e000030032001e00780071
:103574009e009000030037001e0078009e0090001b
:1035840001f0a2004f0478000080fa000000060059
:103594000800fa00881f7800008fbe0022079800f8
:1035a4003307980018c0b3002e019000be019000ac
:1035b4001e0078009e00900069f507000000e000fe
:1035c40001003c000044eb000804e000030032006a
:1035d4001e0078009e009000020037002e0090002c
:1035e400be0090004f0478000080fa00000006003e
:1035f4000800fa00881f7800008fbe002207980098
:103604003307980018c0b3002e019000be0190004b
:103614001e0078009e0090004ff507000000e000b7
:10362400010035000044eb000804e0000300320010
:103634001e0078009e009000020037002e009000cb
:10364400be0090004f0478000080fa0000000600dd
:103654000c00fa00881f7800008fbe002207980033
:1036640033079800440798005507980018c0b30022
:103674004e019000de0190001e0078009e00900034
:1036840037f507000000e00001003c000044eb00b7
:103694000804e000040032004e019000de019000b6
:1036a400028fbe000e00370018c0b3002e01900038
:1036b400be0190001e0078009e00900026f50700d1
:1036c4000000e000010035000044eb000804e000c5
:1036d400030032002e019000be019000028fbe0054
:1036e4001e0078009e0090004f0478000080fa00cd
:1036f400000006000400fa00008fbe00b2fd2000a6
:10370400930424001e0078009e009000d0f407006b
:103714000200200043332400f8f507000080fa007b
:10372400000006000400fa00008fbe00b2fd200075
:10373400930424001e0078009e009000eff507001b
:103744000200200043332400c1f407000080fa0083
:10375400000006000600fa001007980021079800f0
:103764000040eb00004f780054000700ae009000ca
:10377400810f5000110034000040eb00004f78002e
:10378400060037001e80fb009e0090000080400071
:10379400104078000b0007001e4fe8009e80fb00dd
:1037a4002e009000808f5000f6ff35003000070097
:1037b4000004e00001003a00240007000080fa0041
:1037c400000006000200fa00004f7800e08180004b
:1037d40041052100008040001e487800e1818000fe
:1037e400e0072000808f5000020034003c30ef00de
:1037f40003003700e08180000000e800e0818800d9
:103804000080fa00000006000200fa00f081800047
:103814004105210000804000104f7800f1818000b4
:10382400e0072000808f5000020034003e30ef009b
:1038340003003700f08180000000e800f081880078
:103844001e4078000080fa00000006000200fa0022
:1038540010c0b30040f0b700ebff0700004f780042
:103864001e80fb00201188000080fa000000060082
:103874000000fa0040d0bf000080fa0000000600fb
:103884000000fa00e1818000f0818000808f500008
:1038940004003500e1818000f08180000080500048
:1038a40004003700e1818000f08180000080500036
:1038b4000008b0000080fa00000006000000fa00d2
:1038c400efff070001082000008050000080fa008c
:1038d400000006000000fa0021e3a9002143a8002b
:1038e40001198000f0cf2f000080600000198800cb
:1038f4002043a90001198000000e2000010070007f
:103904000019880011198000f0ff21000080600078
:10391400101988002343a80011198000f0cf2f004c
:1039240000806000101988001119800030f82f0001
:10393400008060000040a000101988002203a90044
:103944002223a90025e3a900f0c0b30024e3b700b3
:1039540021198000f00f2e008080600000f020000c
:1039640001007000201988003303a9004feea8005d
:103974002e0ea8002f6ea8006f2ea8001e2ea800e1
:1039840031e3a80030c3a8003163a8002e03a800c7
:103994003063a8004119800000fc2f000080600003
:1039a4004019880028e3a90001a8a90021a8a800bb
:1039b40021e3a8000080fa00000006000000fa00dd
:1039c4002023a8000080fa00000006000000fa008e
:1039d400202221000080fa00000006000000fa0006
:1039e4004fd0bf000080fa00000006000000fa007b
:1039f4004f70ef000080fa00000006000200fa0099
:103a0400004f78002c0007000000e0000d00340097
:103a140050828000410d2100008040001e48780043
:103a240051828000e0072000808f500002003400a3
:103a34004a30ef0003003700508280000000e800a5
:103a4400508288000080fa00000006000200fa009c
:103a540060828000410d210000804000104f7800fa
:103a640061828000e0072000808f50000200340053
:103a74004c30ef0003003700608280000000e80053
:103a8400608288001e4078000080fa000000060072
:103a94000000fa005182800060828000808f500014
:103aa4000200320010c0b300010037000040eb00f8
:103ab4000080fa00000006000000fa005182800035
:103ac40060828000808f5000050034006182800095
:103ad40050828000008050000008b00004003700cd
:103ae4005182800060828000008050000008b00095
:103af4000080fa00000006000000fa00eeff070054
:103b040001082000008050000080fa000000060038
:020000040000fa
:103b1400201000000a000000800000004210000095
:103b240004000000820000000f00010000000000fb
:103b34002a1000000a00000080000000d4110000d8
:103b44004e00000080000000461000000400000049
:103b540082000000000070004100000022120000fa
:103b64000a000000800000004e1000000200000067
:103b740080000000501000000200000080000000df
:103b84005410000080000000800000003c10000081
:103b94000600000080000000d41000008000000037
:103ba400800000004a1000000400000080000000b3
:103bb4005411000080000000800000003410000058
:103bc4000800000080000000001000002000000039
:103bd400800000005210000002000000800000007d
:043be40000000000dd
:020000040000fa
:103be8000000fa000e2eef001e2eef002e2eef0022
:103bf8003e2eef004e2eef005e2eef006e2eef00f1
:103c0800214ea90060cea90060eea90011cea9003e
:103c180011eea90020cea90020eea900002ea800d0
:103c28002136800000f82f00008060008001b3007a
:103c3800203688001134800000fc2f0000806000ce
:103c48000000a000103488000136800000f82f0022
:103c58008080600010062000010070000036880097
:103c680001368000f00f28008080600000002600e8
:103c78000100700000368800e135800000f82f0050
:103c8800808060006004200001007000e03588003a
:103c9800e1358000f00f280080806000005024008b
:103ca80001007000e03588000080fa00000006007e
:103cb8000000fa002002a9000111800090ff2f00e7
:103cc800008060000011880020a2a9002062a800de
:103cd800500520004011880023a2a90023e2a90072
:103ce8000188a9002188a80011118000f0f32f0095
:103cf80000806000101188000168a9002168a800f0
:103d080021e2a8002342a8000080fa000000060073
:103d18000600fa0010079800210798000040eb0001
:103d2800004f78000040eb00004f78000e0037008d
:103d380000000000111180000020200000806000b9
:103d48000000e000fbff3a001e00900010407800e1
:103d58000080fb00201188001e0090000000e80091
:103d6800100798001e4fe8009e80fb002e00900070
:103d7800808f5000eeff35000080fa00000006003a
:103d88000000fa00f0032000303a8800213a800051
:103d9800f0f32f0000806000203a8800213a80006c
:103da80000fe2f00008060000000a000203a88007c
:103db8001200200080072000a10920003374200091
:103dc800804978008149780082497800103a80005b
:103dd800000178000200a0006004200071052000a6
:103de800237420008049780081497800824978004e
:103df80000000000113a8000000027008080600069
:103e080000002100808f5000faff3a0000000000f7
:103e1800113a800000022000008060000000e000ed
:0c3e2800fbff32000080fa0000000600e2
:020000040000fa
:02000004000af0
:04afe000cfff00009f
:020000040000fa
:02000004000af0
:04afe400ffff00006b
:020000040000fa
:02000004000af0
:04afe8007fff0000e7
:020000040000fa
:02000004000af0
:04afec005fff000003
:020000040000fa
:02000004000af0
:04aff00038ff000026
:020000040000fa
:02000004000af0
:04aff400ffff00005b
:00000001FF
