:020000040000fa
:080000000002040000000000f2
:020000040000fa
:040008007003000081
:020000040000fa
:04000c00700300007d
:020000040000fa
:040010007003000079
:020000040000fa
:040014007003000075
:020000040000fa
:040018007003000071
:020000040000fa
:04001c00700300006d
:020000040000fa
:040020007003000069
:020000040000fa
:040024007003000065
:020000040000fa
:040028007003000061
:020000040000fa
:04002c00700300005d
:020000040000fa
:040030007003000059
:020000040000fa
:0400340002030000c3
:020000040000fa
:040038007003000051
:020000040000fa
:04003c00700300004d
:020000040000fa
:040040007003000049
:020000040000fa
:040044007003000045
:020000040000fa
:04004800fa020000b8
:020000040000fa
:04004c00700300003d
:020000040000fa
:040050007003000039
:020000040000fa
:040054007003000035
:020000040000fa
:040058007003000031
:020000040000fa
:04005c004c03000051
:020000040000fa
:040060007003000029
:020000040000fa
:040064007003000025
:020000040000fa
:040068007003000021
:020000040000fa
:04006c00700300001d
:020000040000fa
:040070007003000019
:020000040000fa
:040074007003000015
:020000040000fa
:040078007003000011
:020000040000fa
:04007c00700300000d
:020000040000fa
:040080007003000009
:020000040000fa
:040084007003000005
:020000040000fa
:040088007003000001
:020000040000fa
:04008c0070030000fd
:020000040000fa
:0400900070030000f9
:020000040000fa
:040094002203000043
:020000040000fa
:0400980070030000f1
:020000040000fa
:04009c0070030000ed
:020000040000fa
:0400a00070030000e9
:020000040000fa
:0400a40070030000e5
:020000040000fa
:0400a80070030000e1
:020000040000fa
:0400ac0070030000dd
:020000040000fa
:0400b00070030000d9
:020000040000fa
:0400b40070030000d5
:020000040000fa
:0400b80070030000d1
:020000040000fa
:0400bc0070030000cd
:020000040000fa
:0400c00070030000c9
:020000040000fa
:0400c40070030000c5
:020000040000fa
:0400c80070030000c1
:020000040000fa
:0400cc0070030000bd
:020000040000fa
:0400d00070030000b9
:020000040000fa
:0400d40070030000b5
:020000040000fa
:0400d80070030000b1
:020000040000fa
:0400dc0070030000ad
:020000040000fa
:0400e00070030000a9
:020000040000fa
:0400e40070030000a5
:020000040000fa
:0400e80070030000a1
:020000040000fa
:0400ec00700300009d
:020000040000fa
:0400f0007003000099
:020000040000fa
:0400f4007003000095
:020000040000fa
:0400f8007003000091
:020000040000fa
:0400fc00700300008d
:020000040000fa
:040100007003000088
:020000040000fa
:040104007003000084
:020000040000fa
:040108007003000080
:020000040000fa
:04010c00700300007c
:020000040000fa
:040110007003000078
:020000040000fa
:040114007003000074
:020000040000fa
:040118007003000070
:020000040000fa
:04011c00700300006c
:020000040000fa
:040120007003000068
:020000040000fa
:040124007003000064
:020000040000fa
:040128007003000060
:020000040000fa
:04012c00700300005c
:020000040000fa
:040130007003000058
:020000040000fa
:040134007003000054
:020000040000fa
:040138007003000050
:020000040000fa
:04013c00700300004c
:020000040000fa
:040140007003000048
:020000040000fa
:040144007003000044
:020000040000fa
:040148007003000040
:020000040000fa
:04014c00700300003c
:020000040000fa
:040150007003000038
:020000040000fa
:040154007003000034
:020000040000fa
:040158007003000030
:020000040000fa
:04015c00700300002c
:020000040000fa
:040160007003000028
:020000040000fa
:040164007003000024
:020000040000fa
:040168007003000020
:020000040000fa
:04016c00700300001c
:020000040000fa
:040170007003000018
:020000040000fa
:040174007003000014
:020000040000fa
:040178007003000010
:020000040000fa
:04017c00700300000c
:020000040000fa
:040180007003000008
:020000040000fa
:040184007003000004
:020000040000fa
:040188007003000000
:020000040000fa
:04018c0070030000fc
:020000040000fa
:0401900070030000f8
:020000040000fa
:0401940070030000f4
:020000040000fa
:0401980070030000f0
:020000040000fa
:04019c0070030000ec
:020000040000fa
:0401a00070030000e8
:020000040000fa
:0401a40070030000e4
:020000040000fa
:0401a80070030000e0
:020000040000fa
:0401ac0070030000dc
:020000040000fa
:0401b00070030000d8
:020000040000fa
:0401b40070030000d4
:020000040000fa
:0401b80070030000d0
:020000040000fa
:0401bc0070030000cc
:020000040000fa
:0401c00070030000c8
:020000040000fa
:0401c40070030000c4
:020000040000fa
:0401c80070030000c0
:020000040000fa
:0401cc0070030000bc
:020000040000fa
:0401d00070030000b8
:020000040000fa
:0401d40070030000b4
:020000040000fa
:0401d80070030000b0
:020000040000fa
:0401dc0070030000ac
:020000040000fa
:0401e00070030000a8
:020000040000fa
:0401e40070030000a4
:020000040000fa
:0401e80070030000a0
:020000040000fa
:0401ec00700300009c
:020000040000fa
:0401f0007003000098
:020000040000fa
:0401f4007003000094
:020000040000fa
:0401f8007003000090
:020000040000fa
:0401fc00700300008c
:020000040000fa
:040200007003000087
:020000040000fa
:040204007003000083
:020000040000fa
:04020800700300007f
:020000040000fa
:04020c00700300007b
:020000040000fa
:040210007003000077
:020000040000fa
:040214007003000073
:020000040000fa
:04021800700300006f
:020000040000fa
:04021c00700300006b
:020000040000fa
:040220007003000067
:020000040000fa
:040224007003000063
:020000040000fa
:04022800700300005f
:020000040000fa
:04022c00700300005b
:020000040000fa
:040230007003000057
:020000040000fa
:040234007003000053
:020000040000fa
:04023800700300004f
:020000040000fa
:04023c00700300004b
:020000040000fa
:040240007003000047
:020000040000fa
:040244007003000043
:020000040000fa
:04024800700300003f
:020000040000fa
:04024c00700300003b
:020000040000fa
:040250007003000037
:020000040000fa
:040254007003000033
:020000040000fa
:04025800700300002f
:020000040000fa
:04025c00700300002b
:020000040000fa
:040260007003000027
:020000040000fa
:040264007003000023
:020000040000fa
:04026800700300001f
:020000040000fa
:04026c00700300001b
:020000040000fa
:040270007003000017
:020000040000fa
:040274007003000013
:020000040000fa
:04027800700300000f
:020000040000fa
:04027c00700300000b
:020000040000fa
:040280007003000007
:020000040000fa
:100400006f0421000eff2c000e0188000000000088
:10041000000020000000e000020032000001200087
:100420002002880014000700af0007000000e00071
:1004300003003a00202622000100200002003700bd
:100440000000200001002000810f70000100320038
:100450000f000700000020000000e0000200320052
:100460000000020000000000dc06020000000000a6
:100470000040da000000fe00200020000000e00044
:1004800002003200100020009001880000000600e9
:10049000a1028800800478000000eb001f003700f4
:1004a000e284440054a0b4009905ba00e2844400f8
:1004b00054a0b4009906ba00e284440054a0b400e9
:1004c0000006eb00476fde00fd07b200ae018800ba
:1004d000636ce10003003a000ad801000000eb0061
:1004e0000e003700606ce10008003a00004deb00a0
:1004f0000a05e800020039003420ec000af0a000f0
:100500008b05e900f9ff3e00040037006168e10057
:10051000010032000086eb000b00070019c7ba008b
:100520000e04e0001905ba0003003a000a00e000da
:10053000dbff3a0000000600fe07b200ae028800b2
:100540008a047800f5ff37000cd0a300e20f4d00bd
:100550001c00390089027800354dba000a05e80010
:10056000020039003420ec000af0a0008b05e900fd
:100570000f003200254dba000a05e80002003900dc
:100580003420ec000af0a0008b05e90008003200de
:100590000c00e0000600320015cdba000a05e800a4
:1005a000020039003420ec000af0a0008b05e900bd
:1005b0008984e80054a0b4000b00e000e2ff3a0098
:1005c000000006009902ba00055d78008b05e9007d
:1005d000f7ff3200c82ade00055d78008b05e900d0
:1005e000f3ff32000c00e000f1ff320019ddba0029
:1005f000eeff37000000fa000108a9000080fa00b1
:10060000004006003600f800809fbe00829fbe00ba
:10061000849fbe00869fbe000000fa000068a9000b
:100620006d0f0700f70d07000080fa004f03be00b2
:100630004f02be004f01be004f00be003600f90061
:10064000004006003600f800809fbe00829fbe007a
:10065000849fbe00869fbe000000fa000368a900c8
:10066000608080007180800061004000e080480070
:100670006080880071808800890207000080fa008d
:100680004f03be004f02be004f01be004f00be0030
:100690003600f90000400600801f78000000fa00d4
:1006a00001a8a90000188000e081880010188000cf
:1006b000f0818800201880000082880030188000b7
:1006c00010828800401880002082880010c0b3008b
:1006d00015f0b7000080fa004f00780000400600d7
:1006e0000040da000000fe000000050003f0a20058
:1006f000889fbe008a9fbe008c1f780018010700eb
:100700001f0133006450e1004f0032006420e1001b
:100710005200320003826c0007003b000905d00044
:100720000306d000820f54000c065d000200390061
:1007300002003200890178000306780085825500a6
:1007400004003d000003fd008103fd008502ea0076
:100750008b854200840f720002003b006000100095
:10076000e08018006011b8000005eb007a28e10075
:100770000a00390006007800c75ddd00f707b20007
:10078000878075002d003700828171000a01780092
:10079000610560008180d1000080d3008502e900fe
:1007a000f9ff3b00060440008784480002003b003c
:1007b00060041400e0841c000988a30007003200d4
:1007c0008a81710082817100610164008904d10015
:1007d0000884d3008b05e800170037000978a300d0
:1007e00013003a000b00e000130034008b05e90011
:1007f0000804440089844c000a4474000978a3006a
:100800000d003a000b00e000070034008b05e90002
:100810000804440089844c0001003a000b002000c9
:100820000978a300f7ff32000001eb000200370057
:10083000828171000a0178008e0007000cf0a70089
:1008400001f0a000d70037006420e10002003a0068
:10085000838f6c00d70033000801be000200be0089
:10086000d0003700889fbe008a9fbe008c1f780092
:10087000bb000700c200330003866c006450e10037
:100880002e0032006420e100330032006150e100ac
:100890002f0032006120e1003100320085855500d3
:1008a000eb07b00009002000080420000500370015
:1008b0000804440089844c000a0031000603430008
:1008c00087834b000001530081815b00f8ff3300f8
:1008d0000203be000800a0000804440089844c0004
:1008e000f6ff3900c639dd008301730001003200d4
:1008f000130020008904d1000884d3000998a300c4
:10090000050032000800a7000300a0008904d10000
:100910000884d3008b05e8008904d1000884d30043
:100920000001eb000281d2005200070001f0a1009b
:100930000cf0a70001f0a0009a0037006420e1004d
:100940009c0032000801be000200be00f7ff370025
:100950006120e100970032006000b800f3ff37002b
:100960000000200001f82700f0ff370014002000ed
:10097000c7003700f4ff2f00c50037000001be009c
:10098000620007000470a70003f0a1006509b10030
:10099000160032000d0035006828e1000600350021
:1009a000f0ff2f00f1ff27000300e00013003b00e1
:1009b0000100280000000500000040008180480080
:1009c0008502e900fcff3a0008003700f88f42007a
:1009d00002003c008000eb00000005008100d10017
:1009e0000080d3008502e800fcff3a000300e0002d
:1009f00002003b0060001000e080180000000600cc
:100a00000001be00410007000470a70003f0a10030
:100a100003f8a30013003a006509b100100032008a
:100a2000090035006928e1000200350001002800b6
:100a30000000050000004000818048008502e900b8
:100a4000fcff3a0000000600f88f42000500350068
:100a50008100d1000080d3008502e800fcff3a004d
:100a6000000006008000eb00000005006011b800e7
:100a7000a200370081002000618055000b003d007e
:100a80000b00200061fe2f000100e1001d0034007a
:100a900082817100610164008904d1000884d3005f
:100aa0000000e800faff3a007100200061006400d5
:100ab000030070000200600009003200610444007d
:100ac000e0844c000988a500050032008b05e80091
:100ad0006808e10002003a008904d1000884d300cc
:100ae000f20f20000258e10005003d00c75ddd0067
:100af000f907b20089807500080078000000060040
:100b00000bf827008b00780000000500c70ade0004
:100b1000f107b200f50fb20008003200e1cf420049
:100b2000020032000170a00024000500810f700057
:100b3000010032000408050044000500810f700028
:100b400002003a00140005008502e90000004000a0
:100b500081c04800fcff3b000170a000240005009c
:100b60000004be00e9ff07000003be000405be004c
:100b70000200be00e5ff0700844f7500000006007c
:100b80000200be006450e100050036006420e10070
:100b9000020036000968a30001003a000800be0008
:100ba0000160a0004f0678004f05be004f04be0054
:100bb00000000600f0ff2f00f1ff2700f9ff3700cb
:100bc000889fbe008a9fbe008c1f7800e4ff07004c
:100bd000ebff330003866c006450e1002400320018
:100be0006420e100270032006150e1002200320061
:100bf0006120e100210032008b854200eb07b1004b
:100c00000134b800003ab8000804420089844a0060
:100c1000013ab8000030b8008880400009014a005d
:100c200004003300000040008180480002014900b8
:100c30008b05e900c909dd00830170000100320065
:100c400013002000c814de004814dd004709de0050
:100c50001200b200c808de000884700085ff07009b
:100c600001f0a1000cf0a70001f0a000cdff3700bb
:100c70006120e100cfff32000801be000200be008b
:100c8000f7ff37006150e100fcff3a00c9ff370071
:100c9000889fbe008a9fbe00841f7800b0ff0700b7
:100ca0004f00780011003300f0ff2f00838f6c009d
:100cb00006003b00040565000a00a7000800370095
:100cc00009f0a6001000200008003700820f540031
:100cd000838f5c00030039001000200001003e00fb
:100ce0000000200009f0a7000000ea004f05be0048
:100cf0004f04be000000e00000000600889fbe0018
:100d00008a9fbe000082700004027100048271009c
:100d1000260032000004be000200be006011b800d0
:100d20006b092000950220000182cf000a003900e3
:100d30000541b1000082cf00070039000541b10034
:100d40000982cf00040039000541b1000882cf00bc
:100d5000010039000541b100054252001200320085
:100d60000a003b0082817100610164008100d100b2
:100d70000080d3008984d3000884d3008b05e80069
:100d80000442e800f7ff3a00070037000804440077
:100d900089844c0000004800818048008b05e900f0
:100da0000442e900f9ff3a0032ff07004f05be0098
:080db0004f04be000000060024
:020000040000fa
:100db8000600fa00881f7800950d0700d40d07007b
:100dc800f20b0700480d0700f60a0700dc0a0700c7
:100dd800710b0700860d0700e14f500083003a00b1
:100de800870d07007e0d0700000f78001e007800b1
:100df800100078008000eb001aff07003233230050
:100e0800330524006cff070002002000035824006b
:100e180092fe0700d2cc2c00c304240066ff070012
:100e280010079800210798001e019000ae0190005d
:100e3800000020008120240088fe07000200200016
:100e4800030a240027fe070060818800718188005a
:100e58001e80e800100078008000eb0001ff07000a
:100e6800323323003305240053ff0700020020001b
:100e78000358240079fe0700d2cc2c00c3042400b8
:100e88004dff070010079800210798001e019000e9
:100e9800ae01900000002000812024006ffe0700b2
:100ea80002002000030a24000efe0700408188008b
:100eb800518188009e00780064804000100078000e
:100ec8008000eb00e7fe07003233230033052400df
:100ed80039ff070002002000035824005ffe0700c6
:100ee800d2cc2c00c304240033ff0700100798005d
:100ef800210798001e019000ae019000000020001c
:100f08008120240055fe070002002000030a240067
:100f1800f4fd070080818800918188009e00780098
:100f280068804000100078008000eb00cdfe0700cc
:100f380032332300330524001fff0700020020007e
:100f48000358240045fe0700d2cc2c00c30424001b
:100f580019ff070010079800210798001e0190004c
:100f6800ae01900000002000812024003bfe070015
:100f780002002000030a2400dafd0700a08188008f
:100f8800b18188009e0078006680400010007800db
:100f98008000eb00b3fe0700323323003305240042
:100fa80005ff070002002000035824002bfe07005d
:100fb800d2cc2c00c3042400fffe070010079800c1
:100fc800210798001e019000ae019000000020004b
:100fd8008120240021fe070002002000030a2400cb
:100fe800c0fd0700c0818800d18188004081800051
:100ff8005181800018c0b3000200200003122400b1
:101008005afe07000000e00001003c000044eb002d
:101018000804e00002003200254ea8000100370055
:10102800254ea900608180007181800018c0b3003e
:1010380002002000031224004cfe07000000e0001c
:1010480001003c000044eb000804e000020032000c
:1010580064eea8000100370064eea900c08180009a
:10106800d181800018c0b3000200200003122400c0
:101078003efe07000000e00001003c000044eb00d9
:101088000804e0000200320064cea80051ff3700d7
:1010980064cea9004fff37000000fa000ad0bf0055
:1010a8000080fb00cf80de00b2002000030020009b
:1010b800820f5000838f580073003e000006010025
:1010c8000b003700140037001d0037003a003700c6
:1010d8003b00370044003700450037004e0037001a
:1010e8004f003700590037005a00370064003700b6
:1010f8000c30ef000e30ef000001eb006000b8008c
:10110800df0b0700120020006000b800dc0b0700ae
:1011180010c0b3000af0b7006280800073808000be
:10112800803e200001002000800f5100818f59006f
:101138005800360020c0b3000af0b7005600370048
:1011480030808000e10f500003003a00f0002000da
:10115800408088000b00370030808000e20f50008c
:1011680003003a0040012000408088000500370055
:1011780030808000e30f500002003a009001200008
:1011880040808800408080008000eb0035fe07002a
:101198000001eb00ba0b0700408080008000eb00e4
:1011a80030fe070012002000b50b070030c0b30066
:1011b8000af0b7003800370039000700360037005a
:1011c8000001eb000000200001172400ac0b070011
:1011d800120020006000b800a90b070050c0b3003f
:1011e8000af0b7002c0037002d0007002a0037004e
:1011f8000001eb006000b800a10b070012002000fe
:1012080000002000011724009d0b070070c0b300e8
:101218000af0b70020003700210007001e00370041
:101228000001eb000000200001172400940b0700c8
:10123800120020000000200001172c00900b07006e
:1012480090c0b3000af0b70013003700140007007d
:10125800110037000001eb000000200001172c00ee
:10126800870b07001200200000002000011724004f
:10127800830b0700b0c0b3000af0b70006003700c0
:1012880007000700040037000a70ef0000000000a4
:1012980001003700000000000080fa00000006008e
:1012a8000200fa00889fbe008a1f78000040eb0009
:1012b800004f7800a0818000b181800018c0b30081
:1012c80002002000031f2400a6fd07000000e00024
:1012d800010035000044eb000804e00016003a0065
:1012e800808180009181800018c0b3000200200036
:1012f800031a24009bfd07000000e00001003500f0
:101308000044eb000804e0000b003a004081800034
:101318005181800018c0b30002002000031f240080
:1013280090fd07000000e000010035000044eb00dc
:101338000804e000290932001000200030808800ed
:101348004001200000808800e00120001080880013
:101358004001200020808800c8818000d981800059
:10136800208080008000eb00befd07001ac0b3009b
:101378000001be000800be007cfd07000000e00080
:1013880001003c000045eb000a04e0003b0032008d
:10139800a8818000b9818000108080008000eb0067
:1013a800b0fd07001ac0b3000001be000800be006f
:1013b8006efd07000000e00001003c000045eb0066
:1013c8000a04e0002d0032008881800099818000a5
:1013d800008080008000eb00a2fd07001ac0b30067
:1013e8000001be000800be0060fd07000000e0002c
:1013f80001003c000045eb000a04e0001f00320039
:101408004881800059818000108080008000eb00b6
:1014180094fd07001ac0b3000001be000800be001a
:1014280052fd07000000e00001003c000045eb0011
:101438000a04e00011003200688180007981800090
:10144800208080008000eb0086fd07001ac0b300f2
:101458000001be000800be0044fd07000000e000d7
:1014680001003c000045eb000a04e00003003200e4
:101478000040eb00004f7800d7083700c881800093
:10148800d9818000208080008000eb0075fd070076
:101498001ac0b3000001be000800be0031fd0700fd
:1014a8000000e000010035000045eb000a04e00000
:1014b8003b003200a8818000b98180001080800044
:1014c8008000eb0067fd07001ac0b3000001be00f2
:1014d8000800be0025fd07000000e00001003c00f8
:1014e8000045eb000a04e0002d00320088818000ee
:1014f80099818000008080008000eb0059fd070082
:101508001ac0b3000001be000800be0017fd0700a6
:101518000000e00001003c000045eb000a04e00088
:101528001f003200488180005981800010808000af
:101538008000eb004bfd07001ac0b3000001be009d
:101548000800be0009fd07000000e00001003c00a3
:101558000045eb000a04e0001100320068818000b9
:1015680079818000208080008000eb003dfd07002d
:101578001ac0b3000001be000800be00fbfc070053
:101588000000e00001003c000045eb000a04e00018
:101598000300320010c0b300004f78008e083700f7
:1015a800c8818000d9818000208080008000eb0005
:1015b8002cfd07001ac0b3000001be000800be00e1
:1015c800eafc07000000e00001003c000045eb00d9
:1015d8000a04e0003b003200a8818000b981800045
:1015e800108080008000eb001efd07001ac0b300c9
:1015f8000001be000800be00dafc07000000e000a1
:10160800010035000045eb000a04e0002d0032001f
:101618008881800099818000008080008000eb0034
:1016280010fd07001ac0b3000001be000800be008c
:10163800cefc07000000e00001003c000045eb0084
:101648000a04e0001f0032004881800059818000b0
:10165800108080008000eb0002fd07001ac0b30074
:101668000001be000800be00c0fc07000000e0004a
:1016780001003c000045eb000a04e00011003200c4
:101688006881800079818000208080008000eb00e4
:10169800f4fc07001ac0b3000001be000800be0039
:1016a800b2fc07000000e00001003c000045eb0030
:1016b8000a04e0000300320010c0b300004f7800b5
:1016c80045083700c8818000d981800020808000cb
:1016d8008000eb00e3fc07001ac0b3000001be0065
:1016e8000800be00a1fc07000000e00001003c006b
:1016f8000045eb000a04e0003b003200a8818000ae
:10170800b9818000108080008000eb00d5fc0700c4
:101718001ac0b3000001be000800be0093fc070019
:101728000000e00001003c000045eb000a04e00076
:101738002d0032008881800099818000008080001f
:101748008000eb00c7fc07001ac0b3000001be0010
:101758000800be0083fc07000000e000010035001f
:101768000045eb000a04e0001f00320048818000b9
:1017780059818000108080008000eb00b9fc0700d0
:101788001ac0b3000001be000800be0077fc0700c5
:101798000000e00001003c000045eb000a04e00006
:1017a80011003200688180007981800020808000eb
:1017b8008000eb00abfc07001ac0b3000001be00bc
:1017c8000800be0069fc07000000e00001003c00c2
:1017d8000045eb000a04e0000300320040c0b300fb
:1017e800004f7800fc073700c8818000d98180004d
:1017f800208080008000eb009afc07001ac0b3002c
:101808000001be000800be0058fc07000000e00010
:1018180001003c000045eb000a04e0003b003200f8
:10182800a8818000b9818000108080008000eb00d2
:101838008cfc07001ac0b3000001be000800be00ff
:101848004afc07000000e00001003c000045eb00f6
:101858000a04e0002d003200888180009981800010
:10186800008080008000eb007efc07001ac0b300f7
:101878000001be000800be003cfc07000000e000bc
:1018880001003c000045eb000a04e0001f003200a4
:101898004881800059818000108080008000eb0022
:1018a80070fc07001ac0b3000001be000800be00ab
:1018b8002cfc07000000e000010035000045eb00ab
:1018c8000a04e000110032006881800079818000fc
:1018d800208080008000eb0062fc07001ac0b30083
:1018e8000001be000800be0020fc07000000e00068
:1018f80001003c000045eb000a04e0000300320050
:1019080030c0b300004f7800b3073700c8818000ab
:10191800d9818000208080008000eb0051fc070006
:101928001ac0b3000001be000800be000ffc07008b
:101938000000e00001003c000045eb000a04e00064
:101948003b003200a8818000b981800010808000af
:101958008000eb0043fc07001ac0b3000001be0082
:101968000800be0001fc07000000e00001003c0088
:101978000045eb000a04e0002d0032008881800059
:1019880099818000008080008000eb0035fc070012
:101998001ac0b3000001be000800be00f3fb070038
:1019a8000000e00001003c000045eb000a04e000f4
:1019b8001f0032004881800059818000108080001b
:1019c8008000eb0027fc07001ac0b3000001be002e
:1019d8000800be00e5fb07000000e00001003c0035
:1019e8000045eb000a04e000110032006881800025
:1019f80079818000208080008000eb0019fc0700be
:101a08001ac0b3000001be000800be00d5fb0700e5
:101a18000000e000010035000045eb000a04e0008a
:101a28000300320030c0b300004f78006a07370067
:101a3800c8818000d9818000208080008000eb0070
:101a480008fc07001ac0b3000001be000800be0071
:101a5800c6fb07000000e00001003c000045eb0069
:101a68000a04e0003b003200a8818000b9818000b0
:101a7800108080008000eb00fafb07001ac0b3005a
:101a88000001be000800be00b6fb07000000e00031
:101a9800010035000045eb000a04e0002d0032008b
:101aa8008881800099818000008080008000eb00a0
:101ab800ecfb07001ac0b3000001be000800be001e
:101ac800a8fb07000000e000010035000045eb001e
:101ad8000a04e0001f00320048818000598180001c
:101ae800108080008000eb00defb07001ac0b30006
:101af8000001be000800be009afb07000000e000dd
:101b0800010035000045eb000a04e0001100320036
:101b18006881800079818000208080008000eb004f
:101b2800d0fb07001ac0b3000001be000800be00c9
:101b38008efb07000000e00001003c000045eb00c0
:101b48000a04e0000300320040c0b300004f7800f0
:101b580021073700c8818000d9818000208080005b
:101b68008000eb00bffb07001ac0b3000001be00f5
:101b78000800be007dfb07000000e00001003c00fb
:101b88000045eb000a04e0003b003200a881800019
:101b9800b9818000108080008000eb00b1fb070055
:101ba8001ac0b3000001be000800be006dfb0700ac
:101bb8000000e000010035000045eb000a04e000e9
:101bc8002d0032008881800099818000008080008b
:101bd8008000eb00a3fb07001ac0b3000001be00a1
:101be8000800be0061fb07000000e00001003c00a7
:101bf8000045eb000a04e0001f0032004881800025
:101c080059818000108080008000eb0095fb070060
:101c18001ac0b3000001be000800be0051fb070057
:101c28000000e000010035000045eb000a04e00078
:101c38001100320068818000798180002080800056
:101c48008000eb0087fb07001ac0b3000001be004c
:101c58000800be0045fb07000000e00001003c0052
:101c68000045eb000a04e0000300320040c0b30066
:101c7800004f7800d8063700c8818000d9818000dd
:101c8800208080008000eb0076fb07001ac0b300bc
:101c98000001be000800be0032fb07000000e000a3
:101ca800010035000045eb000a04e0003b0032006b
:101cb800a8818000b9818000108080008000eb003e
:101cc80068fb07001ac0b3000001be000800be0090
:101cd80024fb07000000e000010035000045eb0090
:101ce8000a04e0002d00320088818000998180007c
:101cf800008080008000eb005afb07001ac0b30088
:101d08000001be000800be0018fb07000000e0004c
:101d180001003c000045eb000a04e0001f0032000f
:101d28004881800059818000108080008000eb008d
:101d38004cfb07001ac0b3000001be000800be003b
:101d480008fb07000000e000010035000045eb003b
:101d58000a04e00011003200688180007981800067
:101d6800208080008000eb003efb07001ac0b30013
:101d78000001be000800be00fafa07000000e000fb
:101d8800010035000045eb000a04e00003003200c2
:101d980050c0b300004f78008f063700c88180001c
:101da800d9818000208080008000eb002dfb070097
:101db8001ac0b3000001be000800be00e9fa07001f
:101dc8000000e000010035000045eb000a04e000d7
:101dd8003b003200a8818000b9818000108080001b
:101de8008000eb001ffb07001ac0b3000001be0013
:101df8000800be00ddfa07000000e00001003c001a
:101e08000045eb000a04e0002d00320088818000c4
:101e180099818000008080008000eb0011fb0700a2
:101e28001ac0b3000001be000800be00cffa0700c8
:101e38000000e00001003c000045eb000a04e0005f
:101e48001f00320048818000598180001080800086
:101e58008000eb0003fb07001ac0b3000001be00be
:101e68000800be00c1fa07000000e00001003c00c5
:101e78000045eb000a04e000110032006881800090
:101e880079818000208080008000eb00f5fa07004f
:101e98001ac0b3000001be000800be00b1fa070076
:101ea8000000e000010035000045eb000a04e000f6
:101eb800030032000040eb00004f78004606370070
:101ec800c8818000d9818000208080008000eb00dc
:101ed800e4fa07001ac0b3000001be000800be0003
:101ee800a0fa07000000e000010035000045eb0003
:101ef8000a04e0003b003200a8818000b98180001c
:101f0800108080008000eb00d6fa07001ac0b300ea
:101f18000001be000800be0092fa07000000e000c1
:101f2800010035000045eb000a04e0002d003200f6
:101f38008881800099818000008080008000eb000b
:101f4800c8fa07001ac0b3000001be000800be00ae
:101f580086fa07000000e00001003c000045eb00a5
:101f68000a04e0001f003200488180005981800087
:101f7800108080008000eb00bafa07001ac0b30096
:101f88000001be000800be0078fa07000000e0006b
:101f980001003c000045eb000a04e000110032009b
:101fa8006881800079818000208080008000eb00bb
:101fb800acfa07001ac0b3000001be000800be005a
:101fc8006afa07000000e00001003c000045eb0051
:101fd8000a04e0000300320010c0b300004f78008c
:101fe800fd053700c8818000d981800020808000ed
:101ff8008000eb009bfa07001ac0b3000001be0086
:102008000800be0059fa07000000e00001003c008b
:102018000045eb000a04e0003b003200a881800084
:10202800b9818000108080008000eb008dfa0700e5
:102038001ac0b3000001be000800be0049fa07003c
:102048000000e000010035000045eb000a04e00054
:102058002d003200888180009981800000808000f6
:102068008000eb007ffa07001ac0b3000001be0031
:102078000800be003bfa07000000e0000100350040
:102088000045eb000a04e0001f0032004881800090
:1020980059818000108080008000eb0071fa0700f1
:1020a8001ac0b3000001be000800be002ffa0700e6
:1020b8000000e00001003c000045eb000a04e000dd
:1020c80011003200688180007981800020808000c2
:1020d8008000eb0063fa07001ac0b3000001be00dd
:1020e8000800be0021fa07000000e00001003c00e3
:1020f8000045eb000a04e0000300320020c0b300f2
:10210800004f7800b4053700c8818000d98180006d
:10211800208080008000eb0052fa07001ac0b3004c
:102128000001be000800be0010fa07000000e00031
:1021380001003c000045eb000a04e0003b003200cf
:10214800a8818000b9818000108080008000eb00a9
:1021580044fa07001ac0b3000001be000800be0020
:1021680002fa07000000e00001003c000045eb0017
:102178000a04e0002d0032008881800099818000e7
:10218800008080008000eb0036fa07001ac0b30018
:102198000001be000800be00f2f907000000e000e0
:1021a800010035000045eb000a04e0001f00320082
:1021b8004881800059818000108080008000eb00f9
:1021c80028fa07001ac0b3000001be000800be00cc
:1021d800e4f907000000e000010035000045eb00cd
:1021e8000a04e000110032006881800079818000d3
:1021f800208080008000eb001afa07001ac0b300a4
:102208000001be000800be00d8f907000000e00089
:1022180001003c000045eb000a04e0000300320026
:1022280040c0b300004f78006b053700c8818000bc
:10223800d9818000208080008000eb0009fa070027
:102248001ac0b3000001be000800be00c7f90700ad
:102258000000e00001003c000045eb000a04e0003b
:102268003b003200a8818000b98180001080800086
:102278008000eb00fbf907001ac0b3000001be00a4
:102288000800be00b9f907000000e00001003c00aa
:102298000045eb000a04e0002d0032008881800030
:1022a80099818000008080008000eb00edf9070034
:1022b8001ac0b3000001be000800be00abf9070059
:1022c8000000e00001003c000045eb000a04e000cb
:1022d8001f003200488180005981800010808000f2
:1022e8008000eb00dff907001ac0b3000001be0050
:1022f8000800be009bf907000000e000010035005f
:102308000045eb000a04e0001100320068818000fb
:1023180079818000208080008000eb00d1f90700df
:102328001ac0b3000001be000800be008df9070006
:102338000000e000010035000045eb000a04e00061
:102348000300320030c0b300004f78002205370088
:10235800c8818000d9818000208080008000eb0047
:10236800c0f907001ac0b3000001be000800be0093
:102378007ef907000000e00001003c000045eb008a
:102388000a04e0003b003200a8818000b981800087
:10239800108080008000eb00b2f907001ac0b3007b
:1023a8000001be000800be0070f907000000e00050
:1023b80001003c000045eb000a04e0002d0032005b
:1023c8008881800099818000008080008000eb0077
:1023d800a4f907001ac0b3000001be000800be003f
:1023e80060f907000000e000010035000045eb003f
:1023f8000a04e0001f0032004881800059818000f3
:10240800108080008000eb0096f907001ac0b30026
:102418000001be000800be0052f907000000e000fd
:10242800010035000045eb000a04e000110032000d
:102438006881800079818000208080008000eb0026
:1024480088f907001ac0b3000001be000800be00ea
:1024580044f907000000e000010035000045eb00ea
:102468000a04e0000300320040c0b300004f7800c7
:10247800d9043700c8818000d9818000208080007d
:102488008000eb0077f907001ac0b3000001be0016
:102498000800be0033f907000000e0000100350025
:1024a8000045eb000a04e0003b003200a8818000f0
:1024b800b9818000108080008000eb0069f9070076
:1024c8001ac0b3000001be000800be0025f90700cd
:1024d8000000e000010035000045eb000a04e000c0
:1024e8002d00320088818000998180000080800062
:1024f8008000eb005bf907001ac0b3000001be00c2
:102508000800be0017f907000000e00001003500d0
:102518000045eb000a04e0001f00320048818000fb
:1025280059818000108080008000eb004df9070081
:102538001ac0b3000001be000800be000bf9070076
:102548000000e00001003c000045eb000a04e00048
:10255800110032006881800079818000208080002d
:102568008000eb003ff907001ac0b3000001be006d
:102578000800be00fdf807000000e00001003c0074
:102588000045eb000a04e0000300320020c0b3005d
:10259800004f780090043700c8818000d9818000fe
:1025a800208080008000eb002ef907001ac0b300dd
:1025b8000001be000800be00eaf807000000e000c5
:1025c800010035000045eb000a04e0003b00320042
:1025d800a8818000b9818000108080008000eb0015
:1025e80020f907001ac0b3000001be000800be00b1
:1025f800dcf807000000e000010035000045eb00b2
:102608000a04e0002d003200888180009981800052
:10261800008080008000eb0012f907001ac0b300a8
:102628000001be000800be00cef807000000e00070
:10263800010035000045eb000a04e0001f003200ed
:102648004881800059818000108080008000eb0064
:1026580004f907001ac0b3000001be000800be005c
:10266800c0f807000000e000010035000045eb005d
:102678000a04e0001100320068818000798180003e
:10268800208080008000eb00f6f807001ac0b30035
:102698000001be000800be00b2f807000000e0001c
:1026a800010035000045eb000a04e0000300320099
:1026b80050c0b300004f780047043700c88180003d
:1026c800d9818000208080008000eb00e5f80700b9
:1026d8001ac0b3000001be000800be00a1f8070040
:1026e8000000e000010035000045eb000a04e000ae
:1026f8003b003200a8818000b981800010808000f2
:102708008000eb00d7f807001ac0b3000001be0034
:102718000800be0093f807000000e0000100350043
:102728000045eb000a04e0002d003200888180009b
:1027380099818000008080008000eb00c9f80700c4
:102748001ac0b3000001be000800be0085f80700eb
:102758000000e000010035000045eb000a04e0003d
:102768001f0032004881800059818000108080005d
:102778008000eb00bbf807001ac0b3000001be00e0
:102788000800be0077f807000000e00001003500ef
:102798000045eb000a04e000110032006881800067
:1027a80079818000208080008000eb00adf8070070
:1027b8001ac0b3000001be000800be006bf8070095
:1027c8000000e00001003c000045eb000a04e000c6
:1027d8000300320020c0b300004f7800fe0337002a
:1027e800c8818000d9818000208080008000eb00b3
:1027f8009cf807001ac0b3000001be000800be0024
:102808005af807000000e00001003c000045eb001a
:102818000a04e0003b003200a8818000b9818000f2
:10282800108080008000eb008ef807001ac0b3000b
:102838000001be000800be004af807000000e000e2
:10284800010035000045eb000a04e0002d003200cd
:102858008881800099818000008080008000eb00e2
:1028680080f807001ac0b3000001be000800be00cf
:102878003cf807000000e000010035000045eb00cf
:102888000a04e0001f00320048818000598180005e
:10289800108080008000eb0072f807001ac0b300b7
:1028a8000001be000800be002ef807000000e0008e
:1028b800010035000045eb000a04e0001100320079
:1028c8006881800079818000208080008000eb0092
:1028d80064f807001ac0b3000001be000800be007b
:1028e80020f807000000e000010035000045eb007b
:1028f8000a04e0000300320040c0b300004f780033
:10290800b5033700c8818000d9818000208080000d
:102918008000eb0053f807001ac0b3000001be00a6
:102928000800be000ff807000000e00001003500b5
:102938000045eb000a04e0003b003200a88180005b
:10294800b9818000108080008000eb0045f8070006
:102958001ac0b3000001be000800be0003f807005b
:102968000000e00001003c000045eb000a04e00024
:102978002d003200888180009981800000808000cd
:102988008000eb0037f807001ac0b3000001be0052
:102998000800be00f3f707000000e0000100350062
:1029a8000045eb000a04e0001f0032004881800067
:1029b80059818000108080008000eb0029f8070012
:1029c8001ac0b3000001be000800be00e5f707000a
:1029d8000000e000010035000045eb000a04e000bb
:1029e8001100320068818000798180002080800099
:1029f8008000eb001bf807001ac0b3000001be00fe
:102a08000800be00d7f707000000e000010035000d
:102a18000045eb000a04e0000300320050c0b30098
:102a2800004f78006c033700c8818000d98180008e
:102a3800208080008000eb000af807001ac0b3006d
:102a48000001be000800be00c6f707000000e00055
:102a5800010035000045eb000a04e0003b003200ad
:102a6800a8818000b9818000108080008000eb0080
:102a7800fcf707001ac0b3000001be000800be0042
:102a8800b8f707000000e000010035000045eb0042
:102a98000a04e0002d0032008881800099818000be
:102aa800008080008000eb00eef707001ac0b3003a
:102ab8000001be000800be00aaf707000000e00001
:102ac800010035000045eb000a04e0001f00320059
:102ad8004881800059818000108080008000eb00d0
:102ae800e0f707001ac0b3000001be000800be00ee
:102af8009ef707000000e00001003c000045eb00e5
:102b08000a04e000110032006881800079818000a9
:102b1800208080008000eb00d2f707001ac0b300c5
:102b28000001be000800be008ef707000000e000ac
:102b3800010035000045eb000a04e0000300320004
:102b480050c0b300004f780023033700c8818000cd
:102b5800d9818000208080008000eb00c1f7070049
:102b68001ac0b3000001be000800be007ff70700ce
:102b78000000e00001003c000045eb000a04e00012
:102b88003b003200a8818000b9818000108080005d
:102b98008000eb00b3f707001ac0b3000001be00c5
:102ba8000800be0071f707000000e00001003c00cb
:102bb8000045eb000a04e0002d0032008881800007
:102bc80099818000008080008000eb00a5f7070055
:102bd8001ac0b3000001be000800be0061f707007c
:102be8000000e000010035000045eb000a04e000a9
:102bf8001f003200488180005981800010808000c9
:102c08008000eb0097f707001ac0b3000001be0070
:102c18000800be0055f707000000e00001003c0076
:102c28000045eb000a04e0001100320068818000d2
:102c380079818000208080008000eb0089f7070000
:102c48001ac0b3000001be000800be0045f7070027
:102c58000000e000010035000045eb000a04e00038
:102c68000300320040c0b300004f7800da0237009a
:102c7800c8818000d9818000208080008000eb001e
:102c880078f707001ac0b3000001be000800be00b4
:102c980034f707000000e000010035000045eb00b4
:102ca8000a04e0003b003200a8818000b98180005e
:102cb800108080008000eb006af707001ac0b3009c
:102cc8000001be000800be0028f707000000e00071
:102cd80001003c000045eb000a04e0002d00320032
:102ce8008881800099818000008080008000eb004e
:102cf8005cf707001ac0b3000001be000800be0060
:102d080018f707000000e000010035000045eb005f
:102d18000a04e0001f0032004881800059818000c9
:102d2800108080008000eb004ef707001ac0b30047
:102d38000001be000800be000cf707000000e0001c
:102d480001003c000045eb000a04e00011003200dd
:102d58006881800079818000208080008000eb00fd
:102d680040f707001ac0b3000001be000800be000b
:102d7800fef607000000e00001003c000045eb0003
:102d88000a04e0000300320020c0b300004f7800be
:102d980091023700c8818000d9818000208080009e
:102da8008000eb002ff707001ac0b3000001be0037
:102db8000800be00ebf607000000e0000100350047
:102dc8000045eb000a04e0003b003200a8818000c7
:102dd800b9818000108080008000eb0021f7070097
:102de8001ac0b3000001be000800be00dff60700ed
:102df8000000e00001003c000045eb000a04e00090
:102e08002d00320088818000998180000080800038
:102e18008000eb0013f707001ac0b3000001be00e2
:102e28000800be00cff607000000e00001003500f2
:102e38000045eb000a04e0001f00320048818000d2
:102e480059818000108080008000eb0005f70700a2
:102e58001ac0b3000001be000800be00c3f6070098
:102e68000000e00001003c000045eb000a04e0001f
:102e78001100320068818000798180002080800004
:102e88008000eb00f7f607001ac0b3000001be008f
:102e98000800be00b3f607000000e000010035009e
:102ea8000045eb000a04e0000300320050c0b30004
:102eb800004f780048023700c8818000d98180001f
:102ec800208080008000eb00e6f607001ac0b300ff
:102ed8000001be000800be00a2f607000000e000e6
:102ee800010035000045eb000a04e0003b00320019
:102ef800a8818000b9818000108080008000eb00ec
:102f0800d8f607001ac0b3000001be000800be00d2
:102f180096f607000000e00001003c000045eb00c9
:102f28000a04e0002d003200888180009981800029
:102f3800008080008000eb00caf607001ac0b300ca
:102f48000001be000800be0088f607000000e0008f
:102f580001003c000045eb000a04e0001f003200bd
:102f68004881800059818000108080008000eb003b
:102f7800bcf607001ac0b3000001be000800be007e
:102f880078f607000000e000010035000045eb007e
:102f98000a04e00011003200688180007981800015
:102fa800208080008000eb00aef607001ac0b30056
:102fb8000001be000800be006cf607000000e0003b
:102fc80001003c000045eb000a04e0000300320069
:102fd80020c0b300004f7800ff013700c88180008f
:102fe800d9818000208080008000eb009df60700da
:102ff8001ac0b3000001be000800be005bf607005f
:103008000000e00001003c000045eb000a04e0007d
:103018003b003200a8818000b981800010808000c8
:103028008000eb008ff607001ac0b3000001be0055
:103038000800be004df607000000e00001003c005b
:103048000045eb000a04e0002d0032008881800072
:1030580099818000008080008000eb0081f60700e5
:103068001ac0b3000001be000800be003ff607000a
:103078000000e00001003c000045eb000a04e0000d
:103088001f00320048818000598180001080800034
:103098008000eb0073f607001ac0b3000001be0001
:1030a8000800be0031f607000000e00001003c0007
:1030b8000045eb000a04e00011003200688180003e
:1030c80079818000208080008000eb0065f6070091
:1030d8001ac0b3000001be000800be0023f60700b6
:1030e8000000e00001003c000045eb000a04e0009d
:1030f8000300320040c0b300004f7800b60137002b
:10310800c8818000d9818000208080008000eb0089
:1031180054f607001ac0b3000001be000800be0044
:1031280012f607000000e00001003c000045eb003b
:103138000a04e0003b003200a8818000b9818000c9
:10314800108080008000eb0046f607001ac0b3002c
:103158000001be000800be0002f607000000e00003
:10316800010035000045eb000a04e0002d003200a4
:103178008881800099818000008080008000eb00b9
:1031880038f607001ac0b3000001be000800be00f0
:10319800f6f507000000e00001003c000045eb00e8
:1031a8000a04e0001f003200488180005981800035
:1031b800108080008000eb002af607001ac0b300d8
:1031c8000001be000800be00e6f507000000e000b0
:1031d800010035000045eb000a04e0001100320050
:1031e8006881800079818000208080008000eb0069
:1031f8001cf607001ac0b3000001be000800be009c
:10320800d8f507000000e000010035000045eb009c
:103218000a04e0000300320040c0b300004f780009
:103228006d013700c8818000d9818000208080002e
:103238008000eb000bf607001ac0b3000001be00c7
:103248000800be00c7f507000000e00001003500d7
:103258000045eb000a04e0003b003200a881800032
:10326800b9818000108080008000eb00fdf5070028
:103278001ac0b3000001be000800be00b9f507007f
:103288000000e000010035000045eb000a04e00002
:103298002d003200888180009981800000808000a4
:1032a8008000eb00eff507001ac0b3000001be0074
:1032b8000800be00adf507000000e00001003c007a
:1032c8000045eb000a04e0001f003200488180003e
:1032d80059818000108080008000eb00e1f5070034
:1032e8001ac0b3000001be000800be009df507002b
:1032f8000000e000010035000045eb000a04e00092
:10330800110032006881800079818000208080006f
:103318008000eb00d3f507001ac0b3000001be001f
:103328000800be0091f507000000e00001003c0025
:103338000045eb000a04e0000300320020c0b3009f
:10334800004f780024013700c8818000d9818000af
:10335800208080008000eb00c2f507001ac0b3008f
:103368000001be000800be007ef507000000e00076
:10337800010035000045eb000a04e0003b00320084
:10338800a8818000b9818000108080008000eb0057
:10339800b4f507001ac0b3000001be000800be0063
:1033a80070f507000000e000010035000045eb0063
:1033b8000a04e0002d003200888180009981800095
:1033c800008080008000eb00a6f507001ac0b3005b
:1033d8000001be000800be0064f507000000e00020
:1033e80001003c000045eb000a04e0001f00320029
:1033f8004881800059818000108080008000eb00a7
:1034080098f507001ac0b3000001be000800be000e
:1034180056f507000000e00001003c000045eb0005
:103428000a04e00011003200688180007981800080
:10343800208080008000eb008af507001ac0b300e6
:103448000001be000800be0046f507000000e000cd
:10345800010035000045eb000a04e00003003200db
:1034680050c0b300004f7800db003700c8818000ef
:10347800d9818000208080008000eb0079f507006a
:103488001ac0b3000001be000800be0035f50700f1
:103498000000e000010035000045eb000a04e000f0
:1034a8003b003200a8818000b98180001080800034
:1034b8008000eb006bf507001ac0b3000001be00e6
:1034c8000800be0029f507000000e00001003c00ec
:1034d8000045eb000a04e0002d00320088818000de
:1034e80099818000008080008000eb005df5070076
:1034f8001ac0b3000001be000800be001bf507009b
:103508000000e00001003c000045eb000a04e00078
:103518001f0032004881800059818000108080009f
:103528008000eb004ff507001ac0b3000001be0091
:103538000800be000bf507000000e00001003500a0
:103548000045eb000a04e0001100320068818000a9
:1035580079818000208080008000eb0041f5070021
:103568001ac0b3000001be000800be00fdf4070049
:103578000000e000010035000045eb000a04e0000f
:103588000300320050c0b300004f780092003700ab
:10359800c8818000d9818000208080008000eb00f5
:1035a80030f507001ac0b3000001be000800be00d5
:1035b800eef407000000e00001003c000045eb00cd
:1035c8000a04e0003b003200a8818000b981800035
:1035d800108080008000eb0022f507001ac0b300bd
:1035e8000001be000800be00def407000000e00095
:1035f800010035000045eb000a04e0002d00320010
:103608008881800099818000008080008000eb0024
:1036180014f507001ac0b3000001be000800be0080
:10362800d0f407000000e000010035000045eb0081
:103638000a04e0001f0032004881800059818000a0
:10364800108080008000eb0006f507001ac0b30068
:103658000001be000800be00c4f407000000e0003e
:1036680001003c000045eb000a04e00011003200b4
:103678006881800079818000208080008000eb00d4
:10368800f8f407001ac0b3000001be000800be002d
:10369800b4f407000000e000010035000045eb002d
:1036a8000a04e0000300320040c0b300004f780075
:1036b80049003700c8818000d981800020808000bf
:1036c8008000eb00e7f407001ac0b3000001be0059
:1036d8000800be00a3f407000000e0000100350068
:1036e8000045eb000a04e00063003200a881800076
:1036f800b9818000108080008000eb00d9f40700b9
:103708001ac0b3000001be000800be0097f407000d
:103718000000e00001003c000045eb000a04e00066
:1037280057003200888180009981800000808000e5
:103738008000eb00cbf407001ac0b3000001be0004
:103748000800be0087f407000000e0000100350013
:103758000045eb000a04e0004b003200488180007d
:1037680059818000108080008000eb00bdf40700c4
:103778001ac0b3000001be000800be0079f40700bb
:103788000000e000010035000045eb000a04e000fd
:103798003f003200688180007981800020808000ad
:1037a8008000eb00aff407001ac0b3000001be00b0
:1037b8000800be006df407000000e00001003c00b6
:1037c8000045eb000a04e0003300320020c0b300db
:1037d800004f78003100370030003700a0818000aa
:1037e800b181800018c0b3000200200083242400a7
:1037f8005cf407000000e000010035000044eb0025
:103808000804e00016003a00808180009181800061
:1038180018c0b300020020008324240051f40700dc
:103828000000e000010035000044eb000804e0005f
:103838000b003a00408180005181800018c0b3001d
:10384800020020008324240046f407000000e00062
:10385800010035000044eb000804e00003003200da
:1038680020002000308088000c0037003000200045
:10387800308088000900370000000000070037008a
:1038880000000000050037000000000003003700ba
:103898000000000001003700000000001e40780012
:1038a8000004e00003003a0020c0b3000bf0b700aa
:1038b8001d0037001e407800e34f500003003a0017
:1038c80040c0b3000bf0b700170037001e40780067
:1038d800e14f500003003a0060c0b3000bf0b7009e
:1038e800110037001e407800e44f500003003a00f2
:1038f80080c0b3000bf0b7000b0037001e40780003
:10390800e24f500003003a00a0c0b3000bf0b7002c
:10391800050037001e407800e54f500002003a00cd
:1039280080c0b3000bf0b7000bd0bf000af0b7009f
:103938004f0578004f04be000080fa000000060022
:103948000000fa0013e1a90011e1a9001061a80024
:103958001021a90081088000f0fc2f000080600081
:10396800800888000a21ef000621ef00404c200063
:103978007008880000402b00600888002142800001
:1039880080ff2f00008060000000a0002042880017
:103998000108a9002108a80011e1a8000080fa0088
:1039a800000006000400fa00881f780000002000cc
:1039b80061312400008fbe0005e1a9000421a9009f
:1039c80050c32000100888000068a9002068a800db
:1039d80005e1a80021088000f0fc2f0000806000ad
:1039e800200888001e0178009e01900000402200f7
:1039f80041a7240099f3070018c0b30002f02f0074
:103a0800f3772400d9f307000000e00001003c0030
:103a18000044eb000804e000540032002108800054
:103a2800f0fc2f00008060000040a0002008880003
:103a38001e0178009e0190000040220041a724004a
:103a480086f30700020020000310240083f3070018
:103a580018c0b30002f02f00f3772400c3f3070067
:103a68000000e00001003c000044eb000804e00016
:103a78003200320021088000f0fc2f000080600036
:103a88000050a000200888001e0178009e019000c8
:103a98000040220041a7240070f307000200200024
:103aa800032824006df3070018c0b30002f02f00ac
:103ab800f3772400adf307000000e00001003c00ac
:103ac8000044eb000804e0001000320021088000e8
:103ad8000003200001007000200888001e01780003
:103ae8009e0190000040220041a724005bf30700dc
:103af800020020000338240058f307009df3070054
:103b08000000780010088800200037001e017800a7
:103b18009e0190000040220041a724004ff30700b7
:103b280002002000032824004cf3070091f307004b
:103b38000000780010088800140037001e01780083
:103b48009e0190000040220041a7240043f3070093
:103b5800020020000310240040f3070085f307004b
:103b68000000780010088800080037001e0178005f
:103b78009e0190000040220041a7240037f307006f
:103b88007cf3070000007800100888004f047800d4
:103b98000080fa00000006000400fa00881f780080
:103ba80000002000a1472400008fbe001fe1a900eb
:103bb8001e21a90050c32000d00888000368a9006e
:103bc8002368a8001fe1a800f1088000f0fc2f007e
:103bd80000806000f00888001e0178009e019000b7
:103be8000040220041a724001cf3070018c0b300be
:103bf80002f02f00f37724005cf307000000e000d8
:103c080001003c000044eb000804e00054003200ce
:103c1800f1088000f0fc2f00008060000040a00048
:103c2800f00888001e0178009e01900000402200e4
:103c380041a7240009f30700020020000310240014
:103c480006f3070018c0b30002f02f00f377240032
:103c580046f307000000e00001003c000044eb00d0
:103c68000804e00032003200f1088000f0fc2f0068
:103c7800008060000050a000f00888001e01780055
:103c88009e0190000040220041a72400f3f20700a3
:103c98000200200003282400f0f2070018c0b30037
:103ca80002f02f00f377240030f307000000e00053
:103cb80001003c000044eb000804e0001000320062
:103cc800f10880000003200001007000f00888005f
:103cd8001e0178009e0190000040220041a72400a8
:103ce800def207000200200003382400dbf20700a0
:103cf80020f3070000007800d00888002000370073
:103d08001e0178009e0190000040220041a7240077
:103d1800d2f207000200200003282400cff2070097
:103d280014f3070000007800d0088800140037005a
:103d38001e0178009e0190000040220041a7240047
:103d4800c6f207000200200003102400c3f2070097
:103d580008f3070000007800d00888000800370042
:103d68001e0178009e0190000040220041a7240017
:103d7800baf20700fff2070000007800d0088800b8
:103d88004f0478000080fa00000006000000fa00e6
:103d98001160800080ff2f000080600010608800a4
:103da80000fa20002060880023aca800238ca8001b
:103db80011618000f03f2f000080600000a0a0008b
:103dc800106188003000200020618800c3aca80082
:103dd800c38ca80011668000f03f2f0000806000af
:103de80000a0a0001066880030002000206688002f
:103df80001eca8000080fa00000006000000fa00ac
:103e0800889fbe0024818000358180000081800069
:103e18001181800018c0b3000001be000400be007c
:103e2800d0f207000000e000010035000044eb007c
:103e38000804e0000d00320008818000198180002c
:103e480024818000358180008080800091808000fe
:103e58000001be000400be0023f207000801be00f6
:103e6800c8000700208188003181880024818000f3
:103e780035818000008180001181800018c0b30066
:103e88000001be000400be00b8f207000000e00018
:103e980001003c000044eb000804e0000d00320083
:103ea800088180001981800024818000358180008c
:103eb80080808000918080000001be000400be0068
:103ec80008f207000801be0096000700208188005c
:103ed80031818800208180003181800018c0b300c2
:103ee8006011b800a1f207000000e00001003c00ea
:103ef8000044eb000804e00004003200c3eca90011
:103f080024cea800c3cca80003003700c3cca90066
:103f180024eea800c3eca800208180003181800035
:103f28006a000700020020000322240022f3070091
:103f3800b1f207000000780030668800e480800055
:103f4800f5808000c0808000d180800018c0b30058
:103f58000001be000400be0082f207000000e0007d
:103f6800010035000044eb000804e0000d003200b9
:103f7800c8808000d9808000e4808000f5808000bf
:103f880080808000918080000001be000400be0097
:103f9800d5f107000801be007a000700e08088001c
:103fa800f1808800e4808000f5808000c080800077
:103fb800d180800018c0b3000001be000400be001c
:103fc8006af207000000e00001003c000044eb003a
:103fd8000804e0000d003200c8808000d98080000d
:103fe800e4808000f58080008080800091808000df
:103ff8000001be000400be00baf107000801be00bf
:1040080048000700e0808800f1808800e080800098
:10401800f180800018c0b3006011b80053f20700a7
:104028000000e00001003c000044eb000804e00050
:104038000400320023cca90015eea80023eca80048
:104048000300370023eca90015cea80023cca80054
:10405800e0808000f18080001c0007000200200042
:1040680003222400d4f2070063f20700000078005e
:10407800306188004f04be000080fa00000006008e
:104088000600fa00008fbe00220798002e0090005c
:104098000000e00006003a001e0078009e00900034
:1040a80001f0a20000818800118188000500370016
:1040b8001e0078009e00900001f0a200c0808800d9
:1040c800d18088000080fa00000006000400fa0091
:1040d800881f7800008fbe0018c0b3006011b800b8
:1040e8001e0078009e00900020f207000000e0000b
:1040f80001003d000044eb000804e000030032002a
:104108001e0078009e009000030037001e00780013
:104118009e00900001f0a2004f0478000080fa0091
:10412800000006000800fa00881f7800008fbe0013
:10413800220798003307980018c0b3002e0190009a
:10414800be0190001e0078009e00900007f2070054
:104158000000e00001003c000044eb000804e0001f
:10416800030032001e0078009e0090000200370015
:104178002e009000be0090004f0478000080fa00e6
:10418800000006000800fa00881f7800008fbe00b3
:10419800220798003307980018c0b3002e0190003a
:1041a800be0190001e0078009e009000edf107000f
:1041b8000000e000010035000044eb000804e000c6
:1041c800030032001e0078009e00900002003700b5
:1041d8002e009000be0090004f0478000080fa0086
:1041e800000006000c00fa00881f7800008fbe004f
:1041f800220798003307980044079800550798004d
:1042080018c0b3004e019000de0190001e00780037
:104218009e009000d5f107000000e00001003c007e
:104228000044eb000804e000040032004e01900056
:10423800de019000028fbe000e00370018c0b300e8
:104248002e019000be0190001e0078009e00900094
:10425800c4f107000000e000010035000044eb0055
:104268000804e000030032002e019000be01900017
:10427800028fbe001e0078009e0090004f04780058
:104288000080fa00000006000400fa00008fbe005b
:10429800b2fd2000930424001e0078009e009000c8
:1042a8006ef10700020020004333240042f20700a9
:1042b8000080fa00000006000400fa00008fbe002b
:1042c800b2fd2000930424001e0078009e00900098
:1042d80039f2070002002000433324005ff1070091
:1042e8000080fa00000006000000fa0021e3a9009f
:1042f8002143a80001198000f0cf2f000080600042
:10430800001988002043a90001198000000e200030
:10431800010070000019880011198000f0ff2100c9
:1043280000806000101988002343a800111980003c
:10433800f0cf2f000080600010198800111980004c
:1043480030f82f00008060000040a000101988009d
:104358002203a9002223a90025e3a900f0c0b30085
:1043680024e3b70021198000f00f2e008080600040
:1043780000f0200001007000201988003303a90014
:104388004feea8002e0ea8002f6ea8006f2ea800d2
:104398001e2ea80031e3a80030c3a8003163a8008e
:1043a8002e03a8003063a8004119800000fc2f00ec
:1043b800008060004019880028e3a90001a8a9002e
:1043c80021a8a80021e3a8000080fa000000060048
:1043d8000000fa002023a8000080fa000000060070
:1043e8000000fa00c00321000080fa000000060067
:1043f8000000fa0015d0bf000080fa000000060097
:104408000000fa001570ef000080fa0000000600b6
:104418000000fa00f0032000303a8800213a8000ba
:10442800f0f32f0000806000203a8800213a8000d5
:1044380000fe2f00008060000000a000203a8800e5
:104448001200200080072000a109200033742000fa
:10445800804978008149780082497800103a8000c4
:10446800000178000200a00060042000710520000f
:1044780023742000804978008149780082497800b7
:1044880000000000113a80000000270080806000d2
:1044980000002100808f5000faff3a000000000061
:1044a800113a800000022000008060000000e00057
:0c44b800fbff32000080fa00000006004c
:020000040000fa
:1044c400001000000c000000800000000c10000030
:1044d4000400000080000000161000002600000008
:1044e40080000000101000000400000082000000a2
:1044f4000000a000410000003c1000000a00000081
:104504008000000014100000020000008000000081
:0445140000000000a3
:020000040000fa
:104518000000fa000e2eef001e2eef002e2eef00e8
:104528003e2eef004e2eef005e2eef006e2eef00b7
:10453800214ea90060cea90060eea90011cea90005
:1045480011eea90020cea90020eea9000080fa00f3
:044558000000060059
:020000040000fa
:02000004000af0
:04afe000cfff00009f
:020000040000fa
:02000004000af0
:04afe400ffff00006b
:020000040000fa
:02000004000af0
:04afe8007fff0000e7
:020000040000fa
:02000004000af0
:04afec005fff000003
:020000040000fa
:02000004000af0
:04aff00038ff000026
:020000040000fa
:02000004000af0
:04aff400ffff00005b
:00000001FF
