:020000040000fa
:080000000002040000000000f2
:020000040000fa
:04000800e40300000d
:020000040000fa
:04000c00e403000009
:020000040000fa
:04001000e403000005
:020000040000fa
:04001400e403000001
:020000040000fa
:04001800e4030000fd
:020000040000fa
:04001c00e4030000f9
:020000040000fa
:04002000e4030000f5
:020000040000fa
:04002400e4030000f1
:020000040000fa
:04002800e4030000ed
:020000040000fa
:04002c00e4030000e9
:020000040000fa
:04003000e4030000e5
:020000040000fa
:0400340002030000c3
:020000040000fa
:04003800e4030000dd
:020000040000fa
:04003c00e4030000d9
:020000040000fa
:04004000e4030000d5
:020000040000fa
:04004400e4030000d1
:020000040000fa
:04004800fa020000b8
:020000040000fa
:04004c00e4030000c9
:020000040000fa
:04005000e4030000c5
:020000040000fa
:04005400a003000005
:020000040000fa
:04005800760300002b
:020000040000fa
:04005c00520300004b
:020000040000fa
:04006000e4030000b5
:020000040000fa
:04006400e4030000b1
:020000040000fa
:04006800e4030000ad
:020000040000fa
:04006c00e4030000a9
:020000040000fa
:04007000e4030000a5
:020000040000fa
:04007400e4030000a1
:020000040000fa
:04007800e40300009d
:020000040000fa
:04007c00e403000099
:020000040000fa
:04008000e403000095
:020000040000fa
:04008400e403000091
:020000040000fa
:04008800e40300008d
:020000040000fa
:04008c00e403000089
:020000040000fa
:04009000e403000085
:020000040000fa
:040094002203000043
:020000040000fa
:04009800e40300007d
:020000040000fa
:04009c00e403000079
:020000040000fa
:0400a000e403000075
:020000040000fa
:0400a400e403000071
:020000040000fa
:0400a800e40300006d
:020000040000fa
:0400ac00e403000069
:020000040000fa
:0400b000e403000065
:020000040000fa
:0400b400e403000061
:020000040000fa
:0400b800e40300005d
:020000040000fa
:0400bc00e403000059
:020000040000fa
:0400c000e403000055
:020000040000fa
:0400c400e403000051
:020000040000fa
:0400c800e40300004d
:020000040000fa
:0400cc00e403000049
:020000040000fa
:0400d000e403000045
:020000040000fa
:0400d400e403000041
:020000040000fa
:0400d800e40300003d
:020000040000fa
:0400dc00e403000039
:020000040000fa
:0400e000e403000035
:020000040000fa
:0400e400e403000031
:020000040000fa
:0400e800e40300002d
:020000040000fa
:0400ec00e403000029
:020000040000fa
:0400f000e403000025
:020000040000fa
:0400f400e403000021
:020000040000fa
:0400f800e40300001d
:020000040000fa
:0400fc00e403000019
:020000040000fa
:04010000e403000014
:020000040000fa
:04010400e403000010
:020000040000fa
:04010800e40300000c
:020000040000fa
:04010c00e403000008
:020000040000fa
:04011000e403000004
:020000040000fa
:04011400e403000000
:020000040000fa
:04011800e4030000fc
:020000040000fa
:04011c00e4030000f8
:020000040000fa
:04012000e4030000f4
:020000040000fa
:04012400e4030000f0
:020000040000fa
:04012800e4030000ec
:020000040000fa
:04012c00e4030000e8
:020000040000fa
:04013000e4030000e4
:020000040000fa
:04013400e4030000e0
:020000040000fa
:04013800e4030000dc
:020000040000fa
:04013c00e4030000d8
:020000040000fa
:04014000e4030000d4
:020000040000fa
:04014400e4030000d0
:020000040000fa
:04014800e4030000cc
:020000040000fa
:04014c00e4030000c8
:020000040000fa
:04015000e4030000c4
:020000040000fa
:04015400e4030000c0
:020000040000fa
:04015800e4030000bc
:020000040000fa
:04015c00e4030000b8
:020000040000fa
:04016000e4030000b4
:020000040000fa
:04016400e4030000b0
:020000040000fa
:04016800e4030000ac
:020000040000fa
:04016c00e4030000a8
:020000040000fa
:04017000e4030000a4
:020000040000fa
:04017400e4030000a0
:020000040000fa
:04017800e40300009c
:020000040000fa
:04017c00e403000098
:020000040000fa
:04018000e403000094
:020000040000fa
:04018400e403000090
:020000040000fa
:04018800e40300008c
:020000040000fa
:04018c00e403000088
:020000040000fa
:04019000e403000084
:020000040000fa
:04019400e403000080
:020000040000fa
:04019800e40300007c
:020000040000fa
:04019c00e403000078
:020000040000fa
:0401a000e403000074
:020000040000fa
:0401a400e403000070
:020000040000fa
:0401a800e40300006c
:020000040000fa
:0401ac00e403000068
:020000040000fa
:0401b000e403000064
:020000040000fa
:0401b400e403000060
:020000040000fa
:0401b800e40300005c
:020000040000fa
:0401bc00e403000058
:020000040000fa
:0401c000e403000054
:020000040000fa
:0401c400e403000050
:020000040000fa
:0401c800e40300004c
:020000040000fa
:0401cc00e403000048
:020000040000fa
:0401d000e403000044
:020000040000fa
:0401d400e403000040
:020000040000fa
:0401d800e40300003c
:020000040000fa
:0401dc00e403000038
:020000040000fa
:0401e000e403000034
:020000040000fa
:0401e400e403000030
:020000040000fa
:0401e800e40300002c
:020000040000fa
:0401ec00e403000028
:020000040000fa
:0401f000e403000024
:020000040000fa
:0401f400e403000020
:020000040000fa
:0401f800e40300001c
:020000040000fa
:0401fc00e403000018
:020000040000fa
:04020000e403000013
:020000040000fa
:04020400e40300000f
:020000040000fa
:04020800e40300000b
:020000040000fa
:04020c00e403000007
:020000040000fa
:04021000e403000003
:020000040000fa
:04021400e4030000ff
:020000040000fa
:04021800e4030000fb
:020000040000fa
:04021c00e4030000f7
:020000040000fa
:04022000e4030000f3
:020000040000fa
:04022400e4030000ef
:020000040000fa
:04022800e4030000eb
:020000040000fa
:04022c00e4030000e7
:020000040000fa
:04023000e4030000e3
:020000040000fa
:04023400e4030000df
:020000040000fa
:04023800e4030000db
:020000040000fa
:04023c00e4030000d7
:020000040000fa
:04024000e4030000d3
:020000040000fa
:04024400e4030000cf
:020000040000fa
:04024800e4030000cb
:020000040000fa
:04024c00e4030000c7
:020000040000fa
:04025000e4030000c3
:020000040000fa
:04025400e4030000bf
:020000040000fa
:04025800e4030000bb
:020000040000fa
:04025c00e4030000b7
:020000040000fa
:04026000e4030000b3
:020000040000fa
:04026400e4030000af
:020000040000fa
:04026800e4030000ab
:020000040000fa
:04026c00e4030000a7
:020000040000fa
:04027000e4030000a3
:020000040000fa
:04027400e40300009f
:020000040000fa
:04027800e40300009b
:020000040000fa
:04027c00e403000097
:020000040000fa
:04028000e403000093
:020000040000fa
:10040000cf1d21000eff2c000e018800000000000f
:10041000000020000000e000020032000001200087
:100420002002880014000700e90007000000e00037
:1004300003003a00807e2100010020000200370006
:100440000000200001002000810f70000100320038
:100450000f000700000020000000e0000200320052
:100460000000020000000000500702000000000031
:100470000040da000000fe00200020000000e00044
:1004800002003200100020009001880000000600e9
:10049000a1028800800478000000eb001f003700f4
:1004a000e284440054a0b4009905ba00e2844400f8
:1004b00054a0b4009906ba00e284440054a0b400e9
:1004c0000006eb00476fde00fd07b200ae018800ba
:1004d000636ce10003003a000ad801000000eb0061
:1004e0000e003700606ce10008003a00004deb00a0
:1004f0000a05e800020039003420ec000af0a000f0
:100500008b05e900f9ff3e00040037006168e10057
:10051000010032000086eb000b00070019c7ba008b
:100520000e04e0001905ba0003003a000a00e000da
:10053000dbff3a0000000600fe07b200ae028800b2
:100540008a047800f5ff37000cd0a300e20f4d00bd
:100550001c00390089027800354dba000a05e80010
:10056000020039003420ec000af0a0008b05e900fd
:100570000f003200254dba000a05e80002003900dc
:100580003420ec000af0a0008b05e90008003200de
:100590000c00e0000600320015cdba000a05e800a4
:1005a000020039003420ec000af0a0008b05e900bd
:1005b0008984e80054a0b4000b00e000e2ff3a0098
:1005c000000006009902ba00055d78008b05e9007d
:1005d000f7ff3200c82ade00055d78008b05e900d0
:1005e000f3ff32000c00e000f1ff320019ddba0029
:1005f000eeff37000000fa000108a9000080fa00b1
:10060000004006003600f800809fbe00829fbe00ba
:10061000849fbe00869fbe000000fa000068a9000b
:10062000e20907000c0807000080fa004f03be0033
:100630004f02be004f01be004f00be003600f90061
:10064000004006003600f800809fbe00829fbe007a
:10065000849fbe00869fbe000000fa000368a900c8
:10066000d0808000e180800061004000e080480090
:10067000d0808800e180880009d0bf00e14f5000a1
:1006800001003a00c10207000080fa004f03be00db
:100690004f02be004f01be004f00be003600f90001
:1006a00000400600801f78000000fa0001a8a900a1
:1006b00000188000908e880010188000a08e88009e
:1006c00020188000b08e880030188000c08e88000e
:1006d00040188000d08e880010c0b30029f0b70009
:1006e0000080fa004f007800004006003600f80055
:1006f000809fbe00829fbe00849fbe00869fbe007a
:100700000000fa000188a900b1808000a08080006c
:10071000808f5000020032004809070001003700b6
:100720001870ef000080fa004f03be004f02be00b9
:100730004f01be004f00be003600f9000040060029
:100740003600f800809fbe00829fbe00849fbe00de
:10075000869fbe000000fa000168a9001011800009
:10076000640060000000e000010032002242a900a5
:1007700010118000620060000000e00006003200fe
:100780002222a900050037003011800000407800c7
:1007900096090700010037000000000010118000da
:1007a000610060000000e000f7ff3a000080fa00fe
:1007b0004f03be004f02be004f01be004f00be00ff
:1007c0003600f900004006000040da000000fe009c
:1007d0000000050003f0a200889fbe008a9fbe00b3
:1007e0008c1f7800180107001f0133006450e100de
:1007f0004f0032006420e1005200320003826c009e
:1008000007003b000905d0000306d000820f54000a
:100810000c065d00020039000200320089017800f8
:10082000030678008582550004003d000003fd00aa
:100830008103fd008502ea008b854200840f72006f
:1008400002003b0060001000e08018006011b8005a
:100850000005eb007a28e1000a0039000600780064
:10086000c75ddd00f707b200878075002d003700f7
:10087000828171000a017800610560008180d100e9
:100880000080d3008502e900f9ff3b000604400028
:100890008784480002003b0060041400e0841c00d0
:1008a0000988a300070032008a81710082817100eb
:1008b000610164008904d1000884d3008b05e8003d
:1008c000170037000978a30013003a000b00e0007e
:1008d000130034008b05e9000804440089844c00af
:1008e0000a4474000978a3000d003a000b00e000f0
:1008f000070034008b05e9000804440089844c009b
:1009000001003a000b0020000978a300f7ff320035
:100910000001eb0002003700828171000a017800bb
:100920008e0007000cf0a70001f0a000d7003700f0
:100930006420e10002003a00838f6c00d70033008e
:100940000801be000200be00d0003700889fbe0034
:100950008a9fbe008c1f7800bb000700c2003300d6
:1009600003866c006450e1002e0032006420e10038
:10097000330032006150e1002f0032006120e100bd
:100980003100320085855500eb07b00009002000da
:1009900008042000050037000804440089844c0046
:1009a0000a0031000603430087834b000001530017
:1009b00081815b00f8ff33000203be000800a00045
:1009c0000804440089844c00f6ff3900c639dd0074
:1009d0008301730001003200130020008904d1005c
:1009e0000884d3000998a300050032000800a7007e
:1009f0000300a0008904d1000884d3008b05e8001f
:100a00008904d1000884d3000001eb000281d200e8
:100a10005200070001f0a1000cf0a70001f0a000b7
:100a20009a0037006420e1009c0032000801be00fb
:100a30000200be00f7ff37006120e100970032009e
:100a40006000b800f3ff37000000200001f8270025
:100a5000f0ff370014002000c7003700f4ff2f001c
:100a6000c50037000001be00620007000470a70047
:100a700003f0a1006509b100160032000d00350039
:100a80006828e10006003500f0ff2f00f1ff270085
:100a90000300e00013003b000100280000000500f7
:100aa00000004000818048008502e900fcff3a0018
:100ab00008003700f88f420002003c008000eb0085
:100ac000000005008100d1000080d3008502e8000d
:100ad000fcff3a000300e00002003b006000100051
:100ae000e0801800000006000001be004100070081
:100af0000470a70003f0a10003f8a30013003a005c
:100b00006509b10010003200090035006928e100d4
:100b10000200350001002800000005000000400030
:100b2000818048008502e900fcff3a0000000600d1
:100b3000f88f4200050035008100d1000080d3000d
:100b40008502e800fcff3a00000006008000eb0090
:100b5000000005006011b800a200370081002000ed
:100b6000618055000b003d000b00200061fe2f004e
:100b70000100e1001d003400828171006101640008
:100b80008904d1000884d3000000e800faff3a008d
:100b9000710020006100640003007000020060002a
:100ba0000900320061044400e0844c000988a5007b
:100bb000050032008b05e8006808e10002003a00f9
:100bc0008904d1000884d300f20f20000258e1000c
:100bd00005003d00c75ddd00f907b20089807500a2
:100be00008007800000006000bf827008b00780052
:100bf00000000500c70ade00f107b200f50fb200e1
:100c000008003200e1cf4200020032000170a00073
:100c100024000500810f7000010032000408050067
:100c200044000500810f700002003a001400050026
:100c30008502e9000000400081c04800fcff3b0045
:100c40000170a000240005000004be00e9ff0700b9
:100c50000003be000405be000200be00e5ff070061
:100c6000844f7500000006000200be006450e100e1
:100c7000050036006420e100020036000968a30088
:100c800001003a000800be000160a0004f06780095
:100c90004f05be004f04be0000000600f0ff2f000d
:100ca000f1ff2700f9ff3700889fbe008a9fbe0032
:100cb0008c1f7800e4ff0700ebff330003866c0015
:100cc0006450e100240032006420e100270032007b
:100cd0006150e100220032006120e1002100320079
:100ce0008b854200eb07b1000134b800003ab80030
:100cf0000804420089844a00013ab8000030b80074
:100d00008880400009014a000400330000004000d0
:100d100081804800020149008b05e900c909dd0016
:100d2000830170000100320013002000c814de00af
:100d30004814dd004709de001200b200c808de00da
:100d40000884700085ff070001f0a1000cf0a700e7
:100d500001f0a000cdff37006120e100cfff32009d
:100d60000801be000200be00f7ff37006150e1003d
:100d7000fcff3a00c9ff3700889fbe008a9fbe0073
:100d8000841f7800b0ff07004f0078001100330087
:100d9000f0ff2f00838f6c0006003b000405650008
:100da0000a00a7000800370009f0a6001000200084
:100db00008003700820f5400838f5c000300390065
:100dc0001000200001003e000000200009f0a700f4
:100dd0000000ea004f05be004f04be000000e00026
:100de00000000600889fbe008a9fbe00008270003f
:100df0000402710004827100260032000004be006b
:100e00000200be006011b8006b09200095022000ae
:100e10000182cf000a0039000541b1000082cf00f5
:100e2000070039000541b1000982cf0004003900f4
:100e30000541b1000882cf00010039000541b10031
:100e400005425200120032000a003b00828171000c
:100e5000610164008100d1000080d3008984d30047
:100e60000884d3008b05e8000442e800f7ff3a004d
:100e7000070037000804440089844c000000480043
:100e8000818048008b05e9000442e900f9ff3a003f
:100e900032ff07004f05be004f04be0000000600f1
:020000040000fa
:100ea0000600fa0078080700a2080700ce05070030
:100eb00084070700f3020700d90207006c0307004c
:100ec0000f080700c1070700e14f500083003a00f8
:100ed000c2070700b9070700000f78001e0078005e
:100ee000100078008000eb001aff07003233230067
:100ef000330524006cff0700020020000358240083
:100f000092fe0700d2cc2c00c304240066ff070029
:100f100010079800210798001e019000ae01900074
:100f2000000020008120240088fe0700020020002d
:100f3000030a240027fe0700108e8800218e8800f7
:100f40001e80e800100078008000eb0001ff070021
:100f5000323323003305240053ff07000200200032
:100f60000358240079fe0700d2cc2c00c3042400cf
:100f70004dff070010079800210798001e01900000
:100f8000ae01900000002000812024006ffe0700c9
:100f900002002000030a24000efe0700f08d8800e6
:100fa000018e88009e007800648040001000780068
:100fb0008000eb00e7fe07003233230033052400f6
:100fc00039ff070002002000035824005ffe0700dd
:100fd000d2cc2c00c304240033ff07001007980074
:100fe000210798001e019000ae0190000000200033
:100ff0008120240055fe070002002000030a24007f
:10100000f4fd0700308e8800418e88009e00780035
:1010100068804000100078008000eb00cdfe0700e3
:1010200032332300330524001fff07000200200095
:101030000358240045fe0700d2cc2c00c304240032
:1010400019ff070010079800210798001e01900063
:10105000ae01900000002000812024003bfe07002c
:1010600002002000030a2400dafd0700508e8800e9
:10107000618e88009e007800668040001000780035
:101080008000eb00b3fe0700323323003305240059
:1010900005ff070002002000035824002bfe070074
:1010a000d2cc2c00c3042400fffe070010079800d8
:1010b000210798001e019000ae0190000000200062
:1010c0008120240021fe070002002000030a2400e2
:1010d000c0fd0700708e8800818e8800e401070043
:1010e0000430ef00080037005407070006f0b7008f
:1010f000110020006000210092060700208080007f
:101100000000e80020808800770707008000780052
:1011100020808000808f5000f3ff3e0000482800b0
:10112000e10120001f08070066ff37000200fa00f7
:10113000004f78001e41780071002100824878003d
:101140000080fa00000006000200fa00004f78005c
:101150001e4078000004e00003003a000870ef0031
:101160000970ef00070037001e407800e14f500083
:1011700004003a0010c0b30008f0b70010c0b3007c
:1011800009f0b7000080fa00000006000000fa0035
:1011900000808000e10f500006003a00f0002000bf
:1011a0003081880064cea90064eea900254ea80015
:1011b0001100370000808000e20f500006003a0066
:1011c000400120003081880064cea80064eea900b0
:1011d000254ea9000800370000808000e30f500072
:1011e00005003a00e00120003081880064cea900ab
:1011f00064eea800254ea90008d0bf00e14f5000c2
:10120000ab003a0007d0bf000080fb00cf80de00bb
:101210003201200003002000820f5000838f58000d
:101220009f003e0000060100130037001c0037003d
:1012300025003700340037004f00370058003700d2
:101240005900370062003700310037003b0037009b
:101250003c003700460037005f0037006900370068
:101260006a00370074003700750037007e003700d1
:101270007f003700880037001a30ef001c30ef0085
:101280000001eb006000b800940507001200200088
:101290006000b8009105070010c0b30007f0b70068
:1012a000d2808000e3808000803e2000010020008a
:1012b000800f5100818f59007c00360020c0b300a0
:1012c00007f0b7007a003700108080000000e800c7
:1012d00010808800308180008000eb001dfe070038
:1012e0000001eb007d050700308180008000eb00ed
:1012f00018fe0700120020007805070030c0b30078
:1013000007f0b7006a0037006b000700680037007d
:101310000001eb0000002000011724006f0507000a
:101320001200200000002000011024006b050700bf
:1013300090c0b30007f0b7005d0037005e00070003
:101340005b0037000001eb000000200001102400ca
:101350006205070012002000000020000117240091
:101360005e050700b0c0b30007f0b70050003700bb
:10137000510007004e0037000001eb000000200084
:101380000117240055050700120020006000b80076
:101390005205070050c0b30007f0b7004400370003
:1013a00045000700420037000001eb006000b80074
:1013b0004a05070012002000000020000117240049
:1013c0004605070070c0b30007f0b70038003700cb
:1013d00039000700360037000001eb000000200054
:1013e000011224003d05070012002000000020002b
:1013f00001122c0039050700d0c0b30007f0b70078
:101400002b0037002c000700290037000001eb00fb
:101410000000200001122c003005070012002000ff
:1014200000002000011224002c050700f0c0b300ca
:1014300007f0b7001e0037001f0007001c00370030
:101440000001eb000000200001102400230507002c
:10145000120020006000b8002005070010c1b30092
:1014600007f0b70012003700130007001000370024
:101470000001eb006000b800180507001200200012
:1014800000002000011024001405070030c1b30043
:1014900007f0b70006003700070007000400370018
:1014a0000770ef000000000001003700000000009e
:1014b0000080fa00000006000200fa00881f780091
:1014c0000040eb00004f7800708e8000818e80001d
:1014d00018c0b30002002000031a24005dfd0700bd
:1014e0000000e000010035000044eb000804e000cb
:1014f0002c003a00508e8000618e800018c0b3002e
:1015000002002000031f240052fd07000000e0003d
:10151000010035000044eb000804e00021003a001f
:10152000308e8000418e800018c0b3000200200081
:10153000c320240047fd07000000e0000100350043
:101540000044eb000804e00016003a00f08d800033
:10155000018e800018c0b30002002000031f240089
:101560003cfd07000000e000010035000044eb00f6
:101570000804e0000b003a00108e8000218e8000ed
:1015800018c0b30002002000031a240031fd070038
:101590000000e000010035000044eb000804e0001a
:1015a0000500320010002000008088002e03070094
:1015b000004f780073003700708e8000818e8000ad
:1015c00018c0b300020020000322240021fd070000
:1015d0000000e000010035000044eb000804e000da
:1015e0002c003a00508e8000618e800018c0b3003d
:1015f000020020008324240016fd07000000e00004
:10160000010035000044eb000804e00021003a002e
:10161000308e8000418e800018c0b3000200200090
:10162000032724000bfd07000000e0000100350047
:101630000044eb000804e00016003a00f08d800042
:10164000018e800018c0b300020020008324240013
:1016500000fd07000000e000010035000044eb0041
:101660000804e0000b003a00108e8000218e8000fc
:1016700018c0b3000200200003222400f5fc07007c
:101680000000e000010035000044eb000804e00029
:10169000030032002000200000808800390037005d
:1016a000708e8000818e800018c0b3000200200080
:1016b00003222400e9fc07000000e00001003d00d7
:1016c0000044eb000804e0002c003a00508e80003b
:1016d000618e800018c0b300020020008324240023
:1016e000defc07000000e00001003d000044eb00cc
:1016f0000804e00021003a00308e8000418e800016
:1017000018c0b3000200200003272400d3fc070008
:101710000000e00001003d000044eb000804e00090
:1017200016003a00f08d8000018e800018c0b300d2
:101730000200200083242400c8fc07000000e00011
:1017400001003d000044eb000804e0000b003a00fb
:10175000108e8000218e800018c0b300020020008f
:1017600003222400bdfc07000000e00001003d0052
:101770000044eb000804e0000200320030002000ca
:10178000008088001e4078000004e00003003a005a
:1017900020c0b3000af0b700300037001e407800c8
:1017a000e34f500003003a0080c0b3000af0b700d6
:1017b0002a0037001e407800e14f500003003a0035
:1017c000a0c0b3000af0b700240037001e40780024
:1017d000e44f500003003a0040c0b3000af0b700e5
:1017e0001e0037001e407800e24f500003003a0010
:1017f00060c0b3000af0b700180037001e40780040
:10180000e54f50000a003a0010808000610060003f
:101810000000e00003003a00c0c0b3000af0b700c7
:101820000e003700e0c0b3000af0b7000b0037002d
:101830001e407800e64f500003003a0000c1b3009c
:101840000af0b700050037001e407800e74f50004f
:1018500002003a0020c1b3000af0b7000ad0bf006e
:1018600007f0b7004f0478000080fa00000006007f
:101870001200fa00889fbe000000eb00000f780005
:10188000508e8000618e800097fc070080447800b5
:10189000308e8000418e800093fc07000044780069
:1018a000f08d8000018e80008ffc070000407800e2
:1018b000294798003847980040479800708d80006d
:1018c000818d800088fc070000447800b08d800086
:1018d000c18d800084fc07000040780058479800c4
:1018e00060479800207180004a00de00614060007f
:1018f00011c0b30071479800004f9800207380001a
:101900004700de006140600021c0b300114f980025
:10191000204f9800207380004600de006140600088
:1019200031c0b300314f9800404f98007100210042
:10193000914078001e0178006d0041000177780029
:101940001e0fe8009e0078006d8040008040eb0094
:10195000017778001e0fe8001e0178006d0041003d
:101960008040eb00017778001e0fe8009e007800b1
:101970006d8040008040eb00017778001e0fe8008a
:10198000d0808000e1808000804078001e017800d7
:101990006d004100017778001e0fe8000e80e8001e
:1019a0000001780031002000000320005d010700e5
:1019b000650047000001780021002000000420009d
:1019c000580107006700470000017800210020004f
:1019d0000002200053010700690047000001780061
:1019e00021002000000220004e0107006b0047008c
:1019f00000017800210020000002200049010700ba
:101a00006d00470000017800510020000005200013
:101a1000440107004f04be000080fa0000000600e9
:101a20000000fa0013e1a90011e1a9001061a8006b
:101a30001021a90081088000f0fc2f0000806000c8
:101a4000800888000a21ef000621ef00404c2000aa
:101a50007008880000402b00600888002142800048
:101a600080ff2f00008060000000a000204288005e
:101a70000108a9002108a80011e1a8000080fa00cf
:101a8000000006000000fa0005e1a9000421a900f9
:101a900000002000a1372400050007000068a9000d
:101aa0002068a80005e1a8000080fa0000000600f8
:101ab0000400fa00881f7800008fbe001e01780025
:101ac0009e0190000068290081c124009ffb07004f
:101ad00018c0b30002f02f00f3772400dffb0700eb
:101ae0000000e00001003c000044eb000804e000be
:101af0005400320021088000f0fc2f0000806000bc
:101b00000040a000200888001e0178009e0190007f
:101b10000068290081c124008cfb0700020020001e
:101b20000310240089fb070018c0b30002f02f0047
:101b3000f3772400c9fb07000000e00001003c002f
:101b40000044eb000804e00032003200210880006d
:101b5000f0fc2f00008060000050a00020088800ea
:101b60001e0178009e0190000068290081c12400b8
:101b700076fb0700020020000328240073fb070007
:101b800018c0b30002f02f00f3772400b3fb070066
:101b90000000e00001003c000044eb000804e0000d
:101ba00010003200210880000003200001007000b6
:101bb000200888001e0178009e019000006829001e
:101bc00081c1240061fb07000200200003382400cb
:101bd0005efb0700a3fb07000000780010088800e8
:101be000200037001e0178009e0190000068290047
:101bf00081c1240055fb07000200200003282400b7
:101c000052fb070097fb07000000780010088800cf
:101c1000140037001e0178009e0190000068290022
:101c200081c1240049fb07000200200003102400aa
:101c300046fb07008bfb07000000780010088800b7
:101c4000080037001e0178009e01900000682900fe
:101c500081c124003dfb070082fb070000007800e3
:101c6000100888004f0478000080fa000000060089
:101c70000000fa001fe1a90000002000a147240095
:101c8000060007001e21a9000368a9002368a80018
:101c90001fe1a8000080fa00000006000400fa001e
:101ca000881f7800008fbe00f1088000f0fc2f0034
:101cb00000806000f00888001e0178009e019000fe
:101cc0000068290081c1240020fb070018c0b30070
:101cd00002f02f00f377240060fb07000000e00013
:101ce00001003c000044eb000804e0005400320016
:101cf000f1088000f0fc2f00008060000040a00090
:101d0000f00888001e0178009e01900000682900fc
:101d100081c124000dfb07000200200003102400f5
:101d20000afb070018c0b30002f02f00f37724006d
:101d30004afb07000000e00001003c000044eb000b
:101d40000804e00032003200f1088000f0fc2f00af
:101d5000008060000050a000f00888001e0178009c
:101d60009e0190000068290081c12400f7fa070055
:101d70000200200003282400f4fa070018c0b30072
:101d800002f02f00f377240034fb07000000e0008e
:101d900001003c000044eb000804e00010003200a9
:101da000f10880000003200001007000f0088800a6
:101db0001e0178009e0190000068290081c1240066
:101dc000e2fa07000200200003382400dffa0700cf
:101dd00024fb070000007800d008880020003700ae
:101de0001e0178009e0190000068290081c1240036
:101df000d6fa07000200200003282400d3fa0700c7
:101e000018fb070000007800d00888001400370095
:101e10001e0178009e0190000068290081c1240005
:101e2000cafa07000200200003102400c7fa0700c6
:101e30000cfb070000007800d0088800080037007d
:101e40001e0178009e0190000068290081c12400d5
:101e5000befa070003fb070000007800d0088800e6
:101e60004f0478000080fa00000006000a00fa0023
:101e7000200798003107980042079800e0cfb30090
:101e8000204798002e0090004880de0080407800b7
:101e90002e40900000c06800204798002e0090005f
:101ea000804078002e40900000c0680020479800d5
:101eb0003e0090004880de00804078002e40900078
:101ec00000c06800204798003e00900080407800e5
:101ed0002e40900000c06800204798000000eb00f2
:101ee000000f7800080037001e007800ce00900038
:101ef0000080400010407800ae40900000c06800b4
:101f0000204798001e0fe8003e0090009e007800d9
:101f1000808f5000f4ff35002e4090000080fa00c2
:101f2000000006000e00fa00889fbe0040079800df
:101f300051079800620798000f0478000f0078009e
:101f4000800478000000eb00000f78005e00900035
:101f5000660040008000e900210798000000e800ca
:101f60000000e8000000d100800040000f00780071
:101f7000818747000000e8000000d1000000400019
:101f8000300798003e0090001e004000e1cfb300f3
:101f9000014878001e0fe8004e0090004880de00e7
:101fa000804078003e0090001e004000014878000c
:101fb0001e0fe8004e009000804078003e00900028
:101fc0001e004000014878001e0fe8005e009000ef
:101fd0004880de00804078003e0090001e004000f7
:101fe000014878001e0fe8005e00900080407800f5
:101ff0003e0090001e004000014878001e0fe800df
:102000000000eb00100798000b0037001e00900046
:10201000ee00900000804000904078003e0090006c
:102020001e004000014878001e0fe8001e009000ce
:102030000000e800100798009e0090005e009000ed
:10204000808f5000f1ff35006e019000de0090009f
:102050004e00900085ff0700be0090009e8040006b
:10206000804878001e0fe8003e0090009e00780037
:10207000b402070089077800880778004f04be0083
:102080000080fa00000006000400fa0020479800d3
:1020900090808000e30f500023003200e30f5000d7
:1020a00005003e00e10f500013003200e10f500028
:1020b00015003e0007003700e50f50002d003200ec
:1020c000e50f50001c003900e60f500038003200c8
:1020d000490037002e409000e24f400002003a00d5
:1020e00010002000908088000c30ef001030ef00ce
:1020f0000e30ef00440037000c30ef0020002000cd
:1021000090808800400037002e4090008080fb00c7
:1021100060808000008040006080880030002000e7
:1021200090808800380037000e30ef00400020001b
:1021300090808800340037002e4090008080fb00a3
:102140007080800000804000708088007080800077
:102150000000e000040032001030ef0050002000ca
:102160009080880028003700600020009080880060
:102170002500370080808000c112210000804000cf
:10218000ae40900001487800808080000000e800a8
:10219000808088008180800070808000808f500067
:1021a000180035006000200090808800160037007d
:1021b000ae409000014f7800718080006080800008
:1021c000c212210029ff0700104798001e4090000e
:1021d0009e4f500006003a007080800080407800da
:1021e0006080800000407800c212210008000700d3
:1021f0001230ef00040037001230ef000000000042
:1022000001003700000000000080fa000000060016
:102210000400fa00004f7800114798001207980058
:102220001e80fb0011052000810f500004003200c9
:1022300021052000810f5000050032000800370002
:102240001e00900010407800b8fb07000400370023
:102250001e00900010407800bbfb0700000000004b
:102260000080fa00000006000000fa00881f7800d5
:10227000508e8000618e800018c0b30002002000e4
:10228000831c2400f3f907000000e0000100350082
:102290000044eb000804e0000e003200f08d8000e6
:1022a000018e800018c0b30002002000831c2400af
:1022b000e8f907000000e000010035000044eb00f1
:1022c0000804e00003003200500020005081880024
:1022d000c1003700308e8000418e800018c0b300ee
:1022e00002002000c3202400daf907000000e0000b
:1022f000010035000044eb000804e0000300320058
:102300005000200050818800b3003700508e8000bc
:10231000618e800018c0b30002002000c32024009a
:10232000ccf907000000e000010035000044eb009c
:102330000804e00019003200308e8000418e8000d9
:1023400018c0b30002002000831c2400c3f907005a
:102350000000e00001003c000044eb000804e00045
:102360000e003200f08d8000018e800018c0b30096
:1023700002002000c3202400b8f907000000e0009c
:1023800001003c000044eb000804e00003003200c0
:1023900020002000508188008f003700508e800080
:1023a000618e800018c0b30002002000c32024000a
:1023b000aaf907000000e00001003c000044eb0027
:1023c0000804e00019003200308e8000418e800049
:1023d00018c0b30002002000831c24009ff90700ee
:1023e0000000e00001003c000044eb000804e000b5
:1023f0000e003200f08d8000018e800018c0b30006
:1024000002002000c320240092f907000000e00031
:10241000010035000044eb000804e0000300320036
:1024200040002000508188006b003700708e8000d3
:10243000818e800018c0b300020020000312240027
:1024400084f907000000e000010035000044eb00c3
:102450000804e00041003200108e8000218e8000d0
:1024600018c0b300020020000312240079f907000d
:102470000000e000010035000044eb000804e0002b
:1024800036003200748e8000858e8000108e8000b1
:10249000218e800018c0b3000001be000400be0001
:1024a0006cf907000000e000010035000044eb007b
:1024b0000804e0000b003a00508e8000618e80001e
:1024c00018c0b30002002000030a240061f90700cd
:1024d0000000e000010035000044eb000804e000cb
:1024e0000300320060002000508188003a0037006d
:1024f000748e8000858e8000108e8000218e80007a
:1025000018c0b3000001be000400be0053f907006c
:102510000000e00001003c000044eb000804e00083
:102520000b003a00f08d8000018e800018c0b300cf
:1025300002002000030a240046f907000000e00022
:10254000010035000044eb000804e00021003200e7
:1025500070002000508188001f003700708e8000be
:10256000818e800018c0b3000200200003172400f1
:1025700038f907000000e000010035000044eb00de
:102580000804e000030032001000200050818800a1
:1025900011003700108e8000218e800018c0b3001b
:1025a00002002000031724002af907000000e000c1
:1025b000010035000044eb000804e0000300320095
:1025c0003000200050818800030037002a30ef00df
:1025d0000100370000000000508180004f047800a7
:1025e0000080fa00000006000000fa001160800080
:1025f00080ff2f00008060001060880000fa20003b
:102600002060880023aca800238ca8001161800002
:10261000f03f2f000080600000a0a0001061880043
:102620003000200020618800c3aca800c38ca80043
:1026300011668000f03f2f000080600000a0a00025
:1026400010668800300020002066880001eca80099
:102650000080fa00000006000000fa00889fbe001b
:10266000d48d8000e58d8000b08d8000c18d80000c
:1026700018c0b3000001be000400be00f5f807005a
:102680000000e000010035000044eb000804e00019
:102690000d003200b88d8000c98d8000d48d80007f
:1026a000e58d8000f0808000018180000001be0087
:1026b0000400be0048f807000801be00c80007007b
:1026c000d08d8800e18d8800d48d8000e58d80005c
:1026d000b08d8000c18d800018c0b3000001be0025
:1026e0000400be00ddf807000000e00001003c002f
:1026f0000044eb000804e0000d003200b88d8000bb
:10270000c98d8000d48d8000e58d8000f080800030
:10271000018180000001be000400be002df807000a
:102720000801be0096000700d08d8800e18d88006a
:10273000d08d8000e18d800018c0b3006011b8001a
:10274000c6f807000000e00001003c000044eb0078
:102750000804e00004003200c3eca90024cea80065
:10276000c3cca80003003700c3cca90024eea80006
:10277000c3eca800d08d8000e18d80006a000700c6
:10278000020020000322240047f90700d6f80700c2
:102790000000780030668800948d8000a58d800050
:1027a000708d8000818d800018c0b3000001be00d4
:1027b0000400be00a7f807000000e000010035009b
:1027c0000044eb000804e0000d003200788d80002a
:1027d000898d8000948d8000a58d8000f080800020
:1027e000018180000001be000400be00faf707006e
:1027f0000801be007a000700908d8800a18d880036
:10280000948d8000a58d8000708d8000818d80006a
:1028100018c0b3000001be000400be008ff807001e
:102820000000e00001003c000044eb000804e00070
:102830000d003200788d8000898d8000948d80009d
:10284000a58d8000f0808000018180000001be0025
:102850000400be00dff707000801be0048000700c3
:10286000908d8800a18d8800908d8000a18d8000c2
:1028700018c0b3006011b80078f807000000e0004d
:1028800001003c000044eb000804e00004003200ba
:1028900023cca90015eea80023eca8000300370004
:1028a00023eca90015cea80023cca800908d8000b1
:1028b000a18d80001c0007000200200003222400dc
:1028c000f9f8070088f807000000780030618800f8
:1028d0004f04be000080fa00000006000600fa0067
:1028e000008fbe00220798002e0090000000e0003c
:1028f00006003a001e0078009e00900001f0a20041
:10290000b08d8800c18d8800050037001e0078005a
:102910009e00900001f0a200708d8800818d8800db
:102920000080fa00000006000400fa00881f78000a
:10293000008fbe0018c0b3006011b8001e00780000
:102940009e00900045f807000000e00001003d00f7
:102950000044eb000804e000030032001e00780091
:102960009e009000030037001e0078009e0090003b
:1029700001f0a2004f0478000080fa000000060079
:102980000800fa00881f7800008fbe002207980018
:102990003307980018c0b3002e019000be019000cc
:1029a0001e0078009e0090002cf807000000e00058
:1029b00001003c000044eb000804e000030032008a
:1029c0001e0078009e009000020037002e0090004c
:1029d000be0090004f0478000080fa00000006005e
:1029e0000800fa00881f7800008fbe0022079800b8
:1029f0003307980018c0b3002e019000be0190006c
:102a00001e0078009e00900012f807000000e00011
:102a1000010035000044eb000804e0000300320030
:102a20001e0078009e009000020037002e009000eb
:102a3000be0090004f0478000080fa0000000600fd
:102a40000c00fa00881f7800008fbe002207980053
:102a500033079800440798005507980018c0b30042
:102a60004e019000de0190001e0078009e00900054
:102a7000faf707000000e00001003c000044eb0012
:102a80000804e000040032004e019000de019000d6
:102a9000028fbe000e00370018c0b3002e01900058
:102aa000be0190001e0078009e009000e9f707002c
:102ab0000000e000010035000044eb000804e000e5
:102ac000030032002e019000be019000028fbe0074
:102ad0001e0078009e0090004f0478000080fa00ed
:102ae000000006000400fa00008fbe00b2fd2000c6
:102af000930424001e0078009e00900093f70700c6
:102b0000020020004333240067f807000080fa0029
:102b1000000006000400fa00008fbe00b2fd200095
:102b2000930424001e0078009e0090005ef80700c9
:102b3000020020004333240084f707000080fa00dd
:102b4000000006000600fa00100798002107980010
:102b50000040eb00004f780054000700ae009000ea
:102b6000810f5000110034000040eb00004f78004e
:102b7000060037001e80fb009e0090000080400091
:102b8000104078000b0007001e4fe8009e80fb00fd
:102b90002e009000808f5000f6ff350030000700b7
:102ba0000004e00001003a00240007000080fa0061
:102bb000000006000200fa00004f7800a0808000ac
:102bc000c1022100008040001e487800a1808000e2
:102bd000e0072000808f5000020034001430ef0026
:102be00003003700a08080000000e800a08088007b
:102bf0000080fa00000006000200fa00b0808000a9
:102c0000c102210000804000104f7800b180800098
:102c1000e0072000808f5000020034001630ef00e3
:102c200003003700b08080000000e800b08088001a
:102c30001e4078000080fa00000006000200fa0042
:102c400010c0b30018f0b700ebff0700004f78008a
:102c50001e80fb00201188000080fa0000000600a2
:102c60000000fa0018d0bf000080fa000000060043
:102c70000000fa00a1808000b0808000808f5000aa
:102c800004003500a1808000b080800000805000ea
:102c900004003700a1808000b080800000805000d8
:102ca0000008b0000080fa00000006000000fa00f2
:102cb000efff070001082000008050000080fa00ac
:102cc000000006000000fa0021e3a9002143a8004b
:102cd00001198000f0cf2f000080600000198800eb
:102ce0002043a90001198000000e2000010070009f
:102cf0000019880011198000f0ff21000080600099
:102d0000101988002343a80011198000f0cf2f006c
:102d100000806000101988001119800030f82f0021
:102d2000008060000040a000101988002203a90064
:102d30002223a90025e3a900f0c0b30024e3b700d3
:102d400021198000f00f2e008080600000f020002c
:102d500001007000201988003303a9004feea8007d
:102d60002e0ea8002f6ea8006f2ea8001e2ea80001
:102d700031e3a80030c3a8003163a8002e03a800e7
:102d80003063a8004119800000fc2f000080600023
:102d90004019880028e3a90001a8a90021a8a800db
:102da00021e3a8000080fa00000006000000fa00fd
:102db0002023a8000080fa00000006000000fa00ae
:102dc000201d21000080fa00000006000000fa002b
:102dd00029d0bf000080fa00000006000000fa00c1
:102de0002970ef000080fa00000006000200fa00df
:102df000004f78002c0007000000e0000d003400b8
:102e000010818000c10a2100008040001e48780027
:102e100011818000e0072000808f50000200340004
:102e20002230ef0003003700108180000000e8002e
:102e3000108188000080fa00000006000200fa00fd
:102e400020818000c10a210000804000104f7800de
:102e500021818000e0072000808f500002003400b4
:102e60002430ef0003003700208180000000e800dc
:102e7000208188001e4078000080fa0000000600d3
:102e80000000fa001181800020818000808f5000b6
:102e90000200320010c0b300010037000040eb0018
:102ea0000080fa00000006000000fa001181800096
:102eb00020818000808f5000050034002181800037
:102ec00010818000008050000008b000040037002e
:102ed0001181800020818000008050000008b00037
:102ee0000080fa00000006000000fa00eeff070074
:102ef00001082000008050000080fa000000060059
:102f00000000fa002002a9000111800090ff2f00ac
:102f1000008060000011880020a2a9002062a800a3
:102f2000500520004011880023a2a90023e2a90037
:102f30000188a9002188a80011118000f0f32f005a
:102f400000806000101188000168a9002168a800b5
:102f500021e2a8002342a8000080fa000000060039
:102f60000600fa0010079800210798000040eb00c7
:102f7000004f78000040eb00004f78000e00370053
:102f8000000000001111800000202000008060007f
:102f90000000e000fbff3a001e00900010407800a7
:102fa0000080fb00201188001e0090000000e80057
:102fb000100798001e4fe8009e80fb002e00900036
:102fc000808f5000eeff35000080fa000000060000
:020000040000fa
:102fd000001000000c00000080000000261000001f
:102fe00002000000820000000f0000001a10000024
:102ff0000400000080000000ac110000260000006a
:10300000800000001e10000004000000820000008c
:103010000000700041000000d21100000a00000012
:103020008000000028100000020000008000000066
:103030002a10000002000000800000002c10000098
:103040008000000080000000141000000600000056
:1030500080000000ac100000800000008000000034
:103060002210000004000000800000002c1100006d
:1030700080000000800000000c100000080000002c
:083080008000000000000000c8
:020000040000fa
:103088000000fa00f0032000303a8800213a80005e
:10309800f0f32f0000806000203a8800213a800079
:1030a80000fe2f00008060000000a000203a880089
:1030b8001200200080072000a1092000337420009e
:1030c800804978008149780082497800103a800068
:1030d800000178000200a0006004200071052000b3
:1030e800237420008049780081497800824978005b
:1030f80000000000113a8000000027008080600076
:1031080000002100808f5000faff3a000000000004
:10311800113a800000022000008060000000e000fa
:10312800fbff32000080fa00000006000000fa00f1
:103138000e2eef001e2eef002e2eef003e2eef007b
:103148004e2eef005e2eef006e2eef00214ea900ee
:1031580060cea90060eea90011cea90011eea90069
:1031680020cea90020eea900002ea800213680005c
:1031780000f82f00008060008001b300203688002e
:103188001134800000fc2f00008060000000a000c7
:0c319800103488000080fa0000000600df
:020000040000fa
:1031a400f03fb1000180b10006003500ee030900d4
:1031b40000000000403fb1000180b100fbff3d0072
:1031c4001000b000203fb00002003500008009006c
:0831d4000000000000000600ed
:020000040000fa
:02000004000af0
:04afe000cfff00009f
:020000040000fa
:02000004000af0
:04afe400ffff00006b
:020000040000fa
:02000004000af0
:04afe8007fff0000e7
:020000040000fa
:02000004000af0
:04afec005fff000003
:020000040000fa
:02000004000af0
:04aff00038ff000026
:020000040000fa
:02000004000af0
:04aff400ffff00005b
:00000001FF
