:020000040000fa
:080000000002040000000000f2
:020000040000fa
:040008007003000081
:020000040000fa
:04000c00700300007d
:020000040000fa
:040010007003000079
:020000040000fa
:040014007003000075
:020000040000fa
:040018007003000071
:020000040000fa
:04001c00700300006d
:020000040000fa
:040020007003000069
:020000040000fa
:040024007003000065
:020000040000fa
:040028007003000061
:020000040000fa
:04002c00700300005d
:020000040000fa
:040030007003000059
:020000040000fa
:0400340002030000c3
:020000040000fa
:040038007003000051
:020000040000fa
:04003c00700300004d
:020000040000fa
:040040007003000049
:020000040000fa
:040044007003000045
:020000040000fa
:04004800fa020000b8
:020000040000fa
:04004c00700300003d
:020000040000fa
:040050007003000039
:020000040000fa
:040054007003000035
:020000040000fa
:040058007003000031
:020000040000fa
:04005c004c03000051
:020000040000fa
:040060007003000029
:020000040000fa
:040064007003000025
:020000040000fa
:040068007003000021
:020000040000fa
:04006c00700300001d
:020000040000fa
:040070007003000019
:020000040000fa
:040074007003000015
:020000040000fa
:040078007003000011
:020000040000fa
:04007c00700300000d
:020000040000fa
:040080007003000009
:020000040000fa
:040084007003000005
:020000040000fa
:040088007003000001
:020000040000fa
:04008c0070030000fd
:020000040000fa
:0400900070030000f9
:020000040000fa
:040094002203000043
:020000040000fa
:0400980070030000f1
:020000040000fa
:04009c0070030000ed
:020000040000fa
:0400a00070030000e9
:020000040000fa
:0400a40070030000e5
:020000040000fa
:0400a80070030000e1
:020000040000fa
:0400ac0070030000dd
:020000040000fa
:0400b00070030000d9
:020000040000fa
:0400b40070030000d5
:020000040000fa
:0400b80070030000d1
:020000040000fa
:0400bc0070030000cd
:020000040000fa
:0400c00070030000c9
:020000040000fa
:0400c40070030000c5
:020000040000fa
:0400c80070030000c1
:020000040000fa
:0400cc0070030000bd
:020000040000fa
:0400d00070030000b9
:020000040000fa
:0400d40070030000b5
:020000040000fa
:0400d80070030000b1
:020000040000fa
:0400dc0070030000ad
:020000040000fa
:0400e00070030000a9
:020000040000fa
:0400e40070030000a5
:020000040000fa
:0400e80070030000a1
:020000040000fa
:0400ec00700300009d
:020000040000fa
:0400f0007003000099
:020000040000fa
:0400f4007003000095
:020000040000fa
:0400f8007003000091
:020000040000fa
:0400fc00700300008d
:020000040000fa
:040100007003000088
:020000040000fa
:040104007003000084
:020000040000fa
:040108007003000080
:020000040000fa
:04010c00700300007c
:020000040000fa
:040110007003000078
:020000040000fa
:040114007003000074
:020000040000fa
:040118007003000070
:020000040000fa
:04011c00700300006c
:020000040000fa
:040120007003000068
:020000040000fa
:040124007003000064
:020000040000fa
:040128007003000060
:020000040000fa
:04012c00700300005c
:020000040000fa
:040130007003000058
:020000040000fa
:040134007003000054
:020000040000fa
:040138007003000050
:020000040000fa
:04013c00700300004c
:020000040000fa
:040140007003000048
:020000040000fa
:040144007003000044
:020000040000fa
:040148007003000040
:020000040000fa
:04014c00700300003c
:020000040000fa
:040150007003000038
:020000040000fa
:040154007003000034
:020000040000fa
:040158007003000030
:020000040000fa
:04015c00700300002c
:020000040000fa
:040160007003000028
:020000040000fa
:040164007003000024
:020000040000fa
:040168007003000020
:020000040000fa
:04016c00700300001c
:020000040000fa
:040170007003000018
:020000040000fa
:040174007003000014
:020000040000fa
:040178007003000010
:020000040000fa
:04017c00700300000c
:020000040000fa
:040180007003000008
:020000040000fa
:040184007003000004
:020000040000fa
:040188007003000000
:020000040000fa
:04018c0070030000fc
:020000040000fa
:0401900070030000f8
:020000040000fa
:0401940070030000f4
:020000040000fa
:0401980070030000f0
:020000040000fa
:04019c0070030000ec
:020000040000fa
:0401a00070030000e8
:020000040000fa
:0401a40070030000e4
:020000040000fa
:0401a80070030000e0
:020000040000fa
:0401ac0070030000dc
:020000040000fa
:0401b00070030000d8
:020000040000fa
:0401b40070030000d4
:020000040000fa
:0401b80070030000d0
:020000040000fa
:0401bc0070030000cc
:020000040000fa
:0401c00070030000c8
:020000040000fa
:0401c40070030000c4
:020000040000fa
:0401c80070030000c0
:020000040000fa
:0401cc0070030000bc
:020000040000fa
:0401d00070030000b8
:020000040000fa
:0401d40070030000b4
:020000040000fa
:0401d80070030000b0
:020000040000fa
:0401dc0070030000ac
:020000040000fa
:0401e00070030000a8
:020000040000fa
:0401e40070030000a4
:020000040000fa
:0401e80070030000a0
:020000040000fa
:0401ec00700300009c
:020000040000fa
:0401f0007003000098
:020000040000fa
:0401f4007003000094
:020000040000fa
:0401f8007003000090
:020000040000fa
:0401fc00700300008c
:020000040000fa
:040200007003000087
:020000040000fa
:040204007003000083
:020000040000fa
:04020800700300007f
:020000040000fa
:04020c00700300007b
:020000040000fa
:040210007003000077
:020000040000fa
:040214007003000073
:020000040000fa
:04021800700300006f
:020000040000fa
:04021c00700300006b
:020000040000fa
:040220007003000067
:020000040000fa
:040224007003000063
:020000040000fa
:04022800700300005f
:020000040000fa
:04022c00700300005b
:020000040000fa
:040230007003000057
:020000040000fa
:040234007003000053
:020000040000fa
:04023800700300004f
:020000040000fa
:04023c00700300004b
:020000040000fa
:040240007003000047
:020000040000fa
:040244007003000043
:020000040000fa
:04024800700300003f
:020000040000fa
:04024c00700300003b
:020000040000fa
:040250007003000037
:020000040000fa
:040254007003000033
:020000040000fa
:04025800700300002f
:020000040000fa
:04025c00700300002b
:020000040000fa
:040260007003000027
:020000040000fa
:040264007003000023
:020000040000fa
:04026800700300001f
:020000040000fa
:04026c00700300001b
:020000040000fa
:040270007003000017
:020000040000fa
:040274007003000013
:020000040000fa
:04027800700300000f
:020000040000fa
:04027c00700300000b
:020000040000fa
:040280007003000007
:020000040000fa
:100400006f0421000eff2c000e0188000000000088
:10041000000020000000e000020032000001200087
:100420002002880014000700af0007000000e00071
:1004300003003a00203522000100200002003700ae
:100440000000200001002000810f70000100320038
:100450000f000700000020000000e0000200320052
:100460000000020000000000561902000000000019
:100470000040da000000fe00200020000000e00044
:1004800002003200100020009001880000000600e9
:10049000a1028800800478000000eb001f003700f4
:1004a000e284440054a0b4009905ba00e2844400f8
:1004b00054a0b4009906ba00e284440054a0b400e9
:1004c0000006eb00476fde00fd07b200ae018800ba
:1004d000636ce10003003a000ad801000000eb0061
:1004e0000e003700606ce10008003a00004deb00a0
:1004f0000a05e800020039003420ec000af0a000f0
:100500008b05e900f9ff3e00040037006168e10057
:10051000010032000086eb000b00070019c7ba008b
:100520000e04e0001905ba0003003a000a00e000da
:10053000dbff3a0000000600fe07b200ae028800b2
:100540008a047800f5ff37000cd0a300e20f4d00bd
:100550001c00390089027800354dba000a05e80010
:10056000020039003420ec000af0a0008b05e900fd
:100570000f003200254dba000a05e80002003900dc
:100580003420ec000af0a0008b05e90008003200de
:100590000c00e0000600320015cdba000a05e800a4
:1005a000020039003420ec000af0a0008b05e900bd
:1005b0008984e80054a0b4000b00e000e2ff3a0098
:1005c000000006009902ba00055d78008b05e9007d
:1005d000f7ff3200c82ade00055d78008b05e900d0
:1005e000f3ff32000c00e000f1ff320019ddba0029
:1005f000eeff37000000fa000108a9000080fa00b1
:10060000004006003600f800809fbe00829fbe00ba
:10061000849fbe00869fbe000000fa000068a9000b
:10062000e50f07006f0e07000080fa004f03be00c1
:100630004f02be004f01be004f00be003600f90061
:10064000004006003600f800809fbe00829fbe007a
:10065000849fbe00869fbe000000fa000368a900c8
:10066000508080006180800061004000e080480090
:1006700050808800618088009d0b07000080fa0090
:100680004f03be004f02be004f01be004f00be0030
:100690003600f90000400600801f78000000fa00d4
:1006a00001a8a90000188000e081880010188000cf
:1006b000f0818800201880000082880030188000b7
:1006c00010828800401880002082880010c0b3008b
:1006d00013f0b7000080fa004f00780000400600d9
:1006e0000040da000000fe000000050003f0a20058
:1006f000889fbe008a9fbe008c1f78001b010700e8
:10070000220133006450e1004f0032006420e10018
:100710005200320003826c0007003b000905d00044
:100720000306d000820f54000c065d000200390061
:1007300002003200890178000306780085825500a6
:1007400004003d000003fd008103fd008502ea0076
:100750008b854200840f720002003b006000100095
:10076000e08018006011b8000005eb007a28e10075
:100770000a00390006007800c75ddd00f707b20007
:10078000878075002d003700828171000a01780092
:10079000610560008180d1000080d3008502e900fe
:1007a000f9ff3b00060440008784480002003b003c
:1007b00060041400e0841c000988a30007003200d4
:1007c0008a81710082817100610164008904d10015
:1007d0000884d3008b05e800170037000978a300d0
:1007e00013003a000b00e000130034008b05e90011
:1007f0000804440089844c000a4474000978a3006a
:100800000d003a000b00e000070034008b05e90002
:100810000804440089844c0001003a000b002000c9
:100820000978a300f7ff32000001eb000200370057
:10083000828171000a017800910007000cf0a70086
:1008400001f0a000da0037006420e10002003a0065
:10085000838f6c00da0033000801be000200be0086
:10086000d3003700889fbe008a9fbe008c1f78008f
:10087000be000700c500330003866c006450e10031
:100880002e0032006420e100330032006150e100ac
:100890002f0032006120e1003100320085855500d3
:1008a000eb07b00009002000080420000500370015
:1008b0000804440089844c000a0031000603430008
:1008c00087834b000001530081815b00f8ff3300f8
:1008d0000203be000800a0000804440089844c0004
:1008e000f6ff3900c639dd008301730001003200d4
:1008f000130020008904d1000884d3000998a300c4
:10090000050032000800a7000300a0008904d10000
:100910000884d3008b05e8008904d1000884d30043
:100920000001eb000281d2005500070001f0a10098
:100930000cf0a70001f0a0009d0037006420e1004a
:100940009f0032000801be000200be00f7ff370022
:100950006120e1009a0032006000b800f3ff370028
:100960000000200001f82700f0ff370014002000ed
:10097000ca003700f4ff2f00c80037000001be0096
:10098000650007000470a70003f0a1006509b1002d
:10099000160032000d0035006828e1000600350021
:1009a000f0ff2f00f1ff27000300e00013003b00e1
:1009b0000100280000000500000040008180480080
:1009c0008502e900fcff3a0008003700f88f42007a
:1009d00002003c008000eb00000005008100d10017
:1009e0000080d3008502e800fcff3a000300e0002d
:1009f00002003b0060001000e080180000000600cc
:100a00000001be00440007000470a70003f0a1002d
:100a100003f8a30013003a006509b100100032008a
:100a2000090035006928e1000200350001002800b6
:100a30000000050000004000818048008502e900b8
:100a4000fcff3a0000000600f88f42000500350068
:100a50008100d1000080d3008502e800fcff3a004d
:100a6000000006008000eb00000005004f89de005a
:100a700082017800a40037006011b800b20037008e
:100a800081002000618055000b003d000b0020001c
:100a900061fe2f000100e1001d0034008281710021
:100aa000610164008904d1000884d3000000e800db
:100ab000faff3a007100200061006400030070003a
:100ac000020060000900320061044400e0844c0030
:100ad0000988a500050032008b05e8006808e100e0
:100ae00002003a008904d1000884d300f20f2000ec
:100af0000258e10005003d00c75ddd00f907b200c6
:100b00008980750008007800000006000bf82700b7
:100b10008b00780000000500c70ade00f107b20074
:100b2000f50fb20008003200e1cf420002003200af
:100b30000170a00024000500810f70000100320048
:100b40000408050044000500810f700002003a000f
:100b5000140005008502e9000000400081c0480043
:100b6000fcff3b000170a000240005000004be0053
:100b7000e9ff07000003be000405be000200be003e
:100b8000e5ff0700844f7500000006000200be006c
:100b90006450e100050036006420e10002003600e8
:100ba0000968a30001003a000800be000160a0002f
:100bb0004f0678004f05be004f04be00000006003f
:100bc000f0ff2f00f1ff2700f9ff3700889fbe00dc
:100bd0008a9fbe008c1f7800e4ff0700ebff330004
:100be00003866c006450e100240032006420e100c0
:100bf000270032006150e100220032006120e10054
:100c0000210032008b854200eb07b1000134b800af
:100c1000003ab8000804420089844a00013ab8004a
:100c20000030b8008880400009014a000400330009
:100c30000000400081804800020149008b05e90066
:100c4000c909dd008301700001003200130020009b
:100c5000c814de004814dd004709de001200b200af
:100c6000c808de000884700085ff070001f0a100bd
:100c70000cf0a70001f0a000cdff37006120e100db
:100c8000cfff32000801be000200be00f7ff3700b0
:100c90006150e100fcff3a00c9ff3700889fbe00a9
:100ca0008a9fbe00841f7800b0ff07004f007800c5
:100cb00011003300f0ff2f00838f6c0006003b0013
:100cc000040565000a00a7000800370009f0a60027
:100cd0001000200008003700820f5400838f5c0052
:100ce000030039001000200001003e000000200039
:100cf00009f0a7000000ea004f05be004f04be0047
:100d00000000e00000000600881f7800030478005f
:100d10000300e00007003d0060001000e0801800c4
:100d200060011900e081190002003b0001f02d0074
:100d3000030037000400070008f0a70001f0a0003e
:100d40004f04780000000600889fbe008a9fbe0006
:100d500000827000040271000482710026003200db
:100d60000004be000200be006011b8006b09200044
:100d7000950220000182cf000a0039000541b10030
:100d80000082cf00070039000541b1000982cf0081
:100d9000040039000541b1000882cf00010039008c
:100da0000541b10005425200120032000a003b002a
:100db00082817100610164008100d1000080d30054
:100dc0008984d3000884d3008b05e8000442e8003e
:100dd000f7ff3a00070037000804440089844c00fc
:100de00000004800818048008b05e9000442e900ca
:100df000f9ff3a0022ff07004f05be004f04be0076
:040e000000000600e8
:020000040000fa
:100e04000a00fa00889fbe008a1f7800000f78004d
:100e140011079800220798003307980044079800a8
:100e2400c8818000d98180001e007800cf80de0058
:100e34000dff07001ac0b3000001be000800be0089
:100e4400cbfe07000000e00001003c000045eb0081
:100e54000a04e0003b003200a8818000b9818000d0
:100e64001e009000cf80de00fffe07001ac0b30012
:100e74000001be000800be00bdfe07000000e00047
:100e840001003c000045eb000a04e0002d003200a4
:100e940088818000998180002e009000cf80de0040
:100ea400f1fe07001ac0b3000001be000800be0036
:100eb400adfe07000000e000010035000045eb0036
:100ec4000a04e0001f00320048818000598180003c
:100ed4003e009000cf80de00e3fe07001ac0b3009e
:100ee4000001be000800be00a1fe07000000e000f3
:100ef40001003c000045eb000a04e0001100320050
:100f040068818000798180004e009000cf80de00ef
:100f1400d5fe07001ac0b3000001be000800be00e1
:100f240093fe07000000e00001003c000045eb00d8
:100f34000a04e0000300320050002000a080880072
:100f4400d4083700c8818000d98180001e00780051
:100f5400cf80de00c4fe07001ac0b3000001be004b
:100f64000800be0082fe07000000e00001003c0013
:100f74000045eb000a04e0003b003200a881800039
:100f8400b98180001e009000cf80de00b6fe07000d
:100f94001ac0b3000001be000800be0072fe0700c4
:100fa4000000e000010035000045eb000a04e00009
:100fb4002d00320088818000998180002e009000ed
:100fc400cf80de00a8fe07001ac0b3000001be00f7
:100fd4000800be0064fe07000000e00001003500c8
:100fe4000045eb000a04e0001f0032004881800045
:100ff400598180003e009000cf80de009afe0700f9
:101004001ac0b3000001be000800be0056fe07006f
:101014000000e000010035000045eb000a04e00098
:101024001100320068818000798180004e009000b8
:10103400cf80de008cfe07001ac0b3000001be00a2
:101044000800be004afe07000000e00001003c006a
:101054000045eb000a04e0000300320040002000d9
:10106400a08088008b083700c8818000d981800067
:101074001e007800cf80de007bfe07001ac0b3009c
:101084000001be000800be0039fe07000000e000b9
:1010940001003c000045eb000a04e0003b00320084
:1010a400a8818000b98180001e009000cf80de00fe
:1010b4006dfe07001ac0b3000001be000800be00a8
:1010c40029fe07000000e000010035000045eb00a8
:1010d4000a04e0002d00320088818000998180009c
:1010e4002e009000cf80de005ffe07001ac0b30020
:1010f4000001be000800be001dfe07000000e00065
:1011040001003c000045eb000a04e0001f0032002f
:1011140048818000598180003e009000cf80de002d
:1011240051fe07001ac0b3000001be000800be0053
:101134000dfe07000000e000010035000045eb0053
:101144000a04e00011003200688180007981800087
:101154004e009000cf80de0043fe07001ac0b300ab
:101164000001be000800be0001fe07000000e00010
:1011740001003c000045eb000a04e00003003200db
:1011840040002000a080880042083700c881800009
:10119400d98180001e007800cf80de0032fe070077
:1011a4001ac0b3000001be000800be00f0fd070035
:1011b4000000e00001003c000045eb000a04e000f0
:1011c4003b003200a8818000b98180001e0090009d
:1011d400cf80de0024fe07001ac0b3000001be0069
:1011e4000800be00e2fd07000000e00001003c0032
:1011f4000045eb000a04e0002d00320088818000e5
:10120400998180002e009000cf80de0016fe07003a
:101214001ac0b3000001be000800be00d2fd0700e2
:101224000000e000010035000045eb000a04e00086
:101234001f00320048818000598180003e009000e8
:10124400cf80de0008fe07001ac0b3000001be0014
:101254000800be00c4fd07000000e00001003500e6
:101264000045eb000a04e0001100320068818000b0
:10127400798180004e009000cf80de00fafd0700e7
:101284001ac0b3000001be000800be00b8fd07008c
:101294000000e00001003c000045eb000a04e0000f
:1012a4000300320040002000a0808800f9073700c6
:1012b400c8818000d98180001e007800cf80de00c4
:1012c400e9fd07001ac0b3000001be000800be001b
:1012d400a7fd07000000e00001003c000045eb0012
:1012e4000a04e0003b003200a8818000b98180003c
:1012f4001e009000cf80de00dbfd07001ac0b300a3
:101304000001be000800be0097fd07000000e000d9
:10131400010035000045eb000a04e0002d00320016
:1013240088818000998180002e009000cf80de00ab
:10133400cdfd07001ac0b3000001be000800be00c6
:1013440089fd07000000e000010035000045eb00c6
:101354000a04e0001f0032004881800059818000a7
:101364003e009000cf80de00bffd07001ac0b3002e
:101374000001be000800be007dfd07000000e00083
:1013840001003c000045eb000a04e00011003200bb
:1013940068818000798180004e009000cf80de005b
:1013a400b1fd07001ac0b3000001be000800be0072
:1013b4006ffd07000000e00001003c000045eb0069
:1013c4000a04e0000300320020002000a08088000e
:1013d400b0073700c8818000d98180001e007800e2
:1013e400cf80de00a0fd07001ac0b3000001be00dc
:1013f4000800be005cfd07000000e00001003500ad
:101404000045eb000a04e0003b003200a8818000a4
:10141400b98180001e009000cf80de0092fd07009d
:101424001ac0b3000001be000800be004efd070054
:101434000000e000010035000045eb000a04e00074
:101444002d00320088818000998180002e00900058
:10145400cf80de0084fd07001ac0b3000001be0087
:101464000800be0042fd07000000e00001003c004f
:101474000045eb000a04e0001f00320048818000b0
:10148400598180003e009000cf80de0076fd070089
:101494001ac0b3000001be000800be0032fd070000
:1014a4000000e000010035000045eb000a04e00004
:1014b4001100320068818000798180004e00900024
:1014c400cf80de0068fd07001ac0b3000001be0033
:1014d4000800be0024fd07000000e0000100350004
:1014e4000045eb000a04e000030032006000200025
:1014f400a080880067073700c8818000d9818000f8
:101504001e007800cf80de0057fd07001ac0b3002c
:101514000001be000800be0015fd07000000e00049
:1015240001003c000045eb000a04e0003b003200ef
:10153400a8818000b98180001e009000cf80de0069
:1015440049fd07001ac0b3000001be000800be0038
:1015540005fd07000000e000010035000045eb0038
:101564000a04e0002d003200888180009981800007
:101574002e009000cf80de003bfd07001ac0b300b0
:101584000001be000800be00f9fc07000000e000f6
:1015940001003c000045eb000a04e0001f0032009b
:1015a40048818000598180003e009000cf80de0099
:1015b4002dfd07001ac0b3000001be000800be00e4
:1015c400ebfc07000000e00001003c000045eb00dc
:1015d4000a04e000110032006881800079818000f3
:1015e4004e009000cf80de001ffd07001ac0b3003c
:1015f4000001be000800be00ddfc07000000e000a2
:1016040001003c000045eb000a04e0000300320046
:1016140010002000a08088001e073700c8818000c9
:10162400d98180001e007800cf80de000efd070007
:101634001ac0b3000001be000800be00ccfc0700c5
:101644000000e00001003c000045eb000a04e0005b
:101654003b003200a8818000b98180001e00900008
:10166400cf80de0000fd07001ac0b3000001be00f9
:101674000800be00befc07000000e00001003c00c2
:101684000045eb000a04e0002d0032008881800050
:10169400998180002e009000cf80de00f2fc0700cc
:1016a4001ac0b3000001be000800be00b0fc070071
:1016b4000000e00001003c000045eb000a04e000eb
:1016c4001f00320048818000598180003e00900054
:1016d400cf80de00e4fc07001ac0b3000001be00a6
:1016e4000800be00a0fc07000000e0000100350077
:1016f4000045eb000a04e00011003200688180001c
:10170400798180004e009000cf80de00d6fc070077
:101714001ac0b3000001be000800be0094fc07001c
:101724000000e00001003c000045eb000a04e0007a
:101734000300320030002000a0808800d506370066
:10174400c8818000d98180001e007800cf80de002f
:10175400c5fc07001ac0b3000001be000800be00ab
:1017640081fc07000000e000010035000045eb00ab
:101774000a04e0003b003200a8818000b9818000a7
:101784001e009000cf80de00b7fc07001ac0b30033
:101794000001be000800be0073fc07000000e0006a
:1017a400010035000045eb000a04e0002d00320082
:1017b40088818000998180002e009000cf80de0017
:1017c400a9fc07001ac0b3000001be000800be0057
:1017d40067fc07000000e00001003c000045eb004e
:1017e4000a04e0001f003200488180005981800013
:1017f4003e009000cf80de009bfc07001ac0b300bf
:101804000001be000800be0059fc07000000e00013
:1018140001003c000045eb000a04e0001100320026
:1018240068818000798180004e009000cf80de00c6
:101834008dfc07001ac0b3000001be000800be0002
:101844004bfc07000000e00001003c000045eb00f9
:101854000a04e0000300320010002000a080880089
:101864008c063700c8818000d98180001e00780072
:10187400cf80de007cfc07001ac0b3000001be006c
:101884000800be003afc07000000e00001003c0034
:101894000045eb000a04e0003b003200a881800010
:1018a400b98180001e009000cf80de006efc07002e
:1018b4001ac0b3000001be000800be002cfc0700e3
:1018c4000000e00001003c000045eb000a04e000d9
:1018d4002d00320088818000998180002e009000c4
:1018e400cf80de0060fc07001ac0b3000001be0018
:1018f4000800be001efc07000000e00001003c00e0
:101904000045eb000a04e0001f003200488180001b
:10191400598180003e009000cf80de0052fc070019
:101924001ac0b3000001be000800be000efc070090
:101934000000e000010035000045eb000a04e0006f
:101944001100320068818000798180004e0090008f
:10195400cf80de0044fc07001ac0b3000001be00c3
:101964000800be0000fc07000000e0000100350094
:101974000045eb000a04e0000300320030002000c0
:10198400a080880043063700c8818000d981800088
:101994001e007800cf80de0033fc07001ac0b300bd
:1019a4000001be000800be00f1fb07000000e000db
:1019b40001003c000045eb000a04e0003b0032005b
:1019c400a8818000b98180001e009000cf80de00d5
:1019d40025fc07001ac0b3000001be000800be00c9
:1019e400e3fb07000000e00001003c000045eb00c1
:1019f4000a04e0002d003200888180009981800073
:101a04002e009000cf80de0017fc07001ac0b30040
:101a14000001be000800be00d3fb07000000e00088
:101a2400010035000045eb000a04e0001f0032000d
:101a340048818000598180003e009000cf80de0004
:101a440009fc07001ac0b3000001be000800be0074
:101a5400c5fb07000000e000010035000045eb0075
:101a64000a04e0001100320068818000798180005e
:101a74004e009000cf80de00fbfb07001ac0b300cd
:101a84000001be000800be00b7fb07000000e00034
:101a9400010035000045eb000a04e00003003200b9
:101aa40040002000a0808800fa053700c88180002b
:101ab400d98180001e007800cf80de00eafb070099
:101ac4001ac0b3000001be000800be00a6fb070058
:101ad4000000e000010035000045eb000a04e000ce
:101ae4003b003200a8818000b98180001e00900074
:101af400cf80de00dcfb07001ac0b3000001be008b
:101b04000800be0098fb07000000e000010035005b
:101b14000045eb000a04e0002d00320088818000bb
:101b2400998180002e009000cf80de00cefb07005c
:101b34001ac0b3000001be000800be008afb070003
:101b44000000e000010035000045eb000a04e0005d
:101b54001f00320048818000598180003e009000bf
:101b6400cf80de00c0fb07001ac0b3000001be0036
:101b74000800be007efb07000000e00001003c00fe
:101b84000045eb000a04e000110032006881800087
:101b9400798180004e009000cf80de00b2fb070008
:101ba4001ac0b3000001be000800be0070fb0700ad
:101bb4000000e00001003c000045eb000a04e000e6
:101bc4000300320020002000a0808800b105370007
:101bd400c8818000d98180001e007800cf80de009b
:101be400a1fb07001ac0b3000001be000800be003c
:101bf4005dfb07000000e000010035000045eb003c
:101c04000a04e0003b003200a8818000b981800012
:101c14001e009000cf80de0093fb07001ac0b300c3
:101c24000001be000800be004ffb07000000e000fa
:101c3400010035000045eb000a04e0002d003200ed
:101c440088818000998180002e009000cf80de0082
:101c540085fb07001ac0b3000001be000800be00e7
:101c640041fb07000000e000010035000045eb00e7
:101c74000a04e0001f00320048818000598180007e
:101c84003e009000cf80de0077fb07001ac0b3004f
:101c94000001be000800be0033fb07000000e000a6
:101ca400010035000045eb000a04e0001100320099
:101cb40068818000798180004e009000cf80de0032
:101cc40069fb07001ac0b3000001be000800be0093
:101cd40025fb07000000e000010035000045eb0093
:101ce4000a04e0000300320060002000a0808800a5
:101cf40068053700c8818000d98180001e00780003
:101d0400cf80de0058fb07001ac0b3000001be00fc
:101d14000800be0014fb07000000e00001003500cd
:101d24000045eb000a04e0003b003200a88180007b
:101d3400b98180001e009000cf80de004afb0700be
:101d44001ac0b3000001be000800be0006fb070075
:101d54000000e000010035000045eb000a04e0004b
:101d64002d00320088818000998180002e0090002f
:101d7400cf80de003cfb07001ac0b3000001be00a8
:101d84000800be00f8fa07000000e000010035007a
:101d94000045eb000a04e0001f0032004881800087
:101da400598180003e009000cf80de002efb0700aa
:101db4001ac0b3000001be000800be00eafa070022
:101dc4000000e000010035000045eb000a04e000db
:101dd4001100320068818000798180004e009000fb
:101de400cf80de0020fb07001ac0b3000001be0054
:101df4000800be00defa07000000e00001003c001d
:101e04000045eb000a04e00003003200200020003b
:101e1400a08088001f053700c8818000d981800018
:101e24001e007800cf80de000ffb07001ac0b3004d
:101e34000001be000800be00cdfa07000000e0006b
:101e440001003c000045eb000a04e0003b003200c6
:101e5400a8818000b98180001e009000cf80de0040
:101e640001fb07001ac0b3000001be000800be0059
:101e7400bdfa07000000e000010035000045eb005a
:101e84000a04e0002d0032008881800099818000de
:101e94002e009000cf80de00f3fa07001ac0b300d2
:101ea4000001be000800be00affa07000000e00019
:101eb400010035000045eb000a04e0001f00320079
:101ec40048818000598180003e009000cf80de0070
:101ed400e5fa07001ac0b3000001be000800be0006
:101ee400a1fa07000000e000010035000045eb0006
:101ef4000a04e000110032006881800079818000ca
:101f04004e009000cf80de00d7fa07001ac0b3005d
:101f14000001be000800be0093fa07000000e000c4
:101f2400010035000045eb000a04e0000300320024
:101f340040002000a0808800d6043700c8818000bb
:101f4400d98180001e007800cf80de00c6fa070029
:101f54001ac0b3000001be000800be0082fa0700e8
:101f64000000e000010035000045eb000a04e00039
:101f74003b003200a8818000b98180001e009000df
:101f8400cf80de00b8fa07001ac0b3000001be001b
:101f94000800be0076fa07000000e00001003c00e3
:101fa4000045eb000a04e0002d0032008881800027
:101fb400998180002e009000cf80de00aafa0700ed
:101fc4001ac0b3000001be000800be0066fa070094
:101fd4000000e000010035000045eb000a04e000c9
:101fe4001f00320048818000598180003e0090002b
:101ff400cf80de009cfa07001ac0b3000001be00c7
:102004000800be0058fa07000000e0000100350097
:102014000045eb000a04e0001100320068818000f2
:10202400798180004e009000cf80de008efa070098
:102034001ac0b3000001be000800be004afa07003f
:102044000000e000010035000045eb000a04e00058
:102054000300320060002000a08088008d04370057
:10206400c8818000d98180001e007800cf80de0006
:102074007dfa07001ac0b3000001be000800be00cc
:1020840039fa07000000e000010035000045eb00cc
:102094000a04e0003b003200a8818000b98180007e
:1020a4001e009000cf80de006ffa07001ac0b30054
:1020b4000001be000800be002bfa07000000e0008b
:1020c400010035000045eb000a04e0002d00320059
:1020d40088818000998180002e009000cf80de00ee
:1020e40061fa07001ac0b3000001be000800be0078
:1020f4001dfa07000000e000010035000045eb0078
:102104000a04e0001f0032004881800059818000e9
:102114003e009000cf80de0053fa07001ac0b300df
:102124000001be000800be0011fa07000000e00034
:1021340001003c000045eb000a04e00011003200fd
:1021440068818000798180004e009000cf80de009d
:1021540045fa07001ac0b3000001be000800be0023
:1021640001fa07000000e000010035000045eb0023
:102174000a04e0000300320060002000a080880010
:1021840044043700c8818000d98180001e00780093
:10219400cf80de0034fa07001ac0b3000001be008d
:1021a4000800be00f2f907000000e00001003c0056
:1021b4000045eb000a04e0003b003200a8818000e7
:1021c400b98180001e009000cf80de0026fa07004f
:1021d4001ac0b3000001be000800be00e4f9070005
:1021e4000000e00001003c000045eb000a04e000b0
:1021f4002d00320088818000998180002e0090009b
:10220400cf80de0018fa07001ac0b3000001be0038
:102214000800be00d4f907000000e000010035000a
:102224000045eb000a04e0001f00320048818000f2
:10223400598180003e009000cf80de000afa07003a
:102244001ac0b3000001be000800be00c8f90700b0
:102254000000e00001003c000045eb000a04e0003f
:102264001100320068818000798180004e00900066
:10227400cf80de00fcf907001ac0b3000001be00e5
:102284000800be00b8f907000000e00001003500b6
:102294000045eb000a04e000030032004000200087
:1022a400a0808800fb033700c8818000d9818000aa
:1022b4001e007800cf80de00ebf907001ac0b300df
:1022c4000001be000800be00a7f907000000e000fe
:1022d400010035000045eb000a04e0003b00320039
:1022e400a8818000b98180001e009000cf80de00ac
:1022f400ddf907001ac0b3000001be000800be00eb
:102304009bf907000000e00001003c000045eb00e1
:102314000a04e0002d003200888180009981800049
:102324002e009000cf80de00cff907001ac0b30062
:102334000001be000800be008bf907000000e000a9
:10234400010035000045eb000a04e0001f003200e4
:1023540048818000598180003e009000cf80de00db
:10236400c1f907001ac0b3000001be000800be0096
:102374007ff907000000e00001003c000045eb008d
:102384000a04e00011003200688180007981800035
:102394004e009000cf80de00b3f907001ac0b300ee
:1023a4000001be000800be0071f907000000e00053
:1023b40001003c000045eb000a04e0000300320089
:1023c40020002000a0808800b2033700c88180006c
:1023d400d98180001e007800cf80de00a2f90700ba
:1023e4001ac0b3000001be000800be005ef9070079
:1023f4000000e000010035000045eb000a04e000a5
:102404003b003200a8818000b98180001e0090004a
:10241400cf80de0094f907001ac0b3000001be00ab
:102424000800be0052f907000000e00001003c0073
:102434000045eb000a04e0002d0032008881800092
:10244400998180002e009000cf80de0086f907007d
:102454001ac0b3000001be000800be0042f9070024
:102464000000e000010035000045eb000a04e00034
:102474001f00320048818000598180003e00900096
:10248400cf80de0078f907001ac0b3000001be0057
:102494000800be0036f907000000e00001003c001f
:1024a4000045eb000a04e00011003200688180005e
:1024b400798180004e009000cf80de006af9070029
:1024c4001ac0b3000001be000800be0026f90700d0
:1024d4000000e000010035000045eb000a04e000c4
:1024e4000300320060002000a080880069033700e8
:1024f400c8818000d98180001e007800cf80de0072
:1025040059f907001ac0b3000001be000800be005c
:1025140015f907000000e000010035000045eb005c
:102524000a04e0003b003200a8818000b9818000e9
:102534001e009000cf80de004bf907001ac0b300e4
:102544000001be000800be0009f907000000e00019
:1025540001003c000045eb000a04e0002d003200bd
:1025640088818000998180002e009000cf80de0059
:102574003df907001ac0b3000001be000800be0008
:10258400fbf807000000e00001003c000045eb0000
:102594000a04e0001f003200488180005981800055
:1025a4003e009000cf80de002ff907001ac0b30070
:1025b4000001be000800be00ebf807000000e000c8
:1025c400010035000045eb000a04e0001100320070
:1025d40068818000798180004e009000cf80de0009
:1025e40021f907001ac0b3000001be000800be00b4
:1025f400dff807000000e00001003c000045eb00ac
:102604000a04e0000300320020002000a0808800bb
:1026140020033700c8818000d98180001e00780023
:10262400cf80de0010f907001ac0b3000001be001d
:102634000800be00cef807000000e00001003c00e6
:102644000045eb000a04e0003b003200a881800052
:10265400b98180001e009000cf80de0002f90700df
:102664001ac0b3000001be000800be00c0f8070095
:102674000000e00001003c000045eb000a04e0001b
:102684002d00320088818000998180002e00900006
:10269400cf80de00f4f807001ac0b3000001be00ca
:1026a4000800be00b2f807000000e00001003c0092
:1026b4000045eb000a04e0001f003200488180005e
:1026c400598180003e009000cf80de00e6f80700cc
:1026d4001ac0b3000001be000800be00a4f8070041
:1026e4000000e00001003c000045eb000a04e000ab
:1026f4001100320068818000798180004e009000d2
:10270400cf80de00d8f807001ac0b3000001be0075
:102714000800be0096f807000000e00001003c003d
:102724000045eb000a04e0000300320040002000f2
:10273400a0808800d7023700c8818000d98180003a
:102744001e007800cf80de00c7f807001ac0b3006f
:102754000001be000800be0085f807000000e0008c
:1027640001003c000045eb000a04e0003b0032009d
:10277400a8818000b98180001e009000cf80de0017
:10278400b9f807001ac0b3000001be000800be007b
:1027940075f807000000e000010035000045eb007b
:1027a4000a04e0002d0032008881800099818000b5
:1027b4002e009000cf80de00abf807001ac0b300f3
:1027c4000001be000800be0069f807000000e00038
:1027d40001003c000045eb000a04e0001f00320049
:1027e40048818000598180003e009000cf80de0047
:1027f4009df807001ac0b3000001be000800be0027
:1028040059f807000000e000010035000045eb0026
:102814000a04e000110032006881800079818000a0
:102824004e009000cf80de008ff807001ac0b3007e
:102834000001be000800be004bf807000000e000e5
:10284400010035000045eb000a04e00003003200fb
:1028540040002000a08088008e023700c8818000dc
:10286400d98180001e007800cf80de007ef807004a
:102874001ac0b3000001be000800be003af8070009
:102884000000e000010035000045eb000a04e00010
:102894003b003200a8818000b98180001e009000b6
:1028a400cf80de0070f807001ac0b3000001be003c
:1028b4000800be002cf807000000e000010035000d
:1028c4000045eb000a04e0002d00320088818000fe
:1028d400998180002e009000cf80de0062f807000e
:1028e4001ac0b3000001be000800be0020f80700b3
:1028f4000000e00001003c000045eb000a04e00099
:102904001f00320048818000598180003e00900001
:10291400cf80de0054f807001ac0b3000001be00e7
:102924000800be0010f807000000e00001003500b8
:102934000045eb000a04e0001100320068818000c9
:10294400798180004e009000cf80de0046f80700b9
:102954001ac0b3000001be000800be0004f807005e
:102964000000e00001003c000045eb000a04e00028
:102974000300320020002000a080880045023700b8
:10298400c8818000d98180001e007800cf80de00dd
:1029940035f807001ac0b3000001be000800be00ed
:1029a400f1f707000000e000010035000045eb00ee
:1029b4000a04e0003b003200a8818000b981800055
:1029c4001e009000cf80de0027f807001ac0b30075
:1029d4000001be000800be00e3f707000000e000ad
:1029e400010035000045eb000a04e0002d00320030
:1029f40088818000998180002e009000cf80de00c5
:102a040019f807001ac0b3000001be000800be0098
:102a1400d7f707000000e00001003c000045eb0090
:102a24000a04e0001f0032004881800059818000c0
:102a34003e009000cf80de000bf807001ac0b30000
:102a44000001be000800be00c9f707000000e00056
:102a540001003c000045eb000a04e00011003200d4
:102a640068818000798180004e009000cf80de0074
:102a7400fdf707001ac0b3000001be000800be0045
:102a8400b9f707000000e000010035000045eb0045
:102a94000a04e0000300320060002000a0808800e7
:102aa400fc013700c8818000d98180001e007800b5
:102ab400cf80de00ecf707001ac0b3000001be00af
:102ac4000800be00a8f707000000e0000100350080
:102ad4000045eb000a04e0003b003200a8818000be
:102ae400b98180001e009000cf80de00def7070071
:102af4001ac0b3000001be000800be009cf7070026
:102b04000000e00001003c000045eb000a04e00086
:102b14002d00320088818000998180002e00900071
:102b2400cf80de00d0f707001ac0b3000001be005a
:102b34000800be008ef707000000e00001003c0022
:102b44000045eb000a04e0001f00320048818000c9
:102b5400598180003e009000cf80de00c2f707005c
:102b64001ac0b3000001be000800be007ef70700d3
:102b74000000e000010035000045eb000a04e0001d
:102b84001100320068818000798180004e0090003d
:102b9400cf80de00b4f707001ac0b3000001be0006
:102ba4000800be0070f707000000e00001003500d7
:102bb4000045eb000a04e00003003200600020003e
:102bc400a0808800b3013700c8818000d9818000cb
:102bd4001e007800cf80de00a3f707001ac0b30000
:102be4000001be000800be0061f707000000e0001d
:102bf40001003c000045eb000a04e0003b00320009
:102c0400a8818000b98180001e009000cf80de0082
:102c140095f707001ac0b3000001be000800be000b
:102c240051f707000000e000010035000045eb000b
:102c34000a04e0002d003200888180009981800020
:102c44002e009000cf80de0087f707001ac0b30083
:102c54000001be000800be0043f707000000e000ca
:102c6400010035000045eb000a04e0001f003200bb
:102c740048818000598180003e009000cf80de00b2
:102c840079f707001ac0b3000001be000800be00b7
:102c940037f707000000e00001003c000045eb00ae
:102ca4000a04e0001100320068818000798180000c
:102cb4004e009000cf80de006bf707001ac0b3000f
:102cc4000001be000800be0027f707000000e00076
:102cd400010035000045eb000a04e0000300320067
:102ce40040002000a08088006a013700c88180006d
:102cf400d98180001e007800cf80de005af70700db
:102d04001ac0b3000001be000800be0016f7070099
:102d14000000e000010035000045eb000a04e0007b
:102d24003b003200a8818000b98180001e00900021
:102d3400cf80de004cf707001ac0b3000001be00cc
:102d44000800be000af707000000e00001003c0094
:102d54000045eb000a04e0002d0032008881800069
:102d6400998180002e009000cf80de003ef707009e
:102d74001ac0b3000001be000800be00faf6070046
:102d84000000e000010035000045eb000a04e0000b
:102d94001f00320048818000598180003e0090006d
:102da400cf80de0030f707001ac0b3000001be0078
:102db4000800be00ecf607000000e000010035004a
:102dc4000045eb000a04e000110032006881800035
:102dd400798180004e009000cf80de0022f707004a
:102de4001ac0b3000001be000800be00e0f60700f0
:102df4000000e00001003c000045eb000a04e00094
:102e04000300320020002000a08088002101370048
:102e1400c8818000d98180001e007800cf80de0048
:102e240011f707001ac0b3000001be000800be007d
:102e3400cff607000000e00001003c000045eb0075
:102e44000a04e0003b003200a8818000b9818000c0
:102e54001e009000cf80de0003f707001ac0b30005
:102e64000001be000800be00c1f607000000e0003b
:102e740001003c000045eb000a04e0002d00320094
:102e840088818000998180002e009000cf80de0030
:102e9400f5f607001ac0b3000001be000800be002a
:102ea400b3f607000000e00001003c000045eb0021
:102eb4000a04e0001f00320048818000598180002c
:102ec4003e009000cf80de00e7f607001ac0b30092
:102ed4000001be000800be00a5f607000000e000e7
:102ee40001003c000045eb000a04e0001100320040
:102ef40068818000798180004e009000cf80de00e0
:102f0400d9f607001ac0b3000001be000800be00d5
:102f140095f607000000e000010035000045eb00d5
:102f24000a04e0000300320030002000a080880082
:102f3400d8003700c8818000d98180001e00780045
:102f4400cf80de00c8f607001ac0b3000001be003f
:102f54000800be0084f607000000e0000100350010
:102f64000045eb000a04e0003b003200a881800029
:102f7400b98180001e009000cf80de00baf6070001
:102f84001ac0b3000001be000800be0078f60700b6
:102f94000000e00001003c000045eb000a04e000f2
:102fa4002d00320088818000998180002e009000dd
:102fb400cf80de00acf607001ac0b3000001be00eb
:102fc4000800be006af607000000e00001003c00b3
:102fd4000045eb000a04e0001f0032004881800035
:102fe400598180003e009000cf80de009ef60700ed
:102ff4001ac0b3000001be000800be005cf6070062
:103004000000e00001003c000045eb000a04e00081
:103014001100320068818000798180004e009000a8
:10302400cf80de0090f607001ac0b3000001be0096
:103034000800be004ef607000000e00001003c005e
:103044000045eb000a04e0000300320010002000f9
:10305400a08088008f003700c8818000d98180005b
:103064001e007800cf80de007ff607001ac0b30090
:103074000001be000800be003bf607000000e000af
:10308400010035000045eb000a04e0003a0032007c
:10309400a8818000b98180001e009000cf80de00ee
:1030a40071f607001ac0b3000001be000800be009c
:1030b4002ff607000000e00001003c000045eb0093
:1030c4000a04e0002c00320088818000998180008d
:1030d4002e009000cf80de0063f607001ac0b30014
:1030e4000001be000800be0021f607000000e00059
:1030f40001003c000045eb000a04e0001e00320021
:1031040048818000598180003e009000cf80de001d
:1031140055f607001ac0b3000001be000800be0047
:1031240013f607000000e00001003c000045eb003e
:103134000a04e00010003200688180007981800078
:103144004e009000cf80de0047f607001ac0b3009f
:103154000001be000800be0003f607000000e00006
:10316400010035000045eb000a04e00002003200d3
:103174001430ef0047003700c8818000d9818000f7
:103184001e007800cf80de0037f607001ac0b300b7
:103194000001be000800be00f5f507000000e000d5
:1031a40001003c000045eb000a04e0003900320055
:1031b400a8818000b98180001e009000cf80de00cd
:1031c40029f607001ac0b3000001be000800be00c3
:1031d400e7f507000000e00001003c000045eb00bb
:1031e4000a04e0002b00320088818000998180006d
:1031f4002e009000cf80de001bf607001ac0b3003b
:103204000001be000800be00d9f507000000e00080
:1032140001003c000045eb000a04e0001d00320000
:1032240048818000598180003e009000cf80de00fc
:103234000df607001ac0b3000001be000800be006e
:10324400cbf507000000e00001003c000045eb0066
:103254000a04e0000f003200688180007981800058
:103264004e009000cf80de00fff507001ac0b300c7
:103274000001be000800be00bdf507000000e0002c
:1032840001003c000045eb000a04e00001003200ac
:103294001430ef00a08080004f0578004f04be007a
:1032a4000080fa00000006000600fa00d1040700be
:1032b400180507002e0307008404070032020700e4
:1032c40018020700ad0207000100370000000000eb
:1032d400c0040700e14f5000fcff3a00c10407009e
:1032e400b8040700000f78001e0078001000780072
:1032f4008000eb00dff507003233230033052400a0
:1033040031f60700020020000358240054f507009a
:10331400d2cc2c00c30424002bf60700100798001d
:10332400210798001e019000ae01900000002000cb
:10333400812024004af5070002002000030a24002b
:10334400e9f4070060818800718188001e80e8002c
:10335400100078008000eb00c6f50700323323002c
:103364003305240018f60700020020000358240047
:103374003bf50700d2cc2c00c304240012f607004e
:1033840010079800210798001e019000ae019000dc
:10339400000020008120240031f5070002002000f5
:1033a400030a2400d0f4070040818800518188007a
:1033b4009e00780064804000100078008000eb00dc
:1033c400acf507003233230033052400fef5070073
:1033d400020020000358240021f50700d2cc2c0061
:1033e400c3042400f8f5070010079800210798008b
:1033f4001e019000ae0190000000200081202400f6
:1034040017f5070002002000030a2400b6f40700a1
:1034140080818800918188009e0078006880400047
:10342400100078008000eb0092f50700323323008f
:1034340033052400e4f507000200200003582400ab
:1034440007f50700d2cc2c00c3042400def50700e6
:1034540010079800210798001e019000ae0190000b
:103464000000200081202400fdf407000200200059
:10347400030a24009cf40700a0818800b18188001d
:103484009e00780066804000100078008000eb0009
:1034940078f507003233230033052400caf507000a
:1034a4000200200003582400edf40700d2cc2c00c5
:1034b400c3042400c4f507001007980021079800ee
:1034c4001e019000ae019000000020008120240025
:1034d400e3f4070002002000030a240082f407003a
:1034e400c0818800d181880079ff37000000fa008c
:1034f40000808000e10f500005003a00f000200039
:1035040030808800f00020004080880013003700dd
:1035140000808000e20f500003003a0040012000c8
:10352400308088000d00370000808000e30f5000d9
:1035340003003a0090012000308088000700370023
:1035440000808000e40f500004003a00a000200036
:1035540030808800a00020004080880004d0bf0094
:103564000080fb00cf80de00b200200003002000ba
:10357400820f5000838f58006a003e00000601004d
:103584000b003700140037001d0037002d003700f2
:103594002e00370038003700390037004300370069
:1035a400440037004f003700500037005b003700fd
:1035b4000a30ef000c30ef000001eb006000b800af
:1035c40028030700120020006000b800250307004c
:1035d40010c0b30004f0b700528080006380800004
:1035e400803e200001002000800f5100818f59008f
:1035f4004f00360020c0b30004f0b7004d00370080
:1036040064eea800108080000000e80010808800ac
:10361400308080008000eb0016f507000001eb000d
:1036240010030700308080008000eb0011f50700d4
:10363400120020000b03070030c0b30004f0b700f1
:103644003c0037003d0007003a003700408080000e
:103654008000eb0007f507000001eb000103070001
:10366400120020006000b800fe02070050c0b30042
:1036740004f0b7002f003700300007002d0037009a
:103684000001eb006000b800f602070040808000f3
:103694008000eb00f7f4070012002000f10207009d
:1036a40070c0b30004f0b700220037002300070005
:1036b4002000370064cea8000001eb0000002000c9
:1036c40001172400e7020700120020000000200078
:1036d40001172c00e302070090c0b30004f0b70008
:1036e400140037001500070012003700254ea8000b
:1036f4000001eb000000200001172c00d902070094
:10370400120020000000200001172400d502070049
:10371400b0c0b30004f0b70006003700070007008c
:10372400040037000470ef000000000001003700bf
:10373400000000000080fa00000006000200fa0009
:10374400881f78000040eb00004f7800a0818000c3
:10375400b181800018c0b30002002000c3202400ff
:1037640081f407000000e000010035000044eb0094
:103774000804e00016003a008081800091818000f6
:1037840018c0b30002002000831c240076f4070054
:103794000000e000010035000044eb000804e000f4
:1037a4000b003a00408180005181800018c0b300b2
:1037b40002002000c32024006bf407000000e00096
:1037c400010035000044eb000804e0000a00320068
:1037d4001000200000808800f400200093012000e5
:1037e400f200200091012000f000200084f5070081
:1037f400004f780096003700a0818000b1818000de
:1038040018c0b300020020000327240056f4070068
:103814000000e000010035000044eb000804e00073
:1038240016003a00808180009181800018c0b300a6
:1038340002002000832424004bf407000000e00071
:10384400010035000044eb000804e0000b003a00de
:10385400408180005181800018c0b3000200200024
:103864000327240040f407000000e00001003500b5
:103874000044eb000804e0000300320020002000b4
:103884000080880072003700a0818000b181800030
:1038940018c0b300020020008324240034f407007d
:1038a4000000e00001003c000044eb000804e000dc
:1038b40016003a00808180009181800018c0b30016
:1038c400020020000327240029f407000000e00080
:1038d40001003c000044eb000804e0000b003a0047
:1038e400408180005181800018c0b3000200200094
:1038f400832424001ef407000000e00001003c00c3
:103904000044eb000804e000030032003000200013
:10391400008088004e003700c0818000d181800083
:1039240018c0b30002002000031224000ef40700a4
:103934000000e000010035000044eb000804e00052
:1039440043003200608180007181800018c0b300a0
:10395400020020000312240003f407000000e0002a
:10396400010035000044eb000804e0003800320098
:10397400808180009181800018c0b3000200200083
:1039840003122400faf307000000e00001003c00e9
:103994000044eb000804e0002d0032004000200049
:1039a40000808800c4818000d5818000608180000f
:1039b4007181800018c0b3000001be000400be0085
:1039c400e9f307000000e000010035000044eb00cb
:1039d4000804e0000300320020c0b300004f780068
:1039e4001b003700c4818000d58180006081800085
:1039f4007181800018c0b3000001be000400be0045
:103a0400dbf307000000e00001003c000044eb0091
:103a14000804e0000300320040c0b300004f780007
:103a24000b003700c4818000d58180006081800054
:103a3400718180000001be000400be00caf30700cb
:103a44000000e00002003a000040eb00004f780064
:103a54001e4078000004e00003003a0020c0b300d8
:103a640005f0b7002a0037001e407800e34f5000ed
:103a740003003a0040c0b30005f0b700240037004b
:103a84001e407800e14f500003003a0060c0b300cc
:103a940005f0b7001e0037001e407800e44f5000c8
:103aa40003003a0080c0b30005f0b70018003700e7
:103ab4001e407800e24f500003003a00a0c0b3005b
:103ac40005f0b700120037001e407800e54f5000a3
:103ad4000a003a0010808000610060000000e000ed
:103ae40003003a0080c0b30005f0b70008003700b7
:103af400a0c0b30005f0b700050037001e407800f1
:103b0400e64f500002003a0040c0b300004f780076
:103b140005d0bf0004f0b7004f0478000080fa001d
:103b2400000006000000fa0013e1a90011e1a90059
:103b34001061a8001021a90081088000f0fc2f006a
:103b440000806000800888000a21ef000621ef0051
:103b5400404c20007008880000402b00600888005a
:103b64002142800080ff2f00008060000000a00040
:103b7400204288000108a9002108a80011e1a8003a
:103b84000080fa00000006000400fa00881f780094
:103b94000000200081242400008fbe0005e1a9005c
:103ba4000421a90050c32000100888000068a9005f
:103bb4002068a80005e1a80021088000f0fc2f007f
:103bc40000806000200888001e0178009e0190009b
:103bd4000040220041a7240021f3070018c0b300cd
:103be40002f02f00f377240061f307000000e000e7
:103bf40001003c000044eb000804e00054003200e3
:103c040021088000f0fc2f00008060000040a0002c
:103c1400200888001e0178009e01900000402200c8
:103c240041a724000ef30700020020000310240023
:103c34000bf3070018c0b30002f02f00f377240041
:103c44004bf307000000e00001003c000044eb00df
:103c54000804e0003200320021088000f0fc2f004c
:103c6400008060000050a000200888001e01780039
:103c74009e0190000040220041a72400f8f20700b2
:103c84000200200003282400f5f2070018c0b30046
:103c940002f02f00f377240035f307000000e00062
:103ca40001003c000044eb000804e0001000320076
:103cb4002108800000032000010070002008880013
:103cc4001e0178009e0190000040220041a72400bc
:103cd400e3f207000200200003382400e0f20700aa
:103ce40025f3070000007800100888002000370042
:103cf4001e0178009e0190000040220041a724008c
:103d0400d7f207000200200003282400d4f20700a1
:103d140019f3070000007800100888001400370029
:103d24001e0178009e0190000040220041a724005b
:103d3400cbf207000200200003102400c8f20700a1
:103d44000df3070000007800100888000800370011
:103d54001e0178009e0190000040220041a724002b
:103d6400bff2070004f30700000078001008880081
:103d74004f0478000080fa00000006000400fa00f6
:103d8400881f780000002800b14b2400008fbe007b
:103d94001fe1a9001e21a90050c32000d0088800fb
:103da4000368a9002368a8001fe1a800f1088000a7
:103db400f0fc2f0000806000f00888001e017800ed
:103dc4009e0190000040220041a72400a4f20700b5
:103dd40018c0b30002f02f00f3772400e4f20700c8
:103de4000000e00001003c000044eb000804e00097
:103df40054003200f1088000f0fc2f0000806000c5
:103e04000040a000f00888001e0178009e01900088
:103e14000040220041a7240091f207000200200084
:103e2400031024008ef2070018c0b30002f02f0024
:103e3400f3772400cef207000000e00001003c000c
:103e44000044eb000804e00032003200f108800076
:103e5400f0fc2f00008060000050a000f0088800f3
:103e64001e0178009e0190000040220041a724001a
:103e74007bf20700020020000328240078f20700e8
:103e840018c0b30002f02f00f3772400b8f2070043
:103e94000000e00001003c000044eb000804e000e6
:103ea40010003200f10880000003200001007000bf
:103eb400f00888001e0178009e0190000040220056
:103ec40041a7240066f20700020020000338240002
:103ed40063f20700a8f2070000007800d008880009
:103ee400200037001e0178009e019000004022004f
:103ef40041a724005af207000200200003282400ee
:103f040057f207009cf2070000007800d0088800f0
:103f1400140037001e0178009e019000004022002a
:103f240041a724004ef207000200200003102400e1
:103f34004bf2070090f2070000007800d0088800d8
:103f4400080037001e0178009e0190000040220006
:103f540041a7240042f2070087f20700000078001e
:103f6400d00888004f0478000080fa0000000600a2
:103f74000000fa001160800080ff2f0000806000c4
:103f84001060880000fa20002060880023aca8009c
:103f9400238ca80011618000f03f2f000080600096
:103fa40000a0a0001061880030002000206188007b
:103fb400c3aca800c38ca80011668000f03f2f009a
:103fc4000080600000a0a00010668800300020007f
:103fd4002066880001eca8000080fa0000000600ba
:103fe4000000fa00889fbe00248180003581800093
:103ff400008180001181800018c0b3000001be0060
:104004000400be0058f207000000e0000100350083
:104014000044eb000804e0000d0032000881800039
:1040240019818000248180003581800070808000a7
:10403400818080000001be000400be00abf10700d7
:104044000801be00c8000700208188003181880073
:1040540024818000358180000081800011818000ee
:1040640018c0b3000001be000400be0040f2070007
:104074000000e00001003c000044eb000804e00004
:104084000d003200088180001981800024818000a5
:104094003581800070808000818080000001be0036
:1040a4000400be0090f107000801be00960007005e
:1040b4002081880031818800208180003181800046
:1040c40018c0b3006011b80029f207000000e00036
:1040d40001003c000044eb000804e000040032004e
:1040e400c3eca90024cea800c3cca8000300370069
:1040f400c3cca90024eea800c3eca8002081800052
:10410400318180006a00070002002000032224009d
:10411400adf2070039f2070000007800306688002d
:10412400e4808000f5808000c0808000d180800021
:1041340018c0b3000001be000400be000af207006c
:104144000000e000010035000044eb000804e0003a
:104154000d003200c8808000d9808000e480800097
:10416400f580800070808000818080000001be00a6
:104174000400be005df107000801be007a000700dc
:10418400e0808800f1808800e4808000f580800071
:10419400c0808000d180800018c0b3000001be0040
:1041a4000400be00f2f107000000e00001003c0042
:1041b4000044eb000804e0000d003200c8808000d9
:1041c400d9808000e4808000f580800070808000c9
:1041d400818080000001be000400be0042f107009f
:1041e4000801be0048000700e0808800f1808800d4
:1041f400e0808000f180800018c0b3006011b80036
:10420400dbf107000000e00001003c000044eb008b
:104214000804e0000400320023cca90015eea80035
:1042240023eca8000300370023eca90015cea80056
:1042340023cca800e0808000f18080001c000700ef
:1042440002002000032224005ff20700ebf10700c4
:1042540000007800306188004f04be000080fa003e
:10426400000006000600fa00008fbe002207980036
:104274002e0090000000e00006003a001e007800c6
:104284009e00900001f0a200008188001181880046
:10429400050037001e0078009e00900001f0a20087
:1042a400c0808800d18088000080fa0000000600e9
:1042b4000400fa00881f7800008fbe0018c0b30005
:1042c4006011b8001e0078009e009000a8f107005d
:1042d4000000e00001003d000044eb000804e000a1
:1042e400030032001e0078009e0090000300370097
:1042f4001e0078009e00900001f0a2004f04780098
:104304000080fa00000006000800fa00881f780008
:10431400008fbe00220798003307980018c0b3002e
:104324002e019000be0190001e0078009e009000b7
:104334008ff107000000e00001003c000044eb00a6
:104344000804e000030032001e0078009e00900084
:10435400020037002e009000be0090004f04780049
:104364000080fa00000006000800fa00881f7800a8
:10437400008fbe00220798003307980018c0b300ce
:104384002e019000be0190001e0078009e00900057
:1043940075f107000000e000010035000044eb0067
:1043a4000804e000030032001e0078009e00900024
:1043b400020037002e009000be0090004f047800e9
:1043c4000080fa00000006000c00fa00881f780044
:1043d400008fbe0022079800330798004407980016
:1043e4005507980018c0b3004e019000de019000fc
:1043f4001e0078009e0090005df107000000e000c0
:1044040001003c000044eb000804e000040032001a
:104414004e019000de019000028fbe000e003700b6
:1044240018c0b3002e019000be0190001e00780059
:104434009e0090004cf107000000e00001003500f0
:104444000044eb000804e000030032002e01900059
:10445400be019000028fbe001e0078009e009000f6
:104464004f0478000080fa00000006000400fa00ff
:10447400008fbe00b2fd2000930424001e007800cb
:104484009e009000f6f00700020020004333240051
:10449400cdf107000080fa00000006000400fa00d5
:1044a400008fbe00b2fd2000930424001e0078009b
:1044b4009e009000c4f10700020020004333240052
:1044c400e7f007000080fa00000006000000fa0090
:1044d40021e3a9002143a80001198000f0cf2f0097
:1044e40000806000001988002043a90001198000a1
:1044f400000e2000010070000019880011198000ce
:10450400f0ff210000806000101988002343a800f8
:1045140011198000f0cf2f0000806000101988006e
:104524001119800030f82f00008060000040a000c6
:10453400101988002203a9002223a90025e3a90059
:10454400f0c0b30024e3b70021198000f00f2e005f
:104554008080600000f020000100700020198800b5
:104564003303a9004feea8002e0ea8002f6ea8005a
:104574006f2ea8001e2ea80031e3a80030c3a800a7
:104584003163a8002e03a8003063a80041198000fd
:1045940000fc2f00008060004019880028e3a90077
:1045a40001a8a90021a8a80021e3a8000080fa001e
:1045b400000006000000fa002023a8000080fa0092
:1045c400000006000000fa00c00321000080fa0089
:1045d400000006000000fa0013d0bf000080fa00bb
:1045e400000006000000fa001370ef000080fa00db
:1045f400000006000000fa00f0032000303a8800b2
:10460400213a8000f0f32f0000806000203a8800f7
:10461400213a800000fe2f00008060000000a0000e
:10462400203a88001200200080072000a109200001
:1046340033742000804978008149780082497800e9
:10464400103a8000000178000200a00060042000fd
:104654007105200023742000804978008149780086
:104664008249780000000000113a80000000270011
:104674008080600000002100808f5000faff3a0023
:1046840000000000113a8000000220000080600059
:104694000000e000fbff32000080fa00000006008a
:020000040000fa
:1046a400001000000600000080000000061000005a
:1046b40004000000820000000f000f000000000052
:1046c4000a10000004000000800000001610000022
:1046d40026000000800000000e100000040000000e
:1046e4008200000000007000410000003c10000047
:1046f4000a00000080000000121000000200000008
:10470400800000001410000002000000800000007f
:0447140000000000a1
:020000040000fa
:104718000000fa000e2eef001e2eef002e2eef00e6
:104728003e2eef004e2eef005e2eef006e2eef00b5
:10473800214ea90060cea90060eea90011cea90003
:1047480011eea90020cea90020eea9000080fa00f1
:044758000000060057
:020000040000fa
:02000004000af0
:04afe000cfff00009f
:020000040000fa
:02000004000af0
:04afe400ffff00006b
:020000040000fa
:02000004000af0
:04afe8007fff0000e7
:020000040000fa
:02000004000af0
:04afec005fff000003
:020000040000fa
:02000004000af0
:04aff00038ff000026
:020000040000fa
:02000004000af0
:04aff400ffff00005b
:00000001FF
