:020000040000fa
:080000000002040000000000f2
:020000040000fa
:04000800620400008e
:020000040000fa
:04000c00620400008a
:020000040000fa
:040010006204000086
:020000040000fa
:040014006204000082
:020000040000fa
:04001800620400007e
:020000040000fa
:04001c00620400007a
:020000040000fa
:040020006204000076
:020000040000fa
:040024006204000072
:020000040000fa
:04002800620400006e
:020000040000fa
:04002c00620400006a
:020000040000fa
:040030006204000066
:020000040000fa
:0400340002030000c3
:020000040000fa
:04003800620400005e
:020000040000fa
:04003c00620400005a
:020000040000fa
:040040006204000056
:020000040000fa
:040044006204000052
:020000040000fa
:04004800fa020000b8
:020000040000fa
:04004c00620400004a
:020000040000fa
:040050006204000046
:020000040000fa
:040054001e04000086
:020000040000fa
:04005800f4030000ad
:020000040000fa
:04005c00d0030000cd
:020000040000fa
:040060006204000036
:020000040000fa
:040064006204000032
:020000040000fa
:04006800620400002e
:020000040000fa
:04006c00620400002a
:020000040000fa
:040070006204000026
:020000040000fa
:040074006204000022
:020000040000fa
:04007800620400001e
:020000040000fa
:04007c00620400001a
:020000040000fa
:040080006204000016
:020000040000fa
:040084006204000012
:020000040000fa
:04008800620400000e
:020000040000fa
:04008c00620400000a
:020000040000fa
:040090006204000006
:020000040000fa
:04009400a6030000bf
:020000040000fa
:0400980062040000fe
:020000040000fa
:04009c0062040000fa
:020000040000fa
:0400a00062040000f6
:020000040000fa
:0400a40062040000f2
:020000040000fa
:0400a80062040000ee
:020000040000fa
:0400ac0062040000ea
:020000040000fa
:0400b00062040000e6
:020000040000fa
:0400b40062040000e2
:020000040000fa
:0400b80062040000de
:020000040000fa
:0400bc0062040000da
:020000040000fa
:0400c00062040000d6
:020000040000fa
:0400c40062040000d2
:020000040000fa
:0400c80062040000ce
:020000040000fa
:0400cc0062040000ca
:020000040000fa
:0400d00062040000c6
:020000040000fa
:0400d40062040000c2
:020000040000fa
:0400d80062040000be
:020000040000fa
:0400dc0062040000ba
:020000040000fa
:0400e00062040000b6
:020000040000fa
:0400e40062040000b2
:020000040000fa
:0400e80062040000ae
:020000040000fa
:0400ec0062040000aa
:020000040000fa
:0400f00062040000a6
:020000040000fa
:0400f40062040000a2
:020000040000fa
:0400f800620400009e
:020000040000fa
:0400fc00620400009a
:020000040000fa
:040100006204000095
:020000040000fa
:040104006204000091
:020000040000fa
:04010800620400008d
:020000040000fa
:04010c006204000089
:020000040000fa
:040110006204000085
:020000040000fa
:040114006204000081
:020000040000fa
:04011800620400007d
:020000040000fa
:04011c006204000079
:020000040000fa
:040120006204000075
:020000040000fa
:040124006204000071
:020000040000fa
:04012800620400006d
:020000040000fa
:04012c006204000069
:020000040000fa
:040130006204000065
:020000040000fa
:040134006204000061
:020000040000fa
:04013800620400005d
:020000040000fa
:04013c006204000059
:020000040000fa
:040140006204000055
:020000040000fa
:040144006204000051
:020000040000fa
:04014800620400004d
:020000040000fa
:04014c006204000049
:020000040000fa
:040150006204000045
:020000040000fa
:040154006204000041
:020000040000fa
:04015800620400003d
:020000040000fa
:04015c006204000039
:020000040000fa
:040160006204000035
:020000040000fa
:040164006204000031
:020000040000fa
:04016800620400002d
:020000040000fa
:04016c006204000029
:020000040000fa
:040170006204000025
:020000040000fa
:040174006204000021
:020000040000fa
:04017800620400001d
:020000040000fa
:04017c006204000019
:020000040000fa
:040180006204000015
:020000040000fa
:040184006204000011
:020000040000fa
:04018800620400000d
:020000040000fa
:04018c006204000009
:020000040000fa
:040190006204000005
:020000040000fa
:040194006204000001
:020000040000fa
:0401980062040000fd
:020000040000fa
:04019c0062040000f9
:020000040000fa
:0401a00062040000f5
:020000040000fa
:0401a40062040000f1
:020000040000fa
:0401a80062040000ed
:020000040000fa
:0401ac0062040000e9
:020000040000fa
:0401b00062040000e5
:020000040000fa
:0401b40062040000e1
:020000040000fa
:0401b80062040000dd
:020000040000fa
:0401bc0062040000d9
:020000040000fa
:0401c00062040000d5
:020000040000fa
:0401c40062040000d1
:020000040000fa
:0401c80062040000cd
:020000040000fa
:0401cc0062040000c9
:020000040000fa
:0401d00062040000c5
:020000040000fa
:0401d40062040000c1
:020000040000fa
:0401d80062040000bd
:020000040000fa
:0401dc0062040000b9
:020000040000fa
:0401e00062040000b5
:020000040000fa
:0401e40062040000b1
:020000040000fa
:0401e80062040000ad
:020000040000fa
:0401ec0062040000a9
:020000040000fa
:0401f00062040000a5
:020000040000fa
:0401f40062040000a1
:020000040000fa
:0401f800620400009d
:020000040000fa
:0401fc006204000099
:020000040000fa
:040200006204000094
:020000040000fa
:040204006204000090
:020000040000fa
:04020800620400008c
:020000040000fa
:04020c006204000088
:020000040000fa
:040210006204000084
:020000040000fa
:040214006204000080
:020000040000fa
:04021800620400007c
:020000040000fa
:04021c006204000078
:020000040000fa
:040220006204000074
:020000040000fa
:040224006204000070
:020000040000fa
:04022800620400006c
:020000040000fa
:04022c006204000068
:020000040000fa
:040230006204000064
:020000040000fa
:040234006204000060
:020000040000fa
:04023800620400005c
:020000040000fa
:04023c006204000058
:020000040000fa
:040240006204000054
:020000040000fa
:040244006204000050
:020000040000fa
:04024800620400004c
:020000040000fa
:04024c006204000048
:020000040000fa
:040250006204000044
:020000040000fa
:040254006204000040
:020000040000fa
:04025800620400003c
:020000040000fa
:04025c006204000038
:020000040000fa
:040260006204000034
:020000040000fa
:040264006204000030
:020000040000fa
:04026800620400002c
:020000040000fa
:04026c006204000028
:020000040000fa
:040270006204000024
:020000040000fa
:040274006204000020
:020000040000fa
:04027800620400001c
:020000040000fa
:04027c006204000018
:020000040000fa
:040280006204000014
:020000040000fa
:100400002f1e21000eff2c000e01880000000000ae
:10041000000020000000e000020032000001200087
:100420002002880014000700280107000000e000f7
:1004300003003a004085210001002000020037003f
:100440000000200001002000810f70000100320038
:100450000f000700000020000000e0000200320052
:100460000000020000000000ce07020000000000b3
:100470000040da000000fe00200020000000e00044
:1004800002003200100020009001880000000600e9
:10049000a1028800800478000000eb001f003700f4
:1004a000e284440054a0b4009905ba00e2844400f8
:1004b00054a0b4009906ba00e284440054a0b400e9
:1004c0000006eb00476fde00fd07b200ae018800ba
:1004d000636ce10003003a000ad801000000eb0061
:1004e0000e003700606ce10008003a00004deb00a0
:1004f0000a05e800020039003420ec000af0a000f0
:100500008b05e900f9ff3e00040037006168e10057
:10051000010032000086eb000b00070019c7ba008b
:100520000e04e0001905ba0003003a000a00e000da
:10053000dbff3a0000000600fe07b200ae028800b2
:100540008a047800f5ff37000cd0a300e20f4d00bd
:100550001c00390089027800354dba000a05e80010
:10056000020039003420ec000af0a0008b05e900fd
:100570000f003200254dba000a05e80002003900dc
:100580003420ec000af0a0008b05e90008003200de
:100590000c00e0000600320015cdba000a05e800a4
:1005a000020039003420ec000af0a0008b05e900bd
:1005b0008984e80054a0b4000b00e000e2ff3a0098
:1005c000000006009902ba00055d78008b05e9007d
:1005d000f7ff3200c82ade00055d78008b05e900d0
:1005e000f3ff32000c00e000f1ff320019ddba0029
:1005f000eeff37000000fa000108a9000080fa00b1
:10060000004006003600f800809fbe00829fbe00ba
:10061000849fbe00869fbe00881f78000a00fa00f3
:100620000068a900170a07004108070070808000d1
:1006300040079800a10020004e0090008101780042
:10064000110009000300d80001f0a7008100ea00b2
:100650008100e900cf08de00814078004e01900063
:100660000200e800708088000104e0002f003200e2
:10067000a08d8000b18d80005a01070000447800f1
:10068000e08d8000f18d8000560107000040780069
:10069000084f780010479800207180004a00de0063
:1006a0006140600011c0b3002147980030479800b6
:1006b000207380004700de006140600021c0b3006d
:1006c0004147980050479800207380004600de00a4
:1006d0006140600031c0b3006147980070479800e6
:1006e0000e01780021002000000420003a060700d7
:1006f0000e80e800000178002100200000022000a8
:100700003506070064004700000178002100200042
:100710000002200030060700660047000001780054
:1007200021002000000220002b0607000080fa00b4
:100730004f0478004f03be004f02be004f01be00c1
:100740004f00be003600f900004006003600f800f9
:10075000809fbe00829fbe00849fbe00869fbe0019
:100760000000fa000368a9005080800061808000ca
:1007700061004000e080480050808800618088006f
:10078000d60207000080fa004f03be004f02be00f1
:100790004f01be004f00be003600f90000400600c9
:1007a000801f78000000fa0001a8a900001880004e
:1007b000c08e880010188000d08e8800201880001d
:1007c000e08e880030188000f08e8800401880008d
:1007d000008f880010c0b3002ff0b7000080fa002f
:1007e0004f007800004006003600f800809fbe00f1
:1007f000829fbe00849fbe00869fbe000000fa005c
:100800000188a900f1808000e0808000808f500086
:10081000020032003f090700010037002070ef009e
:100820000080fa004f03be004f02be004f01be0021
:100830004f00be003600f900004006003600f80008
:10084000809fbe00829fbe00849fbe00869fbe0028
:100850000000fa000168a900101180006400600027
:100860000000e000010032002242a90010118000c7
:10087000620060000000e000060032002222a900b1
:100880000500370030118000004078008d09070016
:1008900001003700000000001011800061006000be
:1008a0000000e000f7ff3a000080fa004f03be00ae
:1008b0004f02be004f01be004f00be003600f900df
:1008c000004006000040da000000fe0000000500c5
:1008d00003f0a200889fbe008a9fbe008c1f780094
:1008e000180107001f0133006450e1004f0032007f
:1008f0006420e1005200320003826c0007003b00dc
:100900000905d0000306d000820f54000c065d00dc
:1009100002003900020032008901780003067800e5
:100920008582550004003d000003fd008103fd00a9
:100930008502ea008b854200840f720002003b00b2
:1009400060001000e08018006011b8000005eb00a6
:100950007a28e1000a00390006007800c75ddd0052
:10096000f707b200878075002d0037008281710083
:100970000a017800610560008180d1000080d30009
:100980008502e900f9ff3b00060440008784480027
:1009900002003b0060041400e0841c000988a300ee
:1009a000070032008a817100828171006101640058
:1009b0008904d1000884d3008b05e80017003700b4
:1009c0000978a30013003a000b00e0001300340084
:1009d0008b05e9000804440089844c000a44740033
:1009e0000978a3000d003a000b00e0000700340076
:1009f0008b05e9000804440089844c0001003a009a
:100a00000b0020000978a300f7ff32000001eb0083
:100a100002003700828171000a0178008e00070011
:100a20000cf0a70001f0a000d70037006420e1001f
:100a300002003a00838f6c00d70033000801be002b
:100a40000200be00d0003700889fbe008a9fbe0013
:100a50008c1f7800bb000700c200330003866c00c7
:100a60006450e1002e0032006420e10033003200c7
:100a70006150e1002f0032006120e10031003200be
:100a800085855500eb07b000090020000804200010
:100a9000050037000804440089844c000a00310036
:100aa0000603430087834b000001530081815b00f4
:100ab000f8ff33000203be000800a0000804440051
:100ac00089844c00f6ff3900c639dd0083017300cc
:100ad00001003200130020008904d1000884d300f3
:100ae0000998a300050032000800a7000300a00039
:100af0008904d1000884d3008b05e8008904d10063
:100b00000884d3000001eb000281d20052000700ec
:100b100001f0a1000cf0a70001f0a0009a0037003e
:100b20006420e1009c0032000801be000200be000b
:100b3000f7ff37006120e100970032006000b80045
:100b4000f3ff37000000200001f82700f0ff370016
:100b500014002000c7003700f4ff2f00c500370045
:100b60000001be00620007000470a70003f0a100ae
:100b70006509b100160032000d0035006828e1005b
:100b800006003500f0ff2f00f1ff27000300e00012
:100b900013003b0001002800000005000000400099
:100ba000818048008502e900fcff3a000800370018
:100bb000f88f420002003c008000eb0000000500be
:100bc0008100d1000080d3008502e800fcff3a00dc
:100bd0000300e00002003b0060001000e08018000d
:100be000000006000001be00410007000470a700dd
:100bf00003f0a10003f8a30013003a006509b10057
:100c000010003200090035006928e10002003500bb
:100c1000010028000000050000004000818048001d
:100c20008502e900fcff3a0000000600f88f420050
:100c3000050035008100d1000080d3008502e80066
:100c4000fcff3a00000006008000eb0000000500f9
:100c50006011b800a20037008100200061805500bb
:100c60000b003d000b00200061fe2f000100e100a1
:100c70001d00340082817100610164008904d1008b
:100c80000884d3000000e800faff3a007100200059
:100c9000610064000300700002006000090032007f
:100ca00061044400e0844c000988a500050032007e
:100cb0008b05e8006808e10002003a008904d100d1
:100cc0000884d300f20f20000258e10005003d0027
:100cd000c75ddd00f907b200898075000800780063
:100ce000000006000bf827008b00780000000500cc
:100cf000c70ade00f107b200f50fb20008003200ab
:100d0000e1cf4200020032000170a0002400050083
:100d1000810f700001003200040805004400050046
:100d2000810f700002003a00140005008502e900fe
:100d30000000400081c04800fcff3b000170a000a3
:100d4000240005000004be00e9ff07000003be0008
:100d50000405be000200be00e5ff0700844f7500d9
:100d6000000006000200be006450e10005003600ed
:100d70006420e100020036000968a30001003a0087
:100d80000800be000160a0004f0678004f05be00bd
:100d90004f04be0000000600f0ff2f00f1ff270007
:100da000f9ff3700889fbe008a9fbe008c1f780025
:100db000e4ff0700ebff330003866c006450e100a2
:100dc000240032006420e100270032006150e1007d
:100dd000220032006120e100210032008b854200b8
:100de000eb07b1000134b800003ab8000804420033
:100df00089844a00013ab8000030b8008880400079
:100e000009014a00040033000000400081804800ce
:100e1000020149008b05e900c909dd00830170006a
:100e20000100320013002000c814de004814dd0069
:100e30004709de001200b200c808de000884700016
:100e400085ff070001f0a1000cf0a70001f0a00051
:100e5000cdff37006120e100cfff32000801be0066
:100e60000200be00f7ff37006150e100fcff3a00ce
:100e7000c9ff3700889fbe008a9fbe00841f78008c
:100e8000b0ff07004f00780011003300f0ff2f0083
:100e9000838f6c0006003b00040565000a00a70074
:100ea0000800370009f0a6001000200008003700f5
:100eb000820f5400838f5c00030039001000200073
:100ec00001003e000000200009f0a7000000ea0039
:100ed0004f05be004f04be000000e0000000060009
:100ee000889fbe008a9fbe000082700004027100cd
:100ef00004827100260032000004be000200be0021
:100f00006011b8006b092000950220000182cf001b
:100f10000a0039000541b1000082cf000700390006
:100f20000541b1000982cf00040039000541b1003c
:100f30000882cf00010039000541b100054252008e
:100f4000120032000a003b008281710061016400de
:100f50008100d1000080d3008984d3000884d300ad
:100f60008b05e8000442e800f7ff3a00070037006d
:100f70000804440089844c00000048008180480037
:100f80008b05e9000442e900f9ff3a0032ff07004f
:0c0f90004f05be004f04be00000006002c
:020000040000fa
:100f9c000a00fa00889fbe006f0807009908070036
:100fac00c40507007a070700e0020700c602070025
:100fbc005903070005080700b7070700e14f500069
:100fcc0097003a00b8070700af070700000f78003a
:100fdc001e007800100078008000eb0019ff07005d
:100fec0032332300330524006bff0700020020007e
:100ffc000358240091fe0700d2cc2c00c30424001b
:10100c0065ff070010079800210798001e0190004b
:10101c00ae019000000020008120240087fe070014
:10102c0002002000030a240026fe0700408e8800e0
:10103c00518e88001e80e800100078008000eb00c4
:10104c0000ff0700323323003305240052ff070052
:10105c00020020000358240078fe0700d2cc2c009c
:10106c00c30424004cff07001007980021079800c8
:10107c001e019000ae019000000020008120240091
:10108c006efe070002002000030a24000dfe07007c
:10109c00208e8800318e88009e007800648040008d
:1010ac00100078008000eb00e6fe070032332300ce
:1010bc003305240038ff07000200200003582400e9
:1010cc005efe0700d2cc2c00c304240032ff0700c4
:1010dc0010079800210798001e019000ae019000a7
:1010ec00000020008120240054fe07000200200094
:1010fc00030a2400f3fd0700608e8800718e8800bf
:10110c009e00780068804000100078008000eb00a2
:10111c00ccfe070032332300330524001eff0700ea
:10112c00020020000358240044fe0700d2cc2c00ff
:10113c00c304240018ff070010079800210798002b
:10114c001e019000ae0190000000200081202400c0
:10115c003afe070002002000030a2400d9fd070014
:10116c00808e8800918e88009e00780066804000fa
:10117c00100078008000eb00b2fe07003233230031
:10118c003305240004ff070002002000035824004c
:10119c002afe0700d2cc2c00c3042400fefe07005c
:1011ac0010079800210798001e019000ae019000d6
:1011bc00000020008120240020fe070002002000f7
:1011cc00030a2400bffd0700a08e8800b18e8800a2
:1011dc00208e8000318e80007ffe070080447800d6
:1011ec00608e8000718e80007bfe070000447800ca
:1011fc00808e8000918e800077fe07000040780082
:10120c006947980078479800004f9800660047009f
:10121c000001780031002000000320006b03070060
:10122c000430ef000a0037003707070006f0b7005c
:10123c0006d0bf00be030700110020006000210093
:10124c0073060700208080000000e80020808800e2
:10125c00580707008000780020808000808f5000a5
:10126c00f1ff3e0054ff37000200fa00004f7800f7
:10127c001e41780071002100824878000080fa003d
:10128c00000006000200fa00004f78001e407800b3
:10129c000004e00006003a002470ef00c0c0b30068
:1012ac0007f0b700f000200010818800060037001e
:1012bc001e407800e14f500003003a0010c0b3000c
:1012cc0024f0b7000770ef000080fa000000060061
:1012dc000000fa0000808000e10f500006003a0088
:1012ec00f00020001081880064cea90064eea900f3
:1012fc00254ea8001100370000808000e20f50003e
:10130c0006003a00400120001081880064cea8003d
:10131c0064eea900254ea90008003700008080006b
:10132c00e30f500005003a00e00120001081880016
:10133c0064cea90064eea800254ea90007d0bf001a
:10134c000080fb00cf80de00720120000300200033
:10135c00820f5000838f5800ba003e000006010037
:10136c0017003700200037003200370041003700eb
:10137c006900370072003700730037007c003700bb
:10138c007d00370087003700880037009200370057
:10139c001f003700ae00370038003700420037001e
:1013ac00430037004d0037004e003700580037001f
:1013bc008b00370095003700960037009f003700f0
:1013cc000a30ef000c30ef000001eb006000b800b9
:1013dc0075050700120020006000b80072050700b8
:1013ec0010c0b30007f0b70052808000638080000b
:1013fc00803e200001002000800f5100818f590099
:10140c009500360020c0b30007f0b70093003700fa
:10141c000001eb006000b80063050700120020001b
:10142c006000b80060050700d0c0b30007f0b7003b
:10143c008a003700108080000000e80010808800cf
:10144c00108180008000eb00fefd07000001eb0026
:10145c0055050700108180008000eb00f9fd0700a6
:10146c00120020005005070030c0b30007f0b70091
:10147c007a0037007b000700780037000001eb0092
:10148c000000200001172c00470507001200200067
:10149c000000200001172c0043050700f0c0b3002a
:1014ac0007f0b7006d0037006e0007006b003700c7
:1014bc000001eb0000002000011724003a05070092
:1014cc001200200000002000011024003605070047
:1014dc0010c1b30007f0b7006000370061000700cf
:1014ec005e0037000001eb0000002000011024001a
:1014fc002d05070012002000000020000117240019
:10150c002905070030c1b30007f0b70053003700be
:10151c0054000700510037000001eb0000002000d0
:10152c000117240020050700120020006000b800fd
:10153c001d05070050c0b30007f0b7004700370087
:10154c0048000700450037000001eb006000b800c0
:10155c0015050700120020000000200001172400d0
:10156c001105070070c0b30007f0b7003b0037004f
:10157c003c000700390037000001eb0000002000a0
:10158c0001122400080507001200200000002000b2
:10159c0001122c000405070090c0b30007f0b7003f
:1015ac002e0037002f0007002c0037000001eb0045
:1015bc000000200001122c00fb0407001200200088
:1015cc000000200001122400f7040700b0c0b30093
:1015dc0007f0b70021003700220007001f0037007a
:1015ec000001eb000000200001102400ee040700b5
:1015fc00120020006000b800eb0407001201070085
:10160c0050c1b30007f0b7001400370015000700f5
:10161c00120037000001eb006000b800e204070084
:10162c00120020000000200001102400de0407003e
:10163c0070c1b30007f0b7000800370009000700bd
:10164c00060037000770ef000000000003003700b1
:10165c000000000001003700000000000080fa00cc
:10166c00000006000200fa00881f780024d0bf009a
:10167c00e14f5000f1003a000040eb00004f7800c1
:10168c00a08e8000b18e800018c0b3000200200034
:10169c00031a24002bfd07000000e00001003500b8
:1016ac000044eb000804e0002c003a00808e80001f
:1016bc00918e800018c0b30002002000031f24008c
:1016cc0020fd07000000e000010035000044eb00a5
:1016dc000804e00021003a00608e8000718e8000ca
:1016ec0018c0b30002002000c320240015fd070021
:1016fc000000e000010035000044eb000804e000ad
:10170c0016003a00208e8000318e800018c0b30085
:10171c0002002000031f24000afd07000000e00067
:10172c00010035000044eb000804e0000b003a0017
:10173c00408e8000518e800018c0b3000200200043
:10174c00031a2400fffc07000000e0000100350034
:10175c000044eb000804e0000500320010002000fb
:10176c0000808800f3020700004f780073003700f8
:10177c00a08e8000b18e800018c0b3000200200043
:10178c0003222400effc07000000e00001003500fc
:10179c000044eb000804e0002c003a00808e80002e
:1017ac00918e800018c0b300020020008324240016
:1017bc00e4fc07000000e000010035000044eb00f1
:1017cc000804e00021003a00608e8000718e8000d9
:1017dc0018c0b3000200200003272400d9fc070026
:1017ec000000e000010035000044eb000804e000bc
:1017fc0016003a00208e8000318e800018c0b30095
:10180c000200200083242400cefc07000000e0002e
:10181c00010035000044eb000804e0000b003a0026
:10182c00408e8000518e800018c0b3000200200052
:10183c0003222400c3fc07000000e0000100350077
:10184c000044eb000804e0000300320020002000fc
:10185c000080880039003700a08e8000b18e800097
:10186c0018c0b3000200200003222400b7fc0700bc
:10187c000000e00001003d000044eb000804e00023
:10188c002c003a00808e8000918e800018c0b3002e
:10189c000200200083242400acfc07000000e000c0
:1018ac0001003d000044eb000804e00021003a0078
:1018bc00608e8000718e800018c0b3000200200082
:1018cc0003272400a1fc07000000e00001003d00fc
:1018dc000044eb000804e00016003a00208e800063
:1018ec00318e800018c0b300020020008324240035
:1018fc0096fc07000000e00001003d000044eb00f6
:10190c000804e0000b003a00408e8000518e8000ed
:10191c0018c0b30002002000032224008bfc070037
:10192c000000e00001003d000044eb000804e00072
:10193c000200320030002000008088001e40780039
:10194c000004e00003003a0020c0b30008f0b70028
:10195c00300037001e407800e34f500003003a007f
:10196c0000c1b30008f0b7002a0037001e40780011
:10197c00e14f500003003a0020c1b30008f0b7005b
:10198c00240037001e407800e44f500003003a005a
:10199c0040c0b30008f0b7001e0037001e407800ae
:1019ac00e24f500003003a0060c0b30008f0b700eb
:1019bc00180037001e407800e54f50000a003a002e
:1019cc0010808000610060000000e00003003a001d
:1019dc0080c0b30008f0b7000e003700a0c0b30001
:1019ec0008f0b7000b0037001e407800e64f50009f
:1019fc0003003a0040c1b30008f0b70005003700ff
:101a0c001e407800e74f500002003a0060c1b3005e
:101a1c0008f0b70008d0bf008080fb0007d0bf00e3
:101a2c000080fb000000e900808f500003003200b2
:101a3c0008d0bf0007f0b700030007004f04780080
:101a4c000080fa00000006000600fa007500210074
:101a5c009542780050808000618080004808de004c
:101a6c000042780050808000618080004008de00d9
:101a7c008041780050808000618080004809dd0042
:101a8c004800de0000007100c808de00004178004c
:101a9c00508080006180800000407800054f780005
:101aac001447980023479800324798004047980005
:101abc000e017800510020000005200043010700b2
:101acc000080fa00000006000000fa0013e1a900f3
:101adc0011e1a9001061a8001021a9008108800063
:101aec00f0fc2f0000806000800888000a21ef00c5
:101afc000621ef00404c20007008880000402b00ad
:101b0c00600888002142800080ff2f000080600068
:101b1c000000a000204288000108a9002108a800ac
:101b2c0011e1a8000080fa00000006000000fa0095
:101b3c0005e1a9000421a90000002000a137240020
:101b4c00050007000068a9002068a80005e1a800ae
:101b5c000080fa00000006000400fa00881f7800dc
:101b6c00008fbe001e0178009e01900000682900c5
:101b7c0081c12400b1fb070018c0b30002f02f0094
:101b8c00f3772400f1fb07000000e00001003c00ab
:101b9c000044eb000804e0005400320021088000ef
:101bac00f0fc2f00008060000040a000200888009e
:101bbc001e0178009e0190000068290081c124005c
:101bcc009efb070002002000031024009bfb070073
:101bdc0018c0b30002f02f00f3772400dbfb0700e2
:101bec000000e00001003c000044eb000804e000b1
:101bfc003200320021088000f0fc2f0000806000d1
:101c0c000050a000200888001e0178009e01900062
:101c1c000068290081c1240088fb07000200200015
:101c2c000328240085fb070018c0b30002f02f0026
:101c3c00f3772400c5fb07000000e00001003c0026
:101c4c000044eb000804e000100032002108800082
:101c5c000003200001007000200888001e0178009d
:101c6c009e0190000068290081c1240073fb0700cd
:101c7c00020020000338240070fb0700b5fb0700ae
:101c8c000000780010088800200037001e01780042
:101c9c009e0190000068290081c1240067fb0700a9
:101cac00020020000328240064fb0700a9fb0700a6
:101cbc000000780010088800140037001e0178001e
:101ccc009e0190000068290081c124005bfb070085
:101cdc00020020000310240058fb07009dfb0700a6
:101cec000000780010088800080037001e017800fa
:101cfc009e0190000068290081c124004ffb070061
:101d0c0094fb070000007800100888004f0478004e
:101d1c000080fa00000006000000fa001fe1a90094
:101d2c0000002000a1472400060007001e21a90086
:101d3c000368a9002368a8001fe1a8000080fa002e
:101d4c00000006000400fa00881f7800008fbe0017
:101d5c00f1088000f0fc2f0000806000f008880083
:101d6c001e0178009e0190000068290081c12400aa
:101d7c0032fb070018c0b30002f02f00f3772400e9
:101d8c0072fb07000000e00001003c000044eb0087
:101d9c000804e00054003200f1088000f0fc2f0031
:101dac00008060000040a000f00888001e01780050
:101dbc009e0190000068290081c124001ffb0700d0
:101dcc0002002000031024001cfb070018c0b30005
:101ddc0002f02f00f37724005cfb07000000e0000a
:101dec0001003c000044eb000804e000320032002b
:101dfc00f1088000f0fc2f00008060000050a00073
:101e0c00f00888001e0178009e01900000682900ef
:101e1c0081c1240009fb07000200200003282400d4
:101e2c0006fb070018c0b30002f02f00f377240064
:101e3c0046fb07000000e00001003c000044eb0002
:101e4c000804e00010003200f108800000032000bc
:101e5c0001007000f00888001e0178009e019000bf
:101e6c000068290081c12400f4fa07000200200058
:101e7c0003382400f1fa070036fb07000000780055
:101e8c00d0088800200037001e0178009e019000c9
:101e9c000068290081c12400e8fa07000200200034
:101eac0003282400e5fa07002afb0700000078004d
:101ebc00d0088800140037001e0178009e019000a5
:101ecc000068290081c12400dcfa07000200200010
:101edc0003102400d9fa07001efb0700000078004d
:101eec00d0088800080037001e0178009e01900081
:101efc000068290081c12400d0fa070015fb0700f7
:101f0c0000007800d00888004f0478000080fa00a8
:101f1c00000006000a00fa0020079800310798001c
:101f2c0042079800e0cfb300204798002e009000a5
:101f3c004880de00804078002e40900000c0680091
:101f4c00204798002e009000804078002e40900092
:101f5c0000c06800204798003e0090004880de00da
:101f6c00804078002e40900000c068002047980008
:101f7c003e009000804078002e40900000c0680029
:101f8c00204798000000eb00000f78000800370095
:101f9c001e007800ce0090000080400010407800b9
:101fac00ae40900000c06800204798001e0fe8006b
:101fbc003e0090009e007800808f5000f4ff3500aa
:101fcc002e4090000080fa00000006000e00fa007f
:101fdc00889fbe0040079800510798006207980040
:101fec000f0478000f007800800478000000eb00ec
:101ffc00000f78005e009000660040008000e90051
:10200c00210798000000e8000000e8000000d10063
:10201c00800040000f007800818747000000e80036
:10202c000000d10000004000300798003e009000f6
:10203c001e004000e1cfb300014878001e0fe800fd
:10204c004e0090004880de00804078003e009000fa
:10205c001e004000014878001e0fe8004e00900062
:10206c00804078003e0090001e004000014878003f
:10207c001e0fe8005e0090004880de008040780073
:10208c003e0090001e004000014878001e0fe80042
:10209c005e009000804078003e0090001e004000e2
:1020ac00014878001e0fe8000000eb0010079800b4
:1020bc000b0037001e009000ee00900000804000e6
:1020cc00904078003e0090001e00400001487800cf
:1020dc001e0fe8001e0090000000e800100798009a
:1020ec009e0090005e009000808f5000f1ff350044
:1020fc006e019000de0090004e00900085ff0700fe
:10210c00be0090009e804000804878001e0fe800c2
:10211c003e0090009e007800bd0207008907780001
:10212c00880778004f04be000080fa00000006000b
:10213c000400fa0020479800d0808000e30f500084
:10214c0023003200e30f500005003e00e10f500069
:10215c0013003200e10f500015003e00070037005d
:10216c00e50f50002d003200e50f50001c00390027
:10217c00e60f500038003200490037002e40900026
:10218c00e24f400002003a0010002000d08088008e
:10219c001430ef001830ef001630ef004400370019
:1021ac001430ef0020002000d08088004000370061
:1021bc002e4090008080fb00a080800000804000ba
:1021cc00a080880030002000d080880038003700c4
:1021dc001630ef0040002000d0808800340037001b
:1021ec002e4090008080fb00b0808000008040007a
:1021fc00b0808800b08080000000e0000400320055
:10220c001830ef0050002000d080880028003700e4
:10221c0060002000d080880025003700c08080003e
:10222c002113210000804000ae409000014878004e
:10223c00c08080000000e800c0808800c180800061
:10224c00b0808000808f50001800350060002000a6
:10225c00d080880016003700ae409000014f780007
:10226c00b1808000a08080002213210029ff07008c
:10227c00104798001e4090009e4f500006003a00f8
:10228c00b080800080407800a08080000040780002
:10229c0022132100080007001a30ef000400370059
:1022ac001a30ef00000000000100370000000000b1
:1022bc000080fa00000006000600fa002047980093
:1022cc0031479800220798002e4090000080fb00b8
:1022dc0011052000810f5000040032002105200060
:1022ec00810f50000d003200100037002e009000be
:1022fc0010407800dcfb07002e00900010407800a6
:10230c000080fb00000f78001e01780011002000f7
:10231c00300520002dff0700040037002e00900030
:10232c0010407800d7fb0700000000000080fa0086
:10233c00000006000000fa00881f7800808e8000e4
:10234c00918e800018c0b30002002000831c240072
:10235c00fcf907000000e000010035000044eb0030
:10236c000804e0000e003200208e8000318e8000c8
:10237c0018c0b30002002000831c2400f1f90700f0
:10238c000000e000010035000044eb000804e00010
:10239c00030032005000200080818800c10037000b
:1023ac00608e8000718e800018c0b3000200200087
:1023bc00c3202400e3f907000000e0000100350011
:1023cc000044eb000804e000030032005000200041
:1023dc0080818800b3003700808e8000918e800051
:1023ec0018c0b30002002000c3202400d5f9070058
:1023fc000000e000010035000044eb000804e000a0
:10240c0019003200608e8000718e800018c0b300fd
:10241c0002002000831c2400ccf907000000e0001f
:10242c0001003c000044eb000804e0000e00320008
:10243c00208e8000318e800018c0b3000200200076
:10244c00c3202400c1f907000000e00001003c009b
:10245c000044eb000804e0000300320020002000e0
:10246c00808188008f003700808e8000918e8000e4
:10247c0018c0b30002002000c3202400b3f90700e9
:10248c000000e00001003c000044eb000804e00008
:10249c0019003200608e8000718e800018c0b3006d
:1024ac0002002000831c2400a8f907000000e000b3
:1024bc0001003c000044eb000804e0000e00320078
:1024cc00208e8000318e800018c0b30002002000e6
:1024dc00c32024009bf907000000e0000100350038
:1024ec000044eb000804e000030032004000200030
:1024fc00808188006b003700a08e8000b18e800038
:10250c0018c0b30002002000031224008df907004c
:10251c000000e000010035000044eb000804e0007e
:10252c0041003200408e8000518e800018c0b300f4
:10253c00020020000312240082f907000000e000d2
:10254c00010035000044eb000804e00036003200c6
:10255c00a48e8000b58e8000408e8000518e80004d
:10256c0018c0b3000001be000400be0075f90700de
:10257c000000e000010035000044eb000804e0001e
:10258c000b003a00808e8000918e800018c0b30042
:10259c0002002000030a24006af907000000e00092
:1025ac00010035000044eb000804e0000300320099
:1025bc0060002000808188003a003700a48e8000e3
:1025cc00b58e8000408e8000518e800018c0b30004
:1025dc000001be000400be005cf907000000e00032
:1025ec0001003c000044eb000804e0000b003a0042
:1025fc00208e8000318e800018c0b30002002000b5
:10260c00030a24004ff907000000e0000100350028
:10261c000044eb000804e0002100320070002000b0
:10262c00808188001f003700a08e8000b18e800052
:10263c0018c0b300020020000317240041f9070062
:10264c000000e000010035000044eb000804e0004d
:10265c000300320010002000808188001100370038
:10266c00408e8000518e800018c0b3000200200004
:10267c000317240033f907000000e00001003500c7
:10268c000044eb000804e00003003200300020009e
:10269c0080818800030037003030ef0001003700e4
:1026ac0000000000808180004f0478000080fa0058
:1026bc00000006000000fa001160800080ff2f006f
:1026cc00008060001060880000fa20002060880004
:1026dc0023aca800238ca80011618000f03f2f00d0
:1026ec000080600000a0a000106188003000200075
:1026fc0020618800c3aca800c38ca80011668000c0
:10270c00f03f2f000080600000a0a0001066880041
:10271c00300020002066880001eca8000080fa0040
:10272c00000006000000fa00889fbe00048e8000a6
:10273c00158e8000e08d8000f18d800018c0b300f4
:10274c000001be000400be00fef807000000e0001f
:10275c00010035000044eb000804e0000d003200dd
:10276c00e88d8000f98d8000048e8000158e80002d
:10277c0030818000418180000001be000400be0059
:10278c0051f807000801be00c8000700008e880041
:10279c00118e8800048e8000158e8000e08d8000e4
:1027ac00f18d800018c0b3000001be000400be0013
:1027bc00e6f807000000e00001003c000044eb00dc
:1027cc000804e0000d003200e88d8000f98d8000d7
:1027dc00048e8000158e8000308180004181800045
:1027ec000001be000400be0036f807000801be0060
:1027fc0096000700008e8800118e8800008e8000e5
:10280c00118e800018c0b3006011b800cff807001b
:10281c000000e00001003c000044eb000804e00074
:10282c0004003200c3eca90024cea800c3cca8003d
:10283c0003003700c3cca90024eea800c3eca80009
:10284c00008e8000118e80006a00070002002000bc
:10285c000322240050f90700dff80700000078007d
:10286c0030668800c48d8000d58d8000a08d8000de
:10287c00b18d800018c0b3000001be000400be0082
:10288c00b0f807000000e000010035000044eb0048
:10289c000804e0000d003200a88d8000b98d800086
:1028ac00c48d8000d58d80003081800041818000f6
:1028bc000001be000400be0003f807000801be00c2
:1028cc007a000700c08d8800d18d8800c48d8000ef
:1028dc00d58d8000a08d8000b18d800018c0b30014
:1028ec000001be000400be0098f807000000e000e4
:1028fc0001003c000044eb000804e0000d00320035
:10290c00a88d8000b98d8000c48d8000d58d80008d
:10291c0030818000418180000001be000400be00b7
:10292c00e8f707000801be0048000700c08d8800ca
:10293c00d18d8800c08d8000d18d800018c0b3006f
:10294c006011b80081f807000000e00001003c00b5
:10295c000044eb000804e0000400320023cca90082
:10296c0015eea80023eca8000300370023eca90007
:10297c0015cea80023cca800c08d8000d18d80007e
:10298c001c000700020020000322240002f90700ab
:10299c0091f8070000007800306188004f04be00f9
:1029ac000080fa00000006000600fa00008fbe004e
:1029bc00220798002e0090000000e00006003a006c
:1029cc001e0078009e00900001f0a200e08d8800af
:1029dc00f18d8800050037001e0078009e009000e5
:1029ec0001f0a200a08d8800b18d88000080fa0053
:1029fc00000006000400fa00881f7800008fbe005b
:102a0c0018c0b3006011b8001e0078009e00900042
:102a1c004ef807000000e00001003d000044eb0010
:102a2c000804e000030032001e0078009e009000b5
:102a3c00030037001e0078009e00900001f0a200f9
:102a4c004f0478000080fa00000006000800fa002d
:102a5c00881f7800008fbe0022079800330798006b
:102a6c0018c0b3002e019000be0190001e0078002b
:102a7c009e00900035f807000000e00001003c00cb
:102a8c000044eb000804e000030032001e00780054
:102a9c009e009000020037002e009000be009000b7
:102aac004f0478000080fa00000006000800fa00cd
:102abc00881f7800008fbe0022079800330798000b
:102acc0018c0b3002e019000be0190001e007800cb
:102adc009e0090001bf807000000e000010035008c
:102aec000044eb000804e000030032001e007800f4
:102afc009e009000020037002e009000be00900057
:102b0c004f0478000080fa00000006000c00fa0068
:102b1c00881f7800008fbe002207980033079800aa
:102b2c00440798005507980018c0b3004e01900058
:102b3c00de0190001e0078009e00900003f8070054
:102b4c000000e00001003c000044eb000804e00041
:102b5c00040032004e019000de019000028fbe0096
:102b6c000e00370018c0b3002e019000be0190007b
:102b7c001e0078009e009000f2f707000000e000b5
:102b8c00010035000044eb000804e00003003200b3
:102b9c002e019000be019000028fbe001e00780036
:102bac009e0090004f0478000080fa0000000600a0
:102bbc000400fa00008fbe00b2fd20009304240034
:102bcc001e0078009e0090009cf707000200200079
:102bdc004333240070f807000080fa000000060060
:102bec000400fa00008fbe00b2fd20009304240004
:102bfc001e0078009e00900067f80700020020007d
:102c0c00433324008df707000080fa000000060013
:102c1c000600fa0010079800210798000040eb000e
:102c2c00004f780054000700ae009000810f500058
:102c3c00110034000040eb00004f78000600370014
:102c4c001e80fb009e009000008040001040780029
:102c5c000b0007001e4fe8009e80fb002e0090002a
:102c6c00808f5000f6ff3500300007000004e000b4
:102c7c0001003a00240007000080fa000000060062
:102c8c000200fa00004f7800e08080002103210050
:102c9c00008040001e487800e1808000e0072000a2
:102cac00808f5000020034001c30ef00030037000e
:102cbc00e08080000000e800e08088000080fa00de
:102ccc00000006000200fa00f080800021032100c1
:102cdc0000804000104f7800f1808000e007200059
:102cec00808f5000020034001e30ef0003003700cc
:102cfc00f08080000000e800f08088001e40780022
:102d0c000080fa00000006000200fa0010c0b300b8
:102d1c0020f0b700ebff0700004f78001e80fb008f
:102d2c00201188000080fa00000006000000fa0064
:102d3c0020d0bf000080fa00000006000000fa005e
:102d4c00e1808000f0808000808f5000040035000e
:102d5c00e1808000f080800000805000040037008b
:102d6c00e1808000f0808000008050000008b000fe
:102d7c000080fa00000006000000fa00efff0700d8
:102d8c0001082000008050000080fa0000000600be
:102d9c000000fa0021e3a9002143a80001198000da
:102dac00f0cf2f0000806000001988002043a9009c
:102dbc0001198000000e200001007000001988002d
:102dcc0011198000f0ff21000080600010198800ac
:102ddc002343a80011198000f0cf2f000080600061
:102dec00101988001119800030f82f000080600045
:102dfc000040a000101988002203a9002223a9007a
:102e0c0025e3a900f0c0b30024e3b700211980002a
:102e1c00f00f2e008080600000f020000100700098
:102e2c00201988003303a9004feea8002e0ea8002d
:102e3c002f6ea8006f2ea8001e2ea80031e3a8004c
:102e4c0030c3a8003163a8002e03a8003063a8008b
:102e5c004119800000fc2f000080600040198800a0
:102e6c0028e3a90001a8a90021a8a80021e3a80033
:102e7c000080fa00000006000000fa002023a800e1
:102e8c000080fa00000006000000fa00801d2100fe
:102e9c000080fa00000006000000fa002fd0bf00ee
:102eac000080fa00000006000000fa002f70ef000e
:102ebc000080fa00000006000200fa00004f7800c3
:102ecc002c0007000000e0000d0034005081800051
:102edc00210b2100008040001e48780051818000a9
:102eec00e0072000808f5000020034002a30ef00f1
:102efc0003003700508180000000e80050818800fa
:102f0c000080fa00000006000200fa0060818000d8
:102f1c00210b210000804000104f7800618180005f
:102f2c00e0072000808f5000020034002c30ef00ae
:102f3c0003003700608180000000e8006081880099
:102f4c001e4078000080fa00000006000000fa0025
:102f5c005181800060818000808f5000020032001f
:102f6c0010c0b300010037000040eb000080fa00f5
:102f7c00000006000000fa00518180006081800092
:102f8c00808f5000050034006181800050818000ea
:102f9c00008050000008b000040037005181800010
:102fac0060818000008050000008b0000080fa00b2
:102fbc00000006000000fa00eeff070001082000e8
:102fcc00008050000080fa00000006000000fa00ab
:102fdc002002a9000111800090ff2f0000806000ea
:102fec000011880020a2a9002062a8005005200032
:102ffc004011880023a2a90023e2a9000188a9009e
:10300c002188a80011118000f0f32f0000806000cf
:10301c00101188000168a9002168a80021e2a8000d
:10302c002342a8000080fa00000006000600fa0007
:10303c0010079800210798000040eb00004f780023
:10304c000040eb00004f78000e003700000000003d
:10305c001111800000202000008060000000e000c2
:10306c00fbff3a001e009000104078000080fb002f
:10307c00201188001e0090000000e8001007980046
:10308c001e4fe8009e80fb002e009000808f5000a9
:0c309c00eeff35000080fa000000060086
:020000040000fa
:1030a800001000000a00000080000000221000004c
:1030b80004000000820000000f0001000000000072
:1030c8000a1000000a00000080000000b211000091
:1030d8002600000080000000261000000400000008
:1030e800820000000000700041000000d8110000bc
:1030f8000a000000800000002e10000002000000fe
:103108008000000030100000020000008000000075
:103118003210000080000000800000001c10000039
:103128000600000080000000b210000080000000cf
:10313800800000002a100000040000008000000049
:103148003211000080000000800000001410000010
:0c315800080000008000000000000000e3
:020000040000fa
:103164000000fa00f0032000303a8800213a800081
:10317400f0f32f0000806000203a8800213a80009c
:1031840000fe2f00008060000000a000203a8800ac
:103194001200200080072000a109200033742000c1
:1031a400804978008149780082497800103a80008b
:1031b400000178000200a0006004200071052000d6
:1031c400237420008049780081497800824978007e
:1031d40000000000113a8000000027008080600099
:1031e40000002100808f5000faff3a000000000028
:1031f400113a800000022000008060000000e0001e
:10320400fbff32000080fa00000006000000fa0014
:103214000e2eef001e2eef002e2eef003e2eef009e
:103224004e2eef005e2eef006e2eef00214ea90011
:1032340060cea90060eea90011cea90011eea9008c
:1032440020cea90020eea900002ea800213680007f
:1032540000f82f00008060008001b3002036880051
:103264001134800000fc2f00008060000000a000ea
:0c327400103488000080fa000000060002
:020000040000fa
:02000004000af0
:04afe000cfff00009f
:020000040000fa
:02000004000af0
:04afe400ffff00006b
:020000040000fa
:02000004000af0
:04afe8007fff0000e7
:020000040000fa
:02000004000af0
:04afec005fff000003
:020000040000fa
:02000004000af0
:04aff00038ff000026
:020000040000fa
:02000004000af0
:04aff400ffff00005b
:00000001FF
