:020000040000fa
:080000000002040000000000f2
:020000040000fa
:040008007003000081
:020000040000fa
:04000c00700300007d
:020000040000fa
:040010007003000079
:020000040000fa
:040014007003000075
:020000040000fa
:040018007003000071
:020000040000fa
:04001c00700300006d
:020000040000fa
:040020007003000069
:020000040000fa
:040024007003000065
:020000040000fa
:040028007003000061
:020000040000fa
:04002c00700300005d
:020000040000fa
:040030007003000059
:020000040000fa
:0400340002030000c3
:020000040000fa
:040038007003000051
:020000040000fa
:04003c00700300004d
:020000040000fa
:040040007003000049
:020000040000fa
:040044007003000045
:020000040000fa
:04004800fa020000b8
:020000040000fa
:04004c00700300003d
:020000040000fa
:040050007003000039
:020000040000fa
:040054007003000035
:020000040000fa
:040058007003000031
:020000040000fa
:04005c004c03000051
:020000040000fa
:040060007003000029
:020000040000fa
:040064007003000025
:020000040000fa
:040068007003000021
:020000040000fa
:04006c00700300001d
:020000040000fa
:040070007003000019
:020000040000fa
:040074007003000015
:020000040000fa
:040078007003000011
:020000040000fa
:04007c00700300000d
:020000040000fa
:040080007003000009
:020000040000fa
:040084007003000005
:020000040000fa
:040088007003000001
:020000040000fa
:04008c0070030000fd
:020000040000fa
:0400900070030000f9
:020000040000fa
:040094002203000043
:020000040000fa
:0400980070030000f1
:020000040000fa
:04009c0070030000ed
:020000040000fa
:0400a00070030000e9
:020000040000fa
:0400a40070030000e5
:020000040000fa
:0400a80070030000e1
:020000040000fa
:0400ac0070030000dd
:020000040000fa
:0400b00070030000d9
:020000040000fa
:0400b40070030000d5
:020000040000fa
:0400b80070030000d1
:020000040000fa
:0400bc0070030000cd
:020000040000fa
:0400c00070030000c9
:020000040000fa
:0400c40070030000c5
:020000040000fa
:0400c80070030000c1
:020000040000fa
:0400cc0070030000bd
:020000040000fa
:0400d00070030000b9
:020000040000fa
:0400d40070030000b5
:020000040000fa
:0400d80070030000b1
:020000040000fa
:0400dc0070030000ad
:020000040000fa
:0400e00070030000a9
:020000040000fa
:0400e40070030000a5
:020000040000fa
:0400e80070030000a1
:020000040000fa
:0400ec00700300009d
:020000040000fa
:0400f0007003000099
:020000040000fa
:0400f4007003000095
:020000040000fa
:0400f8007003000091
:020000040000fa
:0400fc00700300008d
:020000040000fa
:040100007003000088
:020000040000fa
:040104007003000084
:020000040000fa
:040108007003000080
:020000040000fa
:04010c00700300007c
:020000040000fa
:040110007003000078
:020000040000fa
:040114007003000074
:020000040000fa
:040118007003000070
:020000040000fa
:04011c00700300006c
:020000040000fa
:040120007003000068
:020000040000fa
:040124007003000064
:020000040000fa
:040128007003000060
:020000040000fa
:04012c00700300005c
:020000040000fa
:040130007003000058
:020000040000fa
:040134007003000054
:020000040000fa
:040138007003000050
:020000040000fa
:04013c00700300004c
:020000040000fa
:040140007003000048
:020000040000fa
:040144007003000044
:020000040000fa
:040148007003000040
:020000040000fa
:04014c00700300003c
:020000040000fa
:040150007003000038
:020000040000fa
:040154007003000034
:020000040000fa
:040158007003000030
:020000040000fa
:04015c00700300002c
:020000040000fa
:040160007003000028
:020000040000fa
:040164007003000024
:020000040000fa
:040168007003000020
:020000040000fa
:04016c00700300001c
:020000040000fa
:040170007003000018
:020000040000fa
:040174007003000014
:020000040000fa
:040178007003000010
:020000040000fa
:04017c00700300000c
:020000040000fa
:040180007003000008
:020000040000fa
:040184007003000004
:020000040000fa
:040188007003000000
:020000040000fa
:04018c0070030000fc
:020000040000fa
:0401900070030000f8
:020000040000fa
:0401940070030000f4
:020000040000fa
:0401980070030000f0
:020000040000fa
:04019c0070030000ec
:020000040000fa
:0401a00070030000e8
:020000040000fa
:0401a40070030000e4
:020000040000fa
:0401a80070030000e0
:020000040000fa
:0401ac0070030000dc
:020000040000fa
:0401b00070030000d8
:020000040000fa
:0401b40070030000d4
:020000040000fa
:0401b80070030000d0
:020000040000fa
:0401bc0070030000cc
:020000040000fa
:0401c00070030000c8
:020000040000fa
:0401c40070030000c4
:020000040000fa
:0401c80070030000c0
:020000040000fa
:0401cc0070030000bc
:020000040000fa
:0401d00070030000b8
:020000040000fa
:0401d40070030000b4
:020000040000fa
:0401d80070030000b0
:020000040000fa
:0401dc0070030000ac
:020000040000fa
:0401e00070030000a8
:020000040000fa
:0401e40070030000a4
:020000040000fa
:0401e80070030000a0
:020000040000fa
:0401ec00700300009c
:020000040000fa
:0401f0007003000098
:020000040000fa
:0401f4007003000094
:020000040000fa
:0401f8007003000090
:020000040000fa
:0401fc00700300008c
:020000040000fa
:040200007003000087
:020000040000fa
:040204007003000083
:020000040000fa
:04020800700300007f
:020000040000fa
:04020c00700300007b
:020000040000fa
:040210007003000077
:020000040000fa
:040214007003000073
:020000040000fa
:04021800700300006f
:020000040000fa
:04021c00700300006b
:020000040000fa
:040220007003000067
:020000040000fa
:040224007003000063
:020000040000fa
:04022800700300005f
:020000040000fa
:04022c00700300005b
:020000040000fa
:040230007003000057
:020000040000fa
:040234007003000053
:020000040000fa
:04023800700300004f
:020000040000fa
:04023c00700300004b
:020000040000fa
:040240007003000047
:020000040000fa
:040244007003000043
:020000040000fa
:04024800700300003f
:020000040000fa
:04024c00700300003b
:020000040000fa
:040250007003000037
:020000040000fa
:040254007003000033
:020000040000fa
:04025800700300002f
:020000040000fa
:04025c00700300002b
:020000040000fa
:040260007003000027
:020000040000fa
:040264007003000023
:020000040000fa
:04026800700300001f
:020000040000fa
:04026c00700300001b
:020000040000fa
:040270007003000017
:020000040000fa
:040274007003000013
:020000040000fa
:04027800700300000f
:020000040000fa
:04027c00700300000b
:020000040000fa
:040280007003000007
:020000040000fa
:100400004f0421000eff2c000e01880000000000a8
:10041000000020000000e000020032000001200087
:100420002002880014000700af0007000000e00071
:1004300003003a00002421000100200002003700e0
:100440000000200001002000810f70000100320038
:100450000f000700000020000000e0000200320052
:100460000000020000000000dc06020000000000a6
:100470000040da000000fe00200020000000e00044
:1004800002003200100020009001880000000600e9
:10049000a1028800800478000000eb001f003700f4
:1004a000e284440054a0b4009905ba00e2844400f8
:1004b00054a0b4009906ba00e284440054a0b400e9
:1004c0000006eb00476fde00fd07b200ae018800ba
:1004d000636ce10003003a000ad801000000eb0061
:1004e0000e003700606ce10008003a00004deb00a0
:1004f0000a05e800020039003420ec000af0a000f0
:100500008b05e900f9ff3e00040037006168e10057
:10051000010032000086eb000b00070019c7ba008b
:100520000e04e0001905ba0003003a000a00e000da
:10053000dbff3a0000000600fe07b200ae028800b2
:100540008a047800f5ff37000cd0a300e20f4d00bd
:100550001c00390089027800354dba000a05e80010
:10056000020039003420ec000af0a0008b05e900fd
:100570000f003200254dba000a05e80002003900dc
:100580003420ec000af0a0008b05e90008003200de
:100590000c00e0000600320015cdba000a05e800a4
:1005a000020039003420ec000af0a0008b05e900bd
:1005b0008984e80054a0b4000b00e000e2ff3a0098
:1005c000000006009902ba00055d78008b05e9007d
:1005d000f7ff3200c82ade00055d78008b05e900d0
:1005e000f3ff32000c00e000f1ff320019ddba0029
:1005f000eeff37000000fa000108a9000080fa00b1
:10060000004006003600f800809fbe00829fbe00ba
:10061000849fbe00869fbe000000fa000068a9000b
:100620005c070700e60507000080fa004f03be00e4
:100630004f02be004f01be004f00be003600f90061
:10064000004006003600f800809fbe00829fbe007a
:10065000849fbe00869fbe000000fa000368a900c8
:10066000308080004180800061004000e0804800d0
:100670003080880041808800600207000080fa0016
:100680004f03be004f02be004f01be004f00be0030
:100690003600f90000400600801f78000000fa00d4
:1006a00001a8a90000188000d081880010188000df
:1006b000e081880020188000f081880030188000d8
:1006c00000828800401880001082880010c0b300ab
:1006d00011f0b7000080fa004f00780000400600db
:1006e0000040da000000fe000000050003f0a20058
:1006f000889fbe008a9fbe008c1f780018010700eb
:100700001f0133006450e1004f0032006420e1001b
:100710005200320003826c0007003b000905d00044
:100720000306d000820f54000c065d000200390061
:1007300002003200890178000306780085825500a6
:1007400004003d000003fd008103fd008502ea0076
:100750008b854200840f720002003b006000100095
:10076000e08018006011b8000005eb007a28e10075
:100770000a00390006007800c75ddd00f707b20007
:10078000878075002d003700828171000a01780092
:10079000610560008180d1000080d3008502e900fe
:1007a000f9ff3b00060440008784480002003b003c
:1007b00060041400e0841c000988a30007003200d4
:1007c0008a81710082817100610164008904d10015
:1007d0000884d3008b05e800170037000978a300d0
:1007e00013003a000b00e000130034008b05e90011
:1007f0000804440089844c000a4474000978a3006a
:100800000d003a000b00e000070034008b05e90002
:100810000804440089844c0001003a000b002000c9
:100820000978a300f7ff32000001eb000200370057
:10083000828171000a0178008e0007000cf0a70089
:1008400001f0a000d70037006420e10002003a0068
:10085000838f6c00d70033000801be000200be0089
:10086000d0003700889fbe008a9fbe008c1f780092
:10087000bb000700c200330003866c006450e10037
:100880002e0032006420e100330032006150e100ac
:100890002f0032006120e1003100320085855500d3
:1008a000eb07b00009002000080420000500370015
:1008b0000804440089844c000a0031000603430008
:1008c00087834b000001530081815b00f8ff3300f8
:1008d0000203be000800a0000804440089844c0004
:1008e000f6ff3900c639dd008301730001003200d4
:1008f000130020008904d1000884d3000998a300c4
:10090000050032000800a7000300a0008904d10000
:100910000884d3008b05e8008904d1000884d30043
:100920000001eb000281d2005200070001f0a1009b
:100930000cf0a70001f0a0009a0037006420e1004d
:100940009c0032000801be000200be00f7ff370025
:100950006120e100970032006000b800f3ff37002b
:100960000000200001f82700f0ff370014002000ed
:10097000c7003700f4ff2f00c50037000001be009c
:10098000620007000470a70003f0a1006509b10030
:10099000160032000d0035006828e1000600350021
:1009a000f0ff2f00f1ff27000300e00013003b00e1
:1009b0000100280000000500000040008180480080
:1009c0008502e900fcff3a0008003700f88f42007a
:1009d00002003c008000eb00000005008100d10017
:1009e0000080d3008502e800fcff3a000300e0002d
:1009f00002003b0060001000e080180000000600cc
:100a00000001be00410007000470a70003f0a10030
:100a100003f8a30013003a006509b100100032008a
:100a2000090035006928e1000200350001002800b6
:100a30000000050000004000818048008502e900b8
:100a4000fcff3a0000000600f88f42000500350068
:100a50008100d1000080d3008502e800fcff3a004d
:100a6000000006008000eb00000005006011b800e7
:100a7000a200370081002000618055000b003d007e
:100a80000b00200061fe2f000100e1001d0034007a
:100a900082817100610164008904d1000884d3005f
:100aa0000000e800faff3a007100200061006400d5
:100ab000030070000200600009003200610444007d
:100ac000e0844c000988a500050032008b05e80091
:100ad0006808e10002003a008904d1000884d300cc
:100ae000f20f20000258e10005003d00c75ddd0067
:100af000f907b20089807500080078000000060040
:100b00000bf827008b00780000000500c70ade0004
:100b1000f107b200f50fb20008003200e1cf420049
:100b2000020032000170a00024000500810f700057
:100b3000010032000408050044000500810f700028
:100b400002003a00140005008502e90000004000a0
:100b500081c04800fcff3b000170a000240005009c
:100b60000004be00e9ff07000003be000405be004c
:100b70000200be00e5ff0700844f7500000006007c
:100b80000200be006450e100050036006420e10070
:100b9000020036000968a30001003a000800be0008
:100ba0000160a0004f0678004f05be004f04be0054
:100bb00000000600f0ff2f00f1ff2700f9ff3700cb
:100bc000889fbe008a9fbe008c1f7800e4ff07004c
:100bd000ebff330003866c006450e1002400320018
:100be0006420e100270032006150e1002200320061
:100bf0006120e100210032008b854200eb07b1004b
:100c00000134b800003ab8000804420089844a0060
:100c1000013ab8000030b8008880400009014a005d
:100c200004003300000040008180480002014900b8
:100c30008b05e900c909dd00830170000100320065
:100c400013002000c814de004814dd004709de0050
:100c50001200b200c808de000884700085ff07009b
:100c600001f0a1000cf0a70001f0a000cdff3700bb
:100c70006120e100cfff32000801be000200be008b
:100c8000f7ff37006150e100fcff3a00c9ff370071
:100c9000889fbe008a9fbe00841f7800b0ff0700b7
:100ca0004f00780011003300f0ff2f00838f6c009d
:100cb00006003b00040565000a00a7000800370095
:100cc00009f0a6001000200008003700820f540031
:100cd000838f5c00030039001000200001003e00fb
:100ce0000000200009f0a7000000ea004f05be0048
:100cf0004f04be000000e00000000600889fbe0018
:100d00008a9fbe000082700004027100048271009c
:100d1000260032000004be000200be006011b800d0
:100d20006b092000950220000182cf000a003900e3
:100d30000541b1000082cf00070039000541b10034
:100d40000982cf00040039000541b1000882cf00bc
:100d5000010039000541b100054252001200320085
:100d60000a003b0082817100610164008100d100b2
:100d70000080d3008984d3000884d3008b05e80069
:100d80000442e800f7ff3a00070037000804440077
:100d900089844c0000004800818048008b05e900f0
:100da0000442e900f9ff3a0032ff07004f05be0098
:080db0004f04be000000060024
:020000040000fa
:100db8000600fa0085050700cb050700e2030700d7
:100dc8003805070011020700f70107008c02070029
:100dd800010037000000000074050700e14f5000d3
:100de800fcff3a00750507006c050700000f780046
:100df8001e007800100078008000eb0019ff070043
:100e080032332300330524006bff07000200200063
:100e18000358240091fe0700d2cc2c00c304240000
:100e280065ff070010079800210798001e01900031
:100e3800ae019000000020008120240087fe0700fa
:100e480002002000030a240026fe070050818800c3
:100e5800618188001e80e800100078008000eb00a7
:100e680000ff0700323323003305240052ff070038
:100e7800020020000358240078fe0700d2cc2c0082
:100e8800c30424004cff07001007980021079800ae
:100e98001e019000ae019000000020008120240077
:100ea8006efe070002002000030a24000dfe070062
:100eb80030818800418188009e007800648040006d
:100ec800100078008000eb00e6fe070032332300b4
:100ed8003305240038ff07000200200003582400cf
:100ee8005efe0700d2cc2c00c304240032ff0700aa
:100ef80010079800210798001e019000ae0190008d
:100f0800000020008120240054fe07000200200079
:100f1800030a2400f3fd070070818800818188009e
:100f28009e00780068804000100078008000eb0088
:100f3800ccfe070032332300330524001eff0700d0
:100f4800020020000358240044fe0700d2cc2c00e5
:100f5800c304240018ff0700100798002107980011
:100f68001e019000ae0190000000200081202400a6
:100f78003afe070002002000030a2400d9fd0700fa
:100f880090818800a18188009e00780066804000da
:100f9800100078008000eb00b2fe07003233230017
:100fa8003305240004ff0700020020000358240032
:100fb8002afe0700d2cc2c00c3042400fefe070042
:100fc80010079800210798001e019000ae019000bc
:100fd800000020008120240020fe070002002000dd
:100fe800030a2400bffd0700b0818800c181880082
:100ff80079ff37000000fa0000808000e10f500000
:1010080003003a00f0002000708088000b003700d1
:1010180000808000e20f500003003a0040012000e9
:10102800708088000500370000808000e30f5000c2
:1010380002003a00900120007080880004d0bf00b0
:101048000080fb00cf80de0032012000030020007a
:10105800820f5000838f5800a1003e000006010057
:10106800130037001c003700250037003400370014
:101078004f0037005800370059003700620037002a
:10108800310037003b0037003c003700460037008e
:101098005f003700690037006a00370074003700c6
:1010a800750037007f003700800037008a0037005e
:1010b8000630ef000830ef000001eb006000b800d8
:1010c800de030700120020006000b800db03070001
:1010d80010c0b30004f0b700328080004380800065
:1010e800803e200001002000800f5100818f5900b0
:1010f8007e00360020c0b30004f0b7007c00370043
:10110800108080000000e800108088007080800057
:101118008000eb0053fe07000001eb00c703070047
:10112800708080008000eb004efe07001200200057
:10113800c203070030c0b30004f0b7006c003700ea
:101148006d0007006a0037000001eb000000200076
:10115800010e2400b903070012002000000020003f
:1011680001172400b503070090c0b30004f0b700ce
:101178005f003700600007005d0037000001eb00ea
:101188000000200001172400ac0307001200200013
:1011980000002000010e2400a8030700b0c0b3001f
:1011a80004f0b70052003700530007005000370022
:1011b8000001eb0000002000011724009f03070036
:1011c800120020006000b8009c03070050c0b30064
:1011d80004f0b70046003700470007004400370016
:1011e8000001eb006000b800940307001200200023
:1011f80000002000011724009003070070c0b3000e
:1012080004f0b7003a0037003b0007003800370009
:101218000001eb00000020000114240087030700f0
:10122800120020000000200001142c008303070096
:10123800d0c0b30004f0b7002d0037002e0007001f
:101248002b0037000001eb000000200001142c00e7
:101258007a03070012002000000020000114240077
:1012680076030700f0c0b30004f0b7002000370091
:10127800210007001e0037000001eb0000002000dd
:10128800011224006d030700120020000000200056
:10129800010a24006903070010c1b30004f0b70075
:1012a8001300370014000700110037000001eb009d
:1012b80000002000010a240060030700120020003b
:1012c80000002000011224005c03070030c1b300b5
:1012d80004f0b700060037000700070004003700d5
:1012e8000470ef000000000001003700000000005b
:1012f8000080fa00000006000200fa00881f78004b
:101308000040eb00004f780090818000a1818000b0
:1013180018c0b30002002000031f240091fd07003d
:101328000000e000010035000044eb000804e00084
:1013380016003a00708180008181800018c0b300d7
:1013480002002000c320240086fd07000000e00002
:10135800010035000044eb000804e0000b003a00ef
:10136800308180004181800018c0b3000200200055
:10137800031f24007bfd07000000e000010035008a
:101388000044eb000804e0000500320010002000d3
:101398000080880097010700004f78004700370059
:1013a80090818000a181800018c0b3000200200055
:1013b800032724006bfd07000000e0000100350052
:1013c8000044eb000804e00016003a007081800039
:1013d8008181800018c0b30002002000832424000b
:1013e80060fd07000000e000010035000044eb004c
:1013f8000804e0000b003a00308180004181800041
:1014080018c0b300020020000327240055fd070080
:101418000000e000010035000044eb000804e00093
:1014280003003200200020000080880023003700dd
:1014380090818000a181800018c0b30002002000c4
:101448008324240049fd07000000e00001003c005f
:101458000044eb000804e00016003a0070818000a8
:101468008181800018c0b3000200200003272400f7
:101478003efd07000000e00001003c000044eb00d6
:101488000804e0000b003a003081800041818000b0
:1014980018c0b300020020008324240033fd070095
:1014a8000000e00001003c000044eb000804e000fc
:1014b8000200320030002000008088001e407800c2
:1014c8000004e00003003a0020c0b30005f0b700b4
:1014d800300037001e407800e34f500003003a0008
:1014e80080c0b30005f0b7002a0037001e4078001e
:1014f800e14f500003003a00a0c0b30005f0b70068
:10150800240037001e407800e44f500003003a00e2
:1015180040c0b30005f0b7001e0037001e40780039
:10152800e24f500003003a0060c0b30005f0b70076
:10153800180037001e407800e54f50000a003a00b6
:1015480010808000610060000000e00003003a00a5
:10155800c0c0b30005f0b7000e003700e0c0b3000c
:1015680005f0b7000b0037001e407800e64f50002a
:1015780003003a0000c1b30005f0b70005003700ca
:101588001e407800e74f500002003a0020c1b30027
:1015980005f0b70005d0bf0004f0b7004f0478008d
:1015a8000080fa00000006000000fa0013e1a9001c
:1015b80011e1a9001061a8001021a900810880008c
:1015c800f0fc2f0000806000800888000a21ef00ee
:1015d8000621ef00404c20007008880000402b00d6
:1015e800600888002142800080ff2f000080600092
:1015f8000000a000204288000108a9002108a800d6
:1016080011e1a8000080fa00000006000400fa00ba
:10161800881f78000000200081242400008fbe006d
:1016280005e1a9000421a90050c320001008880082
:101638000068a9002068a80005e1a800210880002a
:10164800f0fc2f0000806000200888001e01780050
:101658009e0190000040220041a724007ffc070063
:1016680018c0b30002f02f00f3772400bffc070076
:101678000000e00001003c000044eb000804e0002a
:101688005400320021088000f0fc2f000080600028
:101698000040a000200888001e0178009e019000ec
:1016a8000040220041a724006cfc07000200200033
:1016b8000310240069fc070018c0b30002f02f00d3
:1016c800f3772400a9fc07000000e00001003c00bb
:1016d8000044eb000804e0003200320021088000da
:1016e800f0fc2f00008060000050a0002008880057
:1016f8001e0178009e0190000040220041a72400ae
:1017080056fc0700020020000328240053fc0700b1
:1017180018c0b30002f02f00f377240093fc0700f1
:101728000000e00001003c000044eb000804e00079
:101738001000320021088000000320000100700022
:10174800200888001e0178009e01900000402200b9
:1017580041a7240041fc07000200200003382400b0
:101768003efc070083fc0700000078001008880092
:10177800200037001e0178009e01900000402200e2
:1017880041a7240035fc070002002000032824009c
:1017980032fc070077fc070000007800100888007a
:1017a800140037001e0178009e01900000402200be
:1017b80041a7240029fc0700020020000310240090
:1017c80026fc07006bfc0700000078001008880062
:1017d800080037001e0178009e019000004022009a
:1017e80041a724001dfc070062fc070000007800e8
:1017f800100888004f0478000080fa0000000600f6
:101808000400fa00881f780000002800b14b24006b
:10181800008fbe001fe1a9001e21a90050c32000af
:10182800d00888000368a9002368a8001fe1a80061
:10183800f1088000f0fc2f0000806000f0088800ac
:101848001e0178009e0190000040220041a724005c
:1018580002fc070018c0b30002f02f00f377240041
:1018680042fc07000000e00001003c000044eb00df
:101878000804e00054003200f1088000f0fc2f005a
:10188800008060000040a000f00888001e01780079
:101898009e0190000040220041a72400effb0700b2
:1018a8000200200003102400ecfb070018c0b3005e
:1018b80002f02f00f37724002cfc07000000e00062
:1018c80001003c000044eb000804e0003200320054
:1018d800f1088000f0fc2f00008060000050a0009c
:1018e800f00888001e0178009e0190000040220048
:1018f80041a72400d9fb0700020020000328240088
:10190800d6fb070018c0b30002f02f00f3772400bd
:1019180016fc07000000e00001003c000044eb005a
:101928000804e00010003200f108800000032000e5
:1019380001007000f00888001e0178009e019000e8
:101948000040220041a72400c4fb07000200200039
:1019580003382400c1fb070006fc070000007800dc
:10196800d0088800200037001e0178009e019000f2
:101978000040220041a72400b8fb07000200200015
:1019880003282400b5fb0700fafb070000007800d5
:10199800d0088800140037001e0178009e019000ce
:1019a8000040220041a72400acfb070002002000f1
:1019b80003102400a9fb0700eefb070000007800d5
:1019c800d0088800080037001e0178009e019000aa
:1019d8000040220041a72400a0fb0700e5fb070008
:1019e80000007800d00888004f0478000080fa00d2
:1019f800000006000000fa00881f7800908180002f
:101a0800a181800018c0b30002002000031f240039
:101a1800d4fb07000000e000010035000044eb00a3
:101a28000804e0000e00320030818000418180000f
:101a380018c0b30002002000031f2400c9fb0700e0
:101a48000000e000010035000044eb000804e0005d
:101a5800030032005000200090808800b600370054
:101a6800708180008181800018c0b30002002000ce
:101a7800c3202400bbfb07000000e0000100350084
:101a88000044eb000804e00003003200500020008e
:101a980090808800a800370090818000a181800094
:101aa80018c0b30002002000c3202400adfb0700cb
:101ab8000000e000010035000044eb000804e000ed
:101ac80019003200708180008181800018c0b30045
:101ad80002002000831c2400a4fb07000000e00093
:101ae80001003c000044eb000804e0000e00320056
:101af800308180004181800018c0b30002002000be
:101b0800c320240099fb07000000e00001003c000e
:101b18000044eb000804e00003003200200020002d
:101b2800908088008400370090818000a181800027
:101b380018c0b30002002000c32024008bfb07005c
:101b48000000e00001003c000044eb000804e00055
:101b580019003200708180008181800018c0b300b4
:101b680002002000831c240080fb07000000e00026
:101b780001003c000044eb000804e0000e003200c5
:101b8800308180004181800018c0b300020020002d
:101b9800c320240073fb07000000e00001003500ab
:101ba8000044eb000804e00003003200400020007d
:101bb8009080880060003700b0818000c18180007b
:101bc80018c0b300020020000312240065fb0700c0
:101bd8000000e000010035000044eb000804e000cc
:101be80036003200508180006181800018c0b30047
:101bf80002002000031224005afb07000000e00046
:101c0800010035000044eb000804e0002b0032001e
:101c1800b4818000c581800050818000618180008e
:101c280018c0b3000001be000400be004dfb070051
:101c38000000e000010035000044eb000804e0006b
:101c48000300320060002000908088003a003700ce
:101c5800b4818000c581800050818000618180004e
:101c680018c0b3000001be000400be003ffb07001f
:101c78000000e00001003c000044eb000804e00024
:101c88000300320070002000908088002a0037008e
:101c9800b4818000c581800050818000618180000e
:101ca8000001be000400be002efb07000000e0009b
:101cb80020003a001230ef001f003700b08180008a
:101cc800c181800018c0b30002002000031724005f
:101cd80024fb07000000e000010035000044eb0091
:101ce8000804e00003003200100020009080880003
:101cf80011003700508180006181800018c0b30056
:101d0800020020000317240016fb07000000e00073
:101d1800010035000044eb000804e0000300320035
:101d28003000200090808800030037001230ef0058
:101d38000100370000000000908080004f04780008
:101d48000080fa00000006000000fa001160800020
:101d580080ff2f00008060001060880000fa2000db
:101d68002060880023aca800238ca80011618000a3
:101d7800f03f2f000080600000a0a00010618800e4
:101d88003000200020618800c3aca800c38ca800e4
:101d980011668000f03f2f000080600000a0a000c6
:101da80010668800300020002066880001eca8003a
:101db8000080fa00000006000000fa00889fbe00bc
:101dc8001481800025818000f080800001818000de
:101dd80018c0b3000001be000400be00e1fa07000d
:101de8000000e000010035000044eb000804e000ba
:101df8000d003200f8808000098180001481800085
:101e08002581800050808000618080000001be0034
:101e18000400be0034fa07000801be00c80007002d
:101e2800108188002181880014818000258180002c
:101e3800f08080000181800018c0b3000001be005e
:101e48000400be00c9fa07000000e00001003c00e1
:101e58000044eb000804e0000d003200f880800028
:101e680009818000148180002581800050808000d5
:101e7800618080000001be000400be0019fa07005e
:101e88000801be00960007001081880021818800a3
:101e9800108180002181800018c0b3006011b80053
:101ea800b2fa07000000e00001003c000044eb002b
:101eb8000804e00004003200c3eca90024cea80006
:101ec800c3cca80003003700c3cca90024eea800a7
:101ed800c3eca80010818000218180006a000700ff
:101ee800020020000322240033fb0700c2fa070087
:101ef8000000780030668800d4808000e58080008b
:101f0800b0808000c180800018c0b3000001be000e
:101f18000400be0093fa07000000e000010035004d
:101f28000044eb000804e0000d003200b880800097
:101f3800c9808000d4808000e580800050808000c7
:101f4800618080000001be000400be00e6f90700c1
:101f58000801be007a000700d0808800e180880070
:101f6800d4808000e5808000b0808000c18080003f
:101f780018c0b3000001be000400be007bfa0700d1
:101f88000000e00001003c000044eb000804e00011
:101f98000d003200b8808000c9808000d4808000a5
:101fa800e580800050808000618080000001be00d4
:101fb8000400be00cbf907000801be004800070076
:101fc800d0808800e1808800d0808000e180800097
:101fd80018c0b3006011b80064fa07000000e00000
:101fe80001003c000044eb000804e000040032005b
:101ff80023cca90015eea80023eca80003003700a5
:1020080023eca90015cea80023cca800d08080001e
:10201800e18080001c000700020020000322240049
:10202800e5fa070074fa07000000780030618800bc
:102038004f04be000080fa00000006000600fa0007
:10204800008fbe00220798002e0090000000e000dc
:1020580006003a001e0078009e00900001f0a200e1
:10206800f080880001818800050037001e00780094
:102078009e00900001f0a200b0808800c180880016
:102088000080fa00000006000400fa00881f7800ab
:10209800008fbe0018c0b3006011b8001e007800a1
:1020a8009e00900031fa07000000e00001003d00aa
:1020b8000044eb000804e000030032001e00780032
:1020c8009e009000030037001e0078009e009000dc
:1020d80001f0a2004f0478000080fa00000006001a
:1020e8000800fa00881f7800008fbe0022079800b9
:1020f8003307980018c0b3002e019000be0190006d
:102108001e0078009e00900018fa07000000e0000a
:1021180001003c000044eb000804e000030032002a
:102128001e0078009e009000020037002e009000ec
:10213800be0090004f0478000080fa0000000600fe
:102148000800fa00881f7800008fbe002207980058
:102158003307980018c0b3002e019000be0190000c
:102168001e0078009e009000fef907000000e000c5
:10217800010035000044eb000804e00003003200d1
:102188001e0078009e009000020037002e0090008c
:10219800be0090004f0478000080fa00000006009e
:1021a8000c00fa00881f7800008fbe0022079800f4
:1021b80033079800440798005507980018c0b300e3
:1021c8004e019000de0190001e0078009e009000f5
:1021d800e6f907000000e00001003c000044eb00c5
:1021e8000804e000040032004e019000de01900077
:1021f800028fbe000e00370018c0b3002e019000f9
:10220800be0190001e0078009e009000d5f90700de
:102218000000e000010035000044eb000804e00085
:10222800030032002e019000be019000028fbe0014
:102238001e0078009e0090004f0478000080fa008d
:10224800000006000400fa00008fbe00b2fd200066
:10225800930424001e0078009e0090007ff9070078
:10226800020020004333240053fa07000080fa00dc
:10227800000006000400fa00008fbe00b2fd200036
:10228800930424001e0078009e0090004afa07007c
:10229800020020004333240070f907000080fa0090
:1022a800000006000000fa0021e3a9002143a8006d
:1022b80001198000f0cf2f0000806000001988000d
:1022c8002043a90001198000000e200001007000c1
:1022d8000019880011198000f0ff210000806000bb
:1022e800101988002343a80011198000f0cf2f008f
:1022f80000806000101988001119800030f82f0044
:10230800008060000040a000101988002203a90086
:102318002223a90025e3a900f0c0b30024e3b700f5
:1023280021198000f00f2e008080600000f020004e
:1023380001007000201988003303a9004feea8009f
:102348002e0ea8002f6ea8006f2ea8001e2ea80023
:1023580031e3a80030c3a8003163a8002e03a80009
:102368003063a8004119800000fc2f000080600045
:102378004019880028e3a90001a8a90021a8a800fd
:1023880021e3a8000080fa00000006000000fa001f
:102398002023a8000080fa00000006000000fa00d0
:1023a800a00321000080fa00000006000000fa00e7
:1023b80011d0bf000080fa00000006000000fa00fb
:1023c8001170ef000080fa00000006000000fa001b
:1023d800f0032000303a8800213a8000f0f32f0003
:1023e80000806000203a8800213a800000fe2f001b
:1023f800008060000000a000203a88001200200041
:1024080080072000a109200033742000804978004b
:102418008149780082497800103a800000017800ec
:102428000200a00060042000710520002374200031
:1024380080497800814978008249780000000000ce
:10244800113a800000002700808060000000210011
:10245800808f5000faff3a0000000000113a800017
:1024680000022000008060000000e000fbff320056
:082478000080fa0000000600dc
:020000040000fa
:102480000010000006000000800000000e10000098
:1024900002000000820000000f0000000610000093
:1024a000040000008000000014100000260000005e
:1024b000800000000a1000000400000082000000fc
:1024c00000007000410000003a1000000a00000007
:1024d00080000000101000000200000080000000da
:1024e0001210000002000000800000000000000048
:020000040000fa
:1024f0000000fa000e2eef001e2eef002e2eef0031
:102500003e2eef004e2eef005e2eef006e2eef00ff
:10251000214ea90060cea90060eea90011cea9004d
:1025200011eea90020cea90020eea9000080fa003b
:0425300000000600a1
:020000040000fa
:02000004000af0
:04afe000cfff00009f
:020000040000fa
:02000004000af0
:04afe400ffff00006b
:020000040000fa
:02000004000af0
:04afe8007fff0000e7
:020000040000fa
:02000004000af0
:04afec005fff000003
:020000040000fa
:02000004000af0
:04aff00038ff000026
:020000040000fa
:02000004000af0
:04aff400ffff00005b
:00000001FF
