:020000040000fa
:080000000002040000000000f2
:020000040000fa
:040008007a03000077
:020000040000fa
:04000c007a03000073
:020000040000fa
:040010007a0300006f
:020000040000fa
:040014007a0300006b
:020000040000fa
:040018007a03000067
:020000040000fa
:04001c007a03000063
:020000040000fa
:040020007a0300005f
:020000040000fa
:040024007a0300005b
:020000040000fa
:040028007a03000057
:020000040000fa
:04002c007a03000053
:020000040000fa
:040030007a0300004f
:020000040000fa
:0400340002030000c3
:020000040000fa
:040038007a03000047
:020000040000fa
:04003c007a03000043
:020000040000fa
:040040007a0300003f
:020000040000fa
:040044007a0300003b
:020000040000fa
:04004800fa020000b8
:020000040000fa
:04004c007a03000033
:020000040000fa
:040050007a0300002f
:020000040000fa
:040054007a0300002b
:020000040000fa
:040058007a03000027
:020000040000fa
:04005c004c03000051
:020000040000fa
:040060007a0300001f
:020000040000fa
:040064007a0300001b
:020000040000fa
:040068007a03000017
:020000040000fa
:04006c007a03000013
:020000040000fa
:040070007a0300000f
:020000040000fa
:040074007a0300000b
:020000040000fa
:040078007a03000007
:020000040000fa
:04007c007a03000003
:020000040000fa
:040080007a030000ff
:020000040000fa
:040084007a030000fb
:020000040000fa
:040088007a030000f7
:020000040000fa
:04008c007a030000f3
:020000040000fa
:040090007a030000ef
:020000040000fa
:040094002203000043
:020000040000fa
:040098007a030000e7
:020000040000fa
:04009c007a030000e3
:020000040000fa
:0400a0007a030000df
:020000040000fa
:0400a4007a030000db
:020000040000fa
:0400a8007a030000d7
:020000040000fa
:0400ac007a030000d3
:020000040000fa
:0400b0007a030000cf
:020000040000fa
:0400b4007a030000cb
:020000040000fa
:0400b8007a030000c7
:020000040000fa
:0400bc007a030000c3
:020000040000fa
:0400c0007a030000bf
:020000040000fa
:0400c4007a030000bb
:020000040000fa
:0400c8007a030000b7
:020000040000fa
:0400cc007a030000b3
:020000040000fa
:0400d0007a030000af
:020000040000fa
:0400d4007a030000ab
:020000040000fa
:0400d8007a030000a7
:020000040000fa
:0400dc007a030000a3
:020000040000fa
:0400e0007a0300009f
:020000040000fa
:0400e4007a0300009b
:020000040000fa
:0400e8007a03000097
:020000040000fa
:0400ec007a03000093
:020000040000fa
:0400f0007a0300008f
:020000040000fa
:0400f4007a0300008b
:020000040000fa
:0400f8007a03000087
:020000040000fa
:0400fc007a03000083
:020000040000fa
:040100007a0300007e
:020000040000fa
:040104007a0300007a
:020000040000fa
:040108007a03000076
:020000040000fa
:04010c007a03000072
:020000040000fa
:040110007a0300006e
:020000040000fa
:040114007a0300006a
:020000040000fa
:040118007a03000066
:020000040000fa
:04011c007a03000062
:020000040000fa
:040120007a0300005e
:020000040000fa
:040124007a0300005a
:020000040000fa
:040128007a03000056
:020000040000fa
:04012c007a03000052
:020000040000fa
:040130007a0300004e
:020000040000fa
:040134007a0300004a
:020000040000fa
:040138007a03000046
:020000040000fa
:04013c007a03000042
:020000040000fa
:040140007a0300003e
:020000040000fa
:040144007a0300003a
:020000040000fa
:040148007a03000036
:020000040000fa
:04014c007a03000032
:020000040000fa
:040150007a0300002e
:020000040000fa
:040154007a0300002a
:020000040000fa
:040158007a03000026
:020000040000fa
:04015c007a03000022
:020000040000fa
:040160007a0300001e
:020000040000fa
:040164007a0300001a
:020000040000fa
:040168007a03000016
:020000040000fa
:04016c007a03000012
:020000040000fa
:040170007a0300000e
:020000040000fa
:040174007a0300000a
:020000040000fa
:040178007a03000006
:020000040000fa
:04017c007a03000002
:020000040000fa
:040180007a030000fe
:020000040000fa
:040184007a030000fa
:020000040000fa
:040188007a030000f6
:020000040000fa
:04018c007a030000f2
:020000040000fa
:040190007a030000ee
:020000040000fa
:040194007a030000ea
:020000040000fa
:040198007a030000e6
:020000040000fa
:04019c007a030000e2
:020000040000fa
:0401a0007a030000de
:020000040000fa
:0401a4007a030000da
:020000040000fa
:0401a8007a030000d6
:020000040000fa
:0401ac007a030000d2
:020000040000fa
:0401b0007a030000ce
:020000040000fa
:0401b4007a030000ca
:020000040000fa
:0401b8007a030000c6
:020000040000fa
:0401bc007a030000c2
:020000040000fa
:0401c0007a030000be
:020000040000fa
:0401c4007a030000ba
:020000040000fa
:0401c8007a030000b6
:020000040000fa
:0401cc007a030000b2
:020000040000fa
:0401d0007a030000ae
:020000040000fa
:0401d4007a030000aa
:020000040000fa
:0401d8007a030000a6
:020000040000fa
:0401dc007a030000a2
:020000040000fa
:0401e0007a0300009e
:020000040000fa
:0401e4007a0300009a
:020000040000fa
:0401e8007a03000096
:020000040000fa
:0401ec007a03000092
:020000040000fa
:0401f0007a0300008e
:020000040000fa
:0401f4007a0300008a
:020000040000fa
:0401f8007a03000086
:020000040000fa
:0401fc007a03000082
:020000040000fa
:040200007a0300007d
:020000040000fa
:040204007a03000079
:020000040000fa
:040208007a03000075
:020000040000fa
:04020c007a03000071
:020000040000fa
:040210007a0300006d
:020000040000fa
:040214007a03000069
:020000040000fa
:040218007a03000065
:020000040000fa
:04021c007a03000061
:020000040000fa
:040220007a0300005d
:020000040000fa
:040224007a03000059
:020000040000fa
:040228007a03000055
:020000040000fa
:04022c007a03000051
:020000040000fa
:040230007a0300004d
:020000040000fa
:040234007a03000049
:020000040000fa
:040238007a03000045
:020000040000fa
:04023c007a03000041
:020000040000fa
:040240007a0300003d
:020000040000fa
:040244007a03000039
:020000040000fa
:040248007a03000035
:020000040000fa
:04024c007a03000031
:020000040000fa
:040250007a0300002d
:020000040000fa
:040254007a03000029
:020000040000fa
:040258007a03000025
:020000040000fa
:04025c007a03000021
:020000040000fa
:040260007a0300001d
:020000040000fa
:040264007a03000019
:020000040000fa
:040268007a03000015
:020000040000fa
:04026c007a03000011
:020000040000fa
:040270007a0300000d
:020000040000fa
:040274007a03000009
:020000040000fa
:040278007a03000005
:020000040000fa
:04027c007a03000001
:020000040000fa
:040280007a030000fd
:020000040000fa
:10040000cf0321000eff2c000e0188000000000029
:10041000000020000000e000020032000001200087
:100420002002880014000700b40007000000e0006c
:1004300003003a00400221000100200002003700c2
:100440000000200001002000810f70000100320038
:100450000f000700000020000000e0000200320052
:100460000000020000000000e6060200000000009c
:100470000040da000000fe00200020000000e00044
:1004800002003200100020009001880000000600e9
:10049000a1028800800478000000eb001f003700f4
:1004a000e284440054a0b4009905ba00e2844400f8
:1004b00054a0b4009906ba00e284440054a0b400e9
:1004c0000006eb00476fde00fd07b200ae018800ba
:1004d000636ce10003003a000ad801000000eb0061
:1004e0000e003700606ce10008003a00004deb00a0
:1004f0000a05e800020039003420ec000af0a000f0
:100500008b05e900f9ff3e00040037006168e10057
:10051000010032000086eb000b00070019c7ba008b
:100520000e04e0001905ba0003003a000a00e000da
:10053000dbff3a0000000600fe07b200ae028800b2
:100540008a047800f5ff37000cd0a300e20f4d00bd
:100550001c00390089027800354dba000a05e80010
:10056000020039003420ec000af0a0008b05e900fd
:100570000f003200254dba000a05e80002003900dc
:100580003420ec000af0a0008b05e90008003200de
:100590000c00e0000600320015cdba000a05e800a4
:1005a000020039003420ec000af0a0008b05e900bd
:1005b0008984e80054a0b4000b00e000e2ff3a0098
:1005c000000006009902ba00055d78008b05e9007d
:1005d000f7ff3200c82ade00055d78008b05e900d0
:1005e000f3ff32000c00e000f1ff320019ddba0029
:1005f000eeff37000000fa000108a9000080fa00b1
:10060000004006003600f800809fbe00829fbe00ba
:10061000849fbe00869fbe000000fa000068a9000b
:100620004e060700da0407000080fa004f03be0000
:100630004f02be004f01be004f00be003600f90061
:10064000004006003600f800809fbe00829fbe007a
:10065000849fbe00869fbe000000fa000368a900c8
:10066000608080007180800061004000e080480070
:1006700060808800718088008e0207000080fa0088
:100680004f03be004f02be004f01be004f00be0030
:100690003600f90000400600809fbe000000fa000e
:1006a00001a8a9000118800020002100010878009d
:1006b00011188000200021001100980021188000ee
:1006c0002000210021009800311880002000210026
:1006d000310098004118800020002100410098005e
:1006e00010c0b3000af0b7000080fa004f00be004f
:1006f000004006000040da000000fe000000050097
:1007000003f0a200889fbe008a9fbe008c1f780065
:10071000180107001f0133006450e1004f00320050
:100720006420e1005200320003826c0007003b00ad
:100730000905d0000306d000820f54000c065d00ae
:1007400002003900020032008901780003067800b7
:100750008582550004003d000003fd008103fd007b
:100760008502ea008b854200840f720002003b0084
:1007700060001000e08018006011b8000005eb0078
:100780007a28e1000a00390006007800c75ddd0024
:10079000f707b200878075002d0037008281710055
:1007a0000a017800610560008180d1000080d300db
:1007b0008502e900f9ff3b000604400087844800f9
:1007c00002003b0060041400e0841c000988a300c0
:1007d000070032008a81710082817100610164002a
:1007e0008904d1000884d3008b05e8001700370086
:1007f0000978a30013003a000b00e0001300340056
:100800008b05e9000804440089844c000a44740004
:100810000978a3000d003a000b00e0000700340047
:100820008b05e9000804440089844c0001003a006b
:100830000b0020000978a300f7ff32000001eb0055
:1008400002003700828171000a0178008e000700e3
:100850000cf0a70001f0a000d70037006420e100f1
:1008600002003a00838f6c00d70033000801be00fd
:100870000200be00d0003700889fbe008a9fbe00e5
:100880008c1f7800bb000700c200330003866c0099
:100890006450e1002e0032006420e1003300320099
:1008a0006150e1002f0032006120e1003100320090
:1008b00085855500eb07b0000900200008042000e2
:1008c000050037000804440089844c000a00310008
:1008d0000603430087834b000001530081815b00c6
:1008e000f8ff33000203be000800a0000804440023
:1008f00089844c00f6ff3900c639dd00830173009e
:1009000001003200130020008904d1000884d300c4
:100910000998a300050032000800a7000300a0000a
:100920008904d1000884d3008b05e8008904d10034
:100930000884d3000001eb000281d20052000700be
:1009400001f0a1000cf0a70001f0a0009a00370010
:100950006420e1009c0032000801be000200be00dd
:10096000f7ff37006120e100970032006000b80017
:10097000f3ff37000000200001f82700f0ff3700e8
:1009800014002000c7003700f4ff2f00c500370017
:100990000001be00620007000470a70003f0a10080
:1009a0006509b100160032000d0035006828e1002d
:1009b00006003500f0ff2f00f1ff27000300e000e4
:1009c00013003b000100280000000500000040006b
:1009d000818048008502e900fcff3a0008003700ea
:1009e000f88f420002003c008000eb000000050090
:1009f0008100d1000080d3008502e800fcff3a00ae
:100a00000300e00002003b0060001000e0801800de
:100a1000000006000001be00410007000470a700ae
:100a200003f0a10003f8a30013003a006509b10028
:100a300010003200090035006928e100020035008d
:100a400001002800000005000000400081804800ef
:100a50008502e900fcff3a0000000600f88f420022
:100a6000050035008100d1000080d3008502e80038
:100a7000fcff3a00000006008000eb0000000500cb
:100a80006011b800a200370081002000618055008d
:100a90000b003d000b00200061fe2f000100e10073
:100aa0001d00340082817100610164008904d1005d
:100ab0000884d3000000e800faff3a00710020002b
:100ac0006100640003007000020060000900320051
:100ad00061044400e0844c000988a5000500320050
:100ae0008b05e8006808e10002003a008904d100a3
:100af0000884d300f20f20000258e10005003d00f9
:100b0000c75ddd00f907b200898075000800780034
:100b1000000006000bf827008b007800000005009d
:100b2000c70ade00f107b200f50fb200080032007c
:100b3000e1cf4200020032000170a0002400050055
:100b4000810f700001003200040805004400050018
:100b5000810f700002003a00140005008502e900d0
:100b60000000400081c04800fcff3b000170a00075
:100b7000240005000004be00e9ff07000003be00da
:100b80000405be000200be00e5ff0700844f7500ab
:100b9000000006000200be006450e10005003600bf
:100ba0006420e100020036000968a30001003a0059
:100bb0000800be000160a0004f0678004f05be008f
:100bc0004f04be0000000600f0ff2f00f1ff2700d9
:100bd000f9ff3700889fbe008a9fbe008c1f7800f7
:100be000e4ff0700ebff330003866c006450e10074
:100bf000240032006420e100270032006150e1004f
:100c0000220032006120e100210032008b85420089
:100c1000eb07b1000134b800003ab8000804420004
:100c200089844a00013ab8000030b800888040004a
:100c300009014a00040033000000400081804800a0
:100c4000020149008b05e900c909dd00830170003c
:100c50000100320013002000c814de004814dd003b
:100c60004709de001200b200c808de0008847000e8
:100c700085ff070001f0a1000cf0a70001f0a00023
:100c8000cdff37006120e100cfff32000801be0038
:100c90000200be00f7ff37006150e100fcff3a00a0
:100ca000c9ff3700889fbe008a9fbe00841f78005e
:100cb000b0ff07004f00780011003300f0ff2f0055
:100cc000838f6c0006003b00040565000a00a70046
:100cd0000800370009f0a6001000200008003700c7
:100ce000820f5400838f5c00030039001000200045
:100cf00001003e000000200009f0a7000000ea000b
:100d00004f05be004f04be000000e00000000600da
:100d1000889fbe008a9fbe0000827000040271009e
:100d200004827100260032000004be000200be00f2
:100d30006011b8006b092000950220000182cf00ed
:100d40000a0039000541b1000082cf0007003900d8
:100d50000541b1000982cf00040039000541b1000e
:100d60000882cf00010039000541b1000542520060
:100d7000120032000a003b008281710061016400b0
:100d80008100d1000080d3008984d3000884d3007f
:100d90008b05e8000442e800f7ff3a00070037003f
:100da0000804440089844c00000048008180480009
:100db0008b05e9000442e900f9ff3a0032ff070021
:0c0dc0004f05be004f04be0000000600fe
:020000040000fa
:100dcc000600fa00881f780071040700ad040700c4
:100ddc00d002070024040700d4010700ba01070061
:100dec004f02070062040700e14f500083003a00f5
:100dfc00630407005a040700000f78001e007800f7
:100e0c00100078008000eb001aff0700323323003b
:100e1c00330524006cff0700020020000358240057
:100e2c0092fe0700d2cc2c00c304240066ff0700fe
:100e3c0010079800210798001e019000ae01900049
:100e4c00000020008120240088fe07000200200002
:100e5c00030a240027fe0700608188007181880046
:100e6c001e80e800100078008000eb0001ff0700f6
:100e7c00323323003305240053ff07000200200007
:100e8c000358240079fe0700d2cc2c00c3042400a4
:100e9c004dff070010079800210798001e019000d5
:100eac00ae01900000002000812024006ffe07009e
:100ebc0002002000030a24000efe07004081880077
:100ecc00518188009e0078006480400010007800fa
:100edc008000eb00e7fe07003233230033052400cb
:100eec0039ff070002002000035824005ffe0700b2
:100efc00d2cc2c00c304240033ff07001007980049
:100f0c00210798001e019000ae0190000000200007
:100f1c008120240055fe070002002000030a240053
:100f2c00f4fd070080818800918188009e00780084
:100f3c0066804000100078008000eb00cdfe0700ba
:100f4c0032332300330524001fff0700020020006a
:100f5c000358240045fe0700d2cc2c00c304240007
:100f6c0019ff070010079800210798001e01900038
:100f7c00ae01900000002000812024003bfe070001
:100f8c0002002000030a2400dafd0700a08188007b
:100f9c00b18188009e0078006880400010007800c5
:100fac008000eb00b3fe070032332300330524002e
:100fbc0005ff070002002000035824002bfe070049
:100fcc00d2cc2c00c3042400fffe070010079800ad
:100fdc00210798001e019000ae0190000000200037
:100fec008120240021fe070002002000030a2400b7
:100ffc00c0fd0700c0818800d181880080818000fd
:10100c009181800018c0b30002002000031f24004f
:10101c005afe07000000e00001003c000044eb0019
:10102c000804e00002003200254ea8000100370041
:10103c00254ea900a0818000b181800018c0b300aa
:10104c0002002000031f24004cfe07000000e000fb
:10105c0001003c000044eb000804e00002003200f8
:10106c0064eea8000100370064eea900c081800086
:10107c00d181800018c0b30002002000031f24009f
:10108c003efe07000000e00001003c000044eb00c5
:10109c000804e0000200320064cea80051ff3700c3
:1010ac0064cea9004fff37000000fa0014d0bf0037
:1010bc000080fb00cf80de00b20020000300200087
:1010cc00820f5000838f580060003e000006010024
:1010dc000b003700140037001d00370027003700c5
:1010ec002800370031003700320037003b00370052
:1010fc003c003700460037004700370051003700ee
:10110c000c30ef000e30ef000001eb006000b80077
:10111c00bd020700120020006000b800ba020700f0
:10112c0010c0b30014f0b7006280800073808000a0
:10113c00803e200001002000800f5100818f59005b
:10114c004500360020c0b30014f0b7004300370050
:10115c000001eb000000200001172400aa02070088
:10116c00120020000000200001172400a602070036
:10117c0030c0b30014f0b700380037003900070056
:10118c00360037000001eb0000002000011724009e
:10119c009d020700120020006000b8009a020700b0
:1011ac0050c0b30014f0b7002c0037002d0007001e
:1011bc002a0037000001eb006000b8009202070023
:1011cc001200200000002000011724008e020700ee
:1011dc0070c0b30014f0b7002000370021000700e6
:1011ec001e0037000001eb00000020000117240056
:1011fc0085020700120020000000200001172c00bf
:10120c008102070090c0b30014f0b7001300370040
:10121c0014000700110037000001eb000000200053
:10122c0001172c007802070012002000000020009b
:10123c000117240074020700b0c0b30014f0b7000b
:10124c000600370007000700040037001470ef0099
:10125c000000000001003700000000000080fa00d0
:10126c00000006000200fa00881f78000040eb0026
:10127c00004f7800408180005181800018c0b3007d
:10128c0002002000031f2400bafd07000000e0004c
:10129c00010035000044eb000804e00019003200a6
:1012ac00808180009181800018c0b3000200200072
:1012bc00031a2400b1fd07000000e00001003c000f
:1012cc000044eb000804e0000e003200a081800016
:1012dc00b181800018c0b30002002000031f24005d
:1012ec00a6fd07000000e00001003c000044eb00fc
:1012fc000804e0000300320020c0b300004f780067
:10130c0055003700408180005181800018c0b30027
:10131c0002002000031f240098fd07000000e000dd
:10132c0001003c000044eb000804e000190032000e
:10133c00808180009181800018c0b30002002000e1
:10134c00031a24008dfd07000000e00001003c00a2
:10135c000044eb000804e0000e003200a081800085
:10136c00b181800018c0b30002002000031f2400cc
:10137c0080fd07000000e000010035000044eb0098
:10138c000804e0000300320010c0b300004f7800e6
:10139c0031003700808180009181800018c0b3003b
:1013ac0002002000031a240072fd07000000e00078
:1013bc00010035000044eb000804e000030032009b
:1013cc0030c0b300004f780023003700408180000c
:1013dc005181800018c0b30002002000031f2400bc
:1013ec0066fd07000000e00001003c000044eb003b
:1013fc000804e00018003200808180009181800098
:10140c0018c0b30002002000031a24005bfd070083
:10141c000000e00001003c000044eb000804e00088
:10142c000d003200a0818000b181800018c0b30093
:10143c0002002000031f240050fd07000000e00004
:10144c0001003c000044eb000804e0000200320004
:10145c000040eb00004f78001e4078000004e000d4
:10146c0003003a0020c0b30015f0b700110037009c
:10147c001e407800e24f500003003a0040c0b30019
:10148c0015f0b7000b0037001e407800e14f5000fc
:10149c0003003a0060c0b30015f0b7000500370038
:1014ac001e407800e34f500002003a0080c0b300a9
:1014bc0015f0b70015d0bf0014f0b7004f0478003a
:1014cc000080fa00000006000000fa0013e1a900f9
:1014dc0011e1a9001061a8001021a9008108800069
:1014ec00f0fc2f0000806000800888000a21ef00cb
:1014fc000621ef00404c20007008880000402b00b3
:10150c00600888002142800080ff2f00008060006e
:10151c000000a000204288000108a9002108a800b2
:10152c0011e1a8000080fa00000006000400fa0097
:10153c00881f78000000200081242400008fbe004a
:10154c0005e1a9000421a90050c32000100888005f
:10155c000068a9002068a80005e1a8002108800007
:10156c00f0fc2f0000806000200888001e0178002d
:10157c009e0190000040220041a72400bbfc070004
:10158c0018c0b30002f02f00f3772400fbfc070017
:10159c000000e00001003c000044eb000804e00007
:1015ac005400320021088000f0fc2f000080600005
:1015bc000040a000200888001e0178009e019000c9
:1015cc000040220041a72400a8fc070002002000d4
:1015dc0003102400a5fc070018c0b30002f02f0074
:1015ec00f3772400e5fc07000000e00001003c005c
:1015fc000044eb000804e0003200320021088000b7
:10160c00f0fc2f00008060000050a0002008880033
:10161c001e0178009e0190000040220041a724008a
:10162c0092fc070002002000032824008ffc070016
:10163c0018c0b30002f02f00f3772400cffc070092
:10164c000000e00001003c000044eb000804e00056
:10165c0010003200210880000003200001007000ff
:10166c00200888001e0178009e0190000040220096
:10167c0041a724007dfc0700020020000338240051
:10168c007afc0700bffc07000000780010088800f7
:10169c00200037001e0178009e01900000402200bf
:1016ac0041a7240071fc070002002000032824003d
:1016bc006efc0700b3fc07000000780010088800df
:1016cc00140037001e0178009e019000004022009b
:1016dc0041a7240065fc0700020020000310240031
:1016ec0062fc0700a7fc07000000780010088800c7
:1016fc00080037001e0178009e0190000040220077
:10170c0041a7240059fc07009efc0700000078004c
:10171c00100888004f0478000080fa0000000600d2
:10172c000400fa00881f780000002000a147240064
:10173c00008fbe001fe1a9001e21a90050c320008c
:10174c00d00888000368a9002368a8001fe1a8003e
:10175c00f1088000f0fc2f0000806000f008880089
:10176c001e0178009e0190000040220041a7240039
:10177c003efc070018c0b30002f02f00f3772400e2
:10178c007efc07000000e00001003c000044eb0080
:10179c000804e00054003200f1088000f0fc2f0037
:1017ac00008060000040a000f00888001e01780056
:1017bc009e0190000040220041a724002bfc070052
:1017cc00020020000310240028fc070018c0b300fe
:1017dc0002f02f00f377240068fc07000000e00003
:1017ec0001003c000044eb000804e0003200320031
:1017fc00f1088000f0fc2f00008060000050a00079
:10180c00f00888001e0178009e0190000040220024
:10181c0041a7240015fc0700020020000328240027
:10182c0012fc070018c0b30002f02f00f37724005d
:10183c0052fc07000000e00001003c000044eb00fb
:10184c000804e00010003200f108800000032000c2
:10185c0001007000f00888001e0178009e019000c5
:10186c000040220041a7240000fc070002002000d9
:10187c0003382400fdfb070042fc07000000780041
:10188c00d0088800200037001e0178009e019000cf
:10189c000040220041a72400f4fb070002002000b6
:1018ac0003282400f1fb070036fc07000000780039
:1018bc00d0088800140037001e0178009e019000ab
:1018cc000040220041a72400e8fb07000200200092
:1018dc0003102400e5fb07002afc07000000780039
:1018ec00d0088800080037001e0178009e01900087
:1018fc000040220041a72400dcfb070021fc07006c
:10190c0000007800d00888004f0478000080fa00ae
:10191c00000006000000fa001160800080ff2f001c
:10192c00008060001060880000fa200020608800b1
:10193c0023aca800238ca80011618000f03f2f007d
:10194c000080600000a0a000106188003000200022
:10195c0020618800c3aca800c38ca800116680006d
:10196c00f03f2f000080600000a0a00010668800ef
:10197c00300020002066880001eca8000080fa00ee
:10198c00000006000000fa00889fbe002481800041
:10199c0035818000008180001181800018c0b30067
:1019ac000001be000400be00f2fb07000000e000d6
:1019bc00010035000044eb000804e0000d0032008b
:1019cc00088180001981800024818000358180008d
:1019dc0080808000918080000001be000400be0069
:1019ec0045fb07000801be00c600070020818800e7
:1019fc003181880024818000358180000081800045
:101a0c001181800018c0b3000001be000400be00ac
:101a1c00dafb07000000e00001003c000044eb0092
:101a2c000804e0000d00320008818000198180005c
:101a3c00248180003581800080808000918080002e
:101a4c000001be000400be002afb07000801be0016
:101a5c00940007002081880031818800208180005b
:101a6c003181800018c0b3006011b800c3fb0700bf
:101a7c000000e00001003c000044eb000804e00022
:101a8c0004003200c3eca90024cea800c3cca800eb
:101a9c0003003700c3cca90024eea800c3eca800b7
:101aac002081800031818000680007000200200046
:101abc000322240044fc0700d3fb0700000078003d
:101acc0030668800e4808000f5808000c080800053
:101adc00d180800018c0b3000001be000400be001d
:101aec00a4fb07000000e000010035000044eb00ff
:101afc000804e0000d003200c8808000d98080000e
:101b0c00e4808000f58080008080800091808000df
:101b1c000001be000400be00f7fa07000801be0079
:101b2c0078000700e0808800f1808800e480800065
:101b3c00f5808000c0808000d180800018c0b30088
:101b4c000001be000400be008cfb07000000e0009a
:101b5c0001003c000044eb000804e0000d003200e2
:101b6c00c8808000d9808000e4808000f5808000ef
:101b7c0080808000918080000001be000400be00c7
:101b8c00dcfa07000801be0046000700e080880070
:101b9c00f1808800e0808000f180800018c0b300e4
:101bac006011b80075fb07000000e00001003c006c
:101bbc000044eb000804e0000400320023cca90030
:101bcc0015eea80023eca8000300370023eca900b5
:101bdc0015cea80023cca800e0808000f180800006
:101bec001a0007000200200003222400f6fb070065
:101bfc0085fb070000007800306188004f04be00b0
:101c0c000080fa00000006000600fa00008fbe00fb
:101c1c00220798002e0090000000e00005003a001a
:101c2c001e0178009e0190000281880013818800bb
:101c3c00040037001e0178009e019000c2808800cd
:101c4c00d38088000080fa00000006000400fa002f
:101c5c00881f7800008fbe0018c0b3006011b80058
:101c6c001e0078009e00900044fb07000000e0007e
:101c7c0001003d000044eb000804e00003003200ca
:101c8c001e0078009e009000030037001e007800b4
:101c9c009e00900001f0a2004f0478000080fa0032
:101cac00000006000800fa00881f7800008fbe00b4
:101cbc00220798003307980018c0b3002e0190003b
:101ccc00be0190001e0078009e0090002bfb0700c8
:101cdc000000e00001003c000044eb000804e000c0
:101cec00030032001e0078009e00900002003700b6
:101cfc002e009000be0090004f0478000080fa0087
:101d0c00000006000800fa00881f7800008fbe0053
:101d1c00220798003307980018c0b3002e019000da
:101d2c00be0190001e0078009e00900011fb070081
:101d3c000000e000010035000044eb000804e00066
:101d4c00030032001e0078009e0090000200370055
:101d5c002e009000be0090004f0478000080fa0026
:101d6c00000006000c00fa00881f7800008fbe00ef
:101d7c0022079800330798004407980055079800ed
:101d8c0018c0b3004e019000de0190001e007800d8
:101d9c009e009000f9fa07000000e00001003c00f2
:101dac000044eb000804e000040032004e019000f7
:101dbc00de019000028fbe000e00370018c0b30089
:101dcc002e019000be0190001e0078009e00900035
:101ddc00e8fa07000000e000010035000044eb00c9
:101dec000804e000030032002e019000be019000b8
:101dfc00028fbe001e0078009e0090004f047800f9
:101e0c000080fa00000006000400fa00008fbe00fb
:101e1c00b2fd2000930424001e0078009e00900068
:101e2c0092fa0700020020004333240066fb0700ef
:101e3c000080fa00000006000400fa00008fbe00cb
:101e4c00b2fd2000930424001e0078009e00900038
:101e5c005dfb0700020020004333240083fa0700d7
:101e6c000080fa00000006000000fa0021e3a9003f
:101e7c002143a80001198000f0cf2f0000806000e2
:101e8c00001988002043a90001198000000e2000d1
:101e9c00010070000019880011198000f0ff21006a
:101eac0000806000101988002343a80011198000dd
:101ebc00f0cf2f00008060001019880011198000ed
:101ecc0030f82f00008060000030a000101988004e
:101edc002203a9002223a90025e3a900f0c0b30026
:101eec0024e3b70021198000f00f2e0080806000e1
:101efc0000f0200001007000201988003303a900b5
:101f0c004feea8002e0ea8002f6ea8006f2ea80072
:101f1c001e2ea80031e3a80030c3a8003163a8002e
:101f2c002e03a8003063a8004119800000fc2f008c
:101f3c00008060004019880028e3a90001a8a900ce
:101f4c0021a8a80021e3a8000080fa0000000600e8
:101f5c000000fa002023a8000080fa000000060010
:101f6c000000fa00200021000080fa0000000600aa
:101f7c000000fa000ad0bf000080fa000000060042
:101f8c000000fa000a70ef000080fa000000060062
:101f9c000000fa00f0032000303a8800213a80005b
:101fac00f0f32f0000806000203a8800213a800076
:101fbc0000fe2f00008060000000a000203a880086
:101fcc001200200080072000a1092000337420009b
:101fdc00804978008149780082497800103a800065
:101fec00000178000200a0006004200071052000b0
:101ffc002374200080497800814978008249780058
:10200c0000000000113a8000000027008080600072
:10201c0000002100808f5000faff3a000000000001
:10202c00113a800000022000008060000000e000f7
:0c203c00fbff32000080fa0000000600ec
:020000040000fa
:102048001410000002000000800000000c100000c6
:1020580004000000800000001610000026000000a8
:102068008000000010100000040000008200000042
:102078000000a00040000000001000000c0000005c
:082088008000000000000000d0
:020000040000fa
:102090000000fa000e2eef001e2eef002e2eef0095
:1020a0003e2eef004e2eef005e2eef006e2eef0064
:1020b000214ea90060cea90060eea90011cea900b2
:1020c00011eea90020cea90020eea9000080fa00a0
:0420d0000000060006
:020000040000fa
:02000004000af0
:04afe000cfff00009f
:020000040000fa
:02000004000af0
:04afe400ffff00006b
:020000040000fa
:02000004000af0
:04afe8007fff0000e7
:020000040000fa
:02000004000af0
:04afec005fff000003
:020000040000fa
:02000004000af0
:04aff00038ff000026
:020000040000fa
:02000004000af0
:04aff400ffff00005b
:00000001FF
