:020000040000fa
:080000000002040000000000f2
:020000040000fa
:04000800de03000013
:020000040000fa
:04000c00de0300000f
:020000040000fa
:04001000de0300000b
:020000040000fa
:04001400de03000007
:020000040000fa
:04001800de03000003
:020000040000fa
:04001c00de030000ff
:020000040000fa
:04002000de030000fb
:020000040000fa
:04002400de030000f7
:020000040000fa
:04002800de030000f3
:020000040000fa
:04002c00de030000ef
:020000040000fa
:04003000de030000eb
:020000040000fa
:0400340002030000c3
:020000040000fa
:04003800de030000e3
:020000040000fa
:04003c00de030000df
:020000040000fa
:04004000de030000db
:020000040000fa
:04004400de030000d7
:020000040000fa
:04004800fa020000b8
:020000040000fa
:04004c00de030000cf
:020000040000fa
:04005000de030000cb
:020000040000fa
:040054009a0300000b
:020000040000fa
:040058007003000031
:020000040000fa
:04005c004c03000051
:020000040000fa
:04006000de030000bb
:020000040000fa
:04006400de030000b7
:020000040000fa
:04006800de030000b3
:020000040000fa
:04006c00de030000af
:020000040000fa
:04007000de030000ab
:020000040000fa
:04007400de030000a7
:020000040000fa
:04007800de030000a3
:020000040000fa
:04007c00de0300009f
:020000040000fa
:04008000de0300009b
:020000040000fa
:04008400de03000097
:020000040000fa
:04008800de03000093
:020000040000fa
:04008c00de0300008f
:020000040000fa
:04009000de0300008b
:020000040000fa
:040094002203000043
:020000040000fa
:04009800de03000083
:020000040000fa
:04009c00de0300007f
:020000040000fa
:0400a000de0300007b
:020000040000fa
:0400a400de03000077
:020000040000fa
:0400a800de03000073
:020000040000fa
:0400ac00de0300006f
:020000040000fa
:0400b000de0300006b
:020000040000fa
:0400b400de03000067
:020000040000fa
:0400b800de03000063
:020000040000fa
:0400bc00de0300005f
:020000040000fa
:0400c000de0300005b
:020000040000fa
:0400c400de03000057
:020000040000fa
:0400c800de03000053
:020000040000fa
:0400cc00de0300004f
:020000040000fa
:0400d000de0300004b
:020000040000fa
:0400d400de03000047
:020000040000fa
:0400d800de03000043
:020000040000fa
:0400dc00de0300003f
:020000040000fa
:0400e000de0300003b
:020000040000fa
:0400e400de03000037
:020000040000fa
:0400e800de03000033
:020000040000fa
:0400ec00de0300002f
:020000040000fa
:0400f000de0300002b
:020000040000fa
:0400f400de03000027
:020000040000fa
:0400f800de03000023
:020000040000fa
:0400fc00de0300001f
:020000040000fa
:04010000de0300001a
:020000040000fa
:04010400de03000016
:020000040000fa
:04010800de03000012
:020000040000fa
:04010c00de0300000e
:020000040000fa
:04011000de0300000a
:020000040000fa
:04011400de03000006
:020000040000fa
:04011800de03000002
:020000040000fa
:04011c00de030000fe
:020000040000fa
:04012000de030000fa
:020000040000fa
:04012400de030000f6
:020000040000fa
:04012800de030000f2
:020000040000fa
:04012c00de030000ee
:020000040000fa
:04013000de030000ea
:020000040000fa
:04013400de030000e6
:020000040000fa
:04013800de030000e2
:020000040000fa
:04013c00de030000de
:020000040000fa
:04014000de030000da
:020000040000fa
:04014400de030000d6
:020000040000fa
:04014800de030000d2
:020000040000fa
:04014c00de030000ce
:020000040000fa
:04015000de030000ca
:020000040000fa
:04015400de030000c6
:020000040000fa
:04015800de030000c2
:020000040000fa
:04015c00de030000be
:020000040000fa
:04016000de030000ba
:020000040000fa
:04016400de030000b6
:020000040000fa
:04016800de030000b2
:020000040000fa
:04016c00de030000ae
:020000040000fa
:04017000de030000aa
:020000040000fa
:04017400de030000a6
:020000040000fa
:04017800de030000a2
:020000040000fa
:04017c00de0300009e
:020000040000fa
:04018000de0300009a
:020000040000fa
:04018400de03000096
:020000040000fa
:04018800de03000092
:020000040000fa
:04018c00de0300008e
:020000040000fa
:04019000de0300008a
:020000040000fa
:04019400de03000086
:020000040000fa
:04019800de03000082
:020000040000fa
:04019c00de0300007e
:020000040000fa
:0401a000de0300007a
:020000040000fa
:0401a400de03000076
:020000040000fa
:0401a800de03000072
:020000040000fa
:0401ac00de0300006e
:020000040000fa
:0401b000de0300006a
:020000040000fa
:0401b400de03000066
:020000040000fa
:0401b800de03000062
:020000040000fa
:0401bc00de0300005e
:020000040000fa
:0401c000de0300005a
:020000040000fa
:0401c400de03000056
:020000040000fa
:0401c800de03000052
:020000040000fa
:0401cc00de0300004e
:020000040000fa
:0401d000de0300004a
:020000040000fa
:0401d400de03000046
:020000040000fa
:0401d800de03000042
:020000040000fa
:0401dc00de0300003e
:020000040000fa
:0401e000de0300003a
:020000040000fa
:0401e400de03000036
:020000040000fa
:0401e800de03000032
:020000040000fa
:0401ec00de0300002e
:020000040000fa
:0401f000de0300002a
:020000040000fa
:0401f400de03000026
:020000040000fa
:0401f800de03000022
:020000040000fa
:0401fc00de0300001e
:020000040000fa
:04020000de03000019
:020000040000fa
:04020400de03000015
:020000040000fa
:04020800de03000011
:020000040000fa
:04020c00de0300000d
:020000040000fa
:04021000de03000009
:020000040000fa
:04021400de03000005
:020000040000fa
:04021800de03000001
:020000040000fa
:04021c00de030000fd
:020000040000fa
:04022000de030000f9
:020000040000fa
:04022400de030000f5
:020000040000fa
:04022800de030000f1
:020000040000fa
:04022c00de030000ed
:020000040000fa
:04023000de030000e9
:020000040000fa
:04023400de030000e5
:020000040000fa
:04023800de030000e1
:020000040000fa
:04023c00de030000dd
:020000040000fa
:04024000de030000d9
:020000040000fa
:04024400de030000d5
:020000040000fa
:04024800de030000d1
:020000040000fa
:04024c00de030000cd
:020000040000fa
:04025000de030000c9
:020000040000fa
:04025400de030000c5
:020000040000fa
:04025800de030000c1
:020000040000fa
:04025c00de030000bd
:020000040000fa
:04026000de030000b9
:020000040000fa
:04026400de030000b5
:020000040000fa
:04026800de030000b1
:020000040000fa
:04026c00de030000ad
:020000040000fa
:04027000de030000a9
:020000040000fa
:04027400de030000a5
:020000040000fa
:04027800de030000a1
:020000040000fa
:04027c00de0300009d
:020000040000fa
:04028000de03000099
:020000040000fa
:10040000af1d21000eff27000e0188000000000034
:10041000000020000000e000020032000001200087
:100420002002880014000700e60007000000e0003a
:1004300003003a00808621000100200002003700fe
:100440000000200001002000810f70000100320038
:100450000f000700000020000000e0000200320052
:10046000000002000000000056070200000000002b
:100470000040da000000fe00c00020000000e000a4
:1004800002003200002020009001880000000600d9
:10049000a1028800800478000000eb001f003700f4
:1004a000e284440054a0b4009905ba00e2844400f8
:1004b00054a0b4009906ba00e284440054a0b400e9
:1004c0000006eb00476fde00fd07b200ae018800ba
:1004d000636ce10003003a000ad801000000eb0061
:1004e0000e003700606ce10008003a00004deb00a0
:1004f0000a05e800020039003420ec000af0a000f0
:100500008b05e900f9ff3e00040037006168e10057
:10051000010032000086eb000b00070019c7ba008b
:100520000e04e0001905ba0003003a000a00e000da
:10053000dbff3a0000000600fe07b200ae028800b2
:100540008a047800f5ff37000cd0a300e20f4d00bd
:100550001c00390089027800354dba000a05e80010
:10056000020039003420ec000af0a0008b05e900fd
:100570000f003200254dba000a05e80002003900dc
:100580003420ec000af0a0008b05e90008003200de
:100590000c00e0000600320015cdba000a05e800a4
:1005a000020039003420ec000af0a0008b05e900bd
:1005b0008984e80054a0b4000b00e000e2ff3a0098
:1005c000000006009902ba00055d78008b05e9007d
:1005d000f7ff3200c82ade00055d78008b05e900d0
:1005e000f3ff32000c00e000f1ff320019ddba0029
:1005f000eeff37000000fa000108a9000080fa00b1
:10060000004006003600f800809fbe00829fbe00ba
:10061000849fbe00869fbe000000fa000068a9000b
:10062000220a07004c0807000080fa004f03be00b2
:100630004f02be004f01be004f00be003600f90061
:10064000004006003600f800809fbe00829fbe007a
:10065000849fbe00869fbe000000fa000368a900c8
:10066000c0808000d180800061004000e0804800b0
:10067000c0808800d1808800e10207000080fa0075
:100680004f03be004f02be004f01be004f00be0030
:100690003600f90000400600801f78000000fa00d4
:1006a00001a8a90000188000808e88001018800022
:1006b000908e880020188000a08e8800301880005e
:1006c000b08e880040188000c08e880010c0b30033
:1006d00027f0b7000080fa004f00780000400600c5
:1006e0003600f800809fbe00829fbe00849fbe003f
:1006f000869fbe000000fa000188a900a18080004a
:1007000090808000808f5000020032008b0907002b
:10071000010037001670ef000080fa004f03be00a2
:100720004f02be004f01be004f00be003600f90070
:10073000004006003600f800809fbe00829fbe0089
:10074000849fbe00869fbe000000fa000168a900d9
:1007500010118000640060000000e0000100320021
:100760002242a90010118000620060000000e00039
:10077000060032002222a900050037003011800057
:1007800000407800d9090700010037000000000090
:1007900010118000610060000000e000f7ff3a00e7
:1007a0000080fa004f03be004f02be004f01be00a2
:1007b0004f00be003600f900004006000040da009d
:1007c0000000fe000000050003f0a200889fbe00ac
:1007d0008a9fbe008c1f7800180107001f0133009c
:1007e0006450e1004f0032006420e100520032000a
:1007f00003826c0007003b000905d0000306d0000f
:10080000820f54000c065d00020039000200320025
:1008100089017800030678008582550004003d00b8
:100820000003fd008103fd008502ea008b85420084
:10083000840f720002003b0060001000e08018008e
:100840006011b8000005eb007a28e1000a003900c9
:1008500006007800c75ddd00f707b20087807500ed
:100860002d003700828171000a0178006105600067
:100870008180d1000080d3008502e900f9ff3b00b0
:10088000060440008784480002003b006004140016
:10089000e0841c000988a300070032008a817100ef
:1008a00082817100610164008904d1000884d30051
:1008b0008b05e800170037000978a30013003a0001
:1008c0000b00e000130034008b05e900080444002d
:1008d00089844c000a4474000978a3000d003a0092
:1008e0000b00e000070034008b05e9000804440019
:1008f00089844c0001003a000b0020000978a30015
:10090000f7ff32000001eb00020037008281710026
:100910000a0178008e0007000cf0a70001f0a0008b
:10092000d70037006420e10002003a00838f6c009a
:10093000d70033000801be000200be00d00037001f
:10094000889fbe008a9fbe008c1f7800bb000700f6
:10095000c200330003866c006450e1002e003200b8
:100960006420e100330032006150e1002f003200ca
:100970006120e1003100320085855500eb07b000b1
:100980000900200008042000050037000804440086
:1009900089844c000a0031000603430087834b0022
:1009a0000001530081815b00f8ff33000203be00a9
:1009b0000800a0000804440089844c00f6ff3900b8
:1009c000c639dd00830173000100320013002000ee
:1009d0008904d1000884d3000998a30005003200df
:1009e0000800a7000300a0008904d1000884d300f8
:1009f0008b05e8008904d1000884d3000001eb00d6
:100a00000281d2005200070001f0a1000cf0a70003
:100a100001f0a0009a0037006420e1009c00320041
:100a20000801be000200be00f7ff37006120e100b0
:100a3000970032006000b800f3ff3700000020008c
:100a400001f82700f0ff370014002000c70037002e
:100a5000f4ff2f00c50037000001be006200070050
:100a60000470a70003f0a1006509b1001600320070
:100a70000d0035006828e10006003500f0ff2f006a
:100a8000f1ff27000300e00013003b0001002800f5
:100a90000000050000004000818048008502e90058
:100aa000fcff3a0008003700f88f420002003c00cb
:100ab0008000eb00000005008100d1000080d30021
:100ac0008502e800fcff3a000300e00002003b0062
:100ad00060001000e0801800000006000001be0069
:100ae000410007000470a70003f0a10003f8a30071
:100af00013003a006509b10010003200090035000a
:100b00006928e1000200350001002800000005000e
:100b100000004000818048008502e900fcff3a00a7
:100b200000000600f88f4200050035008100d1006a
:100b30000080d3008502e800fcff3a0000000600b8
:100b40008000eb00000005006011b800a200370033
:100b500081002000618055000b003d000b0020004b
:100b600061fe2f000100e1001d0034008281710050
:100b7000610164008904d1000884d3000000e8000a
:100b8000faff3a0071002000610064000300700069
:100b9000020060000900320061044400e0844c005f
:100ba0000988a500050032008b05e8006808e1000f
:100bb00002003a008904d1000884d300f20f20001b
:100bc0000258e10005003d00c75ddd00f907b200f5
:100bd0008980750008007800000006000bf82700e7
:100be0008b00780000000500c70ade00f107b200a4
:100bf000f50fb20008003200e1cf420002003200df
:100c00000170a00024000500810f70000100320077
:100c10000408050044000500810f700002003a003e
:100c2000140005008502e9000000400081c0480072
:100c3000fcff3b000170a000240005000004be0082
:100c4000e9ff07000003be000405be000200be006d
:100c5000e5ff0700844f7500000006000200be009b
:100c60006450e100050036006420e1000200360017
:100c70000968a30001003a000800be000160a0005e
:100c80004f0678004f05be004f04be00000006006e
:100c9000f0ff2f00f1ff2700f9ff3700889fbe000b
:100ca0008a9fbe008c1f7800e4ff0700ebff330033
:100cb00003866c006450e100240032006420e100ef
:100cc000270032006150e100220032006120e10083
:100cd000210032008b854200eb07b1000134b800df
:100ce000003ab8000804420089844a00013ab8007a
:100cf0000030b8008880400009014a000400330039
:100d00000000400081804800020149008b05e90095
:100d1000c909dd00830170000100320013002000ca
:100d2000c814de004814dd004709de001200b200de
:100d3000c808de000884700085ff070001f0a100ec
:100d40000cf0a70001f0a000cdff37006120e1000a
:100d5000cfff32000801be000200be00f7ff3700df
:100d60006150e100fcff3a00c9ff3700889fbe00d8
:100d70008a9fbe00841f7800b0ff07004f007800f4
:100d800011003300f0ff2f00838f6c0006003b0042
:100d9000040565000a00a7000800370009f0a60056
:100da0001000200008003700820f5400838f5c0081
:100db000030039001000200001003e000000200068
:100dc00009f0a7000000ea004f05be004f04be0076
:100dd0000000e00000000600889fbe008a9fbe0061
:100de000008270000402710004827100260032004b
:100df0000004be000200be006011b8006b092000b4
:100e0000950220000182cf000a0039000541b1009f
:100e10000082cf00070039000541b1000982cf00f0
:100e2000040039000541b1000882cf0001003900fb
:100e30000541b10005425200120032000a003b0099
:100e400082817100610164008100d1000080d300c3
:100e50008984d3000884d3008b05e8000442e800ad
:100e6000f7ff3a00070037000804440089844c006b
:100e700000004800818048008b05e9000442e90039
:100e8000f9ff3a0032ff07004f05be004f04be00d5
:040e90000000060058
:020000040000fa
:100e940061750000746f0000006d0000616e000059
:080ea400756500006c00000000
:020000040000fa
:100eac000600fa00b5080700df0807000b0607006c
:100ebc00c1070700290307000f030700a20307005f
:100ecc004c080700fe070700e14f500083003a0072
:100edc00ff070700f6070700000f78001e007800d8
:100eec00100078008000eb0014ff07003233230061
:100efc003305240066ff070002002000035824007d
:100f0c008cfe0700d2cc2c00c304240060ff070029
:100f1c0010079800210798001e019000ae01900068
:100f2c00000020008120240082fe07000200200027
:100f3c00030a240021fe0700008e8800118e880011
:100f4c001e80e800100078008000eb00fbfe07001c
:100f5c0032332300330524004dff0700020020002c
:100f6c000358240073fe0700d2cc2c00c3042400c9
:100f7c0047ff070010079800210798001e019000fa
:100f8c00ae019000000020008120240069fe0700c3
:100f9c0002002000030a240008fe0700e08d8800f0
:100fac00f18d88009e00780064804000100078006d
:100fbc008000eb00e1fe07003233230033052400f0
:100fcc0033ff0700020020000358240059fe0700dd
:100fdc00d2cc2c00c30424002dff0700100798006e
:100fec00210798001e019000ae0190000000200027
:100ffc00812024004ffe070002002000030a240079
:10100c00eefd0700208e8800318e88009e0078004f
:10101c0068804000100078008000eb00c7fe0700dd
:10102c00323323003305240019ff0700020020008f
:10103c00035824003ffe0700d2cc2c00c30424002c
:10104c0013ff070010079800210798001e0190005d
:10105c00ae019000000020008120240035fe070026
:10106c0002002000030a2400d4fd0700408e8800f3
:10107c00518e88009e007800668040001000780039
:10108c008000eb00adfe0700323323003305240053
:10109c00fffe0700020020000358240025fe070075
:1010ac00d2cc2c00c3042400f9fe070010079800d2
:1010bc00210798001e019000ae0190000000200056
:1010cc00812024001bfe070002002000030a2400dc
:1010dc00bafd0700608e8800718e88000430ef0026
:1010ec000a0037009207070006f0b70006d0bf00d1
:1010fc001b0407001100200060002100ce06070031
:10110c00208080000000e80020808800b3070700e2
:10111c008000780020808000808f5000f1ff3e001e
:10112c0000482800e10120005b08070065ff37003c
:10113c000200fa00004f78001e4178007100210077
:10114c00824878000080fa00000006000600fa00d1
:10115c00404798004e4090000004e0000f003a0019
:10116c000870ef00a0742800000f78000430ef0026
:10117c00060037000e00780011002000ae060700b4
:10118c00208080000000e800208088002080800003
:10119c00e30f5000f7ff3600140037004e4090006c
:1011ac00e14f500011003a0010c0b30008f0b70036
:1011bc00f0742800100798000430ef000600370088
:1011cc000e80e800110020009b06070020808000a4
:1011dc000000e8002080880020808000e50f50008f
:1011ec00f7ff3600c0c0b30007f0b7000080fa006c
:1011fc00000006000000fa0000808000e10f5000a3
:10120c0006003a00f00020002081880064cea9007e
:10121c0064eea900254ea800110037000080800064
:10122c00e20f500006003a004001200020818800a7
:10123c0064cea80064eea900254ea9000800370072
:10124c0000808000e30f500005003a00e001200010
:10125c002081880064cea90064eea800254ea90068
:10126c0007d0bf000080fb00cf80de0072012000a1
:10127c0003002000820f5000838f5800b9003e00fd
:10128c00000601001700370020003700320037003d
:10129c0041003700690037007200370073003700d7
:1012ac007c0037007d00370087003700880037004e
:1012bc00920037001f003700ad00370038003700b0
:1012cc0042003700430037004d0037004e00370016
:1012dc00580037008b00370094003700950037001a
:1012ec009e0037001830ef001a30ef000001eb00c1
:1012fc006000b800b6050700120020006000b800be
:10130c00b305070010c0b30007f0b700c28080001f
:10131c00d3808000803e200001002000800f51000f
:10132c00818f59009400360020c0b30007f0b7003d
:10133c00920037000001eb006000b800a405070024
:10134c00120020006000b800a1050700d0c0b30057
:10135c0007f0b70089003700108080000000e8001b
:10136c0010808800208180008000eb00f3fd0700d6
:10137c000001eb0096050700208180008000eb0047
:10138c00eefd0700120020009105070030c0b300ed
:10139c0007f0b700790037007a00070077003700b4
:1013ac000001eb000000200001172c00880507004d
:1013bc00120020000000200001172c0084050700fb
:1013cc00f0c0b30007f0b7006c0037006d000700e9
:1013dc006a0037000001eb00000020000117240018
:1013ec007b050700120020000000200001102400e3
:1013fc007705070010c1b30007f0b7005f00370096
:10140c00600007005d0037000001eb0000002000c9
:10141c00011024006e0507001200200000002000bf
:10142c00011724006a05070030c1b30007f0b700ac
:10143c005200370053000700500037000001eb004a
:10144c000000200001172400610507001200200095
:10145c006000b8005e05070050c0b30007f0b7008d
:10146c004600370047000700440037000001eb003e
:10147c006000b80056050700120020000000200094
:10148c00011724005205070070c0b30007f0b70025
:10149c003a0037003b000700380037000001eb0032
:1014ac000000200001122400490507001200200052
:1014bc000000200001122c004505070090c0b3006d
:1014cc0007f0b7002d0037002e0007002b00370067
:1014dc000001eb000000200001122c003c0507006d
:1014ec001200200000002000011224003805070023
:1014fc00b0c0b30007f0b700200037002100070090
:10150c001e0037000001eb00000020000110240039
:10151c002f050700120020006000b8002c05070002
:10152c0050c1b30007f0b7001400370015000700d6
:10153c00120037000001eb006000b8002405070022
:10154c0012002000000020000110240020050700dc
:10155c0070c1b30007f0b70008003700090007009e
:10156c00060037000770ef00000000000300370092
:10157c000000000001003700000000000080fa00ad
:10158c00000006000200fa00881f780008d0bf0097
:10159c00e14f5000e9003a000040eb00004f7800aa
:1015ac00608e8000718e800018c0b3000200200095
:1015bc00031a240021fd07000000e00001003500a3
:1015cc000044eb000804e0002c003a00408e800040
:1015dc00518e800018c0b30002002000031f2400ad
:1015ec0016fd07000000e000010035000044eb0090
:1015fc000804e00021003a00208e8000318e80002b
:10160c0018c0b30002002000c32024000bfd07000b
:10161c000000e000010035000044eb000804e0008d
:10162c0016003a00e08d8000f18d800018c0b300e8
:10163c0002002000031f240000fd07000000e00052
:10164c00010035000044eb000804e0000b003a00f8
:10165c00008e8000118e800018c0b30002002000a4
:10166c00031a2400f5fc07000000e000010035001f
:10167c000044eb000804e0000500320010002000dc
:10168c000080880035030700004f78007300370096
:10169c00608e8000718e800018c0b30002002000a4
:1016ac0003222400e5fc07000000e00001003500e7
:1016bc000044eb000804e0002c003a00408e80004f
:1016cc00518e800018c0b300020020008324240037
:1016dc00dafc07000000e000010035000044eb00dc
:1016ec000804e00021003a00208e8000318e80003a
:1016fc0018c0b3000200200003272400cffc070011
:10170c000000e000010035000044eb000804e0009c
:10171c0016003a00e08d8000f18d800018c0b300f7
:10172c000200200083242400c4fc07000000e00019
:10173c00010035000044eb000804e0000b003a0007
:10174c00008e8000118e800018c0b30002002000b3
:10175c0003222400b9fc07000000e0000100350062
:10176c000044eb000804e0000300320020002000dd
:10177c000080880039003700608e8000718e8000f8
:10178c0018c0b3000200200003222400adfc0700a7
:10179c000000e00001003d000044eb000804e00004
:1017ac002c003a00408e8000518e800018c0b3008f
:1017bc000200200083242400a2fc07000000e000ab
:1017cc0001003d000044eb000804e00021003a0059
:1017dc00208e8000318e800018c0b30002002000e3
:1017ec000327240097fc07000000e00001003d00e7
:1017fc000044eb000804e00016003a00e08d800085
:10180c00f18d800018c0b300020020008324240056
:10181c008cfc07000000e00001003d000044eb00e0
:10182c000804e0000b003a00008e8000118e80004e
:10183c0018c0b300020020000322240081fc070022
:10184c000000e00001003d000044eb000804e00053
:10185c000200320030002000008088001e4078001a
:10186c000004e00003003a0020c0b30009f0b70008
:10187c00300037001e407800e34f500003003a0060
:10188c0000c1b30009f0b7002a0037001e407800f1
:10189c00e14f500003003a0020c1b30009f0b7003b
:1018ac00240037001e407800e44f500003003a003b
:1018bc0040c0b30009f0b7001e0037001e4078008e
:1018cc00e24f500003003a0060c0b30009f0b700cb
:1018dc00180037001e407800e54f50000a003a000f
:1018ec0010808000610060000000e00003003a00fe
:1018fc0080c0b30009f0b7000e003700a0c0b300e1
:10190c0009f0b7000b0037001e407800e64f50007e
:10191c0003003a0040c1b30009f0b70005003700de
:10192c001e407800e74f500002003a0060c1b3003f
:10193c0009f0b70009d0bf0007f0b7004f047800da
:10194c000080fa00000006001200fa00889fbe001a
:10195c000000eb00000f7800e08d8000f18d80001e
:10196c005bfc070080447800208e8000318e800064
:10197c0057fc070000447800408e8000518e800098
:10198c0053fc07000040780029479800384798001e
:10199c0040479800608d8000718d80004cfc0700e2
:1019ac0000447800a08d8000b18d800048fc0700b9
:1019bc0000407800584798006047980020718000dc
:1019cc004a00de006140600011c0b300714798000e
:1019dc00004f9800207380004700de0061406000db
:1019ec0021c0b300114f9800204f98002073800045
:1019fc004600de006140600031c0b300314f9800fa
:101a0c00404f980071002100914078001e01780031
:101a1c006d004100017778001e0fe8009e007800f1
:101a2c006d8040008040eb00017778001e0fe800cd
:101a3c001e0178006d0041008040eb0001777800ba
:101a4c001e0fe8009e0078006d8040008040eb0087
:101a5c00017778001e0fe800c0808000d1808000e4
:101a6c00804078001e0178006d00410001777800fd
:101a7c001e0fe8000e80e800000178003100200005
:101a8c00000320005d01070065004700000178009d
:101a9c0021002000000420005801070067004700c7
:101aac0000017800210020000002200053010700f3
:101abc00690047000001780021002000000220008e
:101acc004e0107006b004700000178002100200048
:101adc0000022000490107006d004700000178005a
:101aec005100200000052000440107004f04be00f7
:101afc000080fa00000006000000fa0013e1a900c3
:101b0c0011e1a9001061a8001021a9008108800032
:101b1c00f0fc2f0000806000800888000a21ef0094
:101b2c000621ef00404c20007008880000402b007c
:101b3c00600888002142800080ff2f000080600038
:101b4c000000a000204288000108a9002108a8007c
:101b5c0011e1a8000080fa00000006000000fa0065
:101b6c0005e1a9000421a90000002000a1372400f0
:101b7c00050007000068a9002068a80005e1a8007e
:101b8c000080fa00000006000400fa00881f7800ac
:101b9c00008fbe001e0178009e0190000068290095
:101bac0081c1240063fb070018c0b30002f02f00b2
:101bbc00f3772400a3fb07000000e00001003c00c9
:101bcc000044eb000804e0005400320021088000bf
:101bdc00f0fc2f00008060000040a000200888006e
:101bec001e0178009e0190000068290081c124002c
:101bfc0050fb070002002000031024004dfb0700df
:101c0c0018c0b30002f02f00f37724008dfb0700ff
:101c1c000000e00001003c000044eb000804e00080
:101c2c003200320021088000f0fc2f0000806000a0
:101c3c000050a000200888001e0178009e01900032
:101c4c000068290081c124003afb07000200200033
:101c5c000328240037fb070018c0b30002f02f0044
:101c6c00f377240077fb07000000e00001003c0044
:101c7c000044eb000804e000100032002108800052
:101c8c000003200001007000200888001e0178006d
:101c9c009e0190000068290081c1240025fb0700eb
:101cac00020020000338240022fb070067fb07001a
:101cbc000000780010088800200037001e01780012
:101ccc009e0190000068290081c1240019fb0700c7
:101cdc00020020000328240016fb07005bfb070012
:101cec000000780010088800140037001e017800ee
:101cfc009e0190000068290081c124000dfb0700a3
:101d0c0002002000031024000afb07004ffb070011
:101d1c000000780010088800080037001e017800c9
:101d2c009e0190000068290081c1240001fb07007e
:101d3c0046fb070000007800100888004f0478006c
:101d4c000080fa00000006000000fa001fe1a90064
:101d5c0000002000a1472400060007001e21a90056
:101d6c000368a9002368a8001fe1a8000080fa00fe
:101d7c00000006000400fa00881f7800008fbe00e7
:101d8c00f1088000f0fc2f0000806000f008880053
:101d9c001e0178009e0190000068290081c124007a
:101dac00e4fa070018c0b30002f02f00f377240008
:101dbc0024fb07000000e00001003c000044eb00a5
:101dcc000804e00054003200f1088000f0fc2f0001
:101ddc00008060000040a000f00888001e01780020
:101dec009e0190000068290081c12400d1fa0700ef
:101dfc000200200003102400cefa070018c0b30024
:101e0c0002f02f00f37724000efb07000000e00027
:101e1c0001003c000044eb000804e00032003200fa
:101e2c00f1088000f0fc2f00008060000050a00042
:101e3c00f00888001e0178009e01900000682900bf
:101e4c0081c12400bbfa07000200200003282400f3
:101e5c00b8fa070018c0b30002f02f00f377240083
:101e6c00f8fa07000000e00001003c000044eb0021
:101e7c000804e00010003200f1088000000320008c
:101e8c0001007000f00888001e0178009e0190008f
:101e9c000068290081c12400a6fa07000200200076
:101eac0003382400a3fa0700e8fa070000007800c2
:101ebc00d0088800200037001e0178009e01900099
:101ecc000068290081c124009afa07000200200052
:101edc000328240097fa0700dcfa070000007800ba
:101eec00d0088800140037001e0178009e01900075
:101efc000068290081c124008efa0700020020002e
:101f0c00031024008bfa0700d0fa070000007800b9
:101f1c00d0088800080037001e0178009e01900050
:101f2c000068290081c1240082fa0700c7fa070063
:101f3c0000007800d00888004f0478000080fa0078
:101f4c00000006000a00fa002007980031079800ec
:101f5c0042079800e0cfb300204798002e00900075
:101f6c004880de00804078002e40900000c0680061
:101f7c00204798002e009000804078002e40900062
:101f8c0000c06800204798003e0090004880de00aa
:101f9c00804078002e40900000c0680020479800d8
:101fac003e009000804078002e40900000c06800f9
:101fbc00204798000000eb00000f78000800370065
:101fcc001e007800ce009000008040001040780089
:101fdc00ae40900000c06800204798001e0fe8003b
:101fec003e0090009e007800808f5000f4ff35007a
:101ffc002e4090000080fa00000006000e00fa004f
:10200c00889fbe004007980051079800620798000f
:10201c000f0478000f007800800478000000eb00bb
:10202c00000f78005e009000660040008000e90020
:10203c00210798000000e8000000e8000000d10033
:10204c00800040000f007800818747000000e80006
:10205c000000d10000004000300798003e009000c6
:10206c001e004000e1cfb300014878001e0fe800cd
:10207c004e0090004880de00804078003e009000ca
:10208c001e004000014878001e0fe8004e00900032
:10209c00804078003e0090001e004000014878000f
:1020ac001e0fe8005e0090004880de008040780043
:1020bc003e0090001e004000014878001e0fe80012
:1020cc005e009000804078003e0090001e004000b2
:1020dc00014878001e0fe8000000eb001007980084
:1020ec000b0037001e009000ee00900000804000b6
:1020fc00904078003e0090001e004000014878009f
:10210c001e0fe8001e0090000000e8001007980069
:10211c009e0090005e009000808f5000f1ff350013
:10212c006e019000de0090004e00900085ff0700cd
:10213c00be0090009e804000804878001e0fe80092
:10214c003e0090009e007800bb02070089077800d3
:10215c00880778004f04be000080fa0000000600db
:10216c000400fa002047980080808000e30f5000a4
:10217c0023003200e30f500005003e00e10f500039
:10218c0013003200e10f500015003e00070037002d
:10219c00e50f50002d003200e50f50001c003900f7
:1021ac00e60f500038003200490037002e409000f6
:1021bc00e24f400002003a001000200080808800ae
:1021cc000a30ef000e30ef000c30ef004400370007
:1021dc000a30ef002000200080808800400037008b
:1021ec002e4090008080fb005080800000804000da
:1021fc005080880030002000808088003800370034
:10220c000c30ef0040002000808088003400370044
:10221c002e4090008080fb00608080000080400099
:10222c0060808800608080000000e00004003200c4
:10223c000e30ef005000200080808800280037000e
:10224c0060002000808088002500370070808000ae
:10225c00a112210000804000ae409000014878009f
:10226c00708080000000e800708088007180800021
:10227c0060808000808f50001800350060002000c6
:10228c008080880016003700ae409000014f780027
:10229c006180800050808000a212210029ff07007d
:1022ac00104798001e4090009e4f500006003a00c8
:1022bc006080800080407800508080000040780072
:1022cc00a2122100080007001030ef0004003700b4
:1022dc001030ef000000000001003700000000008b
:1022ec000080fa00000006000400fa00004f78009d
:1022fc0011479800120798001e80fb001105200062
:10230c00810f50000400320021052000810f500085
:10231c000c0032000f0037001e00900010407800b7
:10232c0083fb07001e009000104078000080fb002b
:10233c000001780011002000300520002fff07005d
:10234c00040037001e009000104078007ffb07004f
:10235c00000000000080fa00000006000000fa00f7
:10236c00881f7800408e8000518e800018c0b3000a
:10237c0002002000831c2400b0f907000000e000dc
:10238c00010035000044eb000804e0000e003200b0
:10239c00e08d8000f18d800018c0b3000200200099
:1023ac00831c2400a5f907000000e00001003500a3
:1023bc000044eb000804e000030032005000200051
:1023cc0040818800c1003700208e8000318e800053
:1023dc0018c0b30002002000c320240097f90700a6
:1023ec000000e000010035000044eb000804e000b0
:1023fc00030032005000200040818800b3003700f9
:10240c00408e8000518e800018c0b3000200200066
:10241c00c320240089f907000000e000010035000a
:10242c000044eb000804e00019003200208e80000c
:10243c00318e800018c0b30002002000831c2400e1
:10244c0080f907000000e00001003c000044eb00b4
:10245c000804e0000e003200e08d8000f18d800059
:10246c0018c0b30002002000c320240075f9070037
:10247c000000e00001003c000044eb000804e00018
:10248c000300320020002000408188008f003700bc
:10249c00408e8000518e800018c0b30002002000d6
:1024ac00c320240067f907000000e00001003c0095
:1024bc000044eb000804e00019003200208e80007c
:1024cc00318e800018c0b30002002000831c240051
:1024dc005cf907000000e00001003c000044eb0048
:1024ec000804e0000e003200e08d8000f18d8000c9
:1024fc0018c0b30002002000c32024004ff90700cd
:10250c000000e000010035000044eb000804e0008e
:10251c000300320040002000408188006b0037002f
:10252c00608e8000718e800018c0b3000200200005
:10253c000312240041f907000000e00001003500ff
:10254c000044eb000804e00041003200008e8000e3
:10255c00118e800018c0b30002002000031224006a
:10256c0036f907000000e000010035000044eb00e4
:10257c000804e00036003200648e8000758e800006
:10258c00008e8000118e800018c0b3000001be00c8
:10259c000400be0029f907000000e000010035002e
:1025ac000044eb000804e0000b003a00408e800071
:1025bc00518e800018c0b30002002000030a2400d2
:1025cc001ef907000000e000010035000044eb009c
:1025dc000804e00003003200600020004081880005
:1025ec003a003700648e8000758e8000008e80006b
:1025fc00118e800018c0b3000001be000400be00a4
:10260c0010f907000000e00001003c000044eb0062
:10261c000804e0000b003a00e08d8000f18d800092
:10262c0018c0b30002002000030a240003f90700bd
:10263c000000e000010035000044eb000804e0005d
:10264c002100320070002000408188001f003700fc
:10265c00608e8000718e800018c0b30002002000d4
:10266c0003172400f5f807000000e0000100350016
:10267c000044eb000804e0000300320010002000ce
:10268c004081880011003700008e8000118e800080
:10269c0018c0b3000200200003172400e7f807005d
:1026ac000000e000010035000044eb000804e000ed
:1026bc000300320030002000408188000300370006
:1026cc002830ef000100370000000000408180003e
:1026dc004f0478000080fa00000006000000fa00a9
:1026ec001160800080ff2f00008060001060880067
:1026fc0000fa20002060880023aca800238ca800de
:10270c0011618000f03f2f000080600000a0a0004d
:10271c00106188003000200020618800c3aca80044
:10272c00c38ca80011668000f03f2f000080600071
:10273c0000a0a000106688003000200020668800f1
:10274c0001eca8000080fa00000006000000fa006e
:10275c00889fbe00c48d8000d58d8000a08d800028
:10276c00b18d800018c0b3000001be000400be0093
:10277c00b2f807000000e000010035000044eb0057
:10278c000804e0000d003200a88d8000b98d800097
:10279c00c48d8000d58d8000e0808000f1808000a9
:1027ac000001be000400be0005f807000801be00d1
:1027bc00c8000700c08d8800d18d8800c48d8000b2
:1027cc00d58d8000a08d8000b18d800018c0b30025
:1027dc000001be000400be009af807000000e000f3
:1027ec0001003c000044eb000804e0000d00320046
:1027fc00a88d8000b98d8000c48d8000d58d80009f
:10280c00e0808000f18080000001be000400be006a
:10281c00eaf707000801be0096000700c08d88008b
:10282c00d18d8800c08d8000d18d800018c0b30080
:10283c006011b80083f807000000e00001003c00c4
:10284c000044eb000804e00004003200c3eca900d3
:10285c0024cea800c3cca80003003700c3cca90029
:10286c0024eea800c3eca800c08d8000d18d8000a0
:10287c006a000700020020000322240004f907006c
:10288c0093f807000000780030668800848d800083
:10289c00958d8000608d8000718d800018c0b30014
:1028ac000001be000400be0064f807000000e00058
:1028bc00010035000044eb000804e0000d0032007c
:1028cc00688d8000798d8000848d8000958d8000ce
:1028dc00e0808000f18080000001be000400be009a
:1028ec00b7f707000801be007a000700808d88004a
:1028fc00918d8800848d8000958d8000608d800086
:10290c00718d800018c0b3000001be000400be0031
:10291c004cf807000000e00001003c000044eb0014
:10292c000804e0000d003200688d8000798d800075
:10293c00848d8000958d8000e0808000f180800087
:10294c000001be000400be009cf707000801be0099
:10295c0048000700808d8800918d8800808d800054
:10296c00918d800018c0b3006011b80035f80700d5
:10297c000000e00001003c000044eb000804e00013
:10298c000400320023cca90015eea80023eca8000b
:10299c000300370023eca90015cea80023cca80017
:1029ac00808d8000918d80001c00070002002000ab
:1029bc0003222400b6f8070045f807000000780051
:1029cc00306188004f04be000080fa000000060051
:1029dc000600fa00008fbe00220798002e0090001f
:1029ec000000e00006003a001e0078009e009000f7
:1029fc0001f0a200a08d8800b18d88000500370081
:102a0c001e0078009e00900001f0a200608d8800ee
:102a1c00718d88000080fa00000006000400fa00a6
:102a2c00881f7800008fbe0018c0b3006011b8007a
:102a3c001e0078009e00900002f807000000e000e5
:102a4c0001003d000044eb000804e00003003200ec
:102a5c001e0078009e009000030037001e007800d6
:102a6c009e00900001f0a2004f0478000080fa0054
:102a7c00000006000800fa00881f7800008fbe00d6
:102a8c00220798003307980018c0b3002e0190005d
:102a9c00be0190001e0078009e009000e9f7070030
:102aac000000e00001003c000044eb000804e000e2
:102abc00030032001e0078009e00900002003700d8
:102acc002e009000be0090004f0478000080fa00a9
:102adc00000006000800fa00881f7800008fbe0076
:102aec00220798003307980018c0b3002e019000fd
:102afc00be0190001e0078009e009000cff70700ea
:102b0c000000e000010035000044eb000804e00088
:102b1c00030032001e0078009e0090000200370077
:102b2c002e009000be0090004f0478000080fa0048
:102b3c00000006000c00fa00881f7800008fbe0011
:102b4c00220798003307980044079800550798000f
:102b5c0018c0b3004e019000de0190001e007800fa
:102b6c009e009000b7f707000000e00001003c0059
:102b7c000044eb000804e000040032004e01900019
:102b8c00de019000028fbe000e00370018c0b300ab
:102b9c002e019000be0190001e0078009e00900057
:102bac00a6f707000000e000010035000044eb0030
:102bbc000804e000030032002e019000be019000da
:102bcc00028fbe001e0078009e0090004f0478001b
:102bdc000080fa00000006000400fa00008fbe001e
:102bec00b2fd2000930424001e0078009e0090008b
:102bfc0050f70700020020004333240024f807009c
:102c0c000080fa00000006000400fa00008fbe00ed
:102c1c00b2fd2000930424001e0078009e0090005a
:102c2c001bf80700020020004333240041f7070083
:102c3c000080fa00000006000600fa001007980059
:102c4c00210798000040eb00004f7800540007006b
:102c5c00ae009000810f5000110034000040eb00da
:102c6c00004f7800060037001e80fb009e0090008d
:102c7c0000804000104078000b0007001e4fe80059
:102c8c009e80fb002e009000808f5000f6ff3500d8
:102c9c00300007000004e00001003a0024000700a7
:102cac000080fa00000006000200fa00004f7800d5
:102cbc0090808000a1022100008040001e48780016
:102ccc0091808000e0072000808f500002003400cb
:102cdc001230ef0003003700908080000000e80005
:102cec00908088000080fa00000006000200fa00c4
:102cfc00a0808000a102210000804000104f7800cd
:102d0c00a1808000e0072000808f5000020034007a
:102d1c001430ef0003003700a08080000000e800b2
:102d2c00a08088001e4078000080fa000000060099
:102d3c000200fa0010c0b30016f0b700ebff07005a
:102d4c00004f78001e80fb00201188000080fa00e4
:102d5c00000006000000fa0016d0bf000080fa0048
:102d6c00000006000000fa0091808000a080800026
:102d7c00808f50000400350091808000a08080007e
:102d8c00008050000400370091808000a0808000fb
:102d9c00008050000008b0000080fa00000006001f
:102dac000000fa00efff070001082000008050002f
:102dbc000080fa00000006000000fa0021e3a900e0
:102dcc002143a80001198000f0cf2f000080600083
:102ddc00001988002043a90001198000000e200072
:102dec00010070000019880011198000f0ff21000b
:102dfc0000806000101988002343a800111980007e
:102e0c00f0cf2f000080600010198800111980008d
:102e1c0030f82f00008060000040a00010198800de
:102e2c002203a9002223a90025e3a900f0c0b300c6
:102e3c0024e3b70021198000f00f2e008080600081
:102e4c0000f0200001007000201988003303a90055
:102e5c004feea8002e0ea8002f6ea8006f2ea80013
:102e6c001e2ea80031e3a80030c3a8003163a800cf
:102e7c002e03a8003063a8004119800000fc2f002d
:102e8c00008060004019880028e3a90001a8a9006f
:102e9c0021a8a80021e3a8000080fa000000060089
:102eac000000fa002023a8000080fa0000000600b1
:102ebc000000fa00001d21000080fa00000006004e
:102ecc000000fa0027d0bf000080fa0000000600c6
:102edc000000fa002770ef000080fa0000000600e6
:102eec000200fa00004f78002c0007000000e00000
:102efc000d00340000818000a10a210000804000f8
:102f0c001e48780001818000e0072000808f50006f
:102f1c00020034002030ef000300370000818000f5
:102f2c000000e800008188000080fa000000060024
:102f3c000200fa0010818000a10a210000804000ec
:102f4c00104f780011818000e0072000808f500026
:102f5c00020034002230ef000300370010818000a3
:102f6c000000e800108188001e4078000080fa0004
:102f7c00000006000000fa00018180001081800032
:102f8c00808f50000200320010c0b30001003700e7
:102f9c000040eb000080fa00000006000000fa0080
:102fac000181800010818000808f5000050034006a
:102fbc001181800000818000008050000008b0006a
:102fcc0004003700018180001081800000805000d7
:102fdc000008b0000080fa00000006000000fa00b3
:102fec00eeff070001082000008050000080fa006e
:102ffc00000006000000fa002002a9000111800068
:10300c0090ff2f00008060000011880020a2a90012
:10301c002062a800500520004011880023a2a900be
:10302c0023e2a9000188a9002188a80011118000c1
:10303c00f0f32f0000806000101188000168a900d7
:10304c002168a80021e2a8002342a8000080fa0011
:10305c00000006000600fa001007980021079800ef
:10306c000040eb00004f78000040eb00004f780070
:10307c000e0037000000000011118000002020001d
:10308c00008060000000e000fbff3a001e00900092
:10309c00104078000080fb00201188001e0090007a
:1030ac000000e800100798001e4fe8009e80fb000f
:1030bc002e009000808f5000eeff35000080fa004b
:0430cc0000000600fa
:020000040000fa
:1030d000001000000a000000800000002410000022
:1030e00002000000820000000f0000001810000025
:1030f0000400000080000000aa110000260000006b
:10310000800000001c10000004000000820000008d
:103110000000700041000000d01100000a00000013
:103120008000000026100000020000008000000067
:103130002810000002000000800000002a1000009b
:103140008000000080000000121000000600000057
:1031500080000000aa100000800000008000000035
:103160002010000004000000800000002a11000070
:1031700080000000800000000a100000080000002d
:083180008000000000000000c7
:020000040000fa
:103188000000fa00f0032000303a8800213a80005d
:10319800f0f32f0000806000203a8800213a800078
:1031a80000fe2f00008060000000a000203a880088
:1031b8001200200080072000a1092000337420009d
:1031c800804978008149780082497800103a800067
:1031d800000178000200a0006004200071052000b2
:1031e800237420008049780081497800824978005a
:1031f80000000000113a8000000027008080600075
:1032080000002100808f5000faff3a000000000003
:10321800113a800000022000008060000000e000f9
:10322800fbff32000080fa00000006000000fa00f0
:103238000e2eef001e2eef002e2eef003e2eef007a
:103248004e2eef005e2eef006e2eef00214ea900ed
:1032580060cea90060eea90011cea90011eea90068
:1032680020cea90020eea900002ea800213680005b
:1032780000f82f00008060008001b300203688002d
:103288001134800000fc2f00008060000000a000c6
:0c329800103488000080fa0000000600de
:020000040000fa
:1032a400f03fb1000180b10006003500ee030900d3
:1032b40000000000403fb1000180b100fbff3d0071
:1032c4001000b000203fb00002003500008009006b
:0832d4000000000000000600ec
:020000040000fa
:02000004000af0
:04afe000cfff00009f
:020000040000fa
:02000004000af0
:04afe400ffff00006b
:020000040000fa
:02000004000af0
:04afe8007fff0000e7
:020000040000fa
:02000004000af0
:04afec005fff000003
:020000040000fa
:02000004000af0
:04aff00038ff000026
:020000040000fa
:02000004000af0
:04aff400ffff00005b
:00000001FF
